{
  "contractName": "MyPFPlandv2",
  "abi": [
    {
      "anonymous": false,
      "inputs": [
        {
          "indexed": true,
          "internalType": "address",
          "name": "owner",
          "type": "address"
        },
        {
          "indexed": true,
          "internalType": "address",
          "name": "approved",
          "type": "address"
        },
        {
          "indexed": true,
          "internalType": "uint256",
          "name": "tokenId",
          "type": "uint256"
        }
      ],
      "name": "Approval",
      "type": "event"
    },
    {
      "anonymous": false,
      "inputs": [
        {
          "indexed": true,
          "internalType": "address",
          "name": "owner",
          "type": "address"
        },
        {
          "indexed": true,
          "internalType": "address",
          "name": "operator",
          "type": "address"
        },
        {
          "indexed": false,
          "internalType": "bool",
          "name": "approved",
          "type": "bool"
        }
      ],
      "name": "ApprovalForAll",
      "type": "event"
    },
    {
      "anonymous": false,
      "inputs": [
        {
          "indexed": true,
          "internalType": "address",
          "name": "from",
          "type": "address"
        },
        {
          "indexed": true,
          "internalType": "address",
          "name": "to",
          "type": "address"
        },
        {
          "indexed": true,
          "internalType": "uint256",
          "name": "tokenId",
          "type": "uint256"
        }
      ],
      "name": "Transfer",
      "type": "event"
    },
    {
      "inputs": [],
      "name": "_contractURI",
      "outputs": [
        {
          "internalType": "string",
          "name": "",
          "type": "string"
        }
      ],
      "stateMutability": "view",
      "type": "function"
    },
    {
      "inputs": [],
      "name": "_owner",
      "outputs": [
        {
          "internalType": "address",
          "name": "",
          "type": "address"
        }
      ],
      "stateMutability": "view",
      "type": "function"
    },
    {
      "inputs": [],
      "name": "allowMetadataForAllReserved",
      "outputs": [
        {
          "internalType": "bool",
          "name": "",
          "type": "bool"
        }
      ],
      "stateMutability": "view",
      "type": "function"
    },
    {
      "inputs": [
        {
          "internalType": "address",
          "name": "to",
          "type": "address"
        },
        {
          "internalType": "uint256",
          "name": "tokenId",
          "type": "uint256"
        }
      ],
      "name": "approve",
      "outputs": [],
      "stateMutability": "nonpayable",
      "type": "function"
    },
    {
      "inputs": [
        {
          "internalType": "address",
          "name": "owner",
          "type": "address"
        }
      ],
      "name": "balanceOf",
      "outputs": [
        {
          "internalType": "uint256",
          "name": "",
          "type": "uint256"
        }
      ],
      "stateMutability": "view",
      "type": "function"
    },
    {
      "inputs": [],
      "name": "baseURI",
      "outputs": [
        {
          "internalType": "string",
          "name": "",
          "type": "string"
        }
      ],
      "stateMutability": "view",
      "type": "function"
    },
    {
      "inputs": [
        {
          "internalType": "uint256",
          "name": "",
          "type": "uint256"
        }
      ],
      "name": "collectionAddressByIndex",
      "outputs": [
        {
          "internalType": "address",
          "name": "",
          "type": "address"
        }
      ],
      "stateMutability": "view",
      "type": "function"
    },
    {
      "inputs": [
        {
          "internalType": "address",
          "name": "",
          "type": "address"
        },
        {
          "internalType": "uint256",
          "name": "",
          "type": "uint256"
        }
      ],
      "name": "collectionIndicesByAddress",
      "outputs": [
        {
          "internalType": "uint256",
          "name": "",
          "type": "uint256"
        }
      ],
      "stateMutability": "view",
      "type": "function"
    },
    {
      "inputs": [
        {
          "internalType": "uint256",
          "name": "",
          "type": "uint256"
        }
      ],
      "name": "collectionRectByIndex",
      "outputs": [
        {
          "components": [
            {
              "internalType": "uint256",
              "name": "x",
              "type": "uint256"
            },
            {
              "internalType": "uint256",
              "name": "y",
              "type": "uint256"
            }
          ],
          "internalType": "struct MyPFPlandv2.Point",
          "name": "leftBottom",
          "type": "tuple"
        },
        {
          "components": [
            {
              "internalType": "uint256",
              "name": "x",
              "type": "uint256"
            },
            {
              "internalType": "uint256",
              "name": "y",
              "type": "uint256"
            }
          ],
          "internalType": "struct MyPFPlandv2.Point",
          "name": "rightTop",
          "type": "tuple"
        }
      ],
      "stateMutability": "view",
      "type": "function"
    },
    {
      "inputs": [
        {
          "internalType": "uint256",
          "name": "tokenId",
          "type": "uint256"
        }
      ],
      "name": "getApproved",
      "outputs": [
        {
          "internalType": "address",
          "name": "",
          "type": "address"
        }
      ],
      "stateMutability": "view",
      "type": "function"
    },
    {
      "inputs": [
        {
          "internalType": "address",
          "name": "owner",
          "type": "address"
        },
        {
          "internalType": "address",
          "name": "operator",
          "type": "address"
        }
      ],
      "name": "isApprovedForAll",
      "outputs": [
        {
          "internalType": "bool",
          "name": "",
          "type": "bool"
        }
      ],
      "stateMutability": "view",
      "type": "function"
    },
    {
      "inputs": [],
      "name": "isOpenPayment",
      "outputs": [
        {
          "internalType": "bool",
          "name": "",
          "type": "bool"
        }
      ],
      "stateMutability": "view",
      "type": "function"
    },
    {
      "inputs": [],
      "name": "isPausedClaimingDerivative",
      "outputs": [
        {
          "internalType": "bool",
          "name": "",
          "type": "bool"
        }
      ],
      "stateMutability": "view",
      "type": "function"
    },
    {
      "inputs": [],
      "name": "isPausedClaimingLand",
      "outputs": [
        {
          "internalType": "bool",
          "name": "",
          "type": "bool"
        }
      ],
      "stateMutability": "view",
      "type": "function"
    },
    {
      "inputs": [],
      "name": "isPausedClaimingPainting",
      "outputs": [
        {
          "internalType": "bool",
          "name": "",
          "type": "bool"
        }
      ],
      "stateMutability": "view",
      "type": "function"
    },
    {
      "inputs": [],
      "name": "isPausedClaimingRoyal",
      "outputs": [
        {
          "internalType": "bool",
          "name": "",
          "type": "bool"
        }
      ],
      "stateMutability": "view",
      "type": "function"
    },
    {
      "inputs": [],
      "name": "isPausedClaimingStatteute",
      "outputs": [
        {
          "internalType": "bool",
          "name": "",
          "type": "bool"
        }
      ],
      "stateMutability": "view",
      "type": "function"
    },
    {
      "inputs": [],
      "name": "isPausedClaimingToy",
      "outputs": [
        {
          "internalType": "bool",
          "name": "",
          "type": "bool"
        }
      ],
      "stateMutability": "view",
      "type": "function"
    },
    {
      "inputs": [
        {
          "internalType": "uint256",
          "name": "",
          "type": "uint256"
        }
      ],
      "name": "landDerivativeBalance",
      "outputs": [
        {
          "internalType": "uint256",
          "name": "",
          "type": "uint256"
        }
      ],
      "stateMutability": "view",
      "type": "function"
    },
    {
      "inputs": [
        {
          "internalType": "uint256",
          "name": "",
          "type": "uint256"
        },
        {
          "internalType": "uint256",
          "name": "",
          "type": "uint256"
        }
      ],
      "name": "landDerivativeMetadataOf",
      "outputs": [
        {
          "internalType": "address",
          "name": "collectionAddress",
          "type": "address"
        },
        {
          "internalType": "uint256",
          "name": "tokenID",
          "type": "uint256"
        }
      ],
      "stateMutability": "view",
      "type": "function"
    },
    {
      "inputs": [
        {
          "internalType": "uint256",
          "name": "",
          "type": "uint256"
        }
      ],
      "name": "landRoyalMetadataOf",
      "outputs": [
        {
          "internalType": "uint256",
          "name": "collectionID",
          "type": "uint256"
        },
        {
          "internalType": "uint256",
          "name": "tokenID",
          "type": "uint256"
        }
      ],
      "stateMutability": "view",
      "type": "function"
    },
    {
      "inputs": [],
      "name": "name",
      "outputs": [
        {
          "internalType": "string",
          "name": "",
          "type": "string"
        }
      ],
      "stateMutability": "view",
      "type": "function"
    },
    {
      "inputs": [
        {
          "internalType": "uint256",
          "name": "",
          "type": "uint256"
        }
      ],
      "name": "oldTokenIDUsed",
      "outputs": [
        {
          "internalType": "bool",
          "name": "",
          "type": "bool"
        }
      ],
      "stateMutability": "view",
      "type": "function"
    },
    {
      "inputs": [
        {
          "internalType": "uint256",
          "name": "tokenId",
          "type": "uint256"
        }
      ],
      "name": "ownerOf",
      "outputs": [
        {
          "internalType": "address",
          "name": "",
          "type": "address"
        }
      ],
      "stateMutability": "view",
      "type": "function"
    },
    {
      "inputs": [
        {
          "internalType": "address",
          "name": "from",
          "type": "address"
        },
        {
          "internalType": "address",
          "name": "to",
          "type": "address"
        },
        {
          "internalType": "uint256",
          "name": "tokenId",
          "type": "uint256"
        }
      ],
      "name": "safeTransferFrom",
      "outputs": [],
      "stateMutability": "nonpayable",
      "type": "function"
    },
    {
      "inputs": [
        {
          "internalType": "address",
          "name": "from",
          "type": "address"
        },
        {
          "internalType": "address",
          "name": "to",
          "type": "address"
        },
        {
          "internalType": "uint256",
          "name": "tokenId",
          "type": "uint256"
        },
        {
          "internalType": "bytes",
          "name": "_data",
          "type": "bytes"
        }
      ],
      "name": "safeTransferFrom",
      "outputs": [],
      "stateMutability": "nonpayable",
      "type": "function"
    },
    {
      "inputs": [
        {
          "internalType": "address",
          "name": "operator",
          "type": "address"
        },
        {
          "internalType": "bool",
          "name": "approved",
          "type": "bool"
        }
      ],
      "name": "setApprovalForAll",
      "outputs": [],
      "stateMutability": "nonpayable",
      "type": "function"
    },
    {
      "inputs": [
        {
          "internalType": "bytes4",
          "name": "interfaceId",
          "type": "bytes4"
        }
      ],
      "name": "supportsInterface",
      "outputs": [
        {
          "internalType": "bool",
          "name": "",
          "type": "bool"
        }
      ],
      "stateMutability": "view",
      "type": "function"
    },
    {
      "inputs": [],
      "name": "symbol",
      "outputs": [
        {
          "internalType": "string",
          "name": "",
          "type": "string"
        }
      ],
      "stateMutability": "view",
      "type": "function"
    },
    {
      "inputs": [
        {
          "internalType": "uint256",
          "name": "index",
          "type": "uint256"
        }
      ],
      "name": "tokenByIndex",
      "outputs": [
        {
          "internalType": "uint256",
          "name": "",
          "type": "uint256"
        }
      ],
      "stateMutability": "view",
      "type": "function"
    },
    {
      "inputs": [
        {
          "internalType": "address",
          "name": "owner",
          "type": "address"
        },
        {
          "internalType": "uint256",
          "name": "index",
          "type": "uint256"
        }
      ],
      "name": "tokenOfOwnerByIndex",
      "outputs": [
        {
          "internalType": "uint256",
          "name": "",
          "type": "uint256"
        }
      ],
      "stateMutability": "view",
      "type": "function"
    },
    {
      "inputs": [
        {
          "internalType": "uint256",
          "name": "tokenId",
          "type": "uint256"
        }
      ],
      "name": "tokenURI",
      "outputs": [
        {
          "internalType": "string",
          "name": "",
          "type": "string"
        }
      ],
      "stateMutability": "view",
      "type": "function"
    },
    {
      "inputs": [],
      "name": "totalSupply",
      "outputs": [
        {
          "internalType": "uint256",
          "name": "",
          "type": "uint256"
        }
      ],
      "stateMutability": "view",
      "type": "function"
    },
    {
      "inputs": [
        {
          "internalType": "address",
          "name": "from",
          "type": "address"
        },
        {
          "internalType": "address",
          "name": "to",
          "type": "address"
        },
        {
          "internalType": "uint256",
          "name": "tokenId",
          "type": "uint256"
        }
      ],
      "name": "transferFrom",
      "outputs": [],
      "stateMutability": "nonpayable",
      "type": "function"
    },
    {
      "inputs": [],
      "name": "initialize",
      "outputs": [],
      "stateMutability": "nonpayable",
      "type": "function"
    },
    {
      "inputs": [
        {
          "internalType": "uint256",
          "name": "_category",
          "type": "uint256"
        },
        {
          "internalType": "uint256",
          "name": "_count",
          "type": "uint256"
        }
      ],
      "name": "claim",
      "outputs": [],
      "stateMutability": "payable",
      "type": "function"
    },
    {
      "inputs": [
        {
          "internalType": "address",
          "name": "_claimer",
          "type": "address"
        },
        {
          "internalType": "uint256",
          "name": "_category",
          "type": "uint256"
        }
      ],
      "name": "getDerivativesToClaim",
      "outputs": [
        {
          "internalType": "uint256",
          "name": "",
          "type": "uint256"
        }
      ],
      "stateMutability": "view",
      "type": "function"
    },
    {
      "inputs": [
        {
          "internalType": "bool",
          "name": "_pauseClaimingToy",
          "type": "bool"
        }
      ],
      "name": "setPauseClaimingToy",
      "outputs": [],
      "stateMutability": "nonpayable",
      "type": "function"
    },
    {
      "inputs": [
        {
          "internalType": "bool",
          "name": "_pauseClaimingPainting",
          "type": "bool"
        }
      ],
      "name": "setPauseClaimingPainting",
      "outputs": [],
      "stateMutability": "nonpayable",
      "type": "function"
    },
    {
      "inputs": [
        {
          "internalType": "bool",
          "name": "_pauseClaimingStatteute",
          "type": "bool"
        }
      ],
      "name": "setPauseClaimingStatteute",
      "outputs": [],
      "stateMutability": "nonpayable",
      "type": "function"
    },
    {
      "inputs": [
        {
          "internalType": "address[]",
          "name": "_whitelist",
          "type": "address[]"
        },
        {
          "internalType": "uint256",
          "name": "_count",
          "type": "uint256"
        }
      ],
      "name": "setBatchCameoWhitelist",
      "outputs": [],
      "stateMutability": "nonpayable",
      "type": "function"
    },
    {
      "inputs": [
        {
          "internalType": "address[]",
          "name": "_whitelist",
          "type": "address[]"
        },
        {
          "internalType": "uint256",
          "name": "_count",
          "type": "uint256"
        }
      ],
      "name": "setBatchHonoraryWhitelist",
      "outputs": [],
      "stateMutability": "nonpayable",
      "type": "function"
    },
    {
      "inputs": [
        {
          "internalType": "address[]",
          "name": "_blacklist",
          "type": "address[]"
        },
        {
          "internalType": "uint256",
          "name": "_count",
          "type": "uint256"
        }
      ],
      "name": "setBatchCameoBlacklist",
      "outputs": [],
      "stateMutability": "nonpayable",
      "type": "function"
    },
    {
      "inputs": [
        {
          "internalType": "address[]",
          "name": "_blacklist",
          "type": "address[]"
        },
        {
          "internalType": "uint256",
          "name": "_count",
          "type": "uint256"
        }
      ],
      "name": "setBatchHonoraryBlacklist",
      "outputs": [],
      "stateMutability": "nonpayable",
      "type": "function"
    },
    {
      "inputs": [
        {
          "internalType": "address[]",
          "name": "_whitelist",
          "type": "address[]"
        },
        {
          "internalType": "uint256",
          "name": "_count",
          "type": "uint256"
        }
      ],
      "name": "setBatchMekakeyWhitelist",
      "outputs": [],
      "stateMutability": "nonpayable",
      "type": "function"
    },
    {
      "inputs": [
        {
          "internalType": "address[]",
          "name": "_blacklist",
          "type": "address[]"
        },
        {
          "internalType": "uint256",
          "name": "_count",
          "type": "uint256"
        }
      ],
      "name": "setBatchMekakeyBlacklist",
      "outputs": [],
      "stateMutability": "nonpayable",
      "type": "function"
    },
    {
      "inputs": [
        {
          "internalType": "string",
          "name": "_baseURI",
          "type": "string"
        }
      ],
      "name": "setBaseURI",
      "outputs": [],
      "stateMutability": "nonpayable",
      "type": "function"
    },
    {
      "inputs": [
        {
          "internalType": "bool",
          "name": "_open",
          "type": "bool"
        }
      ],
      "name": "openPayment",
      "outputs": [],
      "stateMutability": "nonpayable",
      "type": "function"
    },
    {
      "inputs": [
        {
          "internalType": "address[]",
          "name": "_people",
          "type": "address[]"
        },
        {
          "internalType": "uint256[]",
          "name": "_amount",
          "type": "uint256[]"
        },
        {
          "internalType": "uint256",
          "name": "_count",
          "type": "uint256"
        }
      ],
      "name": "setBatchRoyalty",
      "outputs": [],
      "stateMutability": "nonpayable",
      "type": "function"
    },
    {
      "inputs": [
        {
          "internalType": "address",
          "name": "_person",
          "type": "address"
        },
        {
          "internalType": "uint256",
          "name": "_amount",
          "type": "uint256"
        }
      ],
      "name": "setRoyalty",
      "outputs": [],
      "stateMutability": "nonpayable",
      "type": "function"
    },
    {
      "inputs": [
        {
          "internalType": "address",
          "name": "_person",
          "type": "address"
        }
      ],
      "name": "royaltyOf",
      "outputs": [
        {
          "internalType": "uint256",
          "name": "",
          "type": "uint256"
        }
      ],
      "stateMutability": "view",
      "type": "function"
    },
    {
      "inputs": [],
      "name": "withdraw",
      "outputs": [],
      "stateMutability": "nonpayable",
      "type": "function"
    },
    {
      "inputs": [],
      "name": "withdrawRoyalty",
      "outputs": [],
      "stateMutability": "nonpayable",
      "type": "function"
    },
    {
      "inputs": [
        {
          "internalType": "address",
          "name": "newOwner",
          "type": "address"
        }
      ],
      "name": "transferOwnership",
      "outputs": [],
      "stateMutability": "nonpayable",
      "type": "function"
    },
    {
      "inputs": [
        {
          "internalType": "bool",
          "name": "_pauseClaimingLand",
          "type": "bool"
        }
      ],
      "name": "setPauseClaimingLand",
      "outputs": [],
      "stateMutability": "nonpayable",
      "type": "function"
    },
    {
      "inputs": [
        {
          "internalType": "bool",
          "name": "_isPausedClaimingRoyal",
          "type": "bool"
        }
      ],
      "name": "setPauseClaimingRoyal",
      "outputs": [],
      "stateMutability": "nonpayable",
      "type": "function"
    },
    {
      "inputs": [
        {
          "internalType": "bool",
          "name": "_isPausedClaimingDerivative",
          "type": "bool"
        }
      ],
      "name": "setPauseClaimingDerivative",
      "outputs": [],
      "stateMutability": "nonpayable",
      "type": "function"
    },
    {
      "inputs": [
        {
          "internalType": "uint256",
          "name": "x",
          "type": "uint256"
        },
        {
          "internalType": "uint256",
          "name": "y",
          "type": "uint256"
        },
        {
          "internalType": "uint256",
          "name": "collectionID",
          "type": "uint256"
        }
      ],
      "name": "claimLand",
      "outputs": [],
      "stateMutability": "payable",
      "type": "function"
    },
    {
      "inputs": [
        {
          "internalType": "uint256",
          "name": "tokenId",
          "type": "uint256"
        }
      ],
      "name": "landOwnerOf",
      "outputs": [
        {
          "internalType": "address",
          "name": "",
          "type": "address"
        }
      ],
      "stateMutability": "view",
      "type": "function"
    },
    {
      "inputs": [
        {
          "internalType": "uint256",
          "name": "x",
          "type": "uint256"
        },
        {
          "internalType": "uint256",
          "name": "y",
          "type": "uint256"
        },
        {
          "internalType": "uint256",
          "name": "collectionIDOfRoyalMetadata",
          "type": "uint256"
        },
        {
          "internalType": "uint256",
          "name": "tokenID",
          "type": "uint256"
        }
      ],
      "name": "updateLandRoyalMetaData",
      "outputs": [],
      "stateMutability": "nonpayable",
      "type": "function"
    },
    {
      "inputs": [
        {
          "internalType": "uint256",
          "name": "x",
          "type": "uint256"
        },
        {
          "internalType": "uint256",
          "name": "y",
          "type": "uint256"
        },
        {
          "internalType": "address",
          "name": "collectionAddrsOfDerMetadata",
          "type": "address"
        },
        {
          "internalType": "uint256",
          "name": "tokenID",
          "type": "uint256"
        }
      ],
      "name": "updateLandDerivativeMetaData",
      "outputs": [],
      "stateMutability": "nonpayable",
      "type": "function"
    },
    {
      "inputs": [
        {
          "internalType": "bool",
          "name": "_allowMetadataForAllReserved",
          "type": "bool"
        }
      ],
      "name": "setAllowMetadataForAllReserved",
      "outputs": [],
      "stateMutability": "nonpayable",
      "type": "function"
    },
    {
      "inputs": [
        {
          "internalType": "uint256",
          "name": "collectionID",
          "type": "uint256"
        },
        {
          "internalType": "uint256",
          "name": "tokenID",
          "type": "uint256"
        }
      ],
      "name": "getLandMetaData",
      "outputs": [
        {
          "internalType": "string",
          "name": "",
          "type": "string"
        }
      ],
      "stateMutability": "view",
      "type": "function"
    },
    {
      "inputs": [
        {
          "internalType": "uint256",
          "name": "x",
          "type": "uint256"
        },
        {
          "internalType": "uint256",
          "name": "y",
          "type": "uint256"
        }
      ],
      "name": "collectionIDAt",
      "outputs": [
        {
          "internalType": "uint256",
          "name": "",
          "type": "uint256"
        }
      ],
      "stateMutability": "view",
      "type": "function"
    },
    {
      "inputs": [
        {
          "internalType": "address",
          "name": "owner",
          "type": "address"
        },
        {
          "internalType": "uint256",
          "name": "collectionID",
          "type": "uint256"
        }
      ],
      "name": "totalRoyalBalanceOf",
      "outputs": [
        {
          "internalType": "uint256",
          "name": "",
          "type": "uint256"
        }
      ],
      "stateMutability": "view",
      "type": "function"
    },
    {
      "inputs": [
        {
          "internalType": "address",
          "name": "owner",
          "type": "address"
        },
        {
          "internalType": "uint256",
          "name": "index",
          "type": "uint256"
        },
        {
          "internalType": "uint256",
          "name": "collectionID",
          "type": "uint256"
        }
      ],
      "name": "royalTokenOfOwnerByIndex",
      "outputs": [
        {
          "internalType": "uint256",
          "name": "",
          "type": "uint256"
        },
        {
          "internalType": "uint256",
          "name": "",
          "type": "uint256"
        }
      ],
      "stateMutability": "view",
      "type": "function"
    },
    {
      "inputs": [
        {
          "components": [
            {
              "internalType": "uint256",
              "name": "x",
              "type": "uint256"
            },
            {
              "internalType": "uint256",
              "name": "y",
              "type": "uint256"
            }
          ],
          "internalType": "struct MyPFPlandv2.Point",
          "name": "point",
          "type": "tuple"
        },
        {
          "components": [
            {
              "components": [
                {
                  "internalType": "uint256",
                  "name": "x",
                  "type": "uint256"
                },
                {
                  "internalType": "uint256",
                  "name": "y",
                  "type": "uint256"
                }
              ],
              "internalType": "struct MyPFPlandv2.Point",
              "name": "leftBottom",
              "type": "tuple"
            },
            {
              "components": [
                {
                  "internalType": "uint256",
                  "name": "x",
                  "type": "uint256"
                },
                {
                  "internalType": "uint256",
                  "name": "y",
                  "type": "uint256"
                }
              ],
              "internalType": "struct MyPFPlandv2.Point",
              "name": "rightTop",
              "type": "tuple"
            }
          ],
          "internalType": "struct MyPFPlandv2.Rectangle",
          "name": "area",
          "type": "tuple"
        }
      ],
      "name": "isInsideCollectionRect",
      "outputs": [
        {
          "internalType": "bool",
          "name": "",
          "type": "bool"
        }
      ],
      "stateMutability": "pure",
      "type": "function"
    },
    {
      "inputs": [
        {
          "internalType": "uint256[]",
          "name": "leftBottomX",
          "type": "uint256[]"
        },
        {
          "internalType": "uint256[]",
          "name": "leftBottomY",
          "type": "uint256[]"
        },
        {
          "internalType": "uint256[]",
          "name": "rightTopX",
          "type": "uint256[]"
        },
        {
          "internalType": "uint256[]",
          "name": "rightTopY",
          "type": "uint256[]"
        },
        {
          "internalType": "address[]",
          "name": "collectionAddress",
          "type": "address[]"
        },
        {
          "internalType": "uint256",
          "name": "count",
          "type": "uint256"
        }
      ],
      "name": "setBatchCollectionRect",
      "outputs": [],
      "stateMutability": "nonpayable",
      "type": "function"
    },
    {
      "inputs": [
        {
          "internalType": "uint256[]",
          "name": "indices",
          "type": "uint256[]"
        },
        {
          "internalType": "address[]",
          "name": "collectionAddress",
          "type": "address[]"
        },
        {
          "internalType": "uint256",
          "name": "count",
          "type": "uint256"
        }
      ],
      "name": "resetBatchCollectionRect",
      "outputs": [],
      "stateMutability": "nonpayable",
      "type": "function"
    },
    {
      "inputs": [
        {
          "internalType": "uint256",
          "name": "x",
          "type": "uint256"
        },
        {
          "internalType": "uint256",
          "name": "y",
          "type": "uint256"
        }
      ],
      "name": "_encodeTokenId",
      "outputs": [
        {
          "internalType": "uint256",
          "name": "",
          "type": "uint256"
        }
      ],
      "stateMutability": "pure",
      "type": "function"
    },
    {
      "inputs": [
        {
          "internalType": "uint256",
          "name": "value",
          "type": "uint256"
        }
      ],
      "name": "_decodeTokenId",
      "outputs": [
        {
          "internalType": "uint256",
          "name": "x",
          "type": "uint256"
        },
        {
          "internalType": "uint256",
          "name": "y",
          "type": "uint256"
        }
      ],
      "stateMutability": "pure",
      "type": "function"
    },
    {
      "inputs": [
        {
          "internalType": "string",
          "name": "_contractURI_",
          "type": "string"
        }
      ],
      "name": "setContractURI",
      "outputs": [],
      "stateMutability": "nonpayable",
      "type": "function"
    },
    {
      "inputs": [],
      "name": "contractURI",
      "outputs": [
        {
          "internalType": "string",
          "name": "",
          "type": "string"
        }
      ],
      "stateMutability": "view",
      "type": "function"
    }
  ],
  "bytecode": "0x608060405234801561001057600080fd5b50615f7380620000216000396000f3fe6080604052600436106104265760003560e01c80638129fc1c11610229578063c177273d1161012e578063d678a41f116100b6578063e985e9c51161007a578063e985e9c514610c3f578063eacc74b814610c5f578063edd57e3214610c7f578063f1147bae14610c9f578063f2fde38b14610cb457610426565b8063d678a41f14610bc0578063d6e7d67b14610be0578063e6031d1b14610bf5578063e7ce6c1814610c0a578063e8a3d48514610c2a57610426565b8063c87b56dd116100fd578063c87b56dd14610b12578063c8d6ab5614610b32578063caa6626014610b52578063cbc67d3a14610b72578063d15a271b14610ba057610426565b8063c177273d14610a9f578063c31dbf9614610abf578063c349026314610adf578063c616fd4c14610af257610426565b8063a22cb465116101b1578063b607a0aa11610180578063b607a0aa14610a15578063b88d4fde14610a2a578063b9bc6ead14610a4a578063bb30d4ce14610a6a578063c0e7274014610a8a57610426565b8063a22cb465146109a0578063ab531efd146109c0578063b12df58e146109e0578063b2bdfa7b14610a0057610426565b806391ead873116101f857806391ead8731461090b578063938e3d7b1461092b57806395d89b411461094b5780639de4ff1514610960578063a05672f11461098057610426565b80638129fc1c146108a157806381c77073146108b657806388f62c12146108d65780638a3ac44d146108f657610426565b80632f745c591161032f578063572c61c3116102b75780636c0360eb116102865780636c0360eb1461081757806370a082311461082c57806374a9a21b1461084c5780637e7498971461086c5780637efa391a1461088157610426565b8063572c61c3146107a25780635bf0234d146107c257806360a6fb8f146107d75780636352211e146107f757610426565b806348743400116102fe578063487434001461070f5780634d8980f11461072f5780634f6ccce71461074f57806355f804b31461076f5780635669057d1461078f57610426565b80632f745c59146106a55780633ccfd60b146106c557806342842e0e146106da5780634587b3ee146106fa57610426565b80631b1c9c23116103b257806322751f871161038157806322751f87146105f7578063237abb891461062557806323b872dd1461064557806328331595146106655780632cd1826b1461068557610426565b80631b1c9c23146105825780631c5822fe146105a25780631f3221b4146105b757806320940d7a146105d757610426565b8063095ea7b3116103f9578063095ea7b3146104d25780630b394838146104f257806310fd332b1461051f57806314d44ea01461053f57806318160ddd1461056d57610426565b806301ffc9a71461042b57806306fdde031461046157806307f0db2514610483578063081812fc146104a5575b600080fd5b34801561043757600080fd5b5061044b610446366004614fbd565b610cd4565b6040516104589190615330565b60405180910390f35b34801561046d57600080fd5b50610476610cf7565b604051610458919061533b565b34801561048f57600080fd5b506104a361049e366004614e0d565b610d8e565b005b3480156104b157600080fd5b506104c56104c036600461513a565b610e21565b60405161045891906152aa565b3480156104de57600080fd5b506104a36104ed366004614d3e565b610e64565b3480156104fe57600080fd5b5061051261050d36600461513a565b610efc565b6040516104589190615e2b565b34801561052b57600080fd5b506104a361053a366004614d3e565b610f0e565b34801561054b57600080fd5b5061055f61055a36600461516a565b610f54565b604051610458929190615317565b34801561057957600080fd5b50610512610f97565b34801561058e57600080fd5b506104a361059d366004614e0d565b610fa8565b3480156105ae57600080fd5b5061044b611026565b3480156105c357600080fd5b506104a36105d2366004614f9d565b611036565b3480156105e357600080fd5b506104a36105f2366004614e0d565b61107e565b34801561060357600080fd5b5061061761061236600461513a565b6110fc565b604051610458929190615e34565b34801561063157600080fd5b5061044b61064036600461513a565b611115565b34801561065157600080fd5b506104a3610660366004614c23565b61112a565b34801561067157600080fd5b506104a3610680366004614e0d565b611162565b34801561069157600080fd5b506104a36106a0366004614f9d565b6111e6565b3480156106b157600080fd5b506105126106c0366004614d3e565b61122e565b3480156106d157600080fd5b506104a361125f565b3480156106e657600080fd5b506104a36106f5366004614c23565b61130d565b34801561070657600080fd5b5061044b611328565b34801561071b57600080fd5b506104c561072a36600461513a565b611338565b34801561073b57600080fd5b506104a361074a366004614f9d565b611488565b34801561075b57600080fd5b5061051261076a36600461513a565b6114d0565b34801561077b57600080fd5b506104a361078a366004614ff5565b6114ec565b6104a361079d3660046151c9565b611559565b3480156107ae57600080fd5b506104a36107bd366004614d9d565b6119dc565b3480156107ce57600080fd5b5061044b611a6b565b3480156107e357600080fd5b506104a36107f2366004614f9d565b611a7b565b34801561080357600080fd5b506104c561081236600461513a565b611ab8565b34801561082357600080fd5b50610476611ae6565b34801561083857600080fd5b50610512610847366004614bb3565b611b47565b34801561085857600080fd5b506104c561086736600461513a565b611b90565b34801561087857600080fd5b5061044b611bab565b34801561088d57600080fd5b506104a361089c366004614e56565b611bbb565b3480156108ad57600080fd5b506104a3611d27565b3480156108c257600080fd5b506105126108d1366004614d3e565b611e3a565b3480156108e257600080fd5b506104a36108f1366004614ea7565b611fb7565b34801561090257600080fd5b5061044b61216a565b34801561091757600080fd5b506104a3610926366004614e0d565b612173565b34801561093757600080fd5b506104a3610946366004614ff5565b6121f1565b34801561095757600080fd5b50610476612227565b34801561096c57600080fd5b506104a361097b366004614f9d565b612288565b34801561098c57600080fd5b5061044b61099b3660046150d3565b6122d0565b3480156109ac57600080fd5b506104a36109bb366004614d0d565b61232f565b3480156109cc57600080fd5b506105126109db36600461516a565b6123fd565b3480156109ec57600080fd5b506104766109fb36600461516a565b61240d565b348015610a0c57600080fd5b506104c5612582565b348015610a2157600080fd5b5061044b612591565b348015610a3657600080fd5b506104a3610a45366004614c63565b6125a1565b348015610a5657600080fd5b506104a3610a65366004614f9d565b6125da565b348015610a7657600080fd5b50610512610a85366004614bb3565b612622565b348015610a9657600080fd5b5061047661263d565b348015610aab57600080fd5b50610512610aba366004614d3e565b6126cb565b348015610acb57600080fd5b506104a3610ada366004614e0d565b6126f9565b6104a3610aed36600461516a565b61277d565b348015610afe57600080fd5b50610617610b0d366004614d69565b612b7a565b348015610b1e57600080fd5b50610476610b2d36600461513a565b612e29565b348015610b3e57600080fd5b50610512610b4d366004614d3e565b612f6f565b348015610b5e57600080fd5b506104a3610b6d366004614f9d565b613020565b348015610b7e57600080fd5b50610b92610b8d36600461513a565b613068565b604051610458929190615e10565b348015610bac57600080fd5b506104a3610bbb3660046151f4565b6130ae565b348015610bcc57600080fd5b506104a3610bdb366004614f9d565b61339a565b348015610bec57600080fd5b5061044b6133e2565b348015610c0157600080fd5b5061044b6133f2565b348015610c1657600080fd5b50610512610c2536600461516a565b613402565b348015610c3657600080fd5b506104766134cd565b348015610c4b57600080fd5b5061044b610c5a366004614beb565b61352e565b348015610c6b57600080fd5b506104a3610c7a36600461518b565b61355c565b348015610c8b57600080fd5b50610617610c9a36600461513a565b61376d565b348015610cab57600080fd5b506104a361379f565b348015610cc057600080fd5b506104a3610ccf366004614bb3565b6138da565b6001600160e01b0319811660009081526033602052604090205460ff165b919050565b606a8054604080516020601f6002600019610100600188161502019095169490940493840181900481028201810190925282815260609390929091830182828015610d835780601f10610d5857610100808354040283529160200191610d83565b820191906000526020600020905b815481529060010190602001808311610d6657829003601f168201915b505050505090505b90565b609d546001600160a01b03163314610dc15760405162461bcd60e51b8152600401610db890615acd565b60405180910390fd5b60005b81811015610e1b57600160b16000868685818110610dde57fe5b9050602002016020810190610df39190614bb3565b6001600160a01b03168152602081019190915260400160002080549091019055600101610dc4565b50505050565b6000610e2c8261394c565b610e485760405162461bcd60e51b8152600401610db890615a35565b506000908152606860205260409020546001600160a01b031690565b6000610e6f82611ab8565b9050806001600160a01b0316836001600160a01b03161415610ea35760405162461bcd60e51b8152600401610db890615bdf565b806001600160a01b0316610eb561395f565b6001600160a01b03161480610ed15750610ed181610c5a61395f565b610eed5760405162461bcd60e51b8152600401610db8906157ee565b610ef78383613963565b505050565b60ad6020526000908152604090205481565b609d546001600160a01b03163314610f385760405162461bcd60e51b8152600401610db890615acd565b6001600160a01b03909116600090815260a46020526040902055565b60ac6020528160005260406000208181548110610f6d57fe5b6000918252602090912060029091020180546001909101546001600160a01b039091169250905082565b6000610fa360666139d1565b905090565b609d546001600160a01b03163314610fd25760405162461bcd60e51b8152600401610db890615acd565b60005b81811015610e1b57600060b16000868685818110610fef57fe5b90506020020160208101906110049190614bb3565b6001600160a01b03168152602081019190915260400160002055600101610fd5565b609d54600160a81b900460ff1681565b609d546001600160a01b031633146110605760405162461bcd60e51b8152600401610db890615acd565b609d8054911515600160b81b0260ff60b81b19909216919091179055565b609d546001600160a01b031633146110a85760405162461bcd60e51b8152600401610db890615acd565b60005b81811015610e1b57600060a360008686858181106110c557fe5b90506020020160208101906110da9190614bb3565b6001600160a01b031681526020810191909152604001600020556001016110ab565b60ab602052600090815260409020805460019091015482565b60a16020526000908152604090205460ff1681565b61113b61113561395f565b826139dc565b6111575760405162461bcd60e51b8152600401610db890615c8e565b610ef7838383613a61565b609d546001600160a01b0316331461118c5760405162461bcd60e51b8152600401610db890615acd565b60005b81811015610e1b57600160a260008686858181106111a957fe5b90506020020160208101906111be9190614bb3565b6001600160a01b0316815260208101919091526040016000208054909101905560010161118f565b609d546001600160a01b031633146112105760405162461bcd60e51b8152600401610db890615acd565b609d8054911515600160a01b0260ff60a01b19909216919091179055565b6001600160a01b0382166000908152606560205260408120611256908363ffffffff613b8116565b90505b92915050565b609d546001600160a01b031633146112895760405162461bcd60e51b8152600401610db890615acd565b609d546040516000916001600160a01b03169047906112a790610d8b565b60006040518083038185875af1925050503d80600081146112e4576040519150601f19603f3d011682016040523d82523d6000602084013e6112e9565b606091505b505090508061130a5760405162461bcd60e51b8152600401610db890615d46565b50565b610ef7838383604051806020016040528060008152506125a1565b609d54600160b81b900460ff1681565b6040516331a9108f60e11b815260009030908190636352211e90611360908690600401615e2b565b60206040518083038186803b15801561137857600080fd5b505afa9250505080156113a8575060408051601f3d908101601f191682019092526113a591810190614bcf565b60015b61147f576040516000815260443d10156113c45750600061145f565b60046000803e60005160e01c6308c379a081146113e557600091505061145f565b60043d036004833e81513d60248201116001600160401b03821117156114105760009250505061145f565b80830180516001600160401b0381111561143157600094505050505061145f565b8060208301013d860181111561144f5760009550505050505061145f565b601f01601f191660405250925050505b8061146a5750611475565b600092505050610cf2565b3d6000803e3d6000fd5b9150610cf29050565b609d546001600160a01b031633146114b25760405162461bcd60e51b8152600401610db890615acd565b609d8054911515600160a81b0260ff60a81b19909216919091179055565b6000806114e460668463ffffffff613b8d16565b509392505050565b609d546001600160a01b031633146115165760405162461bcd60e51b8152600401610db890615acd565b61155582828080601f016020809104026020016040519081016040528093929190818152602001838380828437600092019190915250613bab92505050565b5050565b6064831115801561156b575060648211155b6115875760405162461bcd60e51b8152600401610db89061571b565b60a554600160a01b900460ff16156115b15760405162461bcd60e51b8152600401610db890615d6e565b600081815260b06020526040902054831180156115de5750600081815260b0602052604090206001015482115b80156115fb5750600081815260b060205260409020600201548311155b80156116185750600081815260b060205260409020600301548211155b6116345760405162461bcd60e51b8152600401610db890615de9565b600081815260ae60205260408120546001600160a01b0316907310daa9f4c0f985430fde4959adb2c791ef2ccf8382141561167f575033600090815260b16020526040902054611823565b6001600160a01b0382167372541ad75e05bc77c7a92304225937a8f6653372141561177b578215806116b15750826001145b806116bc5750826002145b806116c75750826003145b156116e2575033600090815260a36020526040902054611776565b6040516370a0823160e01b815282906001600160a01b038216906370a08231906117109033906004016152aa565b60206040518083038186803b15801561172857600080fd5b505afa15801561173c573d6000803e3d6000fd5b505050506040513d601f19601f820116820180604052508101906117609190615152565b33600090815260a3602052604090205490039150505b611823565b34666a94d74f430000146117a15760405162461bcd60e51b8152600401610db890615678565b6040516370a0823160e01b815282906001600160a01b038216906370a08231906117cf9033906004016152aa565b60206040518083038186803b1580156117e757600080fd5b505afa1580156117fb573d6000803e3d6000fd5b505050506040513d601f19601f8201168201806040525081019061181f9190615152565b9150505b600081116118435760405162461bcd60e51b8152600401610db8906153c7565b33600090815260a960209081526040808320868452909152902054811161187c5760405162461bcd60e51b8152600401610db890615c57565b600061188886866123fd565b9050611898338261271001613bbe565b6118ae61271082016118a981613bd8565b613caf565b8315806118bb5750836001145b806118c65750836002145b806118d15750836003145b156119125760005b600481101561190c5733600090815260a960209081526040808320848452909152902080546001908101909155016118d9565b506119d4565b6001600160a01b038316600090815260af602090815260409182902080548351818402810184019094528084526060939283018282801561197257602002820191906000526020600020905b81548152602001906001019080831161195e575b50939450600093505050505b81518110156119d15733600090815260a96020526040812083519091908490849081106119a757fe5b6020908102919091018101518252810191909152604001600020805460019081019091550161197e565b50505b505050505050565b609d546001600160a01b03163314611a065760405162461bcd60e51b8152600401610db890615acd565b60005b818110156119d457838382818110611a1d57fe5b9050602002013560a46000888885818110611a3457fe5b9050602002016020810190611a499190614bb3565b6001600160a01b03168152602081019190915260400160002055600101611a09565b609d54600160b01b900460ff1681565b609d546001600160a01b03163314611aa55760405162461bcd60e51b8152600401610db890615acd565b60a7805460ff1916911515919091179055565b600061125982604051806060016040528060298152602001615f15602991396066919063ffffffff613cf316565b606d8054604080516020601f6002600019610100600188161502019095169490940493840181900481028201810190925282815260609390929091830182828015610d835780601f10610d5857610100808354040283529160200191610d83565b60006001600160a01b038216611b6f5760405162461bcd60e51b8152600401610db890615876565b6001600160a01b0382166000908152606560205260409020611259906139d1565b60ae602052600090815260409020546001600160a01b031681565b60a554600160b01b900460ff1681565b609d546001600160a01b03163314611be55760405162461bcd60e51b8152600401610db890615acd565b60005b818110156119d45760af600060ae6000898986818110611c0457fe5b602090810292909201358352508181019290925260409081016000908120546001600160a01b031684529183019390935291018120611c429161497b565b838382818110611c4e57fe5b9050602002016020810190611c639190614bb3565b60ae6000888885818110611c7357fe5b90506020020135815260200190815260200160002060006101000a8154816001600160a01b0302191690836001600160a01b0316021790555060af6000858584818110611cbc57fe5b9050602002016020810190611cd19190614bb3565b6001600160a01b03166001600160a01b03168152602001908152602001600020868683818110611cfd57fe5b83546001808201865560009586526020958690209290950293909301359201919091555001611be8565b600054610100900460ff1680611d405750611d40613d0a565b80611d4e575060005460ff16155b611d6a5760405162461bcd60e51b8152600401610db8906158c0565b600054610100900460ff16158015611d95576000805460ff1961ff0019909116610100171660011790555b611de160405180604001604052806009815260200168135e5411941b185b9960ba1b81525060405180604001604052806009815260200168135e5411941b185b9960ba1b815250613d1b565b609d80546001600160a01b031990811633179091556000609a5561012c609b55610190609c5560a580549091167372541ad75e05bc77c7a92304225937a8f6653372179055801561130a576000805461ff001916905550565b60a75460009060ff16611ee157600082815260ae6020526040908190205490516370a0823160e01b81526001600160a01b0390911690819081906370a0823190611e889088906004016152aa565b60206040518083038186803b158015611ea057600080fd5b505afa158015611eb4573d6000803e3d6000fd5b505050506040513d601f19601f82011682018060405250810190611ed89190615152565b92505050611259565b600080805b60a854811015611fac57600081815260ae60205260409020546001600160a01b03908116908316811415611f1a5750611fa4565b6040516370a0823160e01b8152909250829081906001600160a01b038216906370a0823190611f4d908b906004016152aa565b60206040518083038186803b158015611f6557600080fd5b505afa158015611f79573d6000803e3d6000fd5b505050506040513d601f19601f82011682018060405250810190611f9d9190615152565b8501945050505b600101611ee6565b508192505050611259565b609d546001600160a01b03163314611fe15760405162461bcd60e51b8152600401610db890615acd565b611fe9614999565b60005b8281101561215b578c8c8281811061200057fe5b845160209091029290920135909152508a8a8281811061201c57fe5b905060200201358260000151602001818152505088888281811061203c57fe5b602085810151910292909201359091525086868281811061205957fe5b6020858101805192820294909401359181019190915260a854600090815260b082526040902085518051825582015160018201559251805160028501550151600390920191909155508484828181106120ae57fe5b90506020020160208101906120c39190614bb3565b60a854600090815260ae6020526040812080546001600160a01b0319166001600160a01b03939093169290921790915560af9086868481811061210257fe5b90506020020160208101906121179190614bb3565b6001600160a01b03168152602080820192909252604001600090812060a8805482546001818101855593855294909320909301919091558154810190915501611fec565b50505050505050505050505050565b60a75460ff1681565b609d546001600160a01b0316331461219d5760405162461bcd60e51b8152600401610db890615acd565b60005b81811015610e1b57600060a260008686858181106121ba57fe5b90506020020160208101906121cf9190614bb3565b6001600160a01b031681526020810191909152604001600020556001016121a0565b609d546001600160a01b0316331461221b5760405162461bcd60e51b8152600401610db890615acd565b610ef760a683836149be565b606b8054604080516020601f6002600019610100600188161502019095169490940493840181900481028201810190925282815260609390929091830182828015610d835780601f10610d5857610100808354040283529160200191610d83565b609d546001600160a01b031633146122b25760405162461bcd60e51b8152600401610db890615acd565b609d8054911515600160b01b0260ff60b01b19909216919091179055565b80515182516000911080156122f057508160000151602001518360200151115b80156123025750602082015151835111155b801561231a5750816020015160200151836020015111155b1561232757506001611259565b506000611259565b61233761395f565b6001600160a01b0316826001600160a01b031614156123685760405162461bcd60e51b8152600401610db8906156e4565b806069600061237561395f565b6001600160a01b03908116825260208083019390935260409182016000908120918716808252919093529120805460ff1916921515929092179091556123b961395f565b6001600160a01b03167f17307eab39ab6107e8899845ad3d59bd9653f200f220920489ca2b5937696c31836040516123f19190615330565b60405180910390a35050565b6000198201606402810192915050565b600082815260ae60205260409081902054905163c87b56dd60e01b81526060916001600160a01b0316908190819063c87b56dd9061244f908790600401615e2b565b60006040518083038186803b15801561246757600080fd5b505afa92505050801561249c57506040513d6000823e601f3d908101601f19168201604052612499919081019061505e565b60015b612578576040516000815260443d10156124b857506000612553565b60046000803e60005160e01c6308c379a081146124d9576000915050612553565b60043d036004833e81513d60248201116001600160401b038211171561250457600092505050612553565b80830180516001600160401b03811115612525576000945050505050612553565b8060208301013d860181111561254357600095505050505050612553565b601f01601f191660405250925050505b8061255e5750611475565b604051806020016040528060008152509350505050611259565b9250611259915050565b609d546001600160a01b031681565b60a554600160a81b900460ff1681565b6125b26125ac61395f565b836139dc565b6125ce5760405162461bcd60e51b8152600401610db890615c8e565b610e1b84848484613db9565b609d546001600160a01b031633146126045760405162461bcd60e51b8152600401610db890615acd565b60a58054911515600160a81b0260ff60a81b19909216919091179055565b6001600160a01b0316600090815260a4602052604090205490565b60a6805460408051602060026001851615610100026000190190941693909304601f810184900484028201840190925281815292918301828280156126c35780601f10612698576101008083540402835291602001916126c3565b820191906000526020600020905b8154815290600101906020018083116126a657829003601f168201915b505050505081565b60af60205281600052604060002081815481106126e457fe5b90600052602060002001600091509150505481565b609d546001600160a01b031633146127235760405162461bcd60e51b8152600401610db890615acd565b60005b81811015610e1b57600160a3600086868581811061274057fe5b90506020020160208101906127559190614bb3565b6001600160a01b03168152602081019190915260400160002080549091019055600101612726565b600182101561279e5760405162461bcd60e51b8152600401610db890615745565b60038211156127bf5760405162461bcd60e51b8152600401610db890615745565b81600114156127f257609d54600160a81b900460ff16156127f25760405162461bcd60e51b8152600401610db890615d16565b816002141561282557609d54600160b01b900460ff16156128255760405162461bcd60e51b8152600401610db8906159fe565b816003141561285857609d54600160b81b900460ff16156128585760405162461bcd60e51b8152600401610db89061540b565b60006128643384613dec565b905082600114156128855733600090815260a26020526040902054016128a0565b82600214156128a05733600090815260a36020526040902054015b600060018414156128e157336000908152609e602052604090205483018210156128dc5760405162461bcd60e51b8152600401610db89061590e565b612944565b836002141561291b57336000908152609f602052604090205483018210156128dc5760405162461bcd60e51b8152600401610db890615390565b836003141561294457828210156129445760405162461bcd60e51b8152600401610db89061560a565b60005b838160ff1610156129dd57846001141561297a576129656097614029565b609a546129726097614032565b0191506129be565b846002141561299a5761298d6098614029565b609b546129726098614032565b84600314156129be576129ad6099614029565b609c546129ba6099614032565b0191505b6129c83383613bbe565b6129d5826118a984613bd8565b600101612947565b508360011415612a0157336000908152609e60205260409020805484019055612a20565b8360021415612a2057336000908152609f602052604090208054840190555b600082118015612a305750836003145b15610e1b5760005b60a5546040516370a0823160e01b81526001600160a01b03909116906370a0823190612a689033906004016152aa565b60206040518083038186803b158015612a8057600080fd5b505afa158015612a94573d6000803e3d6000fd5b505050506040513d601f19601f82011682018060405250810190612ab89190615152565b8160ff161015612b735760a554604051632f745c5960e01b81526000916001600160a01b031690632f745c5990612af590339086906004016152fb565b60206040518083038186803b158015612b0d57600080fd5b505afa158015612b21573d6000803e3d6000fd5b505050506040513d601f19601f82011682018060405250810190612b459190615152565b90506105cc8111612b6a57600081815260a160205260409020805460ff191660011790555b50600101612a38565b5050505050565b60a7546000908190819060ff16612c2c57600084815260ae602052604090819020549051632f745c5960e01b81526001600160a01b039091169081908190632f745c5990612bce908b908b90600401615317565b60206040518083038186803b158015612be657600080fd5b505afa158015612bfa573d6000803e3d6000fd5b505050506040513d601f19601f82011682018060405250810190612c1e9190615152565b8695509350612e2192505050565b600080805b60a854811015612e1c57600081815260ae60205260409020546001600160a01b03908116908316811415612c655750612e14565b6040516370a0823160e01b8152909250829081906001600160a01b038216906370a0823190612c98908e906004016152aa565b60206040518083038186803b158015612cb057600080fd5b505afa158015612cc4573d6000803e3d6000fd5b505050506040513d601f19601f82011682018060405250810190612ce89190615152565b8501945089600186031015612cfe575050612e14565b6040516370a0823160e01b81526000906001600160a01b038316906370a0823190612d2d908f906004016152aa565b60206040518083038186803b158015612d4557600080fd5b505afa158015612d59573d6000803e3d6000fd5b505050506040513d601f19601f82011682018060405250810190612d7d9190615152565b604051632f745c5960e01b81529087038c0391506001600160a01b03831690632f745c5990612db2908f908590600401615317565b60206040518083038186803b158015612dca57600080fd5b505afa158015612dde573d6000803e3d6000fd5b505050506040513d601f19601f82011682018060405250810190612e029190615152565b939850929650612e2195505050505050565b600101612c31565b505050505b935093915050565b6060612e348261394c565b612e505760405162461bcd60e51b8152600401610db890615b4b565b6000828152606c602090815260409182902080548351601f6002600019610100600186161502019093169290920491820184900484028101840190945280845260609392830182828015612ee55780601f10612eba57610100808354040283529160200191612ee5565b820191906000526020600020905b815481529060010190602001808311612ec857829003601f168201915b505050505090506060612ef6611ae6565b9050805160001415612f0a57509050610cf2565b815115612f3c578082604051602001612f2492919061527c565b60405160208183030381529060405292505050610cf2565b80612f4685614036565b604051602001612f5792919061527c565b60405160208183030381529060405292505050919050565b6000806001831080612f815750600383115b15612f8d579050611259565b6000612f998585613dec565b90508360011415612fd5576001600160a01b038516600090815260a26020908152604080832054609e90925290912054910190810391506114e4565b836002141561300f576001600160a01b038516600090815260a36020908152604080832054609f90925290912054910190810391506114e4565b83600314156114e457949350505050565b609d546001600160a01b0316331461304a5760405162461bcd60e51b8152600401610db890615acd565b60a58054911515600160a01b0260ff60a01b19909216919091179055565b60b0602090815260009182526040918290208251808401845281548152600182015481840152835180850190945260028201548452600390910154918301919091529082565b606484111580156130c0575060648311155b6130dc5760405162461bcd60e51b8152600401610db89061571b565b60a554600160a81b900460ff16156131065760405162461bcd60e51b8152600401610db890615641565b600061311285856123fd565b9050336131226127108301611ab8565b6001600160a01b0316146131485760405162461bcd60e51b8152600401610db890615945565b60a75460ff166131d557600083815260b060205260409020548511801561317f5750600083815260b0602052604090206001015484115b801561319c5750600083815260b060205260409020600201548511155b80156131b95750600083815260b060205260409020600301548411155b6131d55760405162461bcd60e51b8152600401610db890615de9565b600083815260ae6020526040908190205490516331a9108f60e11b81526001600160a01b0390911690819033908290636352211e90613218908890600401615e2b565b60206040518083038186803b15801561323057600080fd5b505afa158015613244573d6000803e3d6000fd5b505050506040513d601f19601f820116820180604052508101906132689190614bcf565b6001600160a01b03161461328e5760405162461bcd60e51b8152600401610db890615b9a565b6001600160a01b038216600090815260aa6020908152604080832087845290915290205460ff16156132d25760405162461bcd60e51b8152600401610db89061559c565b6127108301600090815260ab60209081526040808320805480855260ae8452828520546001600160a01b03908116865260aa80865284872060019485015488528652848720805460ff19908116909155918916875285528386208a87529094529190932080549092169092179055613348614a3c565b86815260208082018781526127108701600090815260ab8352604080822085518155925160019093019290925560ad835281812081905560ac909252812061338f91614a56565b505050505050505050565b609d546001600160a01b031633146133c45760405162461bcd60e51b8152600401610db890615acd565b60a58054911515600160b01b0260ff60b01b19909216919091179055565b60a554600160a01b900460ff1681565b609d54600160a01b900460ff1681565b60008060648411806134145750606483115b1561342557620186a0915050611259565b61342d614999565b613435614a3c565b8581526020810185905260005b60a8548110156134be57600081815260b0602090815260409182902082516080810184528154818501908152600183015460608301528152835180850190945260028201548452600390910154838301529081019190915292506134a682846122d0565b156134b657935061125992505050565b600101613442565b50620186a09695505050505050565b60a68054604080516020601f6002600019610100600188161502019095169490940493840181900481028201810190925282815260609390929091830182828015610d835780601f10610d5857610100808354040283529160200191610d83565b6001600160a01b03918216600090815260696020908152604080832093909416825291909152205460ff1690565b6064841115801561356e575060648311155b61358a5760405162461bcd60e51b8152600401610db89061571b565b60a554600160b01b900460ff16156135b45760405162461bcd60e51b8152600401610db8906157b7565b60006135c085856123fd565b9050336135d06127108301611ab8565b6001600160a01b0316146135f65760405162461bcd60e51b8152600401610db890615945565b6127108101600090815260ab602052604090205415158061362c57506127108101600090815260ab602052604090206001015415155b6136485760405162461bcd60e51b8152600401610db8906155d3565b6040516331a9108f60e11b8152839033906001600160a01b03831690636352211e90613678908790600401615e2b565b60206040518083038186803b15801561369057600080fd5b505afa1580156136a4573d6000803e3d6000fd5b505050506040513d601f19601f820116820180604052508101906136c89190614bcf565b6001600160a01b0316146136ee5760405162461bcd60e51b8152600401610db890615b9a565b6136f6614a77565b6001600160a01b039485168152602080820194855261271093909301600081815260ac855260408082208054600180820183559184528784209551600290910290950180546001600160a01b03191695909916949094178855955196830196909655855260ad909252509120805490910190555050565b6000806064830460010191506064838161378357fe5b0661378f576001820391505b5091600019830160640290910390565b609d54600160a01b900460ff1615156001146137cd5760405162461bcd60e51b8152600401610db89061584b565b33600090815260a460205260409020546137f95760405162461bcd60e51b8152600401610db890615c20565b33600090815260a460205260409020544710156138285760405162461bcd60e51b8152600401610db890615da5565b336138455760405162461bcd60e51b8152600401610db890615574565b33600081815260a4602052604080822054905191929161386490610d8b565b60006040518083038185875af1925050503d80600081146138a1576040519150601f19603f3d011682016040523d82523d6000602084013e6138a6565b606091505b50509050806138c75760405162461bcd60e51b8152600401610db890615548565b5033600090815260a46020526040812055565b609d546001600160a01b031633146139045760405162461bcd60e51b8152600401610db890615acd565b6001600160a01b03811661392a5760405162461bcd60e51b8152600401610db890615494565b609d80546001600160a01b0319166001600160a01b0392909216919091179055565b600061125960668363ffffffff61410716565b3390565b600081815260686020526040902080546001600160a01b0319166001600160a01b038416908117909155819061399882611ab8565b6001600160a01b03167f8c5be1e5ebec7d5bd14f71427d1e84f3dd0314c0f7b2291e5b200ac8c7c3b92560405160405180910390a45050565b600061125982614032565b60006139e78261394c565b613a035760405162461bcd60e51b8152600401610db89061576b565b6000613a0e83611ab8565b9050806001600160a01b0316846001600160a01b03161480613a495750836001600160a01b0316613a3e84610e21565b6001600160a01b0316145b80613a595750613a59818561352e565b949350505050565b826001600160a01b0316613a7482611ab8565b6001600160a01b031614613a9a5760405162461bcd60e51b8152600401610db890615b02565b6001600160a01b038216613ac05760405162461bcd60e51b8152600401610db8906156a0565b613acb838383614113565b613ad6600082613963565b6001600160a01b0383166000908152606560205260409020613afe908263ffffffff6141b016565b506001600160a01b0382166000908152606560205260409020613b27908263ffffffff6141bc16565b50613b3a6066828463ffffffff6141c816565b5080826001600160a01b0316846001600160a01b03167fddf252ad1be2c89b69c2b068fc378daa952ba7f163c4a11628f55a4df523b3ef60405160405180910390a4505050565b600061125683836141de565b6000808080613b9c8686614223565b909450925050505b9250929050565b805161155590606d906020840190614a8e565b61155582826040518060200160405280600081525061427f565b606081613bfd57506040805180820190915260018152600360fc1b6020820152610cf2565b8160005b8115613c1557600101600a82049150613c01565b6060816001600160401b0381118015613c2d57600080fd5b506040519080825280601f01601f191660200182016040528015613c58576020820181803683370190505b50905060001982015b8515613ca657600a860660300160f81b82828060019003935081518110613c8457fe5b60200101906001600160f81b031916908160001a905350600a86049550613c61565b50949350505050565b613cb88261394c565b613cd45760405162461bcd60e51b8152600401610db890615a81565b6000828152606c602090815260409091208251610ef792840190614a8e565b6000613d008484846142b2565b90505b9392505050565b6000613d1530614311565b15905090565b600054610100900460ff1680613d345750613d34613d0a565b80613d42575060005460ff16155b613d5e5760405162461bcd60e51b8152600401610db8906158c0565b600054610100900460ff16158015613d89576000805460ff1961ff0019909116610100171660011790555b613d91614317565b613d99614399565b613da38383614417565b8015610ef7576000805461ff0019169055505050565b613dc4848484613a61565b613dd0848484846144dd565b610e1b5760405162461bcd60e51b8152600401610db890615442565b60a5546040516370a0823160e01b815260009182916001600160a01b03909116906370a0823190613e219087906004016152aa565b60206040518083038186803b158015613e3957600080fd5b505afa158015613e4d573d6000803e3d6000fd5b505050506040513d601f19601f82011682018060405250810190613e719190615152565b613e7c579050611259565b6000808460011415613e9657506112b69050611362613ebf565b8460021415613ead57506113639050611388613ebf565b8460031415613ebf5750600190506105cc5b60005b60a5546040516370a0823160e01b81526001600160a01b03909116906370a0823190613ef2908a906004016152aa565b60206040518083038186803b158015613f0a57600080fd5b505afa158015613f1e573d6000803e3d6000fd5b505050506040513d601f19601f82011682018060405250810190613f429190615152565b81101561401e5760a554604051632f745c5960e01b81526000916001600160a01b031690632f745c5990613f7c908b908690600401615317565b60206040518083038186803b158015613f9457600080fd5b505afa158015613fa8573d6000803e3d6000fd5b505050506040513d601f19601f82011682018060405250810190613fcc9190615152565b9050838110158015613fde5750828111155b1561401557866003141561400e57600081815260a1602052604090205460ff16614009576001909401935b614015565b6001909401935b50600101613ec2565b509195945050505050565b80546001019055565b5490565b60608161405b57506040805180820190915260018152600360fc1b6020820152610cf2565b8160005b811561407357600101600a8204915061405f565b6060816001600160401b038111801561408b57600080fd5b506040519080825280601f01601f1916602001820160405280156140b6576020820181803683370190505b50859350905060001982015b8315613ca657600a840660300160f81b828280600190039350815181106140e557fe5b60200101906001600160f81b031916908160001a905350600a840493506140c2565b600061125683836145c2565b6127108111156141a557614125614a3c565b6000808252602080830182815284835260ab8083526040808520805480875260ae8652828720546001600160a01b0316875260aa86528287206001830180548952908752838820805460ff191690558988529386528751909155925190915560ad835280842084905560ac90925290822090916141a29190614a56565b50505b610ef7838383610ef7565b600061125683836145da565b600061125683836146a0565b6000613d0084846001600160a01b0385166146e2565b815460009082106142015760405162461bcd60e51b8152600401610db89061534e565b82600001828154811061421057fe5b9060005260206000200154905092915050565b8154600090819083106142485760405162461bcd60e51b8152600401610db890615987565b600084600001848154811061425957fe5b906000526020600020906002020190508060000154816001015492509250509250929050565b6142898383614779565b61429660008484846144dd565b610ef75760405162461bcd60e51b8152600401610db890615442565b600082815260018401602052604081205482816142e25760405162461bcd60e51b8152600401610db8919061533b565b508460000160018203815481106142f557fe5b9060005260206000209060020201600101549150509392505050565b3b151590565b600054610100900460ff16806143305750614330613d0a565b8061433e575060005460ff16155b61435a5760405162461bcd60e51b8152600401610db8906158c0565b600054610100900460ff16158015614385576000805460ff1961ff0019909116610100171660011790555b801561130a576000805461ff001916905550565b600054610100900460ff16806143b257506143b2613d0a565b806143c0575060005460ff16155b6143dc5760405162461bcd60e51b8152600401610db8906158c0565b600054610100900460ff16158015614407576000805460ff1961ff0019909116610100171660011790555b6143856301ffc9a760e01b614849565b600054610100900460ff16806144305750614430613d0a565b8061443e575060005460ff16155b61445a5760405162461bcd60e51b8152600401610db8906158c0565b600054610100900460ff16158015614485576000805460ff1961ff0019909116610100171660011790555b825161449890606a906020860190614a8e565b5081516144ac90606b906020850190614a8e565b506144bd6380ac58cd60e01b614849565b6144cd635b5e139f60e01b614849565b613da363780e9d6360e01b614849565b60006144f1846001600160a01b0316614311565b6144fd57506001613a59565b606061458b630a85bd0160e11b61451261395f565b88878760405160240161452894939291906152be565b604051602081830303815290604052906001600160e01b0319166020820180516001600160e01b038381831617835250505050604051806060016040528060328152602001615ee3603291396001600160a01b038816919063ffffffff61489816565b90506000818060200190518101906145a39190614fd9565b6001600160e01b031916630a85bd0160e11b1492505050949350505050565b60009081526001919091016020526040902054151590565b60008181526001830160205260408120548015614696578354600019808301919081019060009087908390811061460d57fe5b906000526020600020015490508087600001848154811061462a57fe5b60009182526020808320909101929092558281526001898101909252604090209084019055865487908061465a57fe5b60019003818190600052602060002001600090559055866001016000878152602001908152602001600020600090556001945050505050611259565b6000915050611259565b60006146ac83836145c2565b61232757508154600181810184556000848152602080822090930184905584548482528286019093526040902091909155611259565b600082815260018401602052604081205480614747575050604080518082018252838152602080820184815286546001818101895560008981528481209551600290930290950191825591519082015586548684528188019092529290912055613d03565b8285600001600183038154811061475a57fe5b9060005260206000209060020201600101819055506000915050613d03565b6001600160a01b03821661479f5760405162461bcd60e51b8152600401610db8906159c9565b6147a88161394c565b156147c55760405162461bcd60e51b8152600401610db890615511565b6147d160008383614113565b6001600160a01b03821660009081526065602052604090206147f9908263ffffffff6141bc16565b5061480c6066828463ffffffff6141c816565b5060405181906001600160a01b038416906000907fddf252ad1be2c89b69c2b068fc378daa952ba7f163c4a11628f55a4df523b3ef908290a45050565b6001600160e01b031980821614156148735760405162461bcd60e51b8152600401610db8906154da565b6001600160e01b0319166000908152603360205260409020805460ff19166001179055565b6060613d008484600085856148ac85614311565b6148c85760405162461bcd60e51b8152600401610db890615cdf565b60006060866001600160a01b031685876040516148e59190615260565b60006040518083038185875af1925050503d8060008114614922576040519150601f19603f3d011682016040523d82523d6000602084013e614927565b606091505b5091509150614937828286614942565b979650505050505050565b60608315614951575081613d03565b8251156149615782518084602001fd5b8160405162461bcd60e51b8152600401610db8919061533b565b508054600082559060005260206000209081019061130a9190614afc565b60405180604001604052806149ac614a3c565b81526020016149b9614a3c565b905290565b828054600181600116156101000203166002900490600052602060002090601f016020900481019282601f106149ff5782800160ff19823516178555614a2c565b82800160010185558215614a2c579182015b82811115614a2c578235825591602001919060010190614a11565b50614a38929150614afc565b5090565b604051806040016040528060008152602001600081525090565b508054600082556002029060005260206000209081019061130a9190614b16565b604080518082019091526000808252602082015290565b828054600181600116156101000203166002900490600052602060002090601f016020900481019282601f10614acf57805160ff1916838001178555614a2c565b82800160010185558215614a2c579182015b82811115614a2c578251825591602001919060010190614ae1565b610d8b91905b80821115614a385760008155600101614b02565b610d8b91905b80821115614a385780546001600160a01b031916815560006001820155600201614b1c565b60008083601f840112614b52578182fd5b5081356001600160401b03811115614b68578182fd5b6020830191508360208083028501011115613ba457600080fd5b600060408284031215614b93578081fd5b614b9d6040615e42565b9050813581526020820135602082015292915050565b600060208284031215614bc4578081fd5b8135613d0381615eb7565b600060208284031215614be0578081fd5b8151613d0381615eb7565b60008060408385031215614bfd578081fd5b8235614c0881615eb7565b91506020830135614c1881615eb7565b809150509250929050565b600080600060608486031215614c37578081fd5b8335614c4281615eb7565b92506020840135614c5281615eb7565b929592945050506040919091013590565b60008060008060808587031215614c78578081fd5b8435614c8381615eb7565b93506020850135614c9381615eb7565b92506040850135915060608501356001600160401b03811115614cb4578182fd5b80860187601f820112614cc5578283fd5b80359150614cda614cd583615e68565b615e42565b828152886020848401011115614cee578384fd5b8260208301602083013791820160200192909252939692955090935050565b60008060408385031215614d1f578182fd5b8235614d2a81615eb7565b915060208301358015158114614c18578182fd5b60008060408385031215614d50578182fd5b8235614d5b81615eb7565b946020939093013593505050565b600080600060608486031215614d7d578283fd5b8335614d8881615eb7565b95602085013595506040909401359392505050565b600080600080600060608688031215614db4578081fd5b85356001600160401b0380821115614dca578283fd5b614dd689838a01614b41565b90975095506020880135915080821115614dee578283fd5b50614dfb88828901614b41565b96999598509660400135949350505050565b600080600060408486031215614e21578081fd5b83356001600160401b03811115614e36578182fd5b614e4286828701614b41565b909790965060209590950135949350505050565b600080600080600060608688031215614e6d578283fd5b85356001600160401b0380821115614e83578485fd5b614e8f89838a01614b41565b90975095506020880135915080821115614dee578485fd5b600080600080600080600080600080600060c08c8e031215614ec7578889fd5b6001600160401b03808d351115614edc57898afd5b614ee98e8e358f01614b41565b909c509a5060208d0135811015614efe57898afd5b614f0e8e60208f01358f01614b41565b909a50985060408d0135811015614f23578687fd5b614f338e60408f01358f01614b41565b909850965060608d0135811015614f48578586fd5b614f588e60608f01358f01614b41565b909650945060808d0135811015614f6d578384fd5b50614f7e8d60808e01358e01614b41565b819450809350505060a08c013590509295989b509295989b9093969950565b600060208284031215614fae578081fd5b81358015158114613d03578182fd5b600060208284031215614fce578081fd5b8135613d0381615ecc565b600060208284031215614fea578081fd5b8151613d0381615ecc565b60008060208385031215615007578182fd5b82356001600160401b038082111561501d578384fd5b81850186601f82011261502e578485fd5b803592508183111561503e578485fd5b86602084830101111561504f578485fd5b60200196919550909350505050565b60006020828403121561506f578081fd5b81516001600160401b03811115615084578182fd5b80830184601f820112615095578283fd5b805191506150a5614cd583615e68565b8281528560208484010111156150b9578384fd5b6150ca836020830160208501615e8b565b95945050505050565b60008082840360c08112156150e6578283fd5b6150f08585614b82565b92506080603f1982011215615103578182fd5b5061510e6040615e42565b61511b8560408601614b82565b815261512a8560808601614b82565b6020820152809150509250929050565b60006020828403121561514b578081fd5b5035919050565b600060208284031215615163578081fd5b5051919050565b6000806040838503121561517c578182fd5b50508035926020909101359150565b600080600080608085870312156151a0578182fd5b843593506020850135925060408501356151b981615eb7565b9396929550929360600135925050565b6000806000606084860312156151dd578081fd5b505081359360208301359350604090920135919050565b60008060008060808587031215615209578182fd5b5050823594602084013594506040840135936060013592509050565b6000815180845261523d816020860160208601615e8b565b601f01601f19169290920160200192915050565b80518252602090810151910152565b60008251615272818460208701615e8b565b9190910192915050565b6000835161528e818460208801615e8b565b83519083016152a1828260208801615e8b565b01949350505050565b6001600160a01b0391909116815260200190565b6001600160a01b03858116825284166020820152604081018390526080606082018190526000906152f190830184615225565b9695505050505050565b6001600160a01b0392909216825260ff16602082015260400190565b6001600160a01b03929092168252602082015260400190565b901515815260200190565b6000602082526112566020830184615225565b60208082526022908201527f456e756d657261626c655365743a20696e646578206f7574206f6620626f756e604082015261647360f01b606082015260800190565b6020808252601d908201527f616c726561647920636c61696d656420616c6c207061696e74696e6773000000604082015260600190565b60208082526024908201527f446f6e2774206f776e20616e79204e465420696e207468697320636f6c6c65636040820152633a34b7b760e11b606082015260800190565b6020808252601c908201527f73746174746575746520636c61696d696e672069732070617573656400000000604082015260600190565b60208082526032908201527f4552433732313a207472616e7366657220746f206e6f6e20455243373231526560408201527131b2b4bb32b91034b6b83632b6b2b73a32b960711b606082015260800190565b60208082526026908201527f4f776e61626c653a206e6577206f776e657220697320746865207a65726f206160408201526564647265737360d01b606082015260800190565b6020808252601c908201527f4552433136353a20696e76616c696420696e7465726661636520696400000000604082015260600190565b6020808252601c908201527f4552433732313a20746f6b656e20616c7265616479206d696e74656400000000604082015260600190565b60208082526012908201527108cc2d2d8cac840e8de40e6cadcc840cae8d60731b604082015260600190565b6020808252600e908201526d34b73b30b634b21031b0b63632b960911b604082015260600190565b6020808252601e908201527f5468697320726f79616c204e465420697320616c726561647920757365640000604082015260600190565b6020808252601b908201527f4e65656420746f2073657420726f79616c204e46542066697273740000000000604082015260600190565b6020808252601e908201527f616c726561647920636c61696d656420616c6c20737461747465757465730000604082015260600190565b60208082526018908201527f726f79616c20636c61696d696e67206973207061757365640000000000000000604082015260600190565b6020808252600e908201526d1a5b9d985b1a5908185b5bdd5b9d60921b604082015260600190565b60208082526024908201527f4552433732313a207472616e7366657220746f20746865207a65726f206164646040820152637265737360e01b606082015260800190565b60208082526019908201527f4552433732313a20617070726f766520746f2063616c6c657200000000000000604082015260600190565b60208082526010908201526f6578636565647320626f756e6461727960801b604082015260600190565b6020808252600c908201526b6f7574206f662072616e676560a01b604082015260600190565b6020808252602c908201527f4552433732313a206f70657261746f7220717565727920666f72206e6f6e657860408201526b34b9ba32b73a103a37b5b2b760a11b606082015260800190565b6020808252601d908201527f6465726976617469766520636c61696d696e6720697320706175736564000000604082015260600190565b60208082526038908201527f4552433732313a20617070726f76652063616c6c6572206973206e6f74206f7760408201527f6e6572206e6f7220617070726f76656420666f7220616c6c0000000000000000606082015260800190565b60208082526011908201527014185e5b595b9d081a5cc818db1bdcd959607a1b604082015260600190565b6020808252602a908201527f4552433732313a2062616c616e636520717565727920666f7220746865207a65604082015269726f206164647265737360b01b606082015260800190565b6020808252602e908201527f496e697469616c697a61626c653a20636f6e747261637420697320616c72656160408201526d191e481a5b9a5d1a585b1a5e995960921b606082015260800190565b60208082526018908201527f616c726561647920636c61696d656420616c6c20746f79730000000000000000604082015260600190565b60208082526022908201527f596f7520617265206e6f7420746865206f776e6572206f662074686973206c616040820152611b9960f21b606082015260800190565b60208082526022908201527f456e756d657261626c654d61703a20696e646578206f7574206f6620626f756e604082015261647360f01b606082015260800190565b6020808252818101527f4552433732313a206d696e7420746f20746865207a65726f2061646472657373604082015260600190565b6020808252601b908201527f7061696e74696e6720636c61696d696e67206973207061757365640000000000604082015260600190565b6020808252602c908201527f4552433732313a20617070726f76656420717565727920666f72206e6f6e657860408201526b34b9ba32b73a103a37b5b2b760a11b606082015260800190565b6020808252602c908201527f4552433732314d657461646174613a2055524920736574206f66206e6f6e657860408201526b34b9ba32b73a103a37b5b2b760a11b606082015260800190565b6020808252818101527f4f776e61626c653a2063616c6c6572206973206e6f7420746865206f776e6572604082015260600190565b60208082526029908201527f4552433732313a207472616e73666572206f6620746f6b656e2074686174206960408201526839903737ba1037bbb760b91b606082015260800190565b6020808252602f908201527f4552433732314d657461646174613a2055524920717565727920666f72206e6f60408201526e3732bc34b9ba32b73a103a37b5b2b760891b606082015260800190565b60208082526025908201527f596f7520617265206e6f7420746865206f776e6572206f66207468697320746f6040820152641ad95b925160da1b606082015260800190565b60208082526021908201527f4552433732313a20617070726f76616c20746f2063757272656e74206f776e656040820152603960f91b606082015260800190565b6020808252601c908201527f596f7520646f6e2774206861766520616e7920726f79616c7469657300000000604082015260600190565b60208082526019908201527f416c726561647920636c61696d656420616c6c206c616e647300000000000000604082015260600190565b60208082526031908201527f4552433732313a207472616e736665722063616c6c6572206973206e6f74206f6040820152701ddb995c881b9bdc88185c1c1c9bdd9959607a1b606082015260800190565b6020808252601d908201527f416464726573733a2063616c6c20746f206e6f6e2d636f6e7472616374000000604082015260600190565b6020808252601690820152751d1bde4818db185a5b5a5b99c81a5cc81c185d5cd95960521b604082015260600190565b6020808252600e908201526d11985a5b1959081d1bc81cd95b9960921b604082015260600190565b60208082526017908201527f6c616e6420636c61696d696e6720697320706175736564000000000000000000604082015260600190565b60208082526024908201527f496e73756666696369656e742062616c616e636520696e2074686520636f6e746040820152631c9858dd60e21b606082015260800190565b6020808252600d908201526c1b9bdd0818dbdb9d185a5b9959609a1b604082015260600190565b60808101615e1e8285615251565b613d036040830184615251565b90815260200190565b918252602082015260400190565b6040518181016001600160401b0381118282101715615e6057600080fd5b604052919050565b60006001600160401b03821115615e7d578081fd5b50601f01601f191660200190565b60005b83811015615ea6578181015183820152602001615e8e565b83811115610e1b5750506000910152565b6001600160a01b038116811461130a57600080fd5b6001600160e01b03198116811461130a57600080fdfe4552433732313a207472616e7366657220746f206e6f6e20455243373231526563656976657220696d706c656d656e7465724552433732313a206f776e657220717565727920666f72206e6f6e6578697374656e7420746f6b656ea264697066735822122005e95b8386e90c6822986d279be22ea46e815011d269f855da14fa097e04f15264736f6c63430006050033",
  "immutableReferences": {},
  "source": "// SPDX-License-Identifier: MIT\npragma solidity ^0.6.5;\npragma experimental ABIEncoderV2;\n\nimport \"@openzeppelin/contracts-upgradeable/token/ERC721/ERC721Upgradeable.sol\";\nimport \"@openzeppelin/contracts-upgradeable/utils/CountersUpgradeable.sol\";\nimport \"@openzeppelin/contracts/token/ERC721/ERC721.sol\";\n\ncontract MyPFPlandv2 is ERC721Upgradeable {\n    using CountersUpgradeable for CountersUpgradeable.Counter;\n\n    CountersUpgradeable.Counter internal toyTokenIDs;\n    CountersUpgradeable.Counter internal paintingTokenIDs;\n    CountersUpgradeable.Counter internal statuetteTokenIDs;\n\n    uint256 internal toyTokenIDBase;\n    uint256 internal paintingTokenIDBase;\n    uint256 internal statuetteTokenIDBase;\n\n    address public _owner;\n    bool public isOpenPayment;\n\n    bool public isPausedClaimingToy;\n    bool public isPausedClaimingPainting;\n    bool public isPausedClaimingStatteute;\n\n    mapping(address => uint256) internal addressToClaimedToy;\n    mapping(address => uint256) internal addressToClaimedPainting;\n    mapping(address => uint256) internal addressToClaimedStateutte;\n\n    mapping(uint256 => bool) public oldTokenIDUsed;\n\n    mapping(address => uint256) internal addressToMigratedCameo;\n    mapping(address => uint256) internal addressToMigratedHonorary;\n    \n    mapping(address => uint256) internal addressToRoyalty;\n    ERC721 blootNFT;\n\n    struct Point {\n        uint256 x;\n        uint256 y;\n    }\n\n    struct Rectangle {\n        Point leftBottom;\n        Point rightTop;\n    }\n\n    struct LandMetadata {\n        uint256 collectionID;\n        uint256 tokenID;\n    }\n\n    struct LandDerivateMetadata {\n        address collectionAddress;\n        uint256 tokenID;\n    }\n\n    bool public isPausedClaimingLand;\n    bool public isPausedClaimingRoyal;\n    bool public isPausedClaimingDerivative;\n    string public _contractURI;\n    bool public allowMetadataForAllReserved;\n    uint256 constant landWidth = 100;\n    uint256 constant landHeight = 100;\n    uint256 totalCollection;\n    uint256 constant landTokenBase = 10000;\n    address constant blootAddress = 0x72541Ad75E05BC77C7A92304225937a8F6653372;\n    address constant metaKeyAddress = 0x10DaA9f4c0F985430fdE4959adB2c791ef2CCF83;\n    mapping(address => mapping(uint256 => uint256)) claimedLandOf;\n    mapping(address => mapping(uint256 => bool)) usedRoyalToken;\n    mapping(uint256 => LandMetadata) public landRoyalMetadataOf;\n    mapping(uint256 => LandDerivateMetadata[]) public landDerivativeMetadataOf;\n    mapping(uint256 => uint256) public landDerivativeBalance;\n    mapping(uint256 => address) public collectionAddressByIndex;\n    mapping(address => uint256[]) public collectionIndicesByAddress;\n    mapping(uint256 => Rectangle) public collectionRectByIndex;\n    \n    mapping(address => uint256) mekakeyWallets;\n\n    modifier onlyOwner() {\n        require(_owner == msg.sender, \"Ownable: caller is not the owner\" );\n        _;\n    }\n\n    function initialize() initializer external {\n        __ERC721_init(\"MyPFPland\", \"MyPFPland\");\n        _owner = msg.sender;\n\n        toyTokenIDBase = 0;\n        paintingTokenIDBase = 300;\n        statuetteTokenIDBase = 400;\n        blootNFT = ERC721(0x72541Ad75E05BC77C7A92304225937a8F6653372);\n    }\n\n    function claim(uint256 _category, uint256 _count) external payable {\n        require(_category >= 1, \"out of range\");\n        require(_category <= 3, \"out of range\");\n        if (_category == 1)\n            require(isPausedClaimingToy == false, \"toy claiming is paused\");\n        if (_category == 2)\n            require(isPausedClaimingPainting == false, \"painting claiming is paused\");\n        if (_category == 3)\n            require(isPausedClaimingStatteute == false, \"statteute claiming is paused\");\n        \n        uint256 totalDerivative = getTotalDerivative(msg.sender, _category);\n        if (_category == 1)\n            totalDerivative += addressToMigratedCameo[msg.sender];\n        else if (_category == 2)\n            totalDerivative += addressToMigratedHonorary[msg.sender];\n\n        uint256 tokenID = 0;\n        if (_category == 1)\n            require(totalDerivative >= addressToClaimedToy[msg.sender] + _count, \"already claimed all toys\");\n        else if (_category == 2)\n            require(totalDerivative >= addressToClaimedPainting[msg.sender] + _count, \"already claimed all paintings\");\n        else if (_category == 3)\n            require(totalDerivative >= _count, \"already claimed all statteutes\");\n    \n        for (uint8 i = 0; i < _count; i++) {\n            if (_category == 1) {\n                toyTokenIDs.increment();\n                tokenID = toyTokenIDs.current() + toyTokenIDBase;\n            } else if (_category == 2) {\n                paintingTokenIDs.increment();\n                tokenID = paintingTokenIDs.current() + paintingTokenIDBase;\n            } else if (_category == 3) {\n                statuetteTokenIDs.increment();\n                tokenID = statuetteTokenIDs.current() + statuetteTokenIDBase;\n            }\n            _safeMint(msg.sender, tokenID);\n            _setTokenURI(tokenID, uint2str(tokenID));\n        }\n\n        if (_category == 1)\n            addressToClaimedToy[msg.sender] += _count;\n        else if (_category == 2)\n            addressToClaimedPainting[msg.sender] += _count;\n\n        // set oldTokenIDUsed true for those IDs already used\n        if (totalDerivative > 0 && _category == 3) {\n            for (uint8 i = 0; i < blootNFT.balanceOf(msg.sender); i++) {\n                uint256 tokenId = blootNFT.tokenOfOwnerByIndex(msg.sender, i);\n                if (tokenId <= 1484) {\n                    oldTokenIDUsed[tokenId] = true;\n                }\n            }\n        }\n    }\n\n    function getDerivativesToClaim(address _claimer, uint256 _category) external view returns(uint256) {\n        uint256 remain = 0;\n        if (_category < 1 || _category > 3)\n            return remain;\n        \n        uint256 totalDerivative = getTotalDerivative(_claimer, _category);\n        if (_category == 1) {\n            totalDerivative += addressToMigratedCameo[_claimer];\n            remain = totalDerivative - addressToClaimedToy[_claimer];\n        }\n        else if (_category == 2) {\n            totalDerivative += addressToMigratedHonorary[_claimer];\n            remain = totalDerivative - addressToClaimedPainting[_claimer];\n        }\n        else if (_category == 3) {\n            remain = totalDerivative;\n        }\n\n        return remain;\n    }\n\n    function getTotalDerivative(address _claimer, uint256 _category) internal view returns(uint256) {\n        uint256 result = 0;\n        if (blootNFT.balanceOf(_claimer) == 0)\n            return result;\n        uint256 tokenIdMin;\n        uint256 tokenIdMax;\n        if (_category == 1) {\n            tokenIdMin = 4790;\n            tokenIdMax = 4962;\n        } else if (_category == 2) {\n            tokenIdMin = 4963;\n            tokenIdMax = 5000;\n        } else if (_category == 3) {\n            tokenIdMin = 1;\n            tokenIdMax = 1484;\n        }\n\n        for (uint256 i = 0; i < blootNFT.balanceOf(_claimer); i++) {\n            uint256 tokenId = blootNFT.tokenOfOwnerByIndex(_claimer, i);\n            if (tokenId >= tokenIdMin && tokenId <= tokenIdMax) {\n                if (_category == 3) {\n                    if (!oldTokenIDUsed[tokenId])\n                        result++;\n                }\n                else\n                    result++;\n            }\n        }\n\n        return result;\n    }\n\n    function setPauseClaimingToy(bool _pauseClaimingToy) external onlyOwner {\n        isPausedClaimingToy = _pauseClaimingToy;\n    }\n\n    function setPauseClaimingPainting(bool _pauseClaimingPainting) external onlyOwner {\n        isPausedClaimingPainting = _pauseClaimingPainting;\n    }\n\n    function setPauseClaimingStatteute(bool _pauseClaimingStatteute) external onlyOwner {\n        isPausedClaimingStatteute = _pauseClaimingStatteute;\n    }\n\n    function setBatchCameoWhitelist(address[] calldata _whitelist, uint256 _count) external onlyOwner {\n        for (uint256 i = 0; i < _count; i++) {\n            addressToMigratedCameo[_whitelist[i]] += 1;\n        }\n    }\n\n    function setBatchHonoraryWhitelist(address[] calldata _whitelist, uint256 _count) external onlyOwner {\n        for (uint256 i = 0; i < _count; i++) {\n            addressToMigratedHonorary[_whitelist[i]] += 1;\n        }\n    }\n\n    function setBatchCameoBlacklist(address[] calldata _blacklist, uint256 _count) external onlyOwner {\n        for (uint256 i = 0; i < _count; i++) {\n            addressToMigratedCameo[_blacklist[i]] = 0;\n        }\n    }\n\n    function setBatchHonoraryBlacklist(address[] calldata _blacklist, uint256 _count) external onlyOwner {\n        for (uint256 i = 0; i < _count; i++) {\n            addressToMigratedHonorary[_blacklist[i]] = 0;\n        }\n    }\n\n    function setBatchMekakeyWhitelist(address[] calldata _whitelist, uint256 _count) external onlyOwner {\n        for (uint256 i = 0; i < _count; i++) {\n            mekakeyWallets[_whitelist[i]] += 1;\n        }\n    }\n\n    function setBatchMekakeyBlacklist(address[] calldata _blacklist, uint256 _count) external onlyOwner {\n        for (uint256 i = 0; i < _count; i++) {\n            mekakeyWallets[_blacklist[i]] = 0;\n        }\n    }\n\n    function setBaseURI(string calldata _baseURI) external onlyOwner {\n        super._setBaseURI(_baseURI);\n    }\n\n    function openPayment(bool _open) external onlyOwner {\n        isOpenPayment = _open;\n    }\n\n    function setBatchRoyalty(address[] calldata _people, uint256[] calldata _amount, uint256 _count) external onlyOwner {\n        for (uint256 i = 0; i < _count; i++) {\n            addressToRoyalty[_people[i]] = _amount[i];\n        }\n    }\n\n    function setRoyalty(address _person, uint256 _amount) external onlyOwner {\n        addressToRoyalty[_person] = _amount;\n    }\n\n    function royaltyOf(address _person) external view returns(uint256) {\n        return addressToRoyalty[_person];\n    }\n\n    function withdraw() external onlyOwner {\n        (bool success, ) = _owner.call{value: address(this).balance}(\"\");\n        require(success, \"Failed to send\");\n    }\n\n    function withdrawRoyalty() external {\n        require(isOpenPayment == true, \"Payment is closed\");\n        require(addressToRoyalty[msg.sender] > 0, \"You don't have any royalties\");\n        require(address(this).balance >= addressToRoyalty[msg.sender], \"Insufficient balance in the contract\");\n        require(msg.sender != address(0x0), \"invalid caller\");\n\n        (bool success, ) = msg.sender.call{value: addressToRoyalty[msg.sender]}(\"\");\n        require(success, \"Failed to send eth\");\n        addressToRoyalty[msg.sender] = 0;\n    }\n\n    function transferOwnership(address newOwner) external onlyOwner {\n        require(newOwner != address(0), \"Ownable: new owner is the zero address\");\n        _owner = newOwner;\n    }\n\n    function setPauseClaimingLand(bool _pauseClaimingLand) external onlyOwner {\n        isPausedClaimingLand = _pauseClaimingLand;\n    }\n\n    function setPauseClaimingRoyal(bool _isPausedClaimingRoyal) external onlyOwner {\n        isPausedClaimingRoyal = _isPausedClaimingRoyal;\n    }\n\n    function setPauseClaimingDerivative(bool _isPausedClaimingDerivative) external onlyOwner {\n        isPausedClaimingDerivative = _isPausedClaimingDerivative;\n    }\n\n    function claimLand(uint256 x, uint256 y, uint256 collectionID) external payable {\n        require(x <= landWidth && y <= landHeight, \"exceeds boundary\");\n        require(isPausedClaimingLand == false, \"land claiming is paused\");\n        require(x > collectionRectByIndex[collectionID].leftBottom.x && y > collectionRectByIndex[collectionID].leftBottom.y && x <= collectionRectByIndex[collectionID].rightTop.x && y <= collectionRectByIndex[collectionID].rightTop.y, \"not contained\");\n\n        address collectionAddress = collectionAddressByIndex[collectionID];\n        uint256 claimable;\n        if (collectionAddress == metaKeyAddress) {\n            claimable = mekakeyWallets[msg.sender];\n        } else if (collectionAddress == blootAddress) {\n            if (collectionID == 0 || collectionID == 1 || collectionID == 2 || collectionID == 3) { // honorary collection ids\n                claimable = addressToMigratedHonorary[msg.sender];\n            } else {\n                ERC721 collection = ERC721(collectionAddress);\n                claimable = collection.balanceOf(msg.sender);\n                claimable -= addressToMigratedHonorary[msg.sender];\n            }\n        } else {\n            require(msg.value == 30000000000000000, \"invalid amount\"); //0.03 ETH\n            ERC721 collection = ERC721(collectionAddress);\n            claimable = collection.balanceOf(msg.sender);\n        }\n        \n        require(claimable > 0, \"Don't own any NFT in this collection\");\n        require(claimedLandOf[msg.sender][collectionID] < claimable, \"Already claimed all lands\");\n        uint256 assetID = _encodeTokenId(x, y);\n        _safeMint(msg.sender, landTokenBase + assetID);\n        _setTokenURI(landTokenBase + assetID, uint2str(landTokenBase + assetID));\n        if (collectionID == 0 || collectionID == 1 || collectionID == 2 || collectionID == 3) { // handle honorary exception\n            for (uint256 i = 0; i < 4; i++) {\n                claimedLandOf[msg.sender][i] ++;\n            }\n        } else {\n            uint256[] memory collectionIndices = collectionIndicesByAddress[collectionAddress];\n            for (uint256 i = 0; i < collectionIndices.length; i++) {\n                claimedLandOf[msg.sender][collectionIndices[i]] ++;\n            }\n        }\n    }\n\n    function landOwnerOf(uint256 tokenId) external view returns (address) {\n        ERC721 collection = ERC721(address(this));\n        try collection.ownerOf(tokenId) returns(address owner) {\n            return owner;\n        } catch Error(string memory /*reason*/) {\n            return address(0x0);\n        }\n    }\n\n    function _beforeTokenTransfer(address from, address to, uint256 tokenId) internal virtual override {\n        if (tokenId > landTokenBase) {\n            // remove its royal and derivative tokens\n            LandMetadata memory royalMetadata;\n            royalMetadata.collectionID = 0;\n            royalMetadata.tokenID = 0;\n            // free original usedRoyalToken\n            uint256 originalCollectionID = landRoyalMetadataOf[tokenId].collectionID;\n            usedRoyalToken[collectionAddressByIndex[originalCollectionID]][landRoyalMetadataOf[tokenId].tokenID] = false;\n            \n            // free royal token, derivative token\n            landRoyalMetadataOf[tokenId] = royalMetadata;\n            landDerivativeBalance[tokenId] = 0;\n            delete landDerivativeMetadataOf[tokenId];\n        }\n        super._beforeTokenTransfer(from, to, tokenId);\n    }\n\n    function updateLandRoyalMetaData(uint256 x, uint256 y, uint256 collectionIDOfRoyalMetadata, uint256 tokenID) external {\n        require(x <= landWidth && y <= landHeight, \"exceeds boundary\");\n        require(isPausedClaimingRoyal == false, \"royal claiming is paused\");\n        uint256 assetID = _encodeTokenId(x, y);\n        require(super.ownerOf(landTokenBase + assetID) == msg.sender, \"You are not the owner of this land\");\n        if (!allowMetadataForAllReserved) {\n            require(x > collectionRectByIndex[collectionIDOfRoyalMetadata].leftBottom.x && y > collectionRectByIndex[collectionIDOfRoyalMetadata].leftBottom.y && x <= collectionRectByIndex[collectionIDOfRoyalMetadata].rightTop.x && y <= collectionRectByIndex[collectionIDOfRoyalMetadata].rightTop.y, \"not contained\");\n        }\n        address collectionAddress = collectionAddressByIndex[collectionIDOfRoyalMetadata];\n        ERC721 collection = ERC721(collectionAddress);\n        require(collection.ownerOf(tokenID) == msg.sender, \"You are not the owner of this tokenID\");\n        require(usedRoyalToken[collectionAddress][tokenID] == false, \"This royal NFT is already used\");\n        // free original usedRoyalToken and set the new royalToken used as true\n        uint256 originalCollectionID = landRoyalMetadataOf[landTokenBase + assetID].collectionID;\n        usedRoyalToken[collectionAddressByIndex[originalCollectionID]][landRoyalMetadataOf[landTokenBase + assetID].tokenID] = false;\n        usedRoyalToken[collectionAddress][tokenID] = true;\n        //update royal metadata\n        LandMetadata memory royalMetadata;\n        royalMetadata.collectionID = collectionIDOfRoyalMetadata;\n        royalMetadata.tokenID = tokenID;\n        landRoyalMetadataOf[landTokenBase + assetID] = royalMetadata;\n        // free derivative token\n        landDerivativeBalance[landTokenBase + assetID] = 0;\n        delete landDerivativeMetadataOf[landTokenBase + assetID];\n    }\n\n    function updateLandDerivativeMetaData(uint256 x, uint256 y, address collectionAddrsOfDerMetadata, uint256 tokenID) external {\n        require(x <= landWidth && y <= landHeight, \"exceeds boundary\");\n        require(isPausedClaimingDerivative == false, \"derivative claiming is paused\");\n        uint256 assetID = _encodeTokenId(x, y);\n        require(super.ownerOf(landTokenBase + assetID) == msg.sender, \"You are not the owner of this land\");\n        require((landRoyalMetadataOf[landTokenBase + assetID].collectionID != 0 || landRoyalMetadataOf[landTokenBase + assetID].tokenID != 0), \"Need to set royal NFT first\");\n        ERC721 collection = ERC721(collectionAddrsOfDerMetadata);\n        require(collection.ownerOf(tokenID) == msg.sender, \"You are not the owner of this tokenID\");\n        LandDerivateMetadata memory derivativeMetadata;\n        derivativeMetadata.collectionAddress = collectionAddrsOfDerMetadata;\n        derivativeMetadata.tokenID = tokenID;\n        landDerivativeMetadataOf[landTokenBase + assetID].push(derivativeMetadata);\n        landDerivativeBalance[landTokenBase + assetID] ++;\n    }\n\n    function setAllowMetadataForAllReserved(bool _allowMetadataForAllReserved) external onlyOwner {\n        allowMetadataForAllReserved = _allowMetadataForAllReserved;\n    }\n\n    function getLandMetaData(uint256 collectionID, uint256 tokenID) external view returns(string memory) {\n        address collectionAddress = collectionAddressByIndex[collectionID];\n        ERC721 collection = ERC721(collectionAddress);\n        try collection.tokenURI(tokenID) returns(string memory tokenURI) {\n            return tokenURI;\n        } catch Error(string memory /*reason*/) {\n            return \"\";\n        }\n    }\n\n    function collectionIDAt(uint256 x, uint256 y) external view returns (uint256) {\n        uint256 collectionID;\n        if (x > landWidth || y > landHeight) {\n            return 100000;\n        }\n        Rectangle memory area;\n        Point memory pt;\n        pt.x = x;\n        pt.y = y;\n        for (uint256 i = 0; i < totalCollection; i++) {\n            area = collectionRectByIndex[i];\n            if (isInsideCollectionRect(pt, area)) {\n                collectionID = i;\n                return collectionID;\n            }\n        }\n        return 100000;\n    }\n\n    function totalRoyalBalanceOf(address owner, uint256 collectionID) external view returns (uint256) {\n        if (!allowMetadataForAllReserved) {\n            address collectionAddress = collectionAddressByIndex[collectionID];\n            ERC721 collection = ERC721(collectionAddress);\n            return collection.balanceOf(owner);\n        } else {\n            uint256 totalBalance = 0;\n            address lastAddress;\n            for (uint256 i = 0; i < totalCollection; i++) {\n                address collectionAddress = collectionAddressByIndex[i];\n                if (collectionAddress == lastAddress)\n                    continue;\n                lastAddress = collectionAddress;\n                ERC721 collection = ERC721(collectionAddress);\n                totalBalance += collection.balanceOf(owner);\n            }\n            return totalBalance;\n        }\n    }\n\n    function royalTokenOfOwnerByIndex(address owner, uint256 index, uint256 collectionID) external view returns (uint256, uint256) {\n        uint256 tokenID;\n        if (!allowMetadataForAllReserved) {\n            address collectionAddress = collectionAddressByIndex[collectionID];\n            ERC721 collection = ERC721(collectionAddress);\n            tokenID = collection.tokenOfOwnerByIndex(owner, index);\n            return (collectionID, tokenID);\n        } else {\n            uint256 totalBalance = 0;\n            address lastAddress;\n            for (uint256 i = 0; i < totalCollection; i++) {\n                address collectionAddress = collectionAddressByIndex[i];\n                if (collectionAddress == lastAddress)\n                    continue;\n                lastAddress = collectionAddress;\n                ERC721 collection = ERC721(collectionAddress);\n                totalBalance += collection.balanceOf(owner);\n                if (totalBalance - 1 < index)\n                    continue;\n                uint256 tokenIndex = index - (totalBalance - collection.balanceOf(owner));\n                tokenID = collection.tokenOfOwnerByIndex(owner, tokenIndex);\n                return (i, tokenID);\n            }\n        }\n    }\n\n    function isInsideCollectionRect(Point memory point, Rectangle memory area) public pure returns(bool) {\n        if (point.x > area.leftBottom.x && point.y > area.leftBottom.y && point.x <= area.rightTop.x && point.y <= area.rightTop.y)\n            return true;\n        else\n            return false;\n    }\n\n    function setBatchCollectionRect(uint256[] calldata leftBottomX, uint256[] calldata leftBottomY, uint256[] calldata rightTopX, uint256[] calldata rightTopY, address[] calldata collectionAddress, uint256 count) external onlyOwner {\n        Rectangle memory area;\n        for (uint256 i = 0; i < count; i++) {\n            area.leftBottom.x = leftBottomX[i];\n            area.leftBottom.y = leftBottomY[i];\n\n            area.rightTop.x = rightTopX[i];\n            area.rightTop.y = rightTopY[i];\n            collectionRectByIndex[totalCollection] = area;\n            collectionAddressByIndex[totalCollection] = collectionAddress[i];\n            collectionIndicesByAddress[collectionAddress[i]].push(totalCollection);\n            totalCollection ++;\n        }\n    }\n\n    function resetBatchCollectionRect(uint256[] calldata indices, address[] calldata collectionAddress, uint256 count) external onlyOwner {\n        for (uint256 i = 0; i < count; i++) {\n            delete collectionIndicesByAddress[collectionAddressByIndex[indices[i]]];\n            collectionAddressByIndex[indices[i]] = collectionAddress[i];\n            collectionIndicesByAddress[collectionAddress[i]].push(indices[i]);\n        }\n    }\n\n    function _encodeTokenId(uint256 x, uint256 y) public pure returns (uint256) {\n        return (x - 1) * landHeight + y;\n    }\n\n    function _decodeTokenId(uint256 value) external pure returns (uint256 x, uint256 y) {\n        x = value / landHeight + 1;\n        if (value % landHeight == 0)\n            x = x - 1;        \n        y = value - (x - 1) * landHeight;\n    }\n\n    // for opensea collection \n    function setContractURI(string calldata _contractURI_) external onlyOwner() {\n        _contractURI = _contractURI_;\n    }\n\n    // for opensea collection \n    function contractURI() external view returns (string memory) {\n        return _contractURI;\n    }\n\n    function uint2str(uint _i) internal pure returns (string memory _uintAsString) {\n        if (_i == 0) {\n            return \"0\";\n        }\n        uint j = _i;\n        uint len;\n        while (j != 0) {\n            len++;\n            j /= 10;\n        }\n        bytes memory bstr = new bytes(len);\n        uint k = len - 1;\n        while (_i != 0) {\n            bstr[k--] = byte(uint8(48 + _i % 10));\n            _i /= 10;\n        }\n        return string(bstr);\n    }\n}",
  "sourcePath": "/home/BlootDerivative/contracts/MyPFPlandv2.sol",
  "compiler": {
    "name": "solc",
    "version": "0.6.5+commit.f956cc89.Emscripten.clang"
  },
  "schemaVersion": "3.4.5",
  "updatedAt": "2022-03-12T08:02:51.919Z",
  "networkType": "ethereum",
  "devdoc": {
    "methods": {
      "approve(address,uint256)": {
        "details": "See {IERC721-approve}."
      },
      "balanceOf(address)": {
        "details": "See {IERC721-balanceOf}."
      },
      "baseURI()": {
        "details": "Returns the base URI set via {_setBaseURI}. This will be automatically added as a prefix in {tokenURI} to each token's URI, or to the token ID if no specific URI is set for that token ID."
      },
      "getApproved(uint256)": {
        "details": "See {IERC721-getApproved}."
      },
      "isApprovedForAll(address,address)": {
        "details": "See {IERC721-isApprovedForAll}."
      },
      "name()": {
        "details": "See {IERC721Metadata-name}."
      },
      "ownerOf(uint256)": {
        "details": "See {IERC721-ownerOf}."
      },
      "safeTransferFrom(address,address,uint256)": {
        "details": "See {IERC721-safeTransferFrom}."
      },
      "safeTransferFrom(address,address,uint256,bytes)": {
        "details": "See {IERC721-safeTransferFrom}."
      },
      "setApprovalForAll(address,bool)": {
        "details": "See {IERC721-setApprovalForAll}."
      },
      "supportsInterface(bytes4)": {
        "details": "See {IERC165-supportsInterface}.     * Time complexity O(1), guaranteed to always use less than 30 000 gas."
      },
      "symbol()": {
        "details": "See {IERC721Metadata-symbol}."
      },
      "tokenByIndex(uint256)": {
        "details": "See {IERC721Enumerable-tokenByIndex}."
      },
      "tokenOfOwnerByIndex(address,uint256)": {
        "details": "See {IERC721Enumerable-tokenOfOwnerByIndex}."
      },
      "tokenURI(uint256)": {
        "details": "See {IERC721Metadata-tokenURI}."
      },
      "totalSupply()": {
        "details": "See {IERC721Enumerable-totalSupply}."
      },
      "transferFrom(address,address,uint256)": {
        "details": "See {IERC721-transferFrom}."
      }
    }
  },
  "userdoc": {
    "methods": {}
  }
}