{
  "contractName": "MyPFPlandv4",
  "abi": [
    {
      "anonymous": false,
      "inputs": [
        {
          "indexed": true,
          "internalType": "address",
          "name": "owner",
          "type": "address"
        },
        {
          "indexed": true,
          "internalType": "address",
          "name": "approved",
          "type": "address"
        },
        {
          "indexed": true,
          "internalType": "uint256",
          "name": "tokenId",
          "type": "uint256"
        }
      ],
      "name": "Approval",
      "type": "event"
    },
    {
      "anonymous": false,
      "inputs": [
        {
          "indexed": true,
          "internalType": "address",
          "name": "owner",
          "type": "address"
        },
        {
          "indexed": true,
          "internalType": "address",
          "name": "operator",
          "type": "address"
        },
        {
          "indexed": false,
          "internalType": "bool",
          "name": "approved",
          "type": "bool"
        }
      ],
      "name": "ApprovalForAll",
      "type": "event"
    },
    {
      "anonymous": false,
      "inputs": [
        {
          "indexed": true,
          "internalType": "address",
          "name": "from",
          "type": "address"
        },
        {
          "indexed": true,
          "internalType": "address",
          "name": "to",
          "type": "address"
        },
        {
          "indexed": true,
          "internalType": "uint256",
          "name": "tokenId",
          "type": "uint256"
        }
      ],
      "name": "Transfer",
      "type": "event"
    },
    {
      "inputs": [],
      "name": "_contractURI",
      "outputs": [
        {
          "internalType": "string",
          "name": "",
          "type": "string"
        }
      ],
      "stateMutability": "view",
      "type": "function",
      "constant": true
    },
    {
      "inputs": [],
      "name": "_owner",
      "outputs": [
        {
          "internalType": "address",
          "name": "",
          "type": "address"
        }
      ],
      "stateMutability": "view",
      "type": "function",
      "constant": true
    },
    {
      "inputs": [
        {
          "internalType": "address",
          "name": "",
          "type": "address"
        }
      ],
      "name": "addrToTVHead",
      "outputs": [
        {
          "internalType": "uint256",
          "name": "collectionID",
          "type": "uint256"
        },
        {
          "internalType": "uint256",
          "name": "tokenID",
          "type": "uint256"
        }
      ],
      "stateMutability": "view",
      "type": "function",
      "constant": true
    },
    {
      "inputs": [],
      "name": "allowMetadataForAllReserved",
      "outputs": [
        {
          "internalType": "bool",
          "name": "",
          "type": "bool"
        }
      ],
      "stateMutability": "view",
      "type": "function",
      "constant": true
    },
    {
      "inputs": [
        {
          "internalType": "address",
          "name": "to",
          "type": "address"
        },
        {
          "internalType": "uint256",
          "name": "tokenId",
          "type": "uint256"
        }
      ],
      "name": "approve",
      "outputs": [],
      "stateMutability": "nonpayable",
      "type": "function"
    },
    {
      "inputs": [
        {
          "internalType": "address",
          "name": "owner",
          "type": "address"
        }
      ],
      "name": "balanceOf",
      "outputs": [
        {
          "internalType": "uint256",
          "name": "",
          "type": "uint256"
        }
      ],
      "stateMutability": "view",
      "type": "function",
      "constant": true
    },
    {
      "inputs": [],
      "name": "baseURI",
      "outputs": [
        {
          "internalType": "string",
          "name": "",
          "type": "string"
        }
      ],
      "stateMutability": "view",
      "type": "function",
      "constant": true
    },
    {
      "inputs": [
        {
          "internalType": "uint256",
          "name": "",
          "type": "uint256"
        }
      ],
      "name": "collectionAddressByIndex",
      "outputs": [
        {
          "internalType": "address",
          "name": "",
          "type": "address"
        }
      ],
      "stateMutability": "view",
      "type": "function",
      "constant": true
    },
    {
      "inputs": [
        {
          "internalType": "address",
          "name": "",
          "type": "address"
        },
        {
          "internalType": "uint256",
          "name": "",
          "type": "uint256"
        }
      ],
      "name": "collectionIndicesByAddress",
      "outputs": [
        {
          "internalType": "uint256",
          "name": "",
          "type": "uint256"
        }
      ],
      "stateMutability": "view",
      "type": "function",
      "constant": true
    },
    {
      "inputs": [
        {
          "internalType": "uint256",
          "name": "",
          "type": "uint256"
        }
      ],
      "name": "collectionRectByIndex",
      "outputs": [
        {
          "components": [
            {
              "internalType": "uint256",
              "name": "x",
              "type": "uint256"
            },
            {
              "internalType": "uint256",
              "name": "y",
              "type": "uint256"
            }
          ],
          "internalType": "struct MyPFPlandv4.Point",
          "name": "leftBottom",
          "type": "tuple"
        },
        {
          "components": [
            {
              "internalType": "uint256",
              "name": "x",
              "type": "uint256"
            },
            {
              "internalType": "uint256",
              "name": "y",
              "type": "uint256"
            }
          ],
          "internalType": "struct MyPFPlandv4.Point",
          "name": "rightTop",
          "type": "tuple"
        }
      ],
      "stateMutability": "view",
      "type": "function",
      "constant": true
    },
    {
      "inputs": [
        {
          "internalType": "uint256",
          "name": "tokenId",
          "type": "uint256"
        }
      ],
      "name": "getApproved",
      "outputs": [
        {
          "internalType": "address",
          "name": "",
          "type": "address"
        }
      ],
      "stateMutability": "view",
      "type": "function",
      "constant": true
    },
    {
      "inputs": [
        {
          "internalType": "address",
          "name": "owner",
          "type": "address"
        },
        {
          "internalType": "address",
          "name": "operator",
          "type": "address"
        }
      ],
      "name": "isApprovedForAll",
      "outputs": [
        {
          "internalType": "bool",
          "name": "",
          "type": "bool"
        }
      ],
      "stateMutability": "view",
      "type": "function",
      "constant": true
    },
    {
      "inputs": [],
      "name": "isOpenPayment",
      "outputs": [
        {
          "internalType": "bool",
          "name": "",
          "type": "bool"
        }
      ],
      "stateMutability": "view",
      "type": "function",
      "constant": true
    },
    {
      "inputs": [],
      "name": "isPausedClaimingDerivative",
      "outputs": [
        {
          "internalType": "bool",
          "name": "",
          "type": "bool"
        }
      ],
      "stateMutability": "view",
      "type": "function",
      "constant": true
    },
    {
      "inputs": [],
      "name": "isPausedClaimingLand",
      "outputs": [
        {
          "internalType": "bool",
          "name": "",
          "type": "bool"
        }
      ],
      "stateMutability": "view",
      "type": "function",
      "constant": true
    },
    {
      "inputs": [],
      "name": "isPausedClaimingPainting",
      "outputs": [
        {
          "internalType": "bool",
          "name": "",
          "type": "bool"
        }
      ],
      "stateMutability": "view",
      "type": "function",
      "constant": true
    },
    {
      "inputs": [],
      "name": "isPausedClaimingRoyal",
      "outputs": [
        {
          "internalType": "bool",
          "name": "",
          "type": "bool"
        }
      ],
      "stateMutability": "view",
      "type": "function",
      "constant": true
    },
    {
      "inputs": [],
      "name": "isPausedClaimingStatteute",
      "outputs": [
        {
          "internalType": "bool",
          "name": "",
          "type": "bool"
        }
      ],
      "stateMutability": "view",
      "type": "function",
      "constant": true
    },
    {
      "inputs": [],
      "name": "isPausedClaimingToy",
      "outputs": [
        {
          "internalType": "bool",
          "name": "",
          "type": "bool"
        }
      ],
      "stateMutability": "view",
      "type": "function",
      "constant": true
    },
    {
      "inputs": [
        {
          "internalType": "uint256",
          "name": "",
          "type": "uint256"
        }
      ],
      "name": "landDerivativeBalance",
      "outputs": [
        {
          "internalType": "uint256",
          "name": "",
          "type": "uint256"
        }
      ],
      "stateMutability": "view",
      "type": "function",
      "constant": true
    },
    {
      "inputs": [
        {
          "internalType": "uint256",
          "name": "",
          "type": "uint256"
        },
        {
          "internalType": "uint256",
          "name": "",
          "type": "uint256"
        }
      ],
      "name": "landDerivativeMetadataOf",
      "outputs": [
        {
          "internalType": "address",
          "name": "collectionAddress",
          "type": "address"
        },
        {
          "internalType": "uint256",
          "name": "tokenID",
          "type": "uint256"
        }
      ],
      "stateMutability": "view",
      "type": "function",
      "constant": true
    },
    {
      "inputs": [
        {
          "internalType": "uint256",
          "name": "",
          "type": "uint256"
        }
      ],
      "name": "landRoyalMetadataOf",
      "outputs": [
        {
          "internalType": "uint256",
          "name": "collectionID",
          "type": "uint256"
        },
        {
          "internalType": "uint256",
          "name": "tokenID",
          "type": "uint256"
        }
      ],
      "stateMutability": "view",
      "type": "function",
      "constant": true
    },
    {
      "inputs": [],
      "name": "name",
      "outputs": [
        {
          "internalType": "string",
          "name": "",
          "type": "string"
        }
      ],
      "stateMutability": "view",
      "type": "function",
      "constant": true
    },
    {
      "inputs": [
        {
          "internalType": "uint256",
          "name": "",
          "type": "uint256"
        }
      ],
      "name": "oldTokenIDUsed",
      "outputs": [
        {
          "internalType": "bool",
          "name": "",
          "type": "bool"
        }
      ],
      "stateMutability": "view",
      "type": "function",
      "constant": true
    },
    {
      "inputs": [
        {
          "internalType": "uint256",
          "name": "tokenId",
          "type": "uint256"
        }
      ],
      "name": "ownerOf",
      "outputs": [
        {
          "internalType": "address",
          "name": "",
          "type": "address"
        }
      ],
      "stateMutability": "view",
      "type": "function",
      "constant": true
    },
    {
      "inputs": [
        {
          "internalType": "address",
          "name": "from",
          "type": "address"
        },
        {
          "internalType": "address",
          "name": "to",
          "type": "address"
        },
        {
          "internalType": "uint256",
          "name": "tokenId",
          "type": "uint256"
        }
      ],
      "name": "safeTransferFrom",
      "outputs": [],
      "stateMutability": "nonpayable",
      "type": "function"
    },
    {
      "inputs": [
        {
          "internalType": "address",
          "name": "from",
          "type": "address"
        },
        {
          "internalType": "address",
          "name": "to",
          "type": "address"
        },
        {
          "internalType": "uint256",
          "name": "tokenId",
          "type": "uint256"
        },
        {
          "internalType": "bytes",
          "name": "_data",
          "type": "bytes"
        }
      ],
      "name": "safeTransferFrom",
      "outputs": [],
      "stateMutability": "nonpayable",
      "type": "function"
    },
    {
      "inputs": [
        {
          "internalType": "address",
          "name": "operator",
          "type": "address"
        },
        {
          "internalType": "bool",
          "name": "approved",
          "type": "bool"
        }
      ],
      "name": "setApprovalForAll",
      "outputs": [],
      "stateMutability": "nonpayable",
      "type": "function"
    },
    {
      "inputs": [
        {
          "internalType": "bytes4",
          "name": "interfaceId",
          "type": "bytes4"
        }
      ],
      "name": "supportsInterface",
      "outputs": [
        {
          "internalType": "bool",
          "name": "",
          "type": "bool"
        }
      ],
      "stateMutability": "view",
      "type": "function",
      "constant": true
    },
    {
      "inputs": [],
      "name": "symbol",
      "outputs": [
        {
          "internalType": "string",
          "name": "",
          "type": "string"
        }
      ],
      "stateMutability": "view",
      "type": "function",
      "constant": true
    },
    {
      "inputs": [
        {
          "internalType": "uint256",
          "name": "index",
          "type": "uint256"
        }
      ],
      "name": "tokenByIndex",
      "outputs": [
        {
          "internalType": "uint256",
          "name": "",
          "type": "uint256"
        }
      ],
      "stateMutability": "view",
      "type": "function",
      "constant": true
    },
    {
      "inputs": [
        {
          "internalType": "address",
          "name": "owner",
          "type": "address"
        },
        {
          "internalType": "uint256",
          "name": "index",
          "type": "uint256"
        }
      ],
      "name": "tokenOfOwnerByIndex",
      "outputs": [
        {
          "internalType": "uint256",
          "name": "",
          "type": "uint256"
        }
      ],
      "stateMutability": "view",
      "type": "function",
      "constant": true
    },
    {
      "inputs": [
        {
          "internalType": "uint256",
          "name": "tokenId",
          "type": "uint256"
        }
      ],
      "name": "tokenURI",
      "outputs": [
        {
          "internalType": "string",
          "name": "",
          "type": "string"
        }
      ],
      "stateMutability": "view",
      "type": "function",
      "constant": true
    },
    {
      "inputs": [],
      "name": "totalSupply",
      "outputs": [
        {
          "internalType": "uint256",
          "name": "",
          "type": "uint256"
        }
      ],
      "stateMutability": "view",
      "type": "function",
      "constant": true
    },
    {
      "inputs": [
        {
          "internalType": "address",
          "name": "from",
          "type": "address"
        },
        {
          "internalType": "address",
          "name": "to",
          "type": "address"
        },
        {
          "internalType": "uint256",
          "name": "tokenId",
          "type": "uint256"
        }
      ],
      "name": "transferFrom",
      "outputs": [],
      "stateMutability": "nonpayable",
      "type": "function"
    },
    {
      "inputs": [],
      "name": "initialize",
      "outputs": [],
      "stateMutability": "nonpayable",
      "type": "function"
    },
    {
      "inputs": [
        {
          "internalType": "uint256",
          "name": "_category",
          "type": "uint256"
        },
        {
          "internalType": "uint256",
          "name": "_count",
          "type": "uint256"
        }
      ],
      "name": "claim",
      "outputs": [],
      "stateMutability": "payable",
      "type": "function",
      "payable": true
    },
    {
      "inputs": [
        {
          "internalType": "address",
          "name": "_claimer",
          "type": "address"
        },
        {
          "internalType": "uint256",
          "name": "_category",
          "type": "uint256"
        }
      ],
      "name": "getDerivativesToClaim",
      "outputs": [
        {
          "internalType": "uint256",
          "name": "",
          "type": "uint256"
        }
      ],
      "stateMutability": "view",
      "type": "function",
      "constant": true
    },
    {
      "inputs": [
        {
          "internalType": "bool",
          "name": "_pauseClaimingToy",
          "type": "bool"
        }
      ],
      "name": "setPauseClaimingToy",
      "outputs": [],
      "stateMutability": "nonpayable",
      "type": "function"
    },
    {
      "inputs": [
        {
          "internalType": "bool",
          "name": "_pauseClaimingPainting",
          "type": "bool"
        }
      ],
      "name": "setPauseClaimingPainting",
      "outputs": [],
      "stateMutability": "nonpayable",
      "type": "function"
    },
    {
      "inputs": [
        {
          "internalType": "bool",
          "name": "_pauseClaimingStatteute",
          "type": "bool"
        }
      ],
      "name": "setPauseClaimingStatteute",
      "outputs": [],
      "stateMutability": "nonpayable",
      "type": "function"
    },
    {
      "inputs": [
        {
          "internalType": "address[]",
          "name": "_whitelist",
          "type": "address[]"
        },
        {
          "internalType": "uint256",
          "name": "_count",
          "type": "uint256"
        }
      ],
      "name": "setBatchCameoWhitelist",
      "outputs": [],
      "stateMutability": "nonpayable",
      "type": "function"
    },
    {
      "inputs": [
        {
          "internalType": "address[]",
          "name": "_whitelist",
          "type": "address[]"
        },
        {
          "internalType": "uint256",
          "name": "_count",
          "type": "uint256"
        }
      ],
      "name": "setBatchHonoraryWhitelist",
      "outputs": [],
      "stateMutability": "nonpayable",
      "type": "function"
    },
    {
      "inputs": [
        {
          "internalType": "address[]",
          "name": "_blacklist",
          "type": "address[]"
        },
        {
          "internalType": "uint256",
          "name": "_count",
          "type": "uint256"
        }
      ],
      "name": "setBatchCameoBlacklist",
      "outputs": [],
      "stateMutability": "nonpayable",
      "type": "function"
    },
    {
      "inputs": [
        {
          "internalType": "address[]",
          "name": "_blacklist",
          "type": "address[]"
        },
        {
          "internalType": "uint256",
          "name": "_count",
          "type": "uint256"
        }
      ],
      "name": "setBatchHonoraryBlacklist",
      "outputs": [],
      "stateMutability": "nonpayable",
      "type": "function"
    },
    {
      "inputs": [
        {
          "internalType": "address[]",
          "name": "_whitelist",
          "type": "address[]"
        },
        {
          "internalType": "uint256",
          "name": "_count",
          "type": "uint256"
        }
      ],
      "name": "setBatchMekakeyWhitelist",
      "outputs": [],
      "stateMutability": "nonpayable",
      "type": "function"
    },
    {
      "inputs": [
        {
          "internalType": "address[]",
          "name": "_blacklist",
          "type": "address[]"
        },
        {
          "internalType": "uint256",
          "name": "_count",
          "type": "uint256"
        }
      ],
      "name": "setBatchMekakeyBlacklist",
      "outputs": [],
      "stateMutability": "nonpayable",
      "type": "function"
    },
    {
      "inputs": [
        {
          "internalType": "string",
          "name": "_baseURI",
          "type": "string"
        }
      ],
      "name": "setBaseURI",
      "outputs": [],
      "stateMutability": "nonpayable",
      "type": "function"
    },
    {
      "inputs": [],
      "name": "withdraw",
      "outputs": [],
      "stateMutability": "nonpayable",
      "type": "function"
    },
    {
      "inputs": [
        {
          "internalType": "address",
          "name": "newOwner",
          "type": "address"
        }
      ],
      "name": "transferOwnership",
      "outputs": [],
      "stateMutability": "nonpayable",
      "type": "function"
    },
    {
      "inputs": [
        {
          "internalType": "bool",
          "name": "_pauseClaimingLand",
          "type": "bool"
        }
      ],
      "name": "setPauseClaimingLand",
      "outputs": [],
      "stateMutability": "nonpayable",
      "type": "function"
    },
    {
      "inputs": [
        {
          "internalType": "bool",
          "name": "_isPausedClaimingRoyal",
          "type": "bool"
        }
      ],
      "name": "setPauseClaimingRoyal",
      "outputs": [],
      "stateMutability": "nonpayable",
      "type": "function"
    },
    {
      "inputs": [
        {
          "internalType": "bool",
          "name": "_isPausedClaimingDerivative",
          "type": "bool"
        }
      ],
      "name": "setPauseClaimingDerivative",
      "outputs": [],
      "stateMutability": "nonpayable",
      "type": "function"
    },
    {
      "inputs": [
        {
          "internalType": "uint256",
          "name": "x",
          "type": "uint256"
        },
        {
          "internalType": "uint256",
          "name": "y",
          "type": "uint256"
        },
        {
          "internalType": "uint256",
          "name": "collectionID",
          "type": "uint256"
        }
      ],
      "name": "claimLand",
      "outputs": [],
      "stateMutability": "payable",
      "type": "function",
      "payable": true
    },
    {
      "inputs": [
        {
          "internalType": "uint256",
          "name": "numOfLands",
          "type": "uint256"
        }
      ],
      "name": "batchMintLands",
      "outputs": [],
      "stateMutability": "payable",
      "type": "function",
      "payable": true
    },
    {
      "inputs": [
        {
          "internalType": "uint256",
          "name": "tokenId",
          "type": "uint256"
        }
      ],
      "name": "landOwnerOf",
      "outputs": [
        {
          "internalType": "address",
          "name": "",
          "type": "address"
        }
      ],
      "stateMutability": "view",
      "type": "function",
      "constant": true
    },
    {
      "inputs": [
        {
          "internalType": "uint256",
          "name": "x",
          "type": "uint256"
        },
        {
          "internalType": "uint256",
          "name": "y",
          "type": "uint256"
        },
        {
          "internalType": "uint256",
          "name": "collectionIDOfRoyalMetadata",
          "type": "uint256"
        },
        {
          "internalType": "uint256",
          "name": "tokenID",
          "type": "uint256"
        }
      ],
      "name": "updateLandRoyalMetaData",
      "outputs": [],
      "stateMutability": "nonpayable",
      "type": "function"
    },
    {
      "inputs": [
        {
          "internalType": "uint256",
          "name": "x",
          "type": "uint256"
        },
        {
          "internalType": "uint256",
          "name": "y",
          "type": "uint256"
        },
        {
          "internalType": "address",
          "name": "collectionAddrsOfDerMetadata",
          "type": "address"
        },
        {
          "internalType": "uint256",
          "name": "tokenID",
          "type": "uint256"
        }
      ],
      "name": "updateLandDerivativeMetaData",
      "outputs": [],
      "stateMutability": "nonpayable",
      "type": "function"
    },
    {
      "inputs": [
        {
          "internalType": "uint256",
          "name": "collectionID",
          "type": "uint256"
        },
        {
          "internalType": "uint256",
          "name": "tokenID",
          "type": "uint256"
        }
      ],
      "name": "setTVHead",
      "outputs": [],
      "stateMutability": "nonpayable",
      "type": "function"
    },
    {
      "inputs": [
        {
          "internalType": "bool",
          "name": "_allowMetadataForAllReserved",
          "type": "bool"
        }
      ],
      "name": "setAllowMetadataForAllReserved",
      "outputs": [],
      "stateMutability": "nonpayable",
      "type": "function"
    },
    {
      "inputs": [
        {
          "internalType": "uint256",
          "name": "collectionID",
          "type": "uint256"
        },
        {
          "internalType": "uint256",
          "name": "tokenID",
          "type": "uint256"
        }
      ],
      "name": "getLandMetaData",
      "outputs": [
        {
          "internalType": "string",
          "name": "",
          "type": "string"
        }
      ],
      "stateMutability": "view",
      "type": "function",
      "constant": true
    },
    {
      "inputs": [
        {
          "internalType": "uint256",
          "name": "x",
          "type": "uint256"
        },
        {
          "internalType": "uint256",
          "name": "y",
          "type": "uint256"
        }
      ],
      "name": "collectionIDAt",
      "outputs": [
        {
          "internalType": "uint256",
          "name": "",
          "type": "uint256"
        }
      ],
      "stateMutability": "view",
      "type": "function",
      "constant": true
    },
    {
      "inputs": [
        {
          "internalType": "address",
          "name": "owner",
          "type": "address"
        },
        {
          "internalType": "uint256",
          "name": "collectionID",
          "type": "uint256"
        }
      ],
      "name": "totalRoyalBalanceOf",
      "outputs": [
        {
          "internalType": "uint256",
          "name": "",
          "type": "uint256"
        }
      ],
      "stateMutability": "view",
      "type": "function",
      "constant": true
    },
    {
      "inputs": [
        {
          "internalType": "address",
          "name": "owner",
          "type": "address"
        },
        {
          "internalType": "uint256",
          "name": "index",
          "type": "uint256"
        },
        {
          "internalType": "uint256",
          "name": "collectionID",
          "type": "uint256"
        }
      ],
      "name": "royalTokenOfOwnerByIndex",
      "outputs": [
        {
          "internalType": "uint256",
          "name": "",
          "type": "uint256"
        },
        {
          "internalType": "uint256",
          "name": "",
          "type": "uint256"
        }
      ],
      "stateMutability": "view",
      "type": "function",
      "constant": true
    },
    {
      "inputs": [
        {
          "components": [
            {
              "internalType": "uint256",
              "name": "x",
              "type": "uint256"
            },
            {
              "internalType": "uint256",
              "name": "y",
              "type": "uint256"
            }
          ],
          "internalType": "struct MyPFPlandv4.Point",
          "name": "point",
          "type": "tuple"
        },
        {
          "components": [
            {
              "components": [
                {
                  "internalType": "uint256",
                  "name": "x",
                  "type": "uint256"
                },
                {
                  "internalType": "uint256",
                  "name": "y",
                  "type": "uint256"
                }
              ],
              "internalType": "struct MyPFPlandv4.Point",
              "name": "leftBottom",
              "type": "tuple"
            },
            {
              "components": [
                {
                  "internalType": "uint256",
                  "name": "x",
                  "type": "uint256"
                },
                {
                  "internalType": "uint256",
                  "name": "y",
                  "type": "uint256"
                }
              ],
              "internalType": "struct MyPFPlandv4.Point",
              "name": "rightTop",
              "type": "tuple"
            }
          ],
          "internalType": "struct MyPFPlandv4.Rectangle",
          "name": "area",
          "type": "tuple"
        }
      ],
      "name": "isInsideCollectionRect",
      "outputs": [
        {
          "internalType": "bool",
          "name": "",
          "type": "bool"
        }
      ],
      "stateMutability": "pure",
      "type": "function",
      "constant": true
    },
    {
      "inputs": [
        {
          "internalType": "uint256[]",
          "name": "leftBottomX",
          "type": "uint256[]"
        },
        {
          "internalType": "uint256[]",
          "name": "leftBottomY",
          "type": "uint256[]"
        },
        {
          "internalType": "uint256[]",
          "name": "rightTopX",
          "type": "uint256[]"
        },
        {
          "internalType": "uint256[]",
          "name": "rightTopY",
          "type": "uint256[]"
        },
        {
          "internalType": "address[]",
          "name": "collectionAddress",
          "type": "address[]"
        },
        {
          "internalType": "uint256",
          "name": "count",
          "type": "uint256"
        }
      ],
      "name": "setBatchCollectionRect",
      "outputs": [],
      "stateMutability": "nonpayable",
      "type": "function"
    },
    {
      "inputs": [
        {
          "internalType": "uint256[]",
          "name": "indices",
          "type": "uint256[]"
        },
        {
          "internalType": "address[]",
          "name": "collectionAddress",
          "type": "address[]"
        },
        {
          "internalType": "uint256",
          "name": "count",
          "type": "uint256"
        }
      ],
      "name": "resetBatchCollectionRect",
      "outputs": [],
      "stateMutability": "nonpayable",
      "type": "function"
    },
    {
      "inputs": [
        {
          "internalType": "uint256",
          "name": "_currentCollectionID",
          "type": "uint256"
        },
        {
          "internalType": "uint256",
          "name": "_currentTierID",
          "type": "uint256"
        },
        {
          "internalType": "uint256",
          "name": "_collectionIDLimit",
          "type": "uint256"
        },
        {
          "internalType": "uint256",
          "name": "_tierIDLimit",
          "type": "uint256"
        },
        {
          "internalType": "uint256",
          "name": "_currentMintX",
          "type": "uint256"
        },
        {
          "internalType": "uint256",
          "name": "_currentMintY",
          "type": "uint256"
        }
      ],
      "name": "initBatchMintVariables",
      "outputs": [],
      "stateMutability": "nonpayable",
      "type": "function"
    },
    {
      "inputs": [
        {
          "internalType": "uint256[]",
          "name": "collectionID",
          "type": "uint256[]"
        },
        {
          "internalType": "uint256[]",
          "name": "tierID",
          "type": "uint256[]"
        },
        {
          "internalType": "uint256",
          "name": "count",
          "type": "uint256"
        }
      ],
      "name": "setBatchCollectionTier",
      "outputs": [],
      "stateMutability": "nonpayable",
      "type": "function"
    },
    {
      "inputs": [
        {
          "internalType": "uint256",
          "name": "x",
          "type": "uint256"
        },
        {
          "internalType": "uint256",
          "name": "y",
          "type": "uint256"
        }
      ],
      "name": "_encodeTokenId",
      "outputs": [
        {
          "internalType": "uint256",
          "name": "",
          "type": "uint256"
        }
      ],
      "stateMutability": "pure",
      "type": "function",
      "constant": true
    },
    {
      "inputs": [
        {
          "internalType": "uint256",
          "name": "value",
          "type": "uint256"
        }
      ],
      "name": "_decodeTokenId",
      "outputs": [
        {
          "internalType": "uint256",
          "name": "x",
          "type": "uint256"
        },
        {
          "internalType": "uint256",
          "name": "y",
          "type": "uint256"
        }
      ],
      "stateMutability": "pure",
      "type": "function",
      "constant": true
    },
    {
      "inputs": [
        {
          "internalType": "string",
          "name": "_contractURI_",
          "type": "string"
        }
      ],
      "name": "setContractURI",
      "outputs": [],
      "stateMutability": "nonpayable",
      "type": "function"
    },
    {
      "inputs": [],
      "name": "contractURI",
      "outputs": [
        {
          "internalType": "string",
          "name": "",
          "type": "string"
        }
      ],
      "stateMutability": "view",
      "type": "function",
      "constant": true
    }
  ],
  "bytecode": "0x608060405234801561001057600080fd5b50615a7180620000216000396000f3fe6080604052600436106104265760003560e01c806381c7707311610229578063c0e727401161012e578063d15a271b116100b6578063e8a3d4851161007a578063e8a3d48514610c3d578063e985e9c514610c52578063eacc74b814610c72578063edd57e3214610c92578063f2fde38b14610cb257610426565b8063d15a271b14610bb3578063d678a41f14610bd3578063d6e7d67b14610bf3578063e6031d1b14610c08578063e7ce6c1814610c1d57610426565b8063c616fd4c116100fd578063c616fd4c14610b05578063c87b56dd14610b25578063c8d6ab5614610b45578063caa6626014610b65578063cbc67d3a14610b8557610426565b8063c0e7274014610a9d578063c177273d14610ab2578063c31dbf9614610ad2578063c349026314610af257610426565b8063a317dc54116101b1578063b2bdfa7b11610180578063b2bdfa7b14610a13578063b4b6011b14610a28578063b607a0aa14610a48578063b88d4fde14610a5d578063b9bc6ead14610a7d57610426565b8063a317dc54146109a0578063a7369f95146109b3578063ab531efd146109d3578063b12df58e146109f357610426565b8063938e3d7b116101f8578063938e3d7b1461090b57806395d89b411461092b5780639de4ff1514610940578063a05672f114610960578063a22cb4651461098057610426565b806381c770731461089657806388f62c12146108b65780638a3ac44d146108d657806391ead873146108eb57610426565b80632f745c591161032f5780635bf0234d116102b757806370a082311161028657806370a082311461080c57806374a9a21b1461082c5780637e7498971461084c5780637efa391a146108615780638129fc1c1461088157610426565b80635bf0234d146107a257806360a6fb8f146107b75780636352211e146107d75780636c0360eb146107f757610426565b806348743400116102fe578063487434001461070f5780634d8980f11461072f5780634f6ccce71461074f57806355f804b31461076f5780635669057d1461078f57610426565b80632f745c59146106a55780633ccfd60b146106c557806342842e0e146106da5780634587b3ee146106fa57610426565b80631b1c9c23116103b257806320940d7a1161038157806320940d7a146105f757806322751f8714610617578063237abb891461064557806323b872dd14610665578063283315951461068557610426565b80631b1c9c23146105825780631c5822fe146105a25780631de77dc5146105b75780631f3221b4146105d757610426565b8063095ea7b3116103f9578063095ea7b3146104d25780630b394838146104f257806314d44ea01461051f57806318160ddd1461054d57806318ef37d51461056257610426565b806301ffc9a71461042b57806306fdde031461046157806307f0db2514610483578063081812fc146104a5575b600080fd5b34801561043757600080fd5b5061044b610446366004614b9e565b610cd2565b6040516104589190614f53565b60405180910390f35b34801561046d57600080fd5b50610476610cf5565b6040516104589190614f5e565b34801561048f57600080fd5b506104a361049e3660046149cf565b610d8c565b005b3480156104b157600080fd5b506104c56104c0366004614d1b565b610e1f565b6040516104589190614ecd565b3480156104de57600080fd5b506104a36104ed366004614970565b610e62565b3480156104fe57600080fd5b5061051261050d366004614d1b565b610efa565b6040516104589190615929565b34801561052b57600080fd5b5061053f61053a366004614d4b565b610f0c565b604051610458929190614f3a565b34801561055957600080fd5b50610512610f4f565b34801561056e57600080fd5b506104a361057d366004614a18565b610f60565b34801561058e57600080fd5b506104a361059d3660046149cf565b610fe2565b3480156105ae57600080fd5b5061044b611060565b3480156105c357600080fd5b506104a36105d2366004614d4b565b611070565b3480156105e357600080fd5b506104a36105f2366004614b7e565b61115a565b34801561060357600080fd5b506104a36106123660046149cf565b6111a2565b34801561062357600080fd5b50610637610632366004614d1b565b611220565b604051610458929190615932565b34801561065157600080fd5b5061044b610660366004614d1b565b611239565b34801561067157600080fd5b506104a3610680366004614855565b61124e565b34801561069157600080fd5b506104a36106a03660046149cf565b611286565b3480156106b157600080fd5b506105126106c0366004614970565b61130a565b3480156106d157600080fd5b506104a361133b565b3480156106e657600080fd5b506104a36106f5366004614855565b6113e9565b34801561070657600080fd5b5061044b611404565b34801561071b57600080fd5b506104c561072a366004614d1b565b611414565b34801561073b57600080fd5b506104a361074a366004614b7e565b611564565b34801561075b57600080fd5b5061051261076a366004614d1b565b6115ac565b34801561077b57600080fd5b506104a361078a366004614bd6565b6115c8565b6104a361079d366004614daa565b611635565b3480156107ae57600080fd5b5061044b611742565b3480156107c357600080fd5b506104a36107d2366004614b7e565b611752565b3480156107e357600080fd5b506104c56107f2366004614d1b565b61178f565b34801561080357600080fd5b506104766117bd565b34801561081857600080fd5b506105126108273660046147e5565b61181e565b34801561083857600080fd5b506104c5610847366004614d1b565b611867565b34801561085857600080fd5b5061044b611882565b34801561086d57600080fd5b506104a361087c366004614a18565b611892565b34801561088d57600080fd5b506104a36119fe565b3480156108a257600080fd5b506105126108b1366004614970565b611b11565b3480156108c257600080fd5b506104a36108d1366004614a88565b611bf4565b3480156108e257600080fd5b5061044b611ddd565b3480156108f757600080fd5b506104a36109063660046149cf565b611de6565b34801561091757600080fd5b506104a3610926366004614bd6565b611e64565b34801561093757600080fd5b50610476611e9a565b34801561094c57600080fd5b506104a361095b366004614b7e565b611efb565b34801561096c57600080fd5b5061044b61097b366004614cb4565b611f43565b34801561098c57600080fd5b506104a361099b36600461493f565b611fa2565b6104a36109ae366004614d1b565b612070565b3480156109bf57600080fd5b506106376109ce3660046147e5565b612133565b3480156109df57600080fd5b506105126109ee366004614d4b565b61214c565b3480156109ff57600080fd5b50610476610a0e366004614d4b565b61215c565b348015610a1f57600080fd5b506104c56122f7565b348015610a3457600080fd5b506104a3610a43366004614e06565b612306565b348015610a5457600080fd5b5061044b61234d565b348015610a6957600080fd5b506104a3610a78366004614895565b61235d565b348015610a8957600080fd5b506104a3610a98366004614b7e565b612396565b348015610aa957600080fd5b506104766123de565b348015610abe57600080fd5b50610512610acd366004614970565b61246c565b348015610ade57600080fd5b506104a3610aed3660046149cf565b61249a565b6104a3610b00366004614d4b565b61251e565b348015610b1157600080fd5b50610637610b2036600461499b565b612914565b348015610b3157600080fd5b50610476610b40366004614d1b565b612b31565b348015610b5157600080fd5b50610512610b60366004614970565b612c77565b348015610b7157600080fd5b506104a3610b80366004614b7e565b612d28565b348015610b9157600080fd5b50610ba5610ba0366004614d1b565b612d70565b60405161045892919061590e565b348015610bbf57600080fd5b506104a3610bce366004614dd5565b612db6565b348015610bdf57600080fd5b506104a3610bee366004614b7e565b613008565b348015610bff57600080fd5b5061044b613050565b348015610c1457600080fd5b5061044b613060565b348015610c2957600080fd5b50610512610c38366004614d4b565b613070565b348015610c4957600080fd5b5061047661311b565b348015610c5e57600080fd5b5061044b610c6d36600461481d565b61317c565b348015610c7e57600080fd5b506104a3610c8d366004614d6c565b6131aa565b348015610c9e57600080fd5b50610637610cad366004614d1b565b61338d565b348015610cbe57600080fd5b506104a3610ccd3660046147e5565b6133bf565b6001600160e01b0319811660009081526033602052604090205460ff165b919050565b606a8054604080516020601f6002600019610100600188161502019095169490940493840181900481028201810190925282815260609390929091830182828015610d815780601f10610d5657610100808354040283529160200191610d81565b820191906000526020600020905b815481529060010190602001808311610d6457829003601f168201915b505050505090505b90565b609d546001600160a01b03163314610dbf5760405162461bcd60e51b8152600401610db6906156a4565b60405180910390fd5b60005b81811015610e1957600160b16000868685818110610ddc57fe5b9050602002016020810190610df191906147e5565b6001600160a01b03168152602081019190915260400160002080549091019055600101610dc2565b50505050565b6000610e2a82613431565b610e465760405162461bcd60e51b8152600401610db69061560c565b506000908152606860205260409020546001600160a01b031690565b6000610e6d8261178f565b9050806001600160a01b0316836001600160a01b03161415610ea15760405162461bcd60e51b8152600401610db6906157b6565b806001600160a01b0316610eb3613444565b6001600160a01b03161480610ecf5750610ecf81610c6d613444565b610eeb5760405162461bcd60e51b8152600401610db6906153f0565b610ef58383613448565b505050565b60ad6020526000908152604090205481565b60ac6020528160005260406000208181548110610f2557fe5b6000918252602090912060029091020180546001909101546001600160a01b039091169250905082565b6000610f5b60666134b6565b905090565b609d546001600160a01b03163314610f8a5760405162461bcd60e51b8152600401610db6906156a4565b60005b81811015610fda57838382818110610fa157fe5b9050602002013560b36000888885818110610fb857fe5b6020908102929092013583525081019190915260400160002055600101610f8d565b505050505050565b609d546001600160a01b0316331461100c5760405162461bcd60e51b8152600401610db6906156a4565b60005b81811015610e1957600060b1600086868581811061102957fe5b905060200201602081019061103e91906147e5565b6001600160a01b0316815260208101919091526040016000205560010161100f565b609d54600160a81b900460ff1681565b600082815260ae6020526040908190205490516331a9108f60e11b81526001600160a01b0390911690819033908290636352211e906110b3908790600401615929565b60206040518083038186803b1580156110cb57600080fd5b505afa1580156110df573d6000803e3d6000fd5b505050506040513d601f19601f820116820180604052508101906111039190614801565b6001600160a01b0316146111295760405162461bcd60e51b8152600401610db690615771565b6111316145ad565b9384525050602080830191825233600090815260b2909152604090209151825551600190910155565b609d546001600160a01b031633146111845760405162461bcd60e51b8152600401610db6906156a4565b609d8054911515600160b81b0260ff60b81b19909216919091179055565b609d546001600160a01b031633146111cc5760405162461bcd60e51b8152600401610db6906156a4565b60005b81811015610e1957600060a360008686858181106111e957fe5b90506020020160208101906111fe91906147e5565b6001600160a01b031681526020810191909152604001600020556001016111cf565b60ab602052600090815260409020805460019091015482565b60a16020526000908152604090205460ff1681565b61125f611259613444565b826134c1565b61127b5760405162461bcd60e51b8152600401610db6906157f7565b610ef5838383613546565b609d546001600160a01b031633146112b05760405162461bcd60e51b8152600401610db6906156a4565b60005b81811015610e1957600160a260008686858181106112cd57fe5b90506020020160208101906112e291906147e5565b6001600160a01b031681526020810191909152604001600020805490910190556001016112b3565b6001600160a01b0382166000908152606560205260408120611332908363ffffffff61366616565b90505b92915050565b609d546001600160a01b031633146113655760405162461bcd60e51b8152600401610db6906156a4565b609d546040516000916001600160a01b031690479061138390610d89565b60006040518083038185875af1925050503d80600081146113c0576040519150601f19603f3d011682016040523d82523d6000602084013e6113c5565b606091505b50509050806113e65760405162461bcd60e51b8152600401610db6906158af565b50565b610ef58383836040518060200160405280600081525061235d565b609d54600160b81b900460ff1681565b6040516331a9108f60e11b815260009030908190636352211e9061143c908690600401615929565b60206040518083038186803b15801561145457600080fd5b505afa925050508015611484575060408051601f3d908101601f1916820190925261148191810190614801565b60015b61155b576040516000815260443d10156114a05750600061153b565b60046000803e60005160e01c6308c379a081146114c157600091505061153b565b60043d036004833e81513d60248201116001600160401b03821117156114ec5760009250505061153b565b80830180516001600160401b0381111561150d57600094505050505061153b565b8060208301013d860181111561152b5760009550505050505061153b565b601f01601f191660405250925050505b806115465750611551565b600092505050610cf0565b3d6000803e3d6000fd5b9150610cf09050565b609d546001600160a01b0316331461158e5760405162461bcd60e51b8152600401610db6906156a4565b609d8054911515600160a81b0260ff60a81b19909216919091179055565b6000806115c060668463ffffffff61367216565b509392505050565b609d546001600160a01b031633146115f25760405162461bcd60e51b8152600401610db6906156a4565b61163182828080601f01602080910402602001604051908101604052809392919081815260200183838082843760009201919091525061369092505050565b5050565b60a554600160a01b900460ff161561165f5760405162461bcd60e51b8152600401610db6906158d7565b600060048210158015611673575060068211155b156116ab575033600090815260b16020526040902054806116a65760405162461bcd60e51b8152600401610db690615019565b611709565b600382116116e1575033600090815260a36020526040902054806116a65760405162461bcd60e51b8152600401610db690615019565b67011c37937e0800003410156117095760405162461bcd60e51b8152600401610db6906152a4565b6000611715858561214c565b90506117253382612710016136a3565b61173b6127108201611736816136bd565b613794565b5050505050565b609d54600160b01b900460ff1681565b609d546001600160a01b0316331461177c5760405162461bcd60e51b8152600401610db6906156a4565b60a7805460ff1916911515919091179055565b600061133582604051806060016040528060298152602001615a13602991396066919063ffffffff6137d816565b606d8054604080516020601f6002600019610100600188161502019095169490940493840181900481028201810190925282815260609390929091830182828015610d815780601f10610d5657610100808354040283529160200191610d81565b60006001600160a01b0382166118465760405162461bcd60e51b8152600401610db69061544d565b6001600160a01b0382166000908152606560205260409020611335906134b6565b60ae602052600090815260409020546001600160a01b031681565b60a554600160b01b900460ff1681565b609d546001600160a01b031633146118bc5760405162461bcd60e51b8152600401610db6906156a4565b60005b81811015610fda5760af600060ae60008989868181106118db57fe5b602090810292909201358352508181019290925260409081016000908120546001600160a01b031684529183019390935291018120611919916145c7565b83838281811061192557fe5b905060200201602081019061193a91906147e5565b60ae600088888581811061194a57fe5b90506020020135815260200190815260200160002060006101000a8154816001600160a01b0302191690836001600160a01b0316021790555060af600085858481811061199357fe5b90506020020160208101906119a891906147e5565b6001600160a01b03166001600160a01b031681526020019081526020016000208686838181106119d457fe5b835460018082018655600095865260209586902092909502939093013592019190915550016118bf565b600054610100900460ff1680611a175750611a176137ef565b80611a25575060005460ff16155b611a415760405162461bcd60e51b8152600401610db690615497565b600054610100900460ff16158015611a6c576000805460ff1961ff0019909116610100171660011790555b611ab860405180604001604052806009815260200168135e5411941b185b9960ba1b81525060405180604001604052806009815260200168135e5411941b185b9960ba1b815250613800565b609d80546001600160a01b031990811633179091556000609a5561012c609b55610190609c5560a580549091167372541ad75e05bc77c7a92304225937a8f665337217905580156113e6576000805461ff001916905550565b60008080805b60a854811015611bea57600081815260ae60205260409020546001600160a01b03908116908316811415611b4b5750611be2565b8092506007821015611b5d5750611be2565b6040516370a0823160e01b815281906001600160a01b038216906370a0823190611b8b908b90600401614ecd565b60206040518083038186803b158015611ba357600080fd5b505afa158015611bb7573d6000803e3d6000fd5b505050506040513d601f19601f82011682018060405250810190611bdb9190614d33565b8501945050505b600101611b17565b5090949350505050565b609d546001600160a01b03163314611c1e5760405162461bcd60e51b8152600401610db6906156a4565b611c266145e5565b60005b82811015611dce578c8c82818110611c3d57fe5b845160209091029290920135909152508a8a82818110611c5957fe5b9050602002013582600001516020018181525050888882818110611c7957fe5b6020858101519102929092013590915250868682818110611c9657fe5b6020858101805192820294909401359181019190915260a854600090815260b08252604090208551805182558201516001820155925180516002850155015160039092019190915550848482818110611ceb57fe5b9050602002016020810190611d0091906147e5565b60a88054600090815260ae6020526040902080546001600160a01b0319166001600160a01b0393909316929092179091555415801590611d43575060a854600114155b8015611d52575060a854600214155b8015611d61575060a854600314155b15611dbc5760af6000868684818110611d7657fe5b9050602002016020810190611d8b91906147e5565b6001600160a01b03168152602080820192909252604001600090812060a85481546001810183559183529290912001555b60a88054600190810190915501611c29565b50505050505050505050505050565b60a75460ff1681565b609d546001600160a01b03163314611e105760405162461bcd60e51b8152600401610db6906156a4565b60005b81811015610e1957600060a26000868685818110611e2d57fe5b9050602002016020810190611e4291906147e5565b6001600160a01b03168152602081019190915260400160002055600101611e13565b609d546001600160a01b03163314611e8e5760405162461bcd60e51b8152600401610db6906156a4565b610ef560a6838361460a565b606b8054604080516020601f6002600019610100600188161502019095169490940493840181900481028201810190925282815260609390929091830182828015610d815780601f10610d5657610100808354040283529160200191610d81565b609d546001600160a01b03163314611f255760405162461bcd60e51b8152600401610db6906156a4565b609d8054911515600160b01b0260ff60b01b19909216919091179055565b8051518251600091108015611f6357508160000151602001518360200151115b8015611f755750602082015151835111155b8015611f8d5750816020015160200151836020015111155b15611f9a57506001611335565b506000611335565b611faa613444565b6001600160a01b0316826001600160a01b03161415611fdb5760405162461bcd60e51b8152600401610db690615310565b8060696000611fe8613444565b6001600160a01b03908116825260208083019390935260409182016000908120918716808252919093529120805460ff19169215159290921790915561202c613444565b6001600160a01b03167f17307eab39ab6107e8899845ad3d59bd9653f200f220920489ca2b5937696c31836040516120649190614f53565b60405180910390a35050565b60a554600160a01b900460ff161561209a5760405162461bcd60e51b8152600401610db6906158d7565b8067011c37937e080000023410156120c45760405162461bcd60e51b8152600401610db6906152a4565b60005b818110156116315760006120d961389e565b9050806120f85760405162461bcd60e51b8152600401610db69061523f565b600061210860b65460b75461214c565b90506121183382612710016136a3565b6121296127108201611736816136bd565b50506001016120c7565b60b2602052600090815260409020805460019091015482565b6000198201606402810192915050565b600082815260ae60205260409020546060906001600160a01b03166007841015612196575050604080516020810190915260008152611335565b60405163c87b56dd60e01b815281906001600160a01b0382169063c87b56dd906121c4908790600401615929565b60006040518083038186803b1580156121dc57600080fd5b505afa92505050801561221157506040513d6000823e601f3d908101601f1916820160405261220e9190810190614c3f565b60015b6122ed576040516000815260443d101561222d575060006122c8565b60046000803e60005160e01c6308c379a0811461224e5760009150506122c8565b60043d036004833e81513d60248201116001600160401b0382111715612279576000925050506122c8565b80830180516001600160401b0381111561229a5760009450505050506122c8565b8060208301013d86018111156122b8576000955050505050506122c8565b601f01601f191660405250925050505b806122d35750611551565b604051806020016040528060008152509350505050611335565b9250611335915050565b609d546001600160a01b031681565b609d546001600160a01b031633146123305760405162461bcd60e51b8152600401610db6906156a4565b60b49590955560b59390935560b89190915560b95560b65560b755565b60a554600160a81b900460ff1681565b61236e612368613444565b836134c1565b61238a5760405162461bcd60e51b8152600401610db6906157f7565b610e19848484846139eb565b609d546001600160a01b031633146123c05760405162461bcd60e51b8152600401610db6906156a4565b60a58054911515600160a81b0260ff60a81b19909216919091179055565b60a6805460408051602060026001851615610100026000190190941693909304601f810184900484028201840190925281815292918301828280156124645780601f1061243957610100808354040283529160200191612464565b820191906000526020600020905b81548152906001019060200180831161244757829003601f168201915b505050505081565b60af602052816000526040600020818154811061248557fe5b90600052602060002001600091509150505481565b609d546001600160a01b031633146124c45760405162461bcd60e51b8152600401610db6906156a4565b60005b81811015610e1957600160a360008686858181106124e157fe5b90506020020160208101906124f691906147e5565b6001600160a01b031681526020810191909152604001600020805490910190556001016124c7565b600182101561253f5760405162461bcd60e51b8152600401610db690615347565b60038211156125605760405162461bcd60e51b8152600401610db690615347565b816001141561259357609d54600160a81b900460ff16156125935760405162461bcd60e51b8152600401610db69061587f565b81600214156125c657609d54600160b01b900460ff16156125c65760405162461bcd60e51b8152600401610db6906155d5565b81600314156125f957609d54600160b81b900460ff16156125f95760405162461bcd60e51b8152600401610db69061505d565b60006126053384613a1e565b905082600114156126265733600090815260a2602052604090205401612641565b82600214156126415733600090815260a36020526040902054015b6000600184141561268257336000908152609e6020526040902054830182101561267d5760405162461bcd60e51b8152600401610db6906154e5565b6126e5565b83600214156126bc57336000908152609f6020526040902054830182101561267d5760405162461bcd60e51b8152600401610db690614fb3565b83600314156126e557828210156126e55760405162461bcd60e51b8152600401610db690615208565b60005b838160ff16101561277e57846001141561271b576127066097613c5b565b609a546127136097613c64565b01915061275f565b846002141561273b5761272e6098613c5b565b609b546127136098613c64565b846003141561275f5761274e6099613c5b565b609c5461275b6099613c64565b0191505b61276933836136a3565b61277682611736846136bd565b6001016126e8565b5083600114156127a257336000908152609e602052604090208054840190556127c1565b83600214156127c157336000908152609f602052604090208054840190555b6000821180156127d15750836003145b15610e195760005b60a5546040516370a0823160e01b81526001600160a01b03909116906370a0823190612809903390600401614ecd565b60206040518083038186803b15801561282157600080fd5b505afa158015612835573d6000803e3d6000fd5b505050506040513d601f19601f820116820180604052508101906128599190614d33565b8160ff16101561173b5760a554604051632f745c5960e01b81526000916001600160a01b031690632f745c59906128969033908690600401614f1e565b60206040518083038186803b1580156128ae57600080fd5b505afa1580156128c2573d6000803e3d6000fd5b505050506040513d601f19601f820116820180604052508101906128e69190614d33565b90506105cc811161290b57600081815260a160205260409020805460ff191660011790555b506001016127d9565b600080808080805b60a854811015612b2457600081815260ae60205260409020546001600160a01b039081169083168114156129505750612b1c565b80925060078210156129625750612b1c565b6040516370a0823160e01b815281906001600160a01b038216906370a0823190612990908e90600401614ecd565b60206040518083038186803b1580156129a857600080fd5b505afa1580156129bc573d6000803e3d6000fd5b505050506040513d601f19601f820116820180604052508101906129e09190614d33565b8501945060018510156129f4575050612b1c565b89600186031015612a06575050612b1c565b6040516370a0823160e01b81526000906001600160a01b038316906370a0823190612a35908f90600401614ecd565b60206040518083038186803b158015612a4d57600080fd5b505afa158015612a61573d6000803e3d6000fd5b505050506040513d601f19601f82011682018060405250810190612a859190614d33565b604051632f745c5960e01b81529087038c0391506001600160a01b03831690632f745c5990612aba908f908590600401614f3a565b60206040518083038186803b158015612ad257600080fd5b505afa158015612ae6573d6000803e3d6000fd5b505050506040513d601f19601f82011682018060405250810190612b0a9190614d33565b939850929650612b2995505050505050565b60010161291c565b505050505b935093915050565b6060612b3c82613431565b612b585760405162461bcd60e51b8152600401610db690615722565b6000828152606c602090815260409182902080548351601f6002600019610100600186161502019093169290920491820184900484028101840190945280845260609392830182828015612bed5780601f10612bc257610100808354040283529160200191612bed565b820191906000526020600020905b815481529060010190602001808311612bd057829003601f168201915b505050505090506060612bfe6117bd565b9050805160001415612c1257509050610cf0565b815115612c44578082604051602001612c2c929190614e9f565b60405160208183030381529060405292505050610cf0565b80612c4e85613c68565b604051602001612c5f929190614e9f565b60405160208183030381529060405292505050919050565b6000806001831080612c895750600383115b15612c95579050611335565b6000612ca18585613a1e565b90508360011415612cdd576001600160a01b038516600090815260a26020908152604080832054609e90925290912054910190810391506115c0565b8360021415612d17576001600160a01b038516600090815260a36020908152604080832054609f90925290912054910190810391506115c0565b83600314156115c057949350505050565b609d546001600160a01b03163314612d525760405162461bcd60e51b8152600401610db6906156a4565b60a58054911515600160a01b0260ff60a01b19909216919091179055565b60b0602090815260009182526040918290208251808401845281548152600182015481840152835180850190945260028201548452600390910154918301919091529082565b60a554600160a81b900460ff1615612de05760405162461bcd60e51b8152600401610db69061526d565b6000612dec858561214c565b905033612dfc612710830161178f565b6001600160a01b031614612e225760405162461bcd60e51b8152600401610db69061551c565b6007831015612e435760405162461bcd60e51b8152600401610db690614fea565b600083815260ae6020526040908190205490516331a9108f60e11b81526001600160a01b0390911690819033908290636352211e90612e86908890600401615929565b60206040518083038186803b158015612e9e57600080fd5b505afa158015612eb2573d6000803e3d6000fd5b505050506040513d601f19601f82011682018060405250810190612ed69190614801565b6001600160a01b031614612efc5760405162461bcd60e51b8152600401610db690615771565b6001600160a01b038216600090815260aa6020908152604080832087845290915290205460ff1615612f405760405162461bcd60e51b8152600401610db69061519a565b6127108301600090815260ab60209081526040808320805480855260ae8452828520546001600160a01b03908116865260aa80865284872060019485015488528652848720805460ff19908116909155918916875285528386208a87529094529190932080549092169092179055612fb66145ad565b86815260208082018781526127108701600090815260ab8352604080822085518155925160019093019290925560ad835281812081905560ac9092528120612ffd91614688565b505050505050505050565b609d546001600160a01b031633146130325760405162461bcd60e51b8152600401610db6906156a4565b60a58054911515600160b01b0260ff60b01b19909216919091179055565b60a554600160a01b900460ff1681565b609d54600160a01b900460ff1681565b60008061307b6145e5565b6130836145ad565b8581526020810185905260005b60a85481101561310c57600081815260b0602090815260409182902082516080810184528154818501908152600183015460608301528152835180850190945260028201548452600390910154838301529081019190915292506130f48284611f43565b1561310457935061133592505050565b600101613090565b50620186a09695505050505050565b60a68054604080516020601f6002600019610100600188161502019095169490940493840181900481028201810190925282815260609390929091830182828015610d815780601f10610d5657610100808354040283529160200191610d81565b6001600160a01b03918216600090815260696020908152604080832093909416825291909152205460ff1690565b60a554600160b01b900460ff16156131d45760405162461bcd60e51b8152600401610db6906153b9565b60006131e0858561214c565b9050336131f0612710830161178f565b6001600160a01b0316146132165760405162461bcd60e51b8152600401610db69061551c565b6127108101600090815260ab602052604090205415158061324c57506127108101600090815260ab602052604090206001015415155b6132685760405162461bcd60e51b8152600401610db6906151d1565b6040516331a9108f60e11b8152839033906001600160a01b03831690636352211e90613298908790600401615929565b60206040518083038186803b1580156132b057600080fd5b505afa1580156132c4573d6000803e3d6000fd5b505050506040513d601f19601f820116820180604052508101906132e89190614801565b6001600160a01b03161461330e5760405162461bcd60e51b8152600401610db690615771565b6133166146a9565b6001600160a01b039485168152602080820194855261271093909301600081815260ac855260408082208054600180820183559184528784209551600290910290950180546001600160a01b03191695909916949094178855955196830196909655855260ad909252509120805490910190555050565b600080606483046001019150606483816133a357fe5b066133af576001820391505b5091600019830160640290910390565b609d546001600160a01b031633146133e95760405162461bcd60e51b8152600401610db6906156a4565b6001600160a01b03811661340f5760405162461bcd60e51b8152600401610db6906150e6565b609d80546001600160a01b0319166001600160a01b0392909216919091179055565b600061133560668363ffffffff613d3916565b3390565b600081815260686020526040902080546001600160a01b0319166001600160a01b038416908117909155819061347d8261178f565b6001600160a01b03167f8c5be1e5ebec7d5bd14f71427d1e84f3dd0314c0f7b2291e5b200ac8c7c3b92560405160405180910390a45050565b600061133582613c64565b60006134cc82613431565b6134e85760405162461bcd60e51b8152600401610db69061536d565b60006134f38361178f565b9050806001600160a01b0316846001600160a01b0316148061352e5750836001600160a01b031661352384610e1f565b6001600160a01b0316145b8061353e575061353e818561317c565b949350505050565b826001600160a01b03166135598261178f565b6001600160a01b03161461357f5760405162461bcd60e51b8152600401610db6906156d9565b6001600160a01b0382166135a55760405162461bcd60e51b8152600401610db6906152cc565b6135b0838383613d45565b6135bb600082613448565b6001600160a01b03831660009081526065602052604090206135e3908263ffffffff613de216565b506001600160a01b038216600090815260656020526040902061360c908263ffffffff613dee16565b5061361f6066828463ffffffff613dfa16565b5080826001600160a01b0316846001600160a01b03167fddf252ad1be2c89b69c2b068fc378daa952ba7f163c4a11628f55a4df523b3ef60405160405180910390a4505050565b60006113328383613e10565b60008080806136818686613e55565b909450925050505b9250929050565b805161163190606d9060208401906146c0565b611631828260405180602001604052806000815250613eb1565b6060816136e257506040805180820190915260018152600360fc1b6020820152610cf0565b8160005b81156136fa57600101600a820491506136e6565b6060816001600160401b038111801561371257600080fd5b506040519080825280601f01601f19166020018201604052801561373d576020820181803683370190505b50905060001982015b851561378b57600a860660300160f81b8282806001900393508151811061376957fe5b60200101906001600160f81b031916908160001a905350600a86049550613746565b50949350505050565b61379d82613431565b6137b95760405162461bcd60e51b8152600401610db690615658565b6000828152606c602090815260409091208251610ef5928401906146c0565b60006137e5848484613ee4565b90505b9392505050565b60006137fa30613f43565b15905090565b600054610100900460ff168061381957506138196137ef565b80613827575060005460ff16155b6138435760405162461bcd60e51b8152600401610db690615497565b600054610100900460ff1615801561386e576000805460ff1961ff0019909116610100171660011790555b613876613f49565b61387e613fcb565b6138888383614049565b8015610ef5576000805461ff0019169055505050565b600060b95460b55411156138b457506000610d89565b60b454600090815260b0602052604090206002015460b65410156138e05760b6805460010190556139ac565b60b454600090815260b0602052604090206003015460b75410156139265760b454600090815260b06020526040902054600190810160b65560b7805490910190556139ac565b60b480546001019081905560b85410156139695760b95460b55410613956575060b5805460010190556000610d89565b60b580546001019055600660b455613926565b60b55460b454600090815260b360205260409020541461398857613926565b60b454600090815260b0602052604090208054600190810160b655908101540160b7555b60006139bc60b65460b75461214c565b61271001905060006139cd82611414565b6001600160a01b0316146139e157506138b4565b6001915050610d89565b6139f6848484613546565b613a028484848461410f565b610e195760405162461bcd60e51b8152600401610db690615094565b60a5546040516370a0823160e01b815260009182916001600160a01b03909116906370a0823190613a53908790600401614ecd565b60206040518083038186803b158015613a6b57600080fd5b505afa158015613a7f573d6000803e3d6000fd5b505050506040513d601f19601f82011682018060405250810190613aa39190614d33565b613aae579050611335565b6000808460011415613ac857506112b69050611362613af1565b8460021415613adf57506113639050611388613af1565b8460031415613af15750600190506105cc5b60005b60a5546040516370a0823160e01b81526001600160a01b03909116906370a0823190613b24908a90600401614ecd565b60206040518083038186803b158015613b3c57600080fd5b505afa158015613b50573d6000803e3d6000fd5b505050506040513d601f19601f82011682018060405250810190613b749190614d33565b811015613c505760a554604051632f745c5960e01b81526000916001600160a01b031690632f745c5990613bae908b908690600401614f3a565b60206040518083038186803b158015613bc657600080fd5b505afa158015613bda573d6000803e3d6000fd5b505050506040513d601f19601f82011682018060405250810190613bfe9190614d33565b9050838110158015613c105750828111155b15613c47578660031415613c4057600081815260a1602052604090205460ff16613c3b576001909401935b613c47565b6001909401935b50600101613af4565b509195945050505050565b80546001019055565b5490565b606081613c8d57506040805180820190915260018152600360fc1b6020820152610cf0565b8160005b8115613ca557600101600a82049150613c91565b6060816001600160401b0381118015613cbd57600080fd5b506040519080825280601f01601f191660200182016040528015613ce8576020820181803683370190505b50859350905060001982015b831561378b57600a840660300160f81b82828060019003935081518110613d1757fe5b60200101906001600160f81b031916908160001a905350600a84049350613cf4565b600061133283836141f4565b612710811115613dd757613d576145ad565b6000808252602080830182815284835260ab8083526040808520805480875260ae8652828720546001600160a01b0316875260aa86528287206001830180548952908752838820805460ff191690558988529386528751909155925190915560ad835280842084905560ac9092529082209091613dd49190614688565b50505b610ef5838383610ef5565b6000611332838361420c565b600061133283836142d2565b60006137e584846001600160a01b038516614314565b81546000908210613e335760405162461bcd60e51b8152600401610db690614f71565b826000018281548110613e4257fe5b9060005260206000200154905092915050565b815460009081908310613e7a5760405162461bcd60e51b8152600401610db69061555e565b6000846000018481548110613e8b57fe5b906000526020600020906002020190508060000154816001015492509250509250929050565b613ebb83836143ab565b613ec8600084848461410f565b610ef55760405162461bcd60e51b8152600401610db690615094565b60008281526001840160205260408120548281613f145760405162461bcd60e51b8152600401610db69190614f5e565b50846000016001820381548110613f2757fe5b9060005260206000209060020201600101549150509392505050565b3b151590565b600054610100900460ff1680613f625750613f626137ef565b80613f70575060005460ff16155b613f8c5760405162461bcd60e51b8152600401610db690615497565b600054610100900460ff16158015613fb7576000805460ff1961ff0019909116610100171660011790555b80156113e6576000805461ff001916905550565b600054610100900460ff1680613fe45750613fe46137ef565b80613ff2575060005460ff16155b61400e5760405162461bcd60e51b8152600401610db690615497565b600054610100900460ff16158015614039576000805460ff1961ff0019909116610100171660011790555b613fb76301ffc9a760e01b61447b565b600054610100900460ff168061406257506140626137ef565b80614070575060005460ff16155b61408c5760405162461bcd60e51b8152600401610db690615497565b600054610100900460ff161580156140b7576000805460ff1961ff0019909116610100171660011790555b82516140ca90606a9060208601906146c0565b5081516140de90606b9060208501906146c0565b506140ef6380ac58cd60e01b61447b565b6140ff635b5e139f60e01b61447b565b61388863780e9d6360e01b61447b565b6000614123846001600160a01b0316613f43565b61412f5750600161353e565b60606141bd630a85bd0160e11b614144613444565b88878760405160240161415a9493929190614ee1565b604051602081830303815290604052906001600160e01b0319166020820180516001600160e01b0383818316178352505050506040518060600160405280603281526020016159e1603291396001600160a01b038816919063ffffffff6144ca16565b90506000818060200190518101906141d59190614bba565b6001600160e01b031916630a85bd0160e11b1492505050949350505050565b60009081526001919091016020526040902054151590565b600081815260018301602052604081205480156142c8578354600019808301919081019060009087908390811061423f57fe5b906000526020600020015490508087600001848154811061425c57fe5b60009182526020808320909101929092558281526001898101909252604090209084019055865487908061428c57fe5b60019003818190600052602060002001600090559055866001016000878152602001908152602001600020600090556001945050505050611335565b6000915050611335565b60006142de83836141f4565b611f9a57508154600181810184556000848152602080822090930184905584548482528286019093526040902091909155611335565b6000828152600184016020526040812054806143795750506040805180820182528381526020808201848152865460018181018955600089815284812095516002909302909501918255915190820155865486845281880190925292909120556137e8565b8285600001600183038154811061438c57fe5b90600052602060002090600202016001018190555060009150506137e8565b6001600160a01b0382166143d15760405162461bcd60e51b8152600401610db6906155a0565b6143da81613431565b156143f75760405162461bcd60e51b8152600401610db690615163565b61440360008383613d45565b6001600160a01b038216600090815260656020526040902061442b908263ffffffff613dee16565b5061443e6066828463ffffffff613dfa16565b5060405181906001600160a01b038416906000907fddf252ad1be2c89b69c2b068fc378daa952ba7f163c4a11628f55a4df523b3ef908290a45050565b6001600160e01b031980821614156144a55760405162461bcd60e51b8152600401610db69061512c565b6001600160e01b0319166000908152603360205260409020805460ff19166001179055565b60606137e58484600085856144de85613f43565b6144fa5760405162461bcd60e51b8152600401610db690615848565b60006060866001600160a01b031685876040516145179190614e83565b60006040518083038185875af1925050503d8060008114614554576040519150601f19603f3d011682016040523d82523d6000602084013e614559565b606091505b5091509150614569828286614574565b979650505050505050565b606083156145835750816137e8565b8251156145935782518084602001fd5b8160405162461bcd60e51b8152600401610db69190614f5e565b604051806040016040528060008152602001600081525090565b50805460008255906000526020600020908101906113e6919061472e565b60405180604001604052806145f86145ad565b81526020016146056145ad565b905290565b828054600181600116156101000203166002900490600052602060002090601f016020900481019282601f1061464b5782800160ff19823516178555614678565b82800160010185558215614678579182015b8281111561467857823582559160200191906001019061465d565b5061468492915061472e565b5090565b50805460008255600202906000526020600020908101906113e69190614748565b604080518082019091526000808252602082015290565b828054600181600116156101000203166002900490600052602060002090601f016020900481019282601f1061470157805160ff1916838001178555614678565b82800160010185558215614678579182015b82811115614678578251825591602001919060010190614713565b610d8991905b808211156146845760008155600101614734565b610d8991905b808211156146845780546001600160a01b03191681556000600182015560020161474e565b60008083601f840112614784578182fd5b5081356001600160401b0381111561479a578182fd5b602083019150836020808302850101111561368957600080fd5b6000604082840312156147c5578081fd5b6147cf6040615940565b9050813581526020820135602082015292915050565b6000602082840312156147f6578081fd5b81356137e8816159b5565b600060208284031215614812578081fd5b81516137e8816159b5565b6000806040838503121561482f578081fd5b823561483a816159b5565b9150602083013561484a816159b5565b809150509250929050565b600080600060608486031215614869578081fd5b8335614874816159b5565b92506020840135614884816159b5565b929592945050506040919091013590565b600080600080608085870312156148aa578081fd5b84356148b5816159b5565b935060208501356148c5816159b5565b92506040850135915060608501356001600160401b038111156148e6578182fd5b80860187601f8201126148f7578283fd5b8035915061490c61490783615966565b615940565b828152886020848401011115614920578384fd5b8260208301602083013791820160200192909252939692955090935050565b60008060408385031215614951578182fd5b823561495c816159b5565b91506020830135801515811461484a578182fd5b60008060408385031215614982578182fd5b823561498d816159b5565b946020939093013593505050565b6000806000606084860312156149af578283fd5b83356149ba816159b5565b95602085013595506040909401359392505050565b6000806000604084860312156149e3578283fd5b83356001600160401b038111156149f8578384fd5b614a0486828701614773565b909790965060209590950135949350505050565b600080600080600060608688031215614a2f578283fd5b85356001600160401b0380821115614a45578485fd5b614a5189838a01614773565b90975095506020880135915080821115614a69578485fd5b50614a7688828901614773565b96999598509660400135949350505050565b600080600080600080600080600080600060c08c8e031215614aa8578889fd5b6001600160401b03808d351115614abd57898afd5b614aca8e8e358f01614773565b909c509a5060208d0135811015614adf57898afd5b614aef8e60208f01358f01614773565b909a50985060408d0135811015614b04578687fd5b614b148e60408f01358f01614773565b909850965060608d0135811015614b29578586fd5b614b398e60608f01358f01614773565b909650945060808d0135811015614b4e578384fd5b50614b5f8d60808e01358e01614773565b819450809350505060a08c013590509295989b509295989b9093969950565b600060208284031215614b8f578081fd5b813580151581146137e8578182fd5b600060208284031215614baf578081fd5b81356137e8816159ca565b600060208284031215614bcb578081fd5b81516137e8816159ca565b60008060208385031215614be8578182fd5b82356001600160401b0380821115614bfe578384fd5b81850186601f820112614c0f578485fd5b8035925081831115614c1f578485fd5b866020848301011115614c30578485fd5b60200196919550909350505050565b600060208284031215614c50578081fd5b81516001600160401b03811115614c65578182fd5b80830184601f820112614c76578283fd5b80519150614c8661490783615966565b828152856020848401011115614c9a578384fd5b614cab836020830160208501615989565b95945050505050565b60008082840360c0811215614cc7578283fd5b614cd185856147b4565b92506080603f1982011215614ce4578182fd5b50614cef6040615940565b614cfc85604086016147b4565b8152614d0b85608086016147b4565b6020820152809150509250929050565b600060208284031215614d2c578081fd5b5035919050565b600060208284031215614d44578081fd5b5051919050565b60008060408385031215614d5d578182fd5b50508035926020909101359150565b60008060008060808587031215614d81578182fd5b84359350602085013592506040850135614d9a816159b5565b9396929550929360600135925050565b600080600060608486031215614dbe578081fd5b505081359360208301359350604090920135919050565b60008060008060808587031215614dea578182fd5b5050823594602084013594506040840135936060013592509050565b60008060008060008060c08789031215614e1e578384fd5b505084359660208601359650604086013595606081013595506080810135945060a0013592509050565b60008151808452614e60816020860160208601615989565b601f01601f19169290920160200192915050565b80518252602090810151910152565b60008251614e95818460208701615989565b9190910192915050565b60008351614eb1818460208801615989565b8351908301614ec4828260208801615989565b01949350505050565b6001600160a01b0391909116815260200190565b6001600160a01b0385811682528416602082015260408101839052608060608201819052600090614f1490830184614e48565b9695505050505050565b6001600160a01b0392909216825260ff16602082015260400190565b6001600160a01b03929092168252602082015260400190565b901515815260200190565b6000602082526113326020830184614e48565b60208082526022908201527f456e756d657261626c655365743a20696e646578206f7574206f6620626f756e604082015261647360f01b606082015260800190565b6020808252601d908201527f616c726561647920636c61696d656420616c6c207061696e74696e6773000000604082015260600190565b602080825260159082015274125b9d985b1a590818dbdb1b1958dd1a5bdb881a59605a1b604082015260600190565b60208082526024908201527f446f6e2774206f776e20616e79204e465420696e207468697320636f6c6c65636040820152633a34b7b760e11b606082015260800190565b6020808252601c908201527f73746174746575746520636c61696d696e672069732070617573656400000000604082015260600190565b60208082526032908201527f4552433732313a207472616e7366657220746f206e6f6e20455243373231526560408201527131b2b4bb32b91034b6b83632b6b2b73a32b960711b606082015260800190565b60208082526026908201527f4f776e61626c653a206e6577206f776e657220697320746865207a65726f206160408201526564647265737360d01b606082015260800190565b6020808252601c908201527f4552433136353a20696e76616c696420696e7465726661636520696400000000604082015260600190565b6020808252601c908201527f4552433732313a20746f6b656e20616c7265616479206d696e74656400000000604082015260600190565b6020808252601e908201527f5468697320726f79616c204e465420697320616c726561647920757365640000604082015260600190565b6020808252601b908201527f4e65656420746f2073657420726f79616c204e46542066697273740000000000604082015260600190565b6020808252601e908201527f616c726561647920636c61696d656420616c6c20737461747465757465730000604082015260600190565b602080825260149082015273105b1b081b185b991cc8185c99481b5a5b9d195960621b604082015260600190565b60208082526018908201527f726f79616c20636c61696d696e67206973207061757365640000000000000000604082015260600190565b6020808252600e908201526d1a5b9d985b1a5908185b5bdd5b9d60921b604082015260600190565b60208082526024908201527f4552433732313a207472616e7366657220746f20746865207a65726f206164646040820152637265737360e01b606082015260800190565b60208082526019908201527f4552433732313a20617070726f766520746f2063616c6c657200000000000000604082015260600190565b6020808252600c908201526b6f7574206f662072616e676560a01b604082015260600190565b6020808252602c908201527f4552433732313a206f70657261746f7220717565727920666f72206e6f6e657860408201526b34b9ba32b73a103a37b5b2b760a11b606082015260800190565b6020808252601d908201527f6465726976617469766520636c61696d696e6720697320706175736564000000604082015260600190565b60208082526038908201527f4552433732313a20617070726f76652063616c6c6572206973206e6f74206f7760408201527f6e6572206e6f7220617070726f76656420666f7220616c6c0000000000000000606082015260800190565b6020808252602a908201527f4552433732313a2062616c616e636520717565727920666f7220746865207a65604082015269726f206164647265737360b01b606082015260800190565b6020808252602e908201527f496e697469616c697a61626c653a20636f6e747261637420697320616c72656160408201526d191e481a5b9a5d1a585b1a5e995960921b606082015260800190565b60208082526018908201527f616c726561647920636c61696d656420616c6c20746f79730000000000000000604082015260600190565b60208082526022908201527f596f7520617265206e6f7420746865206f776e6572206f662074686973206c616040820152611b9960f21b606082015260800190565b60208082526022908201527f456e756d657261626c654d61703a20696e646578206f7574206f6620626f756e604082015261647360f01b606082015260800190565b6020808252818101527f4552433732313a206d696e7420746f20746865207a65726f2061646472657373604082015260600190565b6020808252601b908201527f7061696e74696e6720636c61696d696e67206973207061757365640000000000604082015260600190565b6020808252602c908201527f4552433732313a20617070726f76656420717565727920666f72206e6f6e657860408201526b34b9ba32b73a103a37b5b2b760a11b606082015260800190565b6020808252602c908201527f4552433732314d657461646174613a2055524920736574206f66206e6f6e657860408201526b34b9ba32b73a103a37b5b2b760a11b606082015260800190565b6020808252818101527f4f776e61626c653a2063616c6c6572206973206e6f7420746865206f776e6572604082015260600190565b60208082526029908201527f4552433732313a207472616e73666572206f6620746f6b656e2074686174206960408201526839903737ba1037bbb760b91b606082015260800190565b6020808252602f908201527f4552433732314d657461646174613a2055524920717565727920666f72206e6f60408201526e3732bc34b9ba32b73a103a37b5b2b760891b606082015260800190565b60208082526025908201527f596f7520617265206e6f7420746865206f776e6572206f66207468697320746f6040820152641ad95b925160da1b606082015260800190565b60208082526021908201527f4552433732313a20617070726f76616c20746f2063757272656e74206f776e656040820152603960f91b606082015260800190565b60208082526031908201527f4552433732313a207472616e736665722063616c6c6572206973206e6f74206f6040820152701ddb995c881b9bdc88185c1c1c9bdd9959607a1b606082015260800190565b6020808252601d908201527f416464726573733a2063616c6c20746f206e6f6e2d636f6e7472616374000000604082015260600190565b6020808252601690820152751d1bde4818db185a5b5a5b99c81a5cc81c185d5cd95960521b604082015260600190565b6020808252600e908201526d11985a5b1959081d1bc81cd95b9960921b604082015260600190565b60208082526017908201527f6c616e6420636c61696d696e6720697320706175736564000000000000000000604082015260600190565b6080810161591c8285614e74565b6137e86040830184614e74565b90815260200190565b918252602082015260400190565b6040518181016001600160401b038111828210171561595e57600080fd5b604052919050565b60006001600160401b0382111561597b578081fd5b50601f01601f191660200190565b60005b838110156159a457818101518382015260200161598c565b83811115610e195750506000910152565b6001600160a01b03811681146113e657600080fd5b6001600160e01b0319811681146113e657600080fdfe4552433732313a207472616e7366657220746f206e6f6e20455243373231526563656976657220696d706c656d656e7465724552433732313a206f776e657220717565727920666f72206e6f6e6578697374656e7420746f6b656ea26469706673582212208a5b9f68744f0473770bc693272a26ef28fc1a930a690b6a66ef995668e77e3b64736f6c63430006050033",
  "immutableReferences": {},
  "source": "// SPDX-License-Identifier: MIT\npragma solidity ^0.6.5;\npragma experimental ABIEncoderV2;\n\nimport \"@openzeppelin/contracts-upgradeable/token/ERC721/ERC721Upgradeable.sol\";\nimport \"@openzeppelin/contracts-upgradeable/utils/CountersUpgradeable.sol\";\nimport \"@openzeppelin/contracts/token/ERC721/ERC721.sol\";\n\ncontract MyPFPlandv4 is ERC721Upgradeable {\n    using CountersUpgradeable for CountersUpgradeable.Counter;\n\n    CountersUpgradeable.Counter internal toyTokenIDs;\n    CountersUpgradeable.Counter internal paintingTokenIDs;\n    CountersUpgradeable.Counter internal statuetteTokenIDs;\n\n    uint256 internal toyTokenIDBase;\n    uint256 internal paintingTokenIDBase;\n    uint256 internal statuetteTokenIDBase;\n\n    address public _owner;\n    bool public isOpenPayment;\n\n    bool public isPausedClaimingToy;\n    bool public isPausedClaimingPainting;\n    bool public isPausedClaimingStatteute;\n\n    mapping(address => uint256) internal addressToClaimedToy;\n    mapping(address => uint256) internal addressToClaimedPainting;\n    mapping(address => uint256) internal addressToClaimedStateutte;\n\n    mapping(uint256 => bool) public oldTokenIDUsed;\n\n    mapping(address => uint256) internal addressToMigratedCameo;\n    mapping(address => uint256) internal addressToMigratedHonorary;\n    \n    mapping(address => uint256) internal addressToRoyalty;\n    ERC721 blootNFT;\n\n    struct Point {\n        uint256 x;\n        uint256 y;\n    }\n\n    struct Rectangle {\n        Point leftBottom;\n        Point rightTop;\n    }\n\n    struct LandMetadata {\n        uint256 collectionID;\n        uint256 tokenID;\n    }\n\n    struct LandDerivateMetadata {\n        address collectionAddress;\n        uint256 tokenID;\n    }\n\n    bool public isPausedClaimingLand;\n    bool public isPausedClaimingRoyal;\n    bool public isPausedClaimingDerivative;\n    string public _contractURI;\n    bool public allowMetadataForAllReserved;\n    uint256 constant landWidth = 100;\n    uint256 constant landHeight = 100;\n    uint256 totalCollection;\n    uint256 constant landTokenBase = 10000;\n    address constant blootAddress = 0x72541Ad75E05BC77C7A92304225937a8F6653372;\n    address constant metaKeyAddress = 0x10DaA9f4c0F985430fdE4959adB2c791ef2CCF83;\n    mapping(address => mapping(uint256 => uint256)) claimedLandOf;\n    mapping(address => mapping(uint256 => bool)) usedRoyalToken;\n    mapping(uint256 => LandMetadata) public landRoyalMetadataOf;\n    mapping(uint256 => LandDerivateMetadata[]) public landDerivativeMetadataOf;\n    mapping(uint256 => uint256) public landDerivativeBalance;\n    mapping(uint256 => address) public collectionAddressByIndex;\n    mapping(address => uint256[]) public collectionIndicesByAddress;\n    mapping(uint256 => Rectangle) public collectionRectByIndex;\n    \n    mapping(address => uint256) mekakeyWallets;\n\n    mapping(address => LandMetadata) public addrToTVHead;\n    mapping(uint256 => uint256) collectionIDToTierID;\n    uint256 currentCollectionID; // used for tracking of collections in batch mint.\n    uint256 currentTierID;\n    uint256 currentMintX;\n    uint256 currentMintY;\n    uint256 collectionIDLimit;\n    uint256 tierIDLimit;\n\n    modifier onlyOwner() {\n        require(_owner == msg.sender, \"Ownable: caller is not the owner\" );\n        _;\n    }\n\n    function initialize() initializer external {\n        __ERC721_init(\"MyPFPland\", \"MyPFPland\");\n        _owner = msg.sender;\n\n        toyTokenIDBase = 0;\n        paintingTokenIDBase = 300;\n        statuetteTokenIDBase = 400;\n        blootNFT = ERC721(0x72541Ad75E05BC77C7A92304225937a8F6653372);\n    }\n\n    function claim(uint256 _category, uint256 _count) external payable {\n        require(_category >= 1, \"out of range\");\n        require(_category <= 3, \"out of range\");\n        if (_category == 1)\n            require(isPausedClaimingToy == false, \"toy claiming is paused\");\n        if (_category == 2)\n            require(isPausedClaimingPainting == false, \"painting claiming is paused\");\n        if (_category == 3)\n            require(isPausedClaimingStatteute == false, \"statteute claiming is paused\");\n        \n        uint256 totalDerivative = getTotalDerivative(msg.sender, _category);\n        if (_category == 1)\n            totalDerivative += addressToMigratedCameo[msg.sender];\n        else if (_category == 2)\n            totalDerivative += addressToMigratedHonorary[msg.sender];\n\n        uint256 tokenID = 0;\n        if (_category == 1)\n            require(totalDerivative >= addressToClaimedToy[msg.sender] + _count, \"already claimed all toys\");\n        else if (_category == 2)\n            require(totalDerivative >= addressToClaimedPainting[msg.sender] + _count, \"already claimed all paintings\");\n        else if (_category == 3)\n            require(totalDerivative >= _count, \"already claimed all statteutes\");\n    \n        for (uint8 i = 0; i < _count; i++) {\n            if (_category == 1) {\n                toyTokenIDs.increment();\n                tokenID = toyTokenIDs.current() + toyTokenIDBase;\n            } else if (_category == 2) {\n                paintingTokenIDs.increment();\n                tokenID = paintingTokenIDs.current() + paintingTokenIDBase;\n            } else if (_category == 3) {\n                statuetteTokenIDs.increment();\n                tokenID = statuetteTokenIDs.current() + statuetteTokenIDBase;\n            }\n            _safeMint(msg.sender, tokenID);\n            _setTokenURI(tokenID, uint2str(tokenID));\n        }\n\n        if (_category == 1)\n            addressToClaimedToy[msg.sender] += _count;\n        else if (_category == 2)\n            addressToClaimedPainting[msg.sender] += _count;\n\n        // set oldTokenIDUsed true for those IDs already used\n        if (totalDerivative > 0 && _category == 3) {\n            for (uint8 i = 0; i < blootNFT.balanceOf(msg.sender); i++) {\n                uint256 tokenId = blootNFT.tokenOfOwnerByIndex(msg.sender, i);\n                if (tokenId <= 1484) {\n                    oldTokenIDUsed[tokenId] = true;\n                }\n            }\n        }\n    }\n\n    function getDerivativesToClaim(address _claimer, uint256 _category) external view returns(uint256) {\n        uint256 remain = 0;\n        if (_category < 1 || _category > 3)\n            return remain;\n        \n        uint256 totalDerivative = getTotalDerivative(_claimer, _category);\n        if (_category == 1) {\n            totalDerivative += addressToMigratedCameo[_claimer];\n            remain = totalDerivative - addressToClaimedToy[_claimer];\n        }\n        else if (_category == 2) {\n            totalDerivative += addressToMigratedHonorary[_claimer];\n            remain = totalDerivative - addressToClaimedPainting[_claimer];\n        }\n        else if (_category == 3) {\n            remain = totalDerivative;\n        }\n\n        return remain;\n    }\n\n    function getTotalDerivative(address _claimer, uint256 _category) internal view returns(uint256) {\n        uint256 result = 0;\n        if (blootNFT.balanceOf(_claimer) == 0)\n            return result;\n        uint256 tokenIdMin;\n        uint256 tokenIdMax;\n        if (_category == 1) {\n            tokenIdMin = 4790;\n            tokenIdMax = 4962;\n        } else if (_category == 2) {\n            tokenIdMin = 4963;\n            tokenIdMax = 5000;\n        } else if (_category == 3) {\n            tokenIdMin = 1;\n            tokenIdMax = 1484;\n        }\n\n        for (uint256 i = 0; i < blootNFT.balanceOf(_claimer); i++) {\n            uint256 tokenId = blootNFT.tokenOfOwnerByIndex(_claimer, i);\n            if (tokenId >= tokenIdMin && tokenId <= tokenIdMax) {\n                if (_category == 3) {\n                    if (!oldTokenIDUsed[tokenId])\n                        result++;\n                }\n                else\n                    result++;\n            }\n        }\n\n        return result;\n    }\n\n    function setPauseClaimingToy(bool _pauseClaimingToy) external onlyOwner {\n        isPausedClaimingToy = _pauseClaimingToy;\n    }\n\n    function setPauseClaimingPainting(bool _pauseClaimingPainting) external onlyOwner {\n        isPausedClaimingPainting = _pauseClaimingPainting;\n    }\n\n    function setPauseClaimingStatteute(bool _pauseClaimingStatteute) external onlyOwner {\n        isPausedClaimingStatteute = _pauseClaimingStatteute;\n    }\n\n    function setBatchCameoWhitelist(address[] calldata _whitelist, uint256 _count) external onlyOwner {\n        for (uint256 i = 0; i < _count; i++) {\n            addressToMigratedCameo[_whitelist[i]] += 1;\n        }\n    }\n\n    function setBatchHonoraryWhitelist(address[] calldata _whitelist, uint256 _count) external onlyOwner {\n        for (uint256 i = 0; i < _count; i++) {\n            addressToMigratedHonorary[_whitelist[i]] += 1;\n        }\n    }\n\n    function setBatchCameoBlacklist(address[] calldata _blacklist, uint256 _count) external onlyOwner {\n        for (uint256 i = 0; i < _count; i++) {\n            addressToMigratedCameo[_blacklist[i]] = 0;\n        }\n    }\n\n    function setBatchHonoraryBlacklist(address[] calldata _blacklist, uint256 _count) external onlyOwner {\n        for (uint256 i = 0; i < _count; i++) {\n            addressToMigratedHonorary[_blacklist[i]] = 0;\n        }\n    }\n\n    function setBatchMekakeyWhitelist(address[] calldata _whitelist, uint256 _count) external onlyOwner {\n        for (uint256 i = 0; i < _count; i++) {\n            mekakeyWallets[_whitelist[i]] += 1;\n        }\n    }\n\n    function setBatchMekakeyBlacklist(address[] calldata _blacklist, uint256 _count) external onlyOwner {\n        for (uint256 i = 0; i < _count; i++) {\n            mekakeyWallets[_blacklist[i]] = 0;\n        }\n    }\n\n    function setBaseURI(string calldata _baseURI) external onlyOwner {\n        super._setBaseURI(_baseURI);\n    }\n\n    function withdraw() external onlyOwner {\n        (bool success, ) = _owner.call{value: address(this).balance}(\"\");\n        require(success, \"Failed to send\");\n    }\n\n    function transferOwnership(address newOwner) external onlyOwner {\n        require(newOwner != address(0), \"Ownable: new owner is the zero address\");\n        _owner = newOwner;\n    }\n\n    function setPauseClaimingLand(bool _pauseClaimingLand) external onlyOwner {\n        isPausedClaimingLand = _pauseClaimingLand;\n    }\n\n    function setPauseClaimingRoyal(bool _isPausedClaimingRoyal) external onlyOwner {\n        isPausedClaimingRoyal = _isPausedClaimingRoyal;\n    }\n\n    function setPauseClaimingDerivative(bool _isPausedClaimingDerivative) external onlyOwner {\n        isPausedClaimingDerivative = _isPausedClaimingDerivative;\n    }\n\n    function claimLand(uint256 x, uint256 y, uint256 collectionID) external payable {\n        require(isPausedClaimingLand == false, \"land claiming is paused\");\n\n        uint256 claimable;\n        if (collectionID >= 4 && collectionID <= 6) {\n            claimable = mekakeyWallets[msg.sender];\n            require(claimable > 0, \"Don't own any NFT in this collection\");\n        } else if (collectionID >= 0 && collectionID <= 3) { // honorary collection ids\n            claimable = addressToMigratedHonorary[msg.sender];\n            require(claimable > 0, \"Don't own any NFT in this collection\");\n        } else {\n            require(msg.value >= 80000000000000000, \"invalid amount\"); //0.08 ETH\n        }\n        \n        uint256 assetID = _encodeTokenId(x, y);\n        _safeMint(msg.sender, landTokenBase + assetID);\n        _setTokenURI(landTokenBase + assetID, uint2str(landTokenBase + assetID));\n    }\n\n    function batchMintLands(uint256 numOfLands) external payable {\n        require(isPausedClaimingLand == false, \"land claiming is paused\");\n        require(msg.value >= 80000000000000000 * numOfLands, \"invalid amount\"); //0.08 ETH * numOfLands\n\n        for (uint256 i = 0; i < numOfLands; i++) {\n            bool result = stepForwardLand();\n            require(result, \"All lands are minted\");\n            uint256 assetID = _encodeTokenId(currentMintX, currentMintY);\n            _safeMint(msg.sender, landTokenBase + assetID);\n            _setTokenURI(landTokenBase + assetID, uint2str(landTokenBase + assetID));\n        }\n    }\n\n    function landOwnerOf(uint256 tokenId) public view returns (address) {\n        ERC721 collection = ERC721(address(this));\n        try collection.ownerOf(tokenId) returns(address owner) {\n            return owner;\n        } catch Error(string memory /*reason*/) {\n            return address(0x0);\n        }\n    }\n\n    function _beforeTokenTransfer(address from, address to, uint256 tokenId) internal virtual override {\n        if (tokenId > landTokenBase) {\n            // remove its royal and derivative tokens\n            LandMetadata memory royalMetadata;\n            royalMetadata.collectionID = 0;\n            royalMetadata.tokenID = 0;\n            // free original usedRoyalToken\n            uint256 originalCollectionID = landRoyalMetadataOf[tokenId].collectionID;\n            usedRoyalToken[collectionAddressByIndex[originalCollectionID]][landRoyalMetadataOf[tokenId].tokenID] = false;\n            \n            // free royal token, derivative token\n            landRoyalMetadataOf[tokenId] = royalMetadata;\n            landDerivativeBalance[tokenId] = 0;\n            delete landDerivativeMetadataOf[tokenId];\n        }\n        super._beforeTokenTransfer(from, to, tokenId);\n    }\n\n    function updateLandRoyalMetaData(uint256 x, uint256 y, uint256 collectionIDOfRoyalMetadata, uint256 tokenID) external {\n        require(isPausedClaimingRoyal == false, \"royal claiming is paused\");\n        uint256 assetID = _encodeTokenId(x, y);\n        require(super.ownerOf(landTokenBase + assetID) == msg.sender, \"You are not the owner of this land\");\n\n        require(collectionIDOfRoyalMetadata >= 7, \"Invalid collection id\");\n        address collectionAddress = collectionAddressByIndex[collectionIDOfRoyalMetadata];\n        ERC721 collection = ERC721(collectionAddress);\n        require(collection.ownerOf(tokenID) == msg.sender, \"You are not the owner of this tokenID\");\n        require(usedRoyalToken[collectionAddress][tokenID] == false, \"This royal NFT is already used\");\n        // free original usedRoyalToken and set the new royalToken used as true\n        uint256 originalCollectionID = landRoyalMetadataOf[landTokenBase + assetID].collectionID;\n        usedRoyalToken[collectionAddressByIndex[originalCollectionID]][landRoyalMetadataOf[landTokenBase + assetID].tokenID] = false;\n        usedRoyalToken[collectionAddress][tokenID] = true;\n        //update royal metadata\n        LandMetadata memory royalMetadata;\n        royalMetadata.collectionID = collectionIDOfRoyalMetadata;\n        royalMetadata.tokenID = tokenID;\n        landRoyalMetadataOf[landTokenBase + assetID] = royalMetadata;\n        // free derivative token\n        landDerivativeBalance[landTokenBase + assetID] = 0;\n        delete landDerivativeMetadataOf[landTokenBase + assetID];\n    }\n\n    function updateLandDerivativeMetaData(uint256 x, uint256 y, address collectionAddrsOfDerMetadata, uint256 tokenID) external {\n        require(isPausedClaimingDerivative == false, \"derivative claiming is paused\");\n        uint256 assetID = _encodeTokenId(x, y);\n        require(super.ownerOf(landTokenBase + assetID) == msg.sender, \"You are not the owner of this land\");\n        require((landRoyalMetadataOf[landTokenBase + assetID].collectionID != 0 || landRoyalMetadataOf[landTokenBase + assetID].tokenID != 0), \"Need to set royal NFT first\");\n        ERC721 collection = ERC721(collectionAddrsOfDerMetadata);\n        require(collection.ownerOf(tokenID) == msg.sender, \"You are not the owner of this tokenID\");\n        LandDerivateMetadata memory derivativeMetadata;\n        derivativeMetadata.collectionAddress = collectionAddrsOfDerMetadata;\n        derivativeMetadata.tokenID = tokenID;\n        landDerivativeMetadataOf[landTokenBase + assetID].push(derivativeMetadata);\n        landDerivativeBalance[landTokenBase + assetID] ++;\n    }\n\n    function setTVHead(uint256 collectionID, uint256 tokenID) external {\n        address collectionAddress = collectionAddressByIndex[collectionID];\n        ERC721 collection = ERC721(collectionAddress);\n        require(collection.ownerOf(tokenID) == msg.sender, \"You are not the owner of this tokenID\");\n\n        //update TVHead\n        LandMetadata memory tvHead;\n        tvHead.collectionID = collectionID;\n        tvHead.tokenID = tokenID;\n        addrToTVHead[msg.sender] = tvHead;\n    }\n\n    function setAllowMetadataForAllReserved(bool _allowMetadataForAllReserved) external onlyOwner {\n        allowMetadataForAllReserved = _allowMetadataForAllReserved;\n    }\n\n    function getLandMetaData(uint256 collectionID, uint256 tokenID) external view returns(string memory) {\n        address collectionAddress = collectionAddressByIndex[collectionID];\n        if (collectionID < 7)\n            return \"\";\n        ERC721 collection = ERC721(collectionAddress);\n        try collection.tokenURI(tokenID) returns(string memory tokenURI) {\n            return tokenURI;\n        } catch Error(string memory /*reason*/) {\n            return \"\";\n        }\n    }\n\n    function collectionIDAt(uint256 x, uint256 y) external view returns (uint256) {\n        uint256 collectionID;\n        Rectangle memory area;\n        Point memory pt;\n        pt.x = x;\n        pt.y = y;\n        for (uint256 i = 0; i < totalCollection; i++) {\n            area = collectionRectByIndex[i];\n            if (isInsideCollectionRect(pt, area)) {\n                collectionID = i;\n                return collectionID;\n            }\n        }\n        return 100000;\n    }\n\n    function totalRoyalBalanceOf(address owner, uint256 collectionID) external view returns (uint256) {\n        uint256 totalBalance = 0;\n        address lastAddress;\n        for (uint256 i = 0; i < totalCollection; i++) {\n            address collectionAddress = collectionAddressByIndex[i];\n            if (collectionAddress == lastAddress)\n                continue;\n            lastAddress = collectionAddress;\n            if (i < 7) // honorary and metakey\n                continue;\n            ERC721 collection = ERC721(collectionAddress);\n            totalBalance += collection.balanceOf(owner);\n        }\n        return totalBalance;\n    }\n\n    function royalTokenOfOwnerByIndex(address owner, uint256 index, uint256 collectionID) external view returns (uint256, uint256) {\n        uint256 tokenID;\n        uint256 totalBalance = 0;\n        address lastAddress;\n        for (uint256 i = 0; i < totalCollection; i++) {\n            address collectionAddress = collectionAddressByIndex[i];\n            if (collectionAddress == lastAddress)\n                continue;\n            lastAddress = collectionAddress;\n            if (i < 7)\n                continue;\n            ERC721 collection = ERC721(collectionAddress);\n            totalBalance += collection.balanceOf(owner);\n            if (totalBalance < 1)\n                continue;\n            if (totalBalance - 1 < index)\n                continue;\n            uint256 tokenIndex = index - (totalBalance - collection.balanceOf(owner));\n            tokenID = collection.tokenOfOwnerByIndex(owner, tokenIndex);\n            return (i, tokenID);\n        }\n    }\n\n    function isInsideCollectionRect(Point memory point, Rectangle memory area) public pure returns(bool) {\n        if (point.x > area.leftBottom.x && point.y > area.leftBottom.y && point.x <= area.rightTop.x && point.y <= area.rightTop.y)\n            return true;\n        else\n            return false;\n    }\n\n    function setBatchCollectionRect(uint256[] calldata leftBottomX, uint256[] calldata leftBottomY, uint256[] calldata rightTopX, uint256[] calldata rightTopY, address[] calldata collectionAddress, uint256 count) external onlyOwner {\n        Rectangle memory area;\n        for (uint256 i = 0; i < count; i++) {\n            area.leftBottom.x = leftBottomX[i];\n            area.leftBottom.y = leftBottomY[i];\n\n            area.rightTop.x = rightTopX[i];\n            area.rightTop.y = rightTopY[i];\n            collectionRectByIndex[totalCollection] = area;\n            collectionAddressByIndex[totalCollection] = collectionAddress[i];\n            if (totalCollection != 0 && totalCollection != 1 && totalCollection != 2 && totalCollection != 3)\n                collectionIndicesByAddress[collectionAddress[i]].push(totalCollection);\n            totalCollection ++;\n        }\n    }\n\n    function resetBatchCollectionRect(uint256[] calldata indices, address[] calldata collectionAddress, uint256 count) external onlyOwner {\n        for (uint256 i = 0; i < count; i++) {\n            delete collectionIndicesByAddress[collectionAddressByIndex[indices[i]]];\n            collectionAddressByIndex[indices[i]] = collectionAddress[i];\n            collectionIndicesByAddress[collectionAddress[i]].push(indices[i]);\n        }\n    }\n\n    function initBatchMintVariables(uint256 _currentCollectionID, uint256 _currentTierID, uint256 _collectionIDLimit, uint256 _tierIDLimit, uint256 _currentMintX, uint256 _currentMintY) external onlyOwner {\n        currentCollectionID = _currentCollectionID; // 7\n        currentTierID = _currentTierID; // 3\n        collectionIDLimit = _collectionIDLimit; // 144\n        tierIDLimit = _tierIDLimit; // 5\n\n        currentMintX = _currentMintX; // 55\n        currentMintY = _currentMintY; // 45\n    }\n\n    function setBatchCollectionTier(uint256[] calldata collectionID, uint256[] calldata tierID, uint256 count) external onlyOwner {\n        for (uint256 i = 0; i < count; i++) {\n            collectionIDToTierID[collectionID[i]] = tierID[i];\n        }\n    }\n\n    function stepForwardLand() internal returns(bool){\n        if (currentTierID > tierIDLimit)\n            return false;\n        while(true) {\n            if (currentMintX < collectionRectByIndex[currentCollectionID].rightTop.x) {\n                currentMintX ++;\n            } else if (currentMintY < collectionRectByIndex[currentCollectionID].rightTop.y) {\n                currentMintX = collectionRectByIndex[currentCollectionID].leftBottom.x + 1;\n                currentMintY ++;\n            }\n            else {\n                while (true) {\n                    currentCollectionID ++;\n                    if (currentCollectionID > collectionIDLimit) {\n                        if (currentTierID >= tierIDLimit) {\n                            currentTierID ++;\n                            return false;\n                        } else {\n                            currentTierID ++;\n                            currentCollectionID = 6;\n                            continue;\n                        }\n                    }\n                    if (collectionIDToTierID[currentCollectionID] != currentTierID)\n                        continue;\n                    else\n                        break;\n                }\n                currentMintX = collectionRectByIndex[currentCollectionID].leftBottom.x + 1;\n                currentMintY = collectionRectByIndex[currentCollectionID].leftBottom.y + 1;\n            }\n            uint256 assetID = landTokenBase + _encodeTokenId(currentMintX, currentMintY);\n\n            if (landOwnerOf(assetID) != address(0x0))\n                continue;\n            else\n                return true;\n        }\n    }\n\n    function _encodeTokenId(uint256 x, uint256 y) public pure returns (uint256) {\n        return (x - 1) * landHeight + y;\n    }\n\n    function _decodeTokenId(uint256 value) external pure returns (uint256 x, uint256 y) {\n        x = value / landHeight + 1;\n        if (value % landHeight == 0)\n            x = x - 1;        \n        y = value - (x - 1) * landHeight;\n    }\n\n    // for opensea collection \n    function setContractURI(string calldata _contractURI_) external onlyOwner() {\n        _contractURI = _contractURI_;\n    }\n\n    // for opensea collection \n    function contractURI() external view returns (string memory) {\n        return _contractURI;\n    }\n\n    function uint2str(uint _i) internal pure returns (string memory _uintAsString) {\n        if (_i == 0) {\n            return \"0\";\n        }\n        uint j = _i;\n        uint len;\n        while (j != 0) {\n            len++;\n            j /= 10;\n        }\n        bytes memory bstr = new bytes(len);\n        uint k = len - 1;\n        while (_i != 0) {\n            bstr[k--] = byte(uint8(48 + _i % 10));\n            _i /= 10;\n        }\n        return string(bstr);\n    }\n}",
  "sourcePath": "/home/BlootDerivative/contracts/MyPFPlandv4.sol",
  "compiler": {
    "name": "solc",
    "version": "0.6.5+commit.f956cc89.Emscripten.clang"
  },
  "schemaVersion": "3.4.5",
  "updatedAt": "2022-03-12T08:02:52.124Z",
  "networkType": "ethereum",
  "devdoc": {
    "methods": {
      "approve(address,uint256)": {
        "details": "See {IERC721-approve}."
      },
      "balanceOf(address)": {
        "details": "See {IERC721-balanceOf}."
      },
      "baseURI()": {
        "details": "Returns the base URI set via {_setBaseURI}. This will be automatically added as a prefix in {tokenURI} to each token's URI, or to the token ID if no specific URI is set for that token ID."
      },
      "getApproved(uint256)": {
        "details": "See {IERC721-getApproved}."
      },
      "isApprovedForAll(address,address)": {
        "details": "See {IERC721-isApprovedForAll}."
      },
      "name()": {
        "details": "See {IERC721Metadata-name}."
      },
      "ownerOf(uint256)": {
        "details": "See {IERC721-ownerOf}."
      },
      "safeTransferFrom(address,address,uint256)": {
        "details": "See {IERC721-safeTransferFrom}."
      },
      "safeTransferFrom(address,address,uint256,bytes)": {
        "details": "See {IERC721-safeTransferFrom}."
      },
      "setApprovalForAll(address,bool)": {
        "details": "See {IERC721-setApprovalForAll}."
      },
      "supportsInterface(bytes4)": {
        "details": "See {IERC165-supportsInterface}.     * Time complexity O(1), guaranteed to always use less than 30 000 gas."
      },
      "symbol()": {
        "details": "See {IERC721Metadata-symbol}."
      },
      "tokenByIndex(uint256)": {
        "details": "See {IERC721Enumerable-tokenByIndex}."
      },
      "tokenOfOwnerByIndex(address,uint256)": {
        "details": "See {IERC721Enumerable-tokenOfOwnerByIndex}."
      },
      "tokenURI(uint256)": {
        "details": "See {IERC721Metadata-tokenURI}."
      },
      "totalSupply()": {
        "details": "See {IERC721Enumerable-totalSupply}."
      },
      "transferFrom(address,address,uint256)": {
        "details": "See {IERC721-transferFrom}."
      }
    }
  },
  "userdoc": {
    "methods": {}
  }
}