{
  "contractName": "MyPFPland",
  "abi": [
    {
      "anonymous": false,
      "inputs": [
        {
          "indexed": true,
          "internalType": "address",
          "name": "owner",
          "type": "address"
        },
        {
          "indexed": true,
          "internalType": "address",
          "name": "approved",
          "type": "address"
        },
        {
          "indexed": true,
          "internalType": "uint256",
          "name": "tokenId",
          "type": "uint256"
        }
      ],
      "name": "Approval",
      "type": "event"
    },
    {
      "anonymous": false,
      "inputs": [
        {
          "indexed": true,
          "internalType": "address",
          "name": "owner",
          "type": "address"
        },
        {
          "indexed": true,
          "internalType": "address",
          "name": "operator",
          "type": "address"
        },
        {
          "indexed": false,
          "internalType": "bool",
          "name": "approved",
          "type": "bool"
        }
      ],
      "name": "ApprovalForAll",
      "type": "event"
    },
    {
      "anonymous": false,
      "inputs": [
        {
          "indexed": true,
          "internalType": "address",
          "name": "from",
          "type": "address"
        },
        {
          "indexed": true,
          "internalType": "address",
          "name": "to",
          "type": "address"
        },
        {
          "indexed": true,
          "internalType": "uint256",
          "name": "tokenId",
          "type": "uint256"
        }
      ],
      "name": "Transfer",
      "type": "event"
    },
    {
      "inputs": [],
      "name": "_owner",
      "outputs": [
        {
          "internalType": "address",
          "name": "",
          "type": "address"
        }
      ],
      "stateMutability": "view",
      "type": "function"
    },
    {
      "inputs": [
        {
          "internalType": "address",
          "name": "to",
          "type": "address"
        },
        {
          "internalType": "uint256",
          "name": "tokenId",
          "type": "uint256"
        }
      ],
      "name": "approve",
      "outputs": [],
      "stateMutability": "nonpayable",
      "type": "function"
    },
    {
      "inputs": [
        {
          "internalType": "address",
          "name": "owner",
          "type": "address"
        }
      ],
      "name": "balanceOf",
      "outputs": [
        {
          "internalType": "uint256",
          "name": "",
          "type": "uint256"
        }
      ],
      "stateMutability": "view",
      "type": "function"
    },
    {
      "inputs": [],
      "name": "baseURI",
      "outputs": [
        {
          "internalType": "string",
          "name": "",
          "type": "string"
        }
      ],
      "stateMutability": "view",
      "type": "function"
    },
    {
      "inputs": [
        {
          "internalType": "uint256",
          "name": "tokenId",
          "type": "uint256"
        }
      ],
      "name": "getApproved",
      "outputs": [
        {
          "internalType": "address",
          "name": "",
          "type": "address"
        }
      ],
      "stateMutability": "view",
      "type": "function"
    },
    {
      "inputs": [
        {
          "internalType": "address",
          "name": "owner",
          "type": "address"
        },
        {
          "internalType": "address",
          "name": "operator",
          "type": "address"
        }
      ],
      "name": "isApprovedForAll",
      "outputs": [
        {
          "internalType": "bool",
          "name": "",
          "type": "bool"
        }
      ],
      "stateMutability": "view",
      "type": "function"
    },
    {
      "inputs": [],
      "name": "isOpenPayment",
      "outputs": [
        {
          "internalType": "bool",
          "name": "",
          "type": "bool"
        }
      ],
      "stateMutability": "view",
      "type": "function"
    },
    {
      "inputs": [],
      "name": "isPausedClaimingPainting",
      "outputs": [
        {
          "internalType": "bool",
          "name": "",
          "type": "bool"
        }
      ],
      "stateMutability": "view",
      "type": "function"
    },
    {
      "inputs": [],
      "name": "isPausedClaimingStatteute",
      "outputs": [
        {
          "internalType": "bool",
          "name": "",
          "type": "bool"
        }
      ],
      "stateMutability": "view",
      "type": "function"
    },
    {
      "inputs": [],
      "name": "isPausedClaimingToy",
      "outputs": [
        {
          "internalType": "bool",
          "name": "",
          "type": "bool"
        }
      ],
      "stateMutability": "view",
      "type": "function"
    },
    {
      "inputs": [],
      "name": "name",
      "outputs": [
        {
          "internalType": "string",
          "name": "",
          "type": "string"
        }
      ],
      "stateMutability": "view",
      "type": "function"
    },
    {
      "inputs": [
        {
          "internalType": "uint256",
          "name": "",
          "type": "uint256"
        }
      ],
      "name": "oldTokenIDUsed",
      "outputs": [
        {
          "internalType": "bool",
          "name": "",
          "type": "bool"
        }
      ],
      "stateMutability": "view",
      "type": "function"
    },
    {
      "inputs": [
        {
          "internalType": "uint256",
          "name": "tokenId",
          "type": "uint256"
        }
      ],
      "name": "ownerOf",
      "outputs": [
        {
          "internalType": "address",
          "name": "",
          "type": "address"
        }
      ],
      "stateMutability": "view",
      "type": "function"
    },
    {
      "inputs": [
        {
          "internalType": "address",
          "name": "from",
          "type": "address"
        },
        {
          "internalType": "address",
          "name": "to",
          "type": "address"
        },
        {
          "internalType": "uint256",
          "name": "tokenId",
          "type": "uint256"
        }
      ],
      "name": "safeTransferFrom",
      "outputs": [],
      "stateMutability": "nonpayable",
      "type": "function"
    },
    {
      "inputs": [
        {
          "internalType": "address",
          "name": "from",
          "type": "address"
        },
        {
          "internalType": "address",
          "name": "to",
          "type": "address"
        },
        {
          "internalType": "uint256",
          "name": "tokenId",
          "type": "uint256"
        },
        {
          "internalType": "bytes",
          "name": "_data",
          "type": "bytes"
        }
      ],
      "name": "safeTransferFrom",
      "outputs": [],
      "stateMutability": "nonpayable",
      "type": "function"
    },
    {
      "inputs": [
        {
          "internalType": "address",
          "name": "operator",
          "type": "address"
        },
        {
          "internalType": "bool",
          "name": "approved",
          "type": "bool"
        }
      ],
      "name": "setApprovalForAll",
      "outputs": [],
      "stateMutability": "nonpayable",
      "type": "function"
    },
    {
      "inputs": [
        {
          "internalType": "bytes4",
          "name": "interfaceId",
          "type": "bytes4"
        }
      ],
      "name": "supportsInterface",
      "outputs": [
        {
          "internalType": "bool",
          "name": "",
          "type": "bool"
        }
      ],
      "stateMutability": "view",
      "type": "function"
    },
    {
      "inputs": [],
      "name": "symbol",
      "outputs": [
        {
          "internalType": "string",
          "name": "",
          "type": "string"
        }
      ],
      "stateMutability": "view",
      "type": "function"
    },
    {
      "inputs": [
        {
          "internalType": "uint256",
          "name": "index",
          "type": "uint256"
        }
      ],
      "name": "tokenByIndex",
      "outputs": [
        {
          "internalType": "uint256",
          "name": "",
          "type": "uint256"
        }
      ],
      "stateMutability": "view",
      "type": "function"
    },
    {
      "inputs": [
        {
          "internalType": "address",
          "name": "owner",
          "type": "address"
        },
        {
          "internalType": "uint256",
          "name": "index",
          "type": "uint256"
        }
      ],
      "name": "tokenOfOwnerByIndex",
      "outputs": [
        {
          "internalType": "uint256",
          "name": "",
          "type": "uint256"
        }
      ],
      "stateMutability": "view",
      "type": "function"
    },
    {
      "inputs": [
        {
          "internalType": "uint256",
          "name": "tokenId",
          "type": "uint256"
        }
      ],
      "name": "tokenURI",
      "outputs": [
        {
          "internalType": "string",
          "name": "",
          "type": "string"
        }
      ],
      "stateMutability": "view",
      "type": "function"
    },
    {
      "inputs": [],
      "name": "totalSupply",
      "outputs": [
        {
          "internalType": "uint256",
          "name": "",
          "type": "uint256"
        }
      ],
      "stateMutability": "view",
      "type": "function"
    },
    {
      "inputs": [
        {
          "internalType": "address",
          "name": "from",
          "type": "address"
        },
        {
          "internalType": "address",
          "name": "to",
          "type": "address"
        },
        {
          "internalType": "uint256",
          "name": "tokenId",
          "type": "uint256"
        }
      ],
      "name": "transferFrom",
      "outputs": [],
      "stateMutability": "nonpayable",
      "type": "function"
    },
    {
      "inputs": [],
      "name": "initialize",
      "outputs": [],
      "stateMutability": "nonpayable",
      "type": "function"
    },
    {
      "inputs": [
        {
          "internalType": "uint256",
          "name": "_category",
          "type": "uint256"
        },
        {
          "internalType": "uint256",
          "name": "_count",
          "type": "uint256"
        }
      ],
      "name": "claim",
      "outputs": [],
      "stateMutability": "payable",
      "type": "function"
    },
    {
      "inputs": [
        {
          "internalType": "address[]",
          "name": "_claimList",
          "type": "address[]"
        },
        {
          "internalType": "uint256[]",
          "name": "_tokenIDs",
          "type": "uint256[]"
        },
        {
          "internalType": "uint256",
          "name": "_count",
          "type": "uint256"
        }
      ],
      "name": "airdrop",
      "outputs": [],
      "stateMutability": "nonpayable",
      "type": "function"
    },
    {
      "inputs": [
        {
          "internalType": "address",
          "name": "_claimer",
          "type": "address"
        },
        {
          "internalType": "uint256",
          "name": "_category",
          "type": "uint256"
        }
      ],
      "name": "getDerivativesToClaim",
      "outputs": [
        {
          "internalType": "uint256",
          "name": "",
          "type": "uint256"
        }
      ],
      "stateMutability": "view",
      "type": "function"
    },
    {
      "inputs": [
        {
          "internalType": "bool",
          "name": "_pauseClaimingToy",
          "type": "bool"
        }
      ],
      "name": "setPauseClaimingToy",
      "outputs": [],
      "stateMutability": "nonpayable",
      "type": "function"
    },
    {
      "inputs": [
        {
          "internalType": "bool",
          "name": "_pauseClaimingPainting",
          "type": "bool"
        }
      ],
      "name": "setPauseClaimingPainting",
      "outputs": [],
      "stateMutability": "nonpayable",
      "type": "function"
    },
    {
      "inputs": [
        {
          "internalType": "bool",
          "name": "_pauseClaimingStatteute",
          "type": "bool"
        }
      ],
      "name": "setPauseClaimingStatteute",
      "outputs": [],
      "stateMutability": "nonpayable",
      "type": "function"
    },
    {
      "inputs": [
        {
          "internalType": "address[]",
          "name": "_whitelist",
          "type": "address[]"
        },
        {
          "internalType": "uint256",
          "name": "_count",
          "type": "uint256"
        }
      ],
      "name": "setBatchCameoWhitelist",
      "outputs": [],
      "stateMutability": "nonpayable",
      "type": "function"
    },
    {
      "inputs": [
        {
          "internalType": "address[]",
          "name": "_whitelist",
          "type": "address[]"
        },
        {
          "internalType": "uint256",
          "name": "_count",
          "type": "uint256"
        }
      ],
      "name": "setBatchHonoraryWhitelist",
      "outputs": [],
      "stateMutability": "nonpayable",
      "type": "function"
    },
    {
      "inputs": [
        {
          "internalType": "string",
          "name": "_baseURI",
          "type": "string"
        }
      ],
      "name": "setBaseURI",
      "outputs": [],
      "stateMutability": "nonpayable",
      "type": "function"
    },
    {
      "inputs": [
        {
          "internalType": "uint256",
          "name": "_tokenID",
          "type": "uint256"
        },
        {
          "internalType": "uint256",
          "name": "_tokenURI",
          "type": "uint256"
        }
      ],
      "name": "setTokenURI",
      "outputs": [],
      "stateMutability": "nonpayable",
      "type": "function"
    },
    {
      "inputs": [
        {
          "internalType": "uint256[]",
          "name": "_tokenIDs",
          "type": "uint256[]"
        },
        {
          "internalType": "uint256[]",
          "name": "_tokenURIs",
          "type": "uint256[]"
        },
        {
          "internalType": "uint256",
          "name": "_count",
          "type": "uint256"
        }
      ],
      "name": "setTokenURIs",
      "outputs": [],
      "stateMutability": "nonpayable",
      "type": "function"
    },
    {
      "inputs": [
        {
          "internalType": "bool",
          "name": "_open",
          "type": "bool"
        }
      ],
      "name": "openPayment",
      "outputs": [],
      "stateMutability": "nonpayable",
      "type": "function"
    },
    {
      "inputs": [
        {
          "internalType": "address[]",
          "name": "_people",
          "type": "address[]"
        },
        {
          "internalType": "uint256[]",
          "name": "_amount",
          "type": "uint256[]"
        },
        {
          "internalType": "uint256",
          "name": "_count",
          "type": "uint256"
        }
      ],
      "name": "setBatchRoyalty",
      "outputs": [],
      "stateMutability": "nonpayable",
      "type": "function"
    },
    {
      "inputs": [
        {
          "internalType": "address",
          "name": "_person",
          "type": "address"
        },
        {
          "internalType": "uint256",
          "name": "_amount",
          "type": "uint256"
        }
      ],
      "name": "setRoyalty",
      "outputs": [],
      "stateMutability": "nonpayable",
      "type": "function"
    },
    {
      "inputs": [
        {
          "internalType": "address",
          "name": "_person",
          "type": "address"
        }
      ],
      "name": "royaltyOf",
      "outputs": [
        {
          "internalType": "uint256",
          "name": "",
          "type": "uint256"
        }
      ],
      "stateMutability": "view",
      "type": "function"
    },
    {
      "inputs": [],
      "name": "withdraw",
      "outputs": [],
      "stateMutability": "nonpayable",
      "type": "function"
    },
    {
      "inputs": [],
      "name": "withdrawRoyalty",
      "outputs": [],
      "stateMutability": "nonpayable",
      "type": "function"
    },
    {
      "inputs": [
        {
          "internalType": "address",
          "name": "newOwner",
          "type": "address"
        }
      ],
      "name": "transferOwnership",
      "outputs": [],
      "stateMutability": "nonpayable",
      "type": "function"
    }
  ],
  "bytecode": "0x608060405234801561001057600080fd5b50614046806100206000396000f3fe6080604052600436106102515760003560e01c80635bf0234d11610139578063b88d4fde116100b6578063c8d6ab561161007a578063c8d6ab5614610c2f578063d782336014610c68578063e6031d1b14610c98578063e985e9c514610cad578063f1147bae14610ce8578063f2fde38b14610cfd57610251565b8063b88d4fde14610a63578063bb30d4ce14610b34578063c31dbf9614610b67578063c349026314610be2578063c87b56dd14610c0557610251565b80638129fc1c116100fd5780638129fc1c146109bd57806395d89b41146109d25780639de4ff15146109e7578063a22cb46514610a13578063b2bdfa7b14610a4e57610251565b80635bf0234d1461086b5780636352211e146108805780636c0360eb146108aa57806370a08231146108bf578063731186eb146108f257610251565b806323b872dd116101d257806342842e0e1161019657806342842e0e146106775780634587b3ee146106ba5780634d8980f1146106cf5780634f6ccce7146106fb57806355f804b314610725578063572c61c3146107a057610251565b806323b872dd1461053f57806328331595146105825780632cd1826b146105fd5780632f745c59146106295780633ccfd60b1461066257610251565b806318160ddd1161021957806318160ddd146103e25780631b33bf57146104095780631c5822fe146104d45780631f3221b4146104e9578063237abb891461051557610251565b806301ffc9a71461025657806306fdde031461029e578063081812fc14610328578063095ea7b31461036e57806310fd332b146103a9575b600080fd5b34801561026257600080fd5b5061028a6004803603602081101561027957600080fd5b50356001600160e01b031916610d30565b604080519115158252519081900360200190f35b3480156102aa57600080fd5b506102b3610d53565b6040805160208082528351818301528351919283929083019185019080838360005b838110156102ed5781810151838201526020016102d5565b50505050905090810190601f16801561031a5780820380516001836020036101000a031916815260200191505b509250505060405180910390f35b34801561033457600080fd5b506103526004803603602081101561034b57600080fd5b5035610dea565b604080516001600160a01b039092168252519081900360200190f35b34801561037a57600080fd5b506103a76004803603604081101561039157600080fd5b506001600160a01b038135169060200135610e4c565b005b3480156103b557600080fd5b506103a7600480360360408110156103cc57600080fd5b506001600160a01b038135169060200135610f27565b3480156103ee57600080fd5b506103f7610f90565b60408051918252519081900360200190f35b34801561041557600080fd5b506103a76004803603606081101561042c57600080fd5b810190602081018135600160201b81111561044657600080fd5b82018360208201111561045857600080fd5b803590602001918460208302840111600160201b8311171561047957600080fd5b919390929091602081019035600160201b81111561049657600080fd5b8201836020820111156104a857600080fd5b803590602001918460208302840111600160201b831117156104c957600080fd5b919350915035610fa1565b3480156104e057600080fd5b5061028a61103f565b3480156104f557600080fd5b506103a76004803603602081101561050c57600080fd5b5035151561104f565b34801561052157600080fd5b5061028a6004803603602081101561053857600080fd5b50356110ba565b34801561054b57600080fd5b506103a76004803603606081101561056257600080fd5b506001600160a01b038135811691602081013590911690604001356110cf565b34801561058e57600080fd5b506103a7600480360360408110156105a557600080fd5b810190602081018135600160201b8111156105bf57600080fd5b8201836020820111156105d157600080fd5b803590602001918460208302840111600160201b831117156105f257600080fd5b919350915035611126565b34801561060957600080fd5b506103a76004803603602081101561062057600080fd5b503515156111c8565b34801561063557600080fd5b506103f76004803603604081101561064c57600080fd5b506001600160a01b038135169060200135611233565b34801561066e57600080fd5b506103a7611264565b34801561068357600080fd5b506103a76004803603606081101561069a57600080fd5b506001600160a01b0381358116916020810135909116906040013561134d565b3480156106c657600080fd5b5061028a611368565b3480156106db57600080fd5b506103a7600480360360208110156106f257600080fd5b50351515611378565b34801561070757600080fd5b506103f76004803603602081101561071e57600080fd5b50356113e3565b34801561073157600080fd5b506103a76004803603602081101561074857600080fd5b810190602081018135600160201b81111561076257600080fd5b82018360208201111561077457600080fd5b803590602001918460018302840111600160201b8311171561079557600080fd5b5090925090506113ff565b3480156107ac57600080fd5b506103a7600480360360608110156107c357600080fd5b810190602081018135600160201b8111156107dd57600080fd5b8201836020820111156107ef57600080fd5b803590602001918460208302840111600160201b8311171561081057600080fd5b919390929091602081019035600160201b81111561082d57600080fd5b82018360208201111561083f57600080fd5b803590602001918460208302840111600160201b8311171561086057600080fd5b91935091503561148f565b34801561087757600080fd5b5061028a611535565b34801561088c57600080fd5b50610352600480360360208110156108a357600080fd5b5035611545565b3480156108b657600080fd5b506102b3611573565b3480156108cb57600080fd5b506103f7600480360360208110156108e257600080fd5b50356001600160a01b03166115d4565b3480156108fe57600080fd5b506103a76004803603606081101561091557600080fd5b810190602081018135600160201b81111561092f57600080fd5b82018360208201111561094157600080fd5b803590602001918460208302840111600160201b8311171561096257600080fd5b919390929091602081019035600160201b81111561097f57600080fd5b82018360208201111561099157600080fd5b803590602001918460208302840111600160201b831117156109b257600080fd5b91935091503561163c565b3480156109c957600080fd5b506103a7611936565b3480156109de57600080fd5b506102b3611a68565b3480156109f357600080fd5b506103a760048036036020811015610a0a57600080fd5b50351515611ac9565b348015610a1f57600080fd5b506103a760048036036040811015610a3657600080fd5b506001600160a01b0381351690602001351515611b34565b348015610a5a57600080fd5b50610352611c39565b348015610a6f57600080fd5b506103a760048036036080811015610a8657600080fd5b6001600160a01b03823581169260208101359091169160408201359190810190608081016060820135600160201b811115610ac057600080fd5b820183602082011115610ad257600080fd5b803590602001918460018302840111600160201b83111715610af357600080fd5b91908080601f016020809104026020016040519081016040528093929190818152602001838380828437600092019190915250929550611c48945050505050565b348015610b4057600080fd5b506103f760048036036020811015610b5757600080fd5b50356001600160a01b0316611ca0565b348015610b7357600080fd5b506103a760048036036040811015610b8a57600080fd5b810190602081018135600160201b811115610ba457600080fd5b820183602082011115610bb657600080fd5b803590602001918460208302840111600160201b83111715610bd757600080fd5b919350915035611cbb565b6103a760048036036040811015610bf857600080fd5b5080359060200135611d57565b348015610c1157600080fd5b506102b360048036036020811015610c2857600080fd5b50356122c7565b348015610c3b57600080fd5b506103f760048036036040811015610c5257600080fd5b506001600160a01b03813516906020013561254a565b348015610c7457600080fd5b506103a760048036036040811015610c8b57600080fd5b50803590602001356125fb565b348015610ca457600080fd5b5061028a612655565b348015610cb957600080fd5b5061028a60048036036040811015610cd057600080fd5b506001600160a01b0381358116916020013516612665565b348015610cf457600080fd5b506103a7612693565b348015610d0957600080fd5b506103a760048036036020811015610d2057600080fd5b50356001600160a01b031661288d565b6001600160e01b0319811660009081526033602052604090205460ff165b919050565b606a8054604080516020601f6002600019610100600188161502019095169490940493840181900481028201810190925282815260609390929091830182828015610ddf5780601f10610db457610100808354040283529160200191610ddf565b820191906000526020600020905b815481529060010190602001808311610dc257829003601f168201915b505050505090505b90565b6000610df582612941565b610e305760405162461bcd60e51b815260040180806020018281038252602c815260200180613ecb602c913960400191505060405180910390fd5b506000908152606860205260409020546001600160a01b031690565b6000610e5782611545565b9050806001600160a01b0316836001600160a01b03161415610eaa5760405162461bcd60e51b8152600401808060200182810382526021815260200180613f9b6021913960400191505060405180910390fd5b806001600160a01b0316610ebc612954565b6001600160a01b03161480610edd5750610edd81610ed8612954565b612665565b610f185760405162461bcd60e51b8152600401808060200182810382526038815260200180613df06038913960400191505060405180910390fd5b610f228383612958565b505050565b609d546001600160a01b03163314610f74576040805162461bcd60e51b81526020600482018190526024820152600080516020613f23833981519152604482015290519081900360640190fd5b6001600160a01b03909116600090815260a46020526040902055565b6000610f9c60666129c6565b905090565b609d546001600160a01b03163314610fee576040805162461bcd60e51b81526020600482018190526024820152600080516020613f23833981519152604482015290519081900360640190fd5b60005b818110156110375761102f86868381811061100857fe5b9050602002013561102a86868581811061101e57fe5b905060200201356129d1565b612aa9565b600101610ff1565b505050505050565b609d54600160a81b900460ff1681565b609d546001600160a01b0316331461109c576040805162461bcd60e51b81526020600482018190526024820152600080516020613f23833981519152604482015290519081900360640190fd5b609d8054911515600160b81b0260ff60b81b19909216919091179055565b60a16020526000908152604090205460ff1681565b6110e06110da612954565b82612b0c565b61111b5760405162461bcd60e51b8152600401808060200182810382526031815260200180613fbc6031913960400191505060405180910390fd5b610f22838383612bb0565b609d546001600160a01b03163314611173576040805162461bcd60e51b81526020600482018190526024820152600080516020613f23833981519152604482015290519081900360640190fd5b60005b818110156111c257600160a2600086868581811061119057fe5b602090810292909201356001600160a01b03168352508101919091526040016000208054919091019055600101611176565b50505050565b609d546001600160a01b03163314611215576040805162461bcd60e51b81526020600482018190526024820152600080516020613f23833981519152604482015290519081900360640190fd5b609d8054911515600160a01b0260ff60a01b19909216919091179055565b6001600160a01b038216600090815260656020526040812061125b908363ffffffff612d0e16565b90505b92915050565b609d546001600160a01b031633146112b1576040805162461bcd60e51b81526020600482018190526024820152600080516020613f23833981519152604482015290519081900360640190fd5b609d546040516000916001600160a01b03169047908381818185875af1925050503d80600081146112fe576040519150601f19603f3d011682016040523d82523d6000602084013e611303565b606091505b505090508061134a576040805162461bcd60e51b815260206004820152600e60248201526d11985a5b1959081d1bc81cd95b9960921b604482015290519081900360640190fd5b50565b610f2283838360405180602001604052806000815250611c48565b609d54600160b81b900460ff1681565b609d546001600160a01b031633146113c5576040805162461bcd60e51b81526020600482018190526024820152600080516020613f23833981519152604482015290519081900360640190fd5b609d8054911515600160a81b0260ff60a81b19909216919091179055565b6000806113f760668463ffffffff612d1a16565b509392505050565b609d546001600160a01b0316331461144c576040805162461bcd60e51b81526020600482018190526024820152600080516020613f23833981519152604482015290519081900360640190fd5b61148b82828080601f016020809104026020016040519081016040528093929190818152602001838380828437600092019190915250612d3692505050565b5050565b609d546001600160a01b031633146114dc576040805162461bcd60e51b81526020600482018190526024820152600080516020613f23833981519152604482015290519081900360640190fd5b60005b81811015611037578383828181106114f357fe5b9050602002013560a4600088888581811061150a57fe5b602090810292909201356001600160a01b0316835250810191909152604001600020556001016114df565b609d54600160b01b900460ff1681565b600061125e82604051806060016040528060298152602001613e52602991396066919063ffffffff612d4916565b606d8054604080516020601f6002600019610100600188161502019095169490940493840181900481028201810190925282815260609390929091830182828015610ddf5780601f10610db457610100808354040283529160200191610ddf565b60006001600160a01b03821661161b5760405162461bcd60e51b815260040180806020018281038252602a815260200180613e28602a913960400191505060405180910390fd5b6001600160a01b038216600090815260656020526040902061125e906129c6565b609d546001600160a01b03163314611689576040805162461bcd60e51b81526020600482018190526024820152600080516020613f23833981519152604482015290519081900360640190fd5b60005b8181101561103757600061012c8585848181106116a557fe5b905060200201351161170c576116bb6097612d60565b609a546116c86097612d69565b0190506001609e60008989868181106116dd57fe5b602090810292909201356001600160a01b0316835250810191909152604001600020805491909101905561176e565b61019085858481811061171b57fe5b9050602002013511611753576117316098612d60565b609b5461173e6098612d69565b0190506001609f60008989868181106116dd57fe5b61175d6099612d60565b609c5461176a6099612d69565b0190505b61179387878481811061177d57fe5b905060200201356001600160a01b031682612d6d565b6117a08161102a836129d1565b61019081111561192d5760005b60a5546001600160a01b03166370a082318989868181106117ca57fe5b905060200201356001600160a01b03166040518263ffffffff1660e01b815260040180826001600160a01b03166001600160a01b0316815260200191505060206040518083038186803b15801561182057600080fd5b505afa158015611834573d6000803e3d6000fd5b505050506040513d602081101561184a57600080fd5b505181101561192b5760a5546000906001600160a01b0316632f745c598a8a8781811061187357fe5b905060200201356001600160a01b0316846040518363ffffffff1660e01b815260040180836001600160a01b03166001600160a01b031681526020018281526020019250505060206040518083038186803b1580156118d157600080fd5b505afa1580156118e5573d6000803e3d6000fd5b505050506040513d60208110156118fb57600080fd5b505190506105cc811161192257600081815260a160205260409020805460ff191660011790555b506001016117ad565b505b5060010161168c565b600054610100900460ff168061194f575061194f612d87565b8061195d575060005460ff16155b6119985760405162461bcd60e51b815260040180806020018281038252602e815260200180613e7b602e913960400191505060405180910390fd5b600054610100900460ff161580156119c3576000805460ff1961ff0019909116610100171660011790555b611a0f60405180604001604052806009815260200168135e5411941b185b9960ba1b81525060405180604001604052806009815260200168135e5411941b185b9960ba1b815250612d98565b609d80546001600160a01b031990811633179091556000609a5561012c609b55610190609c5560a580549091167372541ad75e05bc77c7a92304225937a8f6653372179055801561134a576000805461ff001916905550565b606b8054604080516020601f6002600019610100600188161502019095169490940493840181900481028201810190925282815260609390929091830182828015610ddf5780601f10610db457610100808354040283529160200191610ddf565b609d546001600160a01b03163314611b16576040805162461bcd60e51b81526020600482018190526024820152600080516020613f23833981519152604482015290519081900360640190fd5b609d8054911515600160b01b0260ff60b01b19909216919091179055565b611b3c612954565b6001600160a01b0316826001600160a01b03161415611ba2576040805162461bcd60e51b815260206004820152601960248201527f4552433732313a20617070726f766520746f2063616c6c657200000000000000604482015290519081900360640190fd5b8060696000611baf612954565b6001600160a01b03908116825260208083019390935260409182016000908120918716808252919093529120805460ff191692151592909217909155611bf3612954565b60408051841515815290516001600160a01b0392909216917f17307eab39ab6107e8899845ad3d59bd9653f200f220920489ca2b5937696c319181900360200190a35050565b609d546001600160a01b031681565b611c59611c53612954565b83612b0c565b611c945760405162461bcd60e51b8152600401808060200182810382526031815260200180613fbc6031913960400191505060405180910390fd5b6111c284848484612e55565b6001600160a01b0316600090815260a4602052604090205490565b609d546001600160a01b03163314611d08576040805162461bcd60e51b81526020600482018190526024820152600080516020613f23833981519152604482015290519081900360640190fd5b60005b818110156111c257600160a36000868685818110611d2557fe5b602090810292909201356001600160a01b03168352508101919091526040016000208054919091019055600101611d0b565b6001821015611d9c576040805162461bcd60e51b815260206004820152600c60248201526b6f7574206f662072616e676560a01b604482015290519081900360640190fd5b6003821115611de1576040805162461bcd60e51b815260206004820152600c60248201526b6f7574206f662072616e676560a01b604482015290519081900360640190fd5b8160011415611e4257609d54600160a81b900460ff1615611e42576040805162461bcd60e51b81526020600482015260166024820152751d1bde4818db185a5b5a5b99c81a5cc81c185d5cd95960521b604482015290519081900360640190fd5b8160021415611eaa57609d54600160b01b900460ff1615611eaa576040805162461bcd60e51b815260206004820152601b60248201527f7061696e74696e6720636c61696d696e67206973207061757365640000000000604482015290519081900360640190fd5b8160031415611f1257609d54600160b81b900460ff1615611f12576040805162461bcd60e51b815260206004820152601c60248201527f73746174746575746520636c61696d696e672069732070617573656400000000604482015290519081900360640190fd5b6000611f1e3384612ea7565b90508260011415611f3f5733600090815260a2602052604090205401611f5a565b8260021415611f5a5733600090815260a36020526040902054015b60006001841415611fd057336000908152609e60205260409020548301821015611fcb576040805162461bcd60e51b815260206004820152601860248201527f616c726561647920636c61696d656420616c6c20746f79730000000000000000604482015290519081900360640190fd5b61209d565b836002141561203f57336000908152609f60205260409020548301821015611fcb576040805162461bcd60e51b815260206004820152601d60248201527f616c726561647920636c61696d656420616c6c207061696e74696e6773000000604482015290519081900360640190fd5b836003141561209d578282101561209d576040805162461bcd60e51b815260206004820152601e60248201527f616c726561647920636c61696d656420616c6c20737461747465757465730000604482015290519081900360640190fd5b60005b838160ff1610156121365784600114156120d3576120be6097612d60565b609a546120cb6097612d69565b019150612117565b84600214156120f3576120e66098612d60565b609b546120cb6098612d69565b8460031415612117576121066099612d60565b609c546121136099612d69565b0191505b6121213383612d6d565b61212e8261102a846129d1565b6001016120a0565b50836001141561215a57336000908152609e60205260409020805484019055612179565b836002141561217957336000908152609f602052604090208054840190555b6000821180156121895750836003145b156111c25760005b60a554604080516370a0823160e01b815233600482015290516001600160a01b03909216916370a0823191602480820192602092909190829003018186803b1580156121dc57600080fd5b505afa1580156121f0573d6000803e3d6000fd5b505050506040513d602081101561220657600080fd5b505160ff821610156122c05760a55460408051632f745c5960e01b815233600482015260ff8416602482015290516000926001600160a01b031691632f745c59916044808301926020929190829003018186803b15801561226657600080fd5b505afa15801561227a573d6000803e3d6000fd5b505050506040513d602081101561229057600080fd5b505190506105cc81116122b757600081815260a160205260409020805460ff191660011790555b50600101612191565b5050505050565b60606122d282612941565b61230d5760405162461bcd60e51b815260040180806020018281038252602f815260200180613f6c602f913960400191505060405180910390fd5b6000828152606c602090815260409182902080548351601f60026000196101006001861615020190931692909204918201849004840281018401909452808452606093928301828280156123a25780601f10612377576101008083540402835291602001916123a2565b820191906000526020600020905b81548152906001019060200180831161238557829003601f168201915b5050505050905060606123b3611573565b90508051600014156123c757509050610d4e565b8151156124885780826040516020018083805190602001908083835b602083106124025780518252601f1990920191602091820191016123e3565b51815160209384036101000a600019018019909216911617905285519190930192850191508083835b6020831061244a5780518252601f19909201916020918201910161242b565b6001836020036101000a0380198251168184511680821785525050505050509050019250505060405160208183030381529060405292505050610d4e565b80612492856130d4565b6040516020018083805190602001908083835b602083106124c45780518252601f1990920191602091820191016124a5565b51815160209384036101000a600019018019909216911617905285519190930192850191508083835b6020831061250c5780518252601f1990920191602091820191016124ed565b6001836020036101000a0380198251168184511680821785525050505050509050019250505060405160208183030381529060405292505050919050565b600080600183108061255c5750600383115b1561256857905061125e565b60006125748585612ea7565b905083600114156125b0576001600160a01b038516600090815260a26020908152604080832054609e90925290912054910190810391506113f7565b83600214156125ea576001600160a01b038516600090815260a36020908152604080832054609f90925290912054910190810391506113f7565b83600314156113f757949350505050565b609d546001600160a01b03163314612648576040805162461bcd60e51b81526020600482018190526024820152600080516020613f23833981519152604482015290519081900360640190fd5b61148b8261102a836129d1565b609d54600160a01b900460ff1681565b6001600160a01b03918216600090815260696020908152604080832093909416825291909152205460ff1690565b609d54600160a01b900460ff1615156001146126ea576040805162461bcd60e51b815260206004820152601160248201527014185e5b595b9d081a5cc818db1bdcd959607a1b604482015290519081900360640190fd5b33600090815260a4602052604090205461274b576040805162461bcd60e51b815260206004820152601c60248201527f596f7520646f6e2774206861766520616e7920726f79616c7469657300000000604482015290519081900360640190fd5b33600090815260a460205260409020544710156127995760405162461bcd60e51b8152600401808060200182810382526024815260200180613fed6024913960400191505060405180910390fd5b336127dc576040805162461bcd60e51b815260206004820152600e60248201526d34b73b30b634b21031b0b63632b960911b604482015290519081900360640190fd5b33600081815260a460205260408082205490519192918381818185875af1925050503d806000811461282a576040519150601f19603f3d011682016040523d82523d6000602084013e61282f565b606091505b505090508061287a576040805162461bcd60e51b815260206004820152601260248201527108cc2d2d8cac840e8de40e6cadcc840cae8d60731b604482015290519081900360640190fd5b5033600090815260a46020526040812055565b609d546001600160a01b031633146128da576040805162461bcd60e51b81526020600482018190526024820152600080516020613f23833981519152604482015290519081900360640190fd5b6001600160a01b03811661291f5760405162461bcd60e51b8152600401808060200182810382526026815260200180613d7a6026913960400191505060405180910390fd5b609d80546001600160a01b0319166001600160a01b0392909216919091179055565b600061125e60668363ffffffff6131a616565b3390565b600081815260686020526040902080546001600160a01b0319166001600160a01b038416908117909155819061298d82611545565b6001600160a01b03167f8c5be1e5ebec7d5bd14f71427d1e84f3dd0314c0f7b2291e5b200ac8c7c3b92560405160405180910390a45050565b600061125e82612d69565b6060816129f657506040805180820190915260018152600360fc1b6020820152610d4e565b8160005b8115612a0e57600101600a820491506129fa565b60608167ffffffffffffffff81118015612a2757600080fd5b506040519080825280601f01601f191660200182016040528015612a52576020820181803683370190505b50905060001982015b8515612aa057600a860660300160f81b82828060019003935081518110612a7e57fe5b60200101906001600160f81b031916908160001a905350600a86049550612a5b565b50949350505050565b612ab282612941565b612aed5760405162461bcd60e51b815260040180806020018281038252602c815260200180613ef7602c913960400191505060405180910390fd5b6000828152606c602090815260409091208251610f2292840190613c8d565b6000612b1782612941565b612b525760405162461bcd60e51b815260040180806020018281038252602c815260200180613dc4602c913960400191505060405180910390fd5b6000612b5d83611545565b9050806001600160a01b0316846001600160a01b03161480612b985750836001600160a01b0316612b8d84610dea565b6001600160a01b0316145b80612ba85750612ba88185612665565b949350505050565b826001600160a01b0316612bc382611545565b6001600160a01b031614612c085760405162461bcd60e51b8152600401808060200182810382526029815260200180613f436029913960400191505060405180910390fd5b6001600160a01b038216612c4d5760405162461bcd60e51b8152600401808060200182810382526024815260200180613da06024913960400191505060405180910390fd5b612c58838383610f22565b612c63600082612958565b6001600160a01b0383166000908152606560205260409020612c8b908263ffffffff6131b216565b506001600160a01b0382166000908152606560205260409020612cb4908263ffffffff6131be16565b50612cc76066828463ffffffff6131ca16565b5080826001600160a01b0316846001600160a01b03167fddf252ad1be2c89b69c2b068fc378daa952ba7f163c4a11628f55a4df523b3ef60405160405180910390a4505050565b600061125b83836131e0565b6000808080612d298686613244565b9097909650945050505050565b805161148b90606d906020840190613c8d565b6000612d568484846132bf565b90505b9392505050565b80546001019055565b5490565b61148b828260405180602001604052806000815250613389565b6000612d92306133db565b15905090565b600054610100900460ff1680612db15750612db1612d87565b80612dbf575060005460ff16155b612dfa5760405162461bcd60e51b815260040180806020018281038252602e815260200180613e7b602e913960400191505060405180910390fd5b600054610100900460ff16158015612e25576000805460ff1961ff0019909116610100171660011790555b612e2d6133e1565b612e35613482565b612e3f838361351f565b8015610f22576000805461ff0019169055505050565b612e60848484612bb0565b612e6c84848484613604565b6111c25760405162461bcd60e51b8152600401808060200182810382526032815260200180613d486032913960400191505060405180910390fd5b60a554604080516370a0823160e01b81526001600160a01b0385811660048301529151600093849316916370a08231916024808301926020929190829003018186803b158015612ef657600080fd5b505afa158015612f0a573d6000803e3d6000fd5b505050506040513d6020811015612f2057600080fd5b5051612f2d57905061125e565b6000808460011415612f4757506112b69050611362612f70565b8460021415612f5e57506113639050611388612f70565b8460031415612f705750600190506105cc5b60005b60a554604080516370a0823160e01b81526001600160a01b038a81166004830152915191909216916370a08231916024808301926020929190829003018186803b158015612fc057600080fd5b505afa158015612fd4573d6000803e3d6000fd5b505050506040513d6020811015612fea57600080fd5b50518110156130c95760a55460408051632f745c5960e01b81526001600160a01b038a811660048301526024820185905291516000939290921691632f745c5991604480820192602092909190829003018186803b15801561304b57600080fd5b505afa15801561305f573d6000803e3d6000fd5b505050506040513d602081101561307557600080fd5b505190508381108015906130895750828111155b156130c05786600314156130b957600081815260a1602052604090205460ff166130b4576001909401935b6130c0565b6001909401935b50600101612f73565b509195945050505050565b6060816130f957506040805180820190915260018152600360fc1b6020820152610d4e565b8160005b811561311157600101600a820491506130fd565b60608167ffffffffffffffff8111801561312a57600080fd5b506040519080825280601f01601f191660200182016040528015613155576020820181803683370190505b50859350905060001982015b8315612aa057600a840660300160f81b8282806001900393508151811061318457fe5b60200101906001600160f81b031916908160001a905350600a84049350613161565b600061125b8383613784565b600061125b838361379c565b600061125b8383613862565b6000612d5684846001600160a01b0385166138ac565b815460009082106132225760405162461bcd60e51b8152600401808060200182810382526022815260200180613d266022913960400191505060405180910390fd5b82600001828154811061323157fe5b9060005260206000200154905092915050565b8154600090819083106132885760405162461bcd60e51b8152600401808060200182810382526022815260200180613ea96022913960400191505060405180910390fd5b600084600001848154811061329957fe5b906000526020600020906002020190508060000154816001015492509250509250929050565b6000828152600184016020526040812054828161335a5760405162461bcd60e51b81526004018080602001828103825283818151815260200191508051906020019080838360005b8381101561331f578181015183820152602001613307565b50505050905090810190601f16801561334c5780820380516001836020036101000a031916815260200191505b509250505060405180910390fd5b5084600001600182038154811061336d57fe5b9060005260206000209060020201600101549150509392505050565b6133938383613943565b6133a06000848484613604565b610f225760405162461bcd60e51b8152600401808060200182810382526032815260200180613d486032913960400191505060405180910390fd5b3b151590565b600054610100900460ff16806133fa57506133fa612d87565b80613408575060005460ff16155b6134435760405162461bcd60e51b815260040180806020018281038252602e815260200180613e7b602e913960400191505060405180910390fd5b600054610100900460ff1615801561346e576000805460ff1961ff0019909116610100171660011790555b801561134a576000805461ff001916905550565b600054610100900460ff168061349b575061349b612d87565b806134a9575060005460ff16155b6134e45760405162461bcd60e51b815260040180806020018281038252602e815260200180613e7b602e913960400191505060405180910390fd5b600054610100900460ff1615801561350f576000805460ff1961ff0019909116610100171660011790555b61346e6301ffc9a760e01b613a7d565b600054610100900460ff16806135385750613538612d87565b80613546575060005460ff16155b6135815760405162461bcd60e51b815260040180806020018281038252602e815260200180613e7b602e913960400191505060405180910390fd5b600054610100900460ff161580156135ac576000805460ff1961ff0019909116610100171660011790555b82516135bf90606a906020860190613c8d565b5081516135d390606b906020850190613c8d565b506135e46380ac58cd60e01b613a7d565b6135f4635b5e139f60e01b613a7d565b612e3f63780e9d6360e01b613a7d565b6000613618846001600160a01b03166133db565b61362457506001612ba8565b606061374a630a85bd0160e11b613639612954565b88878760405160240180856001600160a01b03166001600160a01b03168152602001846001600160a01b03166001600160a01b0316815260200183815260200180602001828103825283818151815260200191508051906020019080838360005b838110156136b257818101518382015260200161369a565b50505050905090810190601f1680156136df5780820380516001836020036101000a031916815260200191505b5095505050505050604051602081830303815290604052906001600160e01b0319166020820180516001600160e01b038381831617835250505050604051806060016040528060328152602001613d48603291396001600160a01b038816919063ffffffff613b0116565b9050600081806020019051602081101561376357600080fd5b50516001600160e01b031916630a85bd0160e11b1492505050949350505050565b60009081526001919091016020526040902054151590565b6000818152600183016020526040812054801561385857835460001980830191908101906000908790839081106137cf57fe5b90600052602060002001549050808760000184815481106137ec57fe5b60009182526020808320909101929092558281526001898101909252604090209084019055865487908061381c57fe5b6001900381819060005260206000200160009055905586600101600087815260200190815260200160002060009055600194505050505061125e565b600091505061125e565b600061386e8383613784565b6138a45750815460018181018455600084815260208082209093018490558454848252828601909352604090209190915561125e565b50600061125e565b600082815260018401602052604081205480613911575050604080518082018252838152602080820184815286546001818101895560008981528481209551600290930290950191825591519082015586548684528188019092529290912055612d59565b8285600001600183038154811061392457fe5b9060005260206000209060020201600101819055506000915050612d59565b6001600160a01b03821661399e576040805162461bcd60e51b815260206004820181905260248201527f4552433732313a206d696e7420746f20746865207a65726f2061646472657373604482015290519081900360640190fd5b6139a781612941565b156139f9576040805162461bcd60e51b815260206004820152601c60248201527f4552433732313a20746f6b656e20616c7265616479206d696e74656400000000604482015290519081900360640190fd5b613a0560008383610f22565b6001600160a01b0382166000908152606560205260409020613a2d908263ffffffff6131be16565b50613a406066828463ffffffff6131ca16565b5060405181906001600160a01b038416906000907fddf252ad1be2c89b69c2b068fc378daa952ba7f163c4a11628f55a4df523b3ef908290a45050565b6001600160e01b03198082161415613adc576040805162461bcd60e51b815260206004820152601c60248201527f4552433136353a20696e76616c696420696e7465726661636520696400000000604482015290519081900360640190fd5b6001600160e01b0319166000908152603360205260409020805460ff19166001179055565b6060612d56848460008585613b15856133db565b613b66576040805162461bcd60e51b815260206004820152601d60248201527f416464726573733a2063616c6c20746f206e6f6e2d636f6e7472616374000000604482015290519081900360640190fd5b60006060866001600160a01b031685876040518082805190602001908083835b60208310613ba55780518252601f199092019160209182019101613b86565b6001836020036101000a03801982511681845116808217855250505050505090500191505060006040518083038185875af1925050503d8060008114613c07576040519150601f19603f3d011682016040523d82523d6000602084013e613c0c565b606091505b5091509150613c1c828286613c27565b979650505050505050565b60608315613c36575081612d59565b825115613c465782518084602001fd5b60405162461bcd60e51b815260206004820181815284516024840152845185939192839260440191908501908083836000831561331f578181015183820152602001613307565b828054600181600116156101000203166002900490600052602060002090601f016020900481019282601f10613cce57805160ff1916838001178555613cfb565b82800160010185558215613cfb579182015b82811115613cfb578251825591602001919060010190613ce0565b50613d07929150613d0b565b5090565b610de791905b80821115613d075760008155600101613d1156fe456e756d657261626c655365743a20696e646578206f7574206f6620626f756e64734552433732313a207472616e7366657220746f206e6f6e20455243373231526563656976657220696d706c656d656e7465724f776e61626c653a206e6577206f776e657220697320746865207a65726f20616464726573734552433732313a207472616e7366657220746f20746865207a65726f20616464726573734552433732313a206f70657261746f7220717565727920666f72206e6f6e6578697374656e7420746f6b656e4552433732313a20617070726f76652063616c6c6572206973206e6f74206f776e6572206e6f7220617070726f76656420666f7220616c6c4552433732313a2062616c616e636520717565727920666f7220746865207a65726f20616464726573734552433732313a206f776e657220717565727920666f72206e6f6e6578697374656e7420746f6b656e496e697469616c697a61626c653a20636f6e747261637420697320616c726561647920696e697469616c697a6564456e756d657261626c654d61703a20696e646578206f7574206f6620626f756e64734552433732313a20617070726f76656420717565727920666f72206e6f6e6578697374656e7420746f6b656e4552433732314d657461646174613a2055524920736574206f66206e6f6e6578697374656e7420746f6b656e4f776e61626c653a2063616c6c6572206973206e6f7420746865206f776e65724552433732313a207472616e73666572206f6620746f6b656e2074686174206973206e6f74206f776e4552433732314d657461646174613a2055524920717565727920666f72206e6f6e6578697374656e7420746f6b656e4552433732313a20617070726f76616c20746f2063757272656e74206f776e65724552433732313a207472616e736665722063616c6c6572206973206e6f74206f776e6572206e6f7220617070726f766564496e73756666696369656e742062616c616e636520696e2074686520636f6e7472616374a2646970667358221220cba7792680325c059b6f3edfb5f9e08c3ac1092f6dae7eb36d943521d51c47c264736f6c63430006050033",
  "immutableReferences": {},
  "source": "// SPDX-License-Identifier: MIT\npragma solidity ^0.6.5;\n\nimport \"@openzeppelin/contracts-upgradeable/token/ERC721/ERC721Upgradeable.sol\";\nimport \"@openzeppelin/contracts-upgradeable/utils/CountersUpgradeable.sol\";\nimport \"@openzeppelin/contracts/token/ERC721/ERC721.sol\";\n\ncontract MyPFPland is ERC721Upgradeable {\n    using CountersUpgradeable for CountersUpgradeable.Counter;\n\n    CountersUpgradeable.Counter internal toyTokenIDs;\n    CountersUpgradeable.Counter internal paintingTokenIDs;\n    CountersUpgradeable.Counter internal statuetteTokenIDs;\n\n    uint256 internal toyTokenIDBase;\n    uint256 internal paintingTokenIDBase;\n    uint256 internal statuetteTokenIDBase;\n\n    address public _owner;\n    bool public isOpenPayment;\n\n    bool public isPausedClaimingToy;\n    bool public isPausedClaimingPainting;\n    bool public isPausedClaimingStatteute;\n\n    mapping(address => uint256) internal addressToClaimedToy;\n    mapping(address => uint256) internal addressToClaimedPainting;\n    mapping(address => uint256) internal addressToClaimedStateutte;\n\n    mapping(uint256 => bool) public oldTokenIDUsed;\n\n    mapping(address => uint256) internal addressToMigratedCameo;\n    mapping(address => uint256) internal addressToMigratedHonorary;\n    \n    mapping(address => uint256) internal addressToRoyalty;\n    ERC721 blootNFT;\n\n    modifier onlyOwner() {\n        require(_owner == msg.sender, \"Ownable: caller is not the owner\" );\n        _;\n    }\n\n    function initialize() initializer external {\n        __ERC721_init(\"MyPFPland\", \"MyPFPland\");\n        _owner = msg.sender;\n\n        toyTokenIDBase = 0;\n        paintingTokenIDBase = 300;\n        statuetteTokenIDBase = 400;\n        blootNFT = ERC721(0x72541Ad75E05BC77C7A92304225937a8F6653372);\n    }\n\n    function claim(uint256 _category, uint256 _count) external payable {\n        require(_category >= 1, \"out of range\");\n        require(_category <= 3, \"out of range\");\n        if (_category == 1)\n            require(isPausedClaimingToy == false, \"toy claiming is paused\");\n        if (_category == 2)\n            require(isPausedClaimingPainting == false, \"painting claiming is paused\");\n        if (_category == 3)\n            require(isPausedClaimingStatteute == false, \"statteute claiming is paused\");\n        \n        uint256 totalDerivative = getTotalDerivative(msg.sender, _category);\n        if (_category == 1)\n            totalDerivative += addressToMigratedCameo[msg.sender];\n        else if (_category == 2)\n            totalDerivative += addressToMigratedHonorary[msg.sender];\n\n        uint256 tokenID = 0;\n        if (_category == 1)\n            require(totalDerivative >= addressToClaimedToy[msg.sender] + _count, \"already claimed all toys\");\n        else if (_category == 2)\n            require(totalDerivative >= addressToClaimedPainting[msg.sender] + _count, \"already claimed all paintings\");\n        else if (_category == 3)\n            require(totalDerivative >= _count, \"already claimed all statteutes\");\n    \n        for (uint8 i = 0; i < _count; i++) {\n            if (_category == 1) {\n                toyTokenIDs.increment();\n                tokenID = toyTokenIDs.current() + toyTokenIDBase;\n            } else if (_category == 2) {\n                paintingTokenIDs.increment();\n                tokenID = paintingTokenIDs.current() + paintingTokenIDBase;\n            } else if (_category == 3) {\n                statuetteTokenIDs.increment();\n                tokenID = statuetteTokenIDs.current() + statuetteTokenIDBase;\n            }\n            _safeMint(msg.sender, tokenID);\n            _setTokenURI(tokenID, uint2str(tokenID));\n        }\n\n        if (_category == 1)\n            addressToClaimedToy[msg.sender] += _count;\n        else if (_category == 2)\n            addressToClaimedPainting[msg.sender] += _count;\n\n        // set oldTokenIDUsed true for those IDs already used\n        if (totalDerivative > 0 && _category == 3) {\n            for (uint8 i = 0; i < blootNFT.balanceOf(msg.sender); i++) {\n                uint256 tokenId = blootNFT.tokenOfOwnerByIndex(msg.sender, i);\n                if (tokenId <= 1484) {\n                    oldTokenIDUsed[tokenId] = true;\n                }\n            }\n        }\n    }\n\n    function airdrop(address[] calldata _claimList, uint256[] calldata _tokenIDs, uint256 _count) external onlyOwner {\n        for (uint256 i = 0; i < _count; i++) {\n            uint256 tokenID = 0;\n            if (_tokenIDs[i] <= 300) {\n                toyTokenIDs.increment();\n                tokenID = toyTokenIDs.current() + toyTokenIDBase;\n\n                addressToClaimedToy[_claimList[i]] += 1;\n            } else if (_tokenIDs[i] <= 400) {\n                paintingTokenIDs.increment();\n                tokenID = paintingTokenIDs.current() + paintingTokenIDBase;\n\n                addressToClaimedPainting[_claimList[i]] += 1;\n            } else {\n                statuetteTokenIDs.increment();\n                tokenID = statuetteTokenIDs.current() + statuetteTokenIDBase;\n            }\n            _safeMint(_claimList[i], tokenID);\n            _setTokenURI(tokenID, uint2str(tokenID));\n            if (tokenID > 400) {\n                for (uint256 j = 0; j < blootNFT.balanceOf(_claimList[i]); j++) {\n                    uint256 tokenId = blootNFT.tokenOfOwnerByIndex(_claimList[i], j);\n                    if (tokenId <= 1484)\n                        oldTokenIDUsed[tokenId] = true;\n                }\n            }\n        }\n    }\n\n    function getDerivativesToClaim(address _claimer, uint256 _category) external view returns(uint256) {\n        uint256 remain = 0;\n        if (_category < 1 || _category > 3)\n            return remain;\n        \n        uint256 totalDerivative = getTotalDerivative(_claimer, _category);\n        if (_category == 1) {\n            totalDerivative += addressToMigratedCameo[_claimer];\n            remain = totalDerivative - addressToClaimedToy[_claimer];\n        }\n        else if (_category == 2) {\n            totalDerivative += addressToMigratedHonorary[_claimer];\n            remain = totalDerivative - addressToClaimedPainting[_claimer];\n        }\n        else if (_category == 3) {\n            remain = totalDerivative;\n        }\n\n        return remain;\n    }\n\n    function getTotalDerivative(address _claimer, uint256 _category) internal view returns(uint256) {\n        uint256 result = 0;\n        if (blootNFT.balanceOf(_claimer) == 0)\n            return result;\n        uint256 tokenIdMin;\n        uint256 tokenIdMax;\n        if (_category == 1) {\n            tokenIdMin = 4790;\n            tokenIdMax = 4962;\n        } else if (_category == 2) {\n            tokenIdMin = 4963;\n            tokenIdMax = 5000;\n        } else if (_category == 3) {\n            tokenIdMin = 1;\n            tokenIdMax = 1484;\n        }\n\n        for (uint256 i = 0; i < blootNFT.balanceOf(_claimer); i++) {\n            uint256 tokenId = blootNFT.tokenOfOwnerByIndex(_claimer, i);\n            if (tokenId >= tokenIdMin && tokenId <= tokenIdMax) {\n                if (_category == 3) {\n                    if (!oldTokenIDUsed[tokenId])\n                        result++;\n                }\n                else\n                    result++;\n            }\n        }\n\n        return result;\n    }\n\n    function setPauseClaimingToy(bool _pauseClaimingToy) external onlyOwner {\n        isPausedClaimingToy = _pauseClaimingToy;\n    }\n\n    function setPauseClaimingPainting(bool _pauseClaimingPainting) external onlyOwner {\n        isPausedClaimingPainting = _pauseClaimingPainting;\n    }\n\n    function setPauseClaimingStatteute(bool _pauseClaimingStatteute) external onlyOwner {\n        isPausedClaimingStatteute = _pauseClaimingStatteute;\n    }\n\n    function setBatchCameoWhitelist(address[] calldata _whitelist, uint256 _count) external onlyOwner {\n        for (uint256 i = 0; i < _count; i++) {\n            addressToMigratedCameo[_whitelist[i]] += 1;\n        }\n    }\n\n    function setBatchHonoraryWhitelist(address[] calldata _whitelist, uint256 _count) external onlyOwner {\n        for (uint256 i = 0; i < _count; i++) {\n            addressToMigratedHonorary[_whitelist[i]] += 1;\n        }\n    }\n\n    function setBaseURI(string calldata _baseURI) external onlyOwner {\n        super._setBaseURI(_baseURI);\n    }\n\n    function setTokenURI(uint256 _tokenID, uint256 _tokenURI) external onlyOwner {\n        super._setTokenURI(_tokenID, uint2str(_tokenURI));\n    }\n\n    function setTokenURIs(uint256[] calldata _tokenIDs, uint256[] calldata _tokenURIs, uint256 _count) external onlyOwner {\n        for (uint256 i = 0; i < _count; i++) {\n            super._setTokenURI(_tokenIDs[i], uint2str(_tokenURIs[i]));\n        }\n    }\n\n    function openPayment(bool _open) external onlyOwner {\n        isOpenPayment = _open;\n    }\n\n    function setBatchRoyalty(address[] calldata _people, uint256[] calldata _amount, uint256 _count) external onlyOwner {\n        for (uint256 i = 0; i < _count; i++) {\n            addressToRoyalty[_people[i]] = _amount[i];\n        }\n    }\n\n    function setRoyalty(address _person, uint256 _amount) external onlyOwner {\n        addressToRoyalty[_person] = _amount;\n    }\n\n    function royaltyOf(address _person) external view returns(uint256) {\n        return addressToRoyalty[_person];\n    }\n\n    function withdraw() external onlyOwner {\n        (bool success, ) = _owner.call{value: address(this).balance}(\"\");\n        require(success, \"Failed to send\");\n    }\n\n    function withdrawRoyalty() external {\n        require(isOpenPayment == true, \"Payment is closed\");\n        require(addressToRoyalty[msg.sender] > 0, \"You don't have any royalties\");\n        require(address(this).balance >= addressToRoyalty[msg.sender], \"Insufficient balance in the contract\");\n        require(msg.sender != address(0x0), \"invalid caller\");\n\n        (bool success, ) = msg.sender.call{value: addressToRoyalty[msg.sender]}(\"\");\n        require(success, \"Failed to send eth\");\n        addressToRoyalty[msg.sender] = 0;\n    }\n\n    function transferOwnership(address newOwner) external onlyOwner {\n        require(newOwner != address(0), \"Ownable: new owner is the zero address\");\n        _owner = newOwner;\n    }\n\n    function uint2str(uint _i) internal pure returns (string memory _uintAsString) {\n        if (_i == 0) {\n            return \"0\";\n        }\n        uint j = _i;\n        uint len;\n        while (j != 0) {\n            len++;\n            j /= 10;\n        }\n        bytes memory bstr = new bytes(len);\n        uint k = len - 1;\n        while (_i != 0) {\n            bstr[k--] = byte(uint8(48 + _i % 10));\n            _i /= 10;\n        }\n        return string(bstr);\n    }\n}",
  "sourcePath": "/home/BlootDerivative/contracts/MyPFPland.sol",
  "compiler": {
    "name": "solc",
    "version": "0.6.5+commit.f956cc89.Emscripten.clang"
  },
  "schemaVersion": "3.4.5",
  "updatedAt": "2022-03-12T08:02:51.885Z",
  "networkType": "ethereum",
  "devdoc": {
    "methods": {
      "approve(address,uint256)": {
        "details": "See {IERC721-approve}."
      },
      "balanceOf(address)": {
        "details": "See {IERC721-balanceOf}."
      },
      "baseURI()": {
        "details": "Returns the base URI set via {_setBaseURI}. This will be automatically added as a prefix in {tokenURI} to each token's URI, or to the token ID if no specific URI is set for that token ID."
      },
      "getApproved(uint256)": {
        "details": "See {IERC721-getApproved}."
      },
      "isApprovedForAll(address,address)": {
        "details": "See {IERC721-isApprovedForAll}."
      },
      "name()": {
        "details": "See {IERC721Metadata-name}."
      },
      "ownerOf(uint256)": {
        "details": "See {IERC721-ownerOf}."
      },
      "safeTransferFrom(address,address,uint256)": {
        "details": "See {IERC721-safeTransferFrom}."
      },
      "safeTransferFrom(address,address,uint256,bytes)": {
        "details": "See {IERC721-safeTransferFrom}."
      },
      "setApprovalForAll(address,bool)": {
        "details": "See {IERC721-setApprovalForAll}."
      },
      "supportsInterface(bytes4)": {
        "details": "See {IERC165-supportsInterface}.     * Time complexity O(1), guaranteed to always use less than 30 000 gas."
      },
      "symbol()": {
        "details": "See {IERC721Metadata-symbol}."
      },
      "tokenByIndex(uint256)": {
        "details": "See {IERC721Enumerable-tokenByIndex}."
      },
      "tokenOfOwnerByIndex(address,uint256)": {
        "details": "See {IERC721Enumerable-tokenOfOwnerByIndex}."
      },
      "tokenURI(uint256)": {
        "details": "See {IERC721Metadata-tokenURI}."
      },
      "totalSupply()": {
        "details": "See {IERC721Enumerable-totalSupply}."
      },
      "transferFrom(address,address,uint256)": {
        "details": "See {IERC721-transferFrom}."
      }
    }
  },
  "userdoc": {
    "methods": {}
  }
}