{
  "contractName": "MyPFPlandv2",
  "abi": [
    {
      "anonymous": false,
      "inputs": [
        {
          "indexed": true,
          "internalType": "address",
          "name": "owner",
          "type": "address"
        },
        {
          "indexed": true,
          "internalType": "address",
          "name": "approved",
          "type": "address"
        },
        {
          "indexed": true,
          "internalType": "uint256",
          "name": "tokenId",
          "type": "uint256"
        }
      ],
      "name": "Approval",
      "type": "event"
    },
    {
      "anonymous": false,
      "inputs": [
        {
          "indexed": true,
          "internalType": "address",
          "name": "owner",
          "type": "address"
        },
        {
          "indexed": true,
          "internalType": "address",
          "name": "operator",
          "type": "address"
        },
        {
          "indexed": false,
          "internalType": "bool",
          "name": "approved",
          "type": "bool"
        }
      ],
      "name": "ApprovalForAll",
      "type": "event"
    },
    {
      "anonymous": false,
      "inputs": [
        {
          "indexed": true,
          "internalType": "address",
          "name": "from",
          "type": "address"
        },
        {
          "indexed": true,
          "internalType": "address",
          "name": "to",
          "type": "address"
        },
        {
          "indexed": true,
          "internalType": "uint256",
          "name": "tokenId",
          "type": "uint256"
        }
      ],
      "name": "Transfer",
      "type": "event"
    },
    {
      "inputs": [],
      "name": "_contractURI",
      "outputs": [
        {
          "internalType": "string",
          "name": "",
          "type": "string"
        }
      ],
      "stateMutability": "view",
      "type": "function",
      "constant": true
    },
    {
      "inputs": [],
      "name": "_owner",
      "outputs": [
        {
          "internalType": "address",
          "name": "",
          "type": "address"
        }
      ],
      "stateMutability": "view",
      "type": "function",
      "constant": true
    },
    {
      "inputs": [],
      "name": "allowMetadataForAllReserved",
      "outputs": [
        {
          "internalType": "bool",
          "name": "",
          "type": "bool"
        }
      ],
      "stateMutability": "view",
      "type": "function",
      "constant": true
    },
    {
      "inputs": [
        {
          "internalType": "address",
          "name": "to",
          "type": "address"
        },
        {
          "internalType": "uint256",
          "name": "tokenId",
          "type": "uint256"
        }
      ],
      "name": "approve",
      "outputs": [],
      "stateMutability": "nonpayable",
      "type": "function"
    },
    {
      "inputs": [
        {
          "internalType": "address",
          "name": "owner",
          "type": "address"
        }
      ],
      "name": "balanceOf",
      "outputs": [
        {
          "internalType": "uint256",
          "name": "",
          "type": "uint256"
        }
      ],
      "stateMutability": "view",
      "type": "function",
      "constant": true
    },
    {
      "inputs": [],
      "name": "baseURI",
      "outputs": [
        {
          "internalType": "string",
          "name": "",
          "type": "string"
        }
      ],
      "stateMutability": "view",
      "type": "function",
      "constant": true
    },
    {
      "inputs": [
        {
          "internalType": "uint256",
          "name": "",
          "type": "uint256"
        }
      ],
      "name": "collectionAddressByIndex",
      "outputs": [
        {
          "internalType": "address",
          "name": "",
          "type": "address"
        }
      ],
      "stateMutability": "view",
      "type": "function",
      "constant": true
    },
    {
      "inputs": [
        {
          "internalType": "address",
          "name": "",
          "type": "address"
        },
        {
          "internalType": "uint256",
          "name": "",
          "type": "uint256"
        }
      ],
      "name": "collectionIndicesByAddress",
      "outputs": [
        {
          "internalType": "uint256",
          "name": "",
          "type": "uint256"
        }
      ],
      "stateMutability": "view",
      "type": "function",
      "constant": true
    },
    {
      "inputs": [
        {
          "internalType": "uint256",
          "name": "",
          "type": "uint256"
        }
      ],
      "name": "collectionRectByIndex",
      "outputs": [
        {
          "components": [
            {
              "internalType": "uint256",
              "name": "x",
              "type": "uint256"
            },
            {
              "internalType": "uint256",
              "name": "y",
              "type": "uint256"
            }
          ],
          "internalType": "struct MyPFPlandv2.Point",
          "name": "leftBottom",
          "type": "tuple"
        },
        {
          "components": [
            {
              "internalType": "uint256",
              "name": "x",
              "type": "uint256"
            },
            {
              "internalType": "uint256",
              "name": "y",
              "type": "uint256"
            }
          ],
          "internalType": "struct MyPFPlandv2.Point",
          "name": "rightTop",
          "type": "tuple"
        }
      ],
      "stateMutability": "view",
      "type": "function",
      "constant": true
    },
    {
      "inputs": [
        {
          "internalType": "uint256",
          "name": "tokenId",
          "type": "uint256"
        }
      ],
      "name": "getApproved",
      "outputs": [
        {
          "internalType": "address",
          "name": "",
          "type": "address"
        }
      ],
      "stateMutability": "view",
      "type": "function",
      "constant": true
    },
    {
      "inputs": [
        {
          "internalType": "address",
          "name": "owner",
          "type": "address"
        },
        {
          "internalType": "address",
          "name": "operator",
          "type": "address"
        }
      ],
      "name": "isApprovedForAll",
      "outputs": [
        {
          "internalType": "bool",
          "name": "",
          "type": "bool"
        }
      ],
      "stateMutability": "view",
      "type": "function",
      "constant": true
    },
    {
      "inputs": [],
      "name": "isOpenPayment",
      "outputs": [
        {
          "internalType": "bool",
          "name": "",
          "type": "bool"
        }
      ],
      "stateMutability": "view",
      "type": "function",
      "constant": true
    },
    {
      "inputs": [],
      "name": "isPausedClaimingDerivative",
      "outputs": [
        {
          "internalType": "bool",
          "name": "",
          "type": "bool"
        }
      ],
      "stateMutability": "view",
      "type": "function",
      "constant": true
    },
    {
      "inputs": [],
      "name": "isPausedClaimingLand",
      "outputs": [
        {
          "internalType": "bool",
          "name": "",
          "type": "bool"
        }
      ],
      "stateMutability": "view",
      "type": "function",
      "constant": true
    },
    {
      "inputs": [],
      "name": "isPausedClaimingPainting",
      "outputs": [
        {
          "internalType": "bool",
          "name": "",
          "type": "bool"
        }
      ],
      "stateMutability": "view",
      "type": "function",
      "constant": true
    },
    {
      "inputs": [],
      "name": "isPausedClaimingRoyal",
      "outputs": [
        {
          "internalType": "bool",
          "name": "",
          "type": "bool"
        }
      ],
      "stateMutability": "view",
      "type": "function",
      "constant": true
    },
    {
      "inputs": [],
      "name": "isPausedClaimingStatteute",
      "outputs": [
        {
          "internalType": "bool",
          "name": "",
          "type": "bool"
        }
      ],
      "stateMutability": "view",
      "type": "function",
      "constant": true
    },
    {
      "inputs": [],
      "name": "isPausedClaimingToy",
      "outputs": [
        {
          "internalType": "bool",
          "name": "",
          "type": "bool"
        }
      ],
      "stateMutability": "view",
      "type": "function",
      "constant": true
    },
    {
      "inputs": [
        {
          "internalType": "uint256",
          "name": "",
          "type": "uint256"
        }
      ],
      "name": "landDerivativeBalance",
      "outputs": [
        {
          "internalType": "uint256",
          "name": "",
          "type": "uint256"
        }
      ],
      "stateMutability": "view",
      "type": "function",
      "constant": true
    },
    {
      "inputs": [
        {
          "internalType": "uint256",
          "name": "",
          "type": "uint256"
        },
        {
          "internalType": "uint256",
          "name": "",
          "type": "uint256"
        }
      ],
      "name": "landDerivativeMetadataOf",
      "outputs": [
        {
          "internalType": "address",
          "name": "collectionAddress",
          "type": "address"
        },
        {
          "internalType": "uint256",
          "name": "tokenID",
          "type": "uint256"
        }
      ],
      "stateMutability": "view",
      "type": "function",
      "constant": true
    },
    {
      "inputs": [
        {
          "internalType": "uint256",
          "name": "",
          "type": "uint256"
        }
      ],
      "name": "landRoyalMetadataOf",
      "outputs": [
        {
          "internalType": "uint256",
          "name": "collectionID",
          "type": "uint256"
        },
        {
          "internalType": "uint256",
          "name": "tokenID",
          "type": "uint256"
        }
      ],
      "stateMutability": "view",
      "type": "function",
      "constant": true
    },
    {
      "inputs": [],
      "name": "name",
      "outputs": [
        {
          "internalType": "string",
          "name": "",
          "type": "string"
        }
      ],
      "stateMutability": "view",
      "type": "function",
      "constant": true
    },
    {
      "inputs": [
        {
          "internalType": "uint256",
          "name": "",
          "type": "uint256"
        }
      ],
      "name": "oldTokenIDUsed",
      "outputs": [
        {
          "internalType": "bool",
          "name": "",
          "type": "bool"
        }
      ],
      "stateMutability": "view",
      "type": "function",
      "constant": true
    },
    {
      "inputs": [
        {
          "internalType": "uint256",
          "name": "tokenId",
          "type": "uint256"
        }
      ],
      "name": "ownerOf",
      "outputs": [
        {
          "internalType": "address",
          "name": "",
          "type": "address"
        }
      ],
      "stateMutability": "view",
      "type": "function",
      "constant": true
    },
    {
      "inputs": [
        {
          "internalType": "address",
          "name": "from",
          "type": "address"
        },
        {
          "internalType": "address",
          "name": "to",
          "type": "address"
        },
        {
          "internalType": "uint256",
          "name": "tokenId",
          "type": "uint256"
        }
      ],
      "name": "safeTransferFrom",
      "outputs": [],
      "stateMutability": "nonpayable",
      "type": "function"
    },
    {
      "inputs": [
        {
          "internalType": "address",
          "name": "from",
          "type": "address"
        },
        {
          "internalType": "address",
          "name": "to",
          "type": "address"
        },
        {
          "internalType": "uint256",
          "name": "tokenId",
          "type": "uint256"
        },
        {
          "internalType": "bytes",
          "name": "_data",
          "type": "bytes"
        }
      ],
      "name": "safeTransferFrom",
      "outputs": [],
      "stateMutability": "nonpayable",
      "type": "function"
    },
    {
      "inputs": [
        {
          "internalType": "address",
          "name": "operator",
          "type": "address"
        },
        {
          "internalType": "bool",
          "name": "approved",
          "type": "bool"
        }
      ],
      "name": "setApprovalForAll",
      "outputs": [],
      "stateMutability": "nonpayable",
      "type": "function"
    },
    {
      "inputs": [
        {
          "internalType": "bytes4",
          "name": "interfaceId",
          "type": "bytes4"
        }
      ],
      "name": "supportsInterface",
      "outputs": [
        {
          "internalType": "bool",
          "name": "",
          "type": "bool"
        }
      ],
      "stateMutability": "view",
      "type": "function",
      "constant": true
    },
    {
      "inputs": [],
      "name": "symbol",
      "outputs": [
        {
          "internalType": "string",
          "name": "",
          "type": "string"
        }
      ],
      "stateMutability": "view",
      "type": "function",
      "constant": true
    },
    {
      "inputs": [
        {
          "internalType": "uint256",
          "name": "index",
          "type": "uint256"
        }
      ],
      "name": "tokenByIndex",
      "outputs": [
        {
          "internalType": "uint256",
          "name": "",
          "type": "uint256"
        }
      ],
      "stateMutability": "view",
      "type": "function",
      "constant": true
    },
    {
      "inputs": [
        {
          "internalType": "address",
          "name": "owner",
          "type": "address"
        },
        {
          "internalType": "uint256",
          "name": "index",
          "type": "uint256"
        }
      ],
      "name": "tokenOfOwnerByIndex",
      "outputs": [
        {
          "internalType": "uint256",
          "name": "",
          "type": "uint256"
        }
      ],
      "stateMutability": "view",
      "type": "function",
      "constant": true
    },
    {
      "inputs": [
        {
          "internalType": "uint256",
          "name": "tokenId",
          "type": "uint256"
        }
      ],
      "name": "tokenURI",
      "outputs": [
        {
          "internalType": "string",
          "name": "",
          "type": "string"
        }
      ],
      "stateMutability": "view",
      "type": "function",
      "constant": true
    },
    {
      "inputs": [],
      "name": "totalSupply",
      "outputs": [
        {
          "internalType": "uint256",
          "name": "",
          "type": "uint256"
        }
      ],
      "stateMutability": "view",
      "type": "function",
      "constant": true
    },
    {
      "inputs": [
        {
          "internalType": "address",
          "name": "from",
          "type": "address"
        },
        {
          "internalType": "address",
          "name": "to",
          "type": "address"
        },
        {
          "internalType": "uint256",
          "name": "tokenId",
          "type": "uint256"
        }
      ],
      "name": "transferFrom",
      "outputs": [],
      "stateMutability": "nonpayable",
      "type": "function"
    },
    {
      "inputs": [],
      "name": "initialize",
      "outputs": [],
      "stateMutability": "nonpayable",
      "type": "function"
    },
    {
      "inputs": [
        {
          "internalType": "uint256",
          "name": "_category",
          "type": "uint256"
        },
        {
          "internalType": "uint256",
          "name": "_count",
          "type": "uint256"
        }
      ],
      "name": "claim",
      "outputs": [],
      "stateMutability": "payable",
      "type": "function",
      "payable": true
    },
    {
      "inputs": [
        {
          "internalType": "address",
          "name": "_claimer",
          "type": "address"
        },
        {
          "internalType": "uint256",
          "name": "_category",
          "type": "uint256"
        }
      ],
      "name": "getDerivativesToClaim",
      "outputs": [
        {
          "internalType": "uint256",
          "name": "",
          "type": "uint256"
        }
      ],
      "stateMutability": "view",
      "type": "function",
      "constant": true
    },
    {
      "inputs": [
        {
          "internalType": "bool",
          "name": "_pauseClaimingToy",
          "type": "bool"
        }
      ],
      "name": "setPauseClaimingToy",
      "outputs": [],
      "stateMutability": "nonpayable",
      "type": "function"
    },
    {
      "inputs": [
        {
          "internalType": "bool",
          "name": "_pauseClaimingPainting",
          "type": "bool"
        }
      ],
      "name": "setPauseClaimingPainting",
      "outputs": [],
      "stateMutability": "nonpayable",
      "type": "function"
    },
    {
      "inputs": [
        {
          "internalType": "bool",
          "name": "_pauseClaimingStatteute",
          "type": "bool"
        }
      ],
      "name": "setPauseClaimingStatteute",
      "outputs": [],
      "stateMutability": "nonpayable",
      "type": "function"
    },
    {
      "inputs": [
        {
          "internalType": "address[]",
          "name": "_whitelist",
          "type": "address[]"
        },
        {
          "internalType": "uint256",
          "name": "_count",
          "type": "uint256"
        }
      ],
      "name": "setBatchCameoWhitelist",
      "outputs": [],
      "stateMutability": "nonpayable",
      "type": "function"
    },
    {
      "inputs": [
        {
          "internalType": "address[]",
          "name": "_whitelist",
          "type": "address[]"
        },
        {
          "internalType": "uint256",
          "name": "_count",
          "type": "uint256"
        }
      ],
      "name": "setBatchHonoraryWhitelist",
      "outputs": [],
      "stateMutability": "nonpayable",
      "type": "function"
    },
    {
      "inputs": [
        {
          "internalType": "address[]",
          "name": "_blacklist",
          "type": "address[]"
        },
        {
          "internalType": "uint256",
          "name": "_count",
          "type": "uint256"
        }
      ],
      "name": "setBatchCameoBlacklist",
      "outputs": [],
      "stateMutability": "nonpayable",
      "type": "function"
    },
    {
      "inputs": [
        {
          "internalType": "address[]",
          "name": "_blacklist",
          "type": "address[]"
        },
        {
          "internalType": "uint256",
          "name": "_count",
          "type": "uint256"
        }
      ],
      "name": "setBatchHonoraryBlacklist",
      "outputs": [],
      "stateMutability": "nonpayable",
      "type": "function"
    },
    {
      "inputs": [
        {
          "internalType": "address[]",
          "name": "_whitelist",
          "type": "address[]"
        },
        {
          "internalType": "uint256",
          "name": "_count",
          "type": "uint256"
        }
      ],
      "name": "setBatchMekakeyWhitelist",
      "outputs": [],
      "stateMutability": "nonpayable",
      "type": "function"
    },
    {
      "inputs": [
        {
          "internalType": "address[]",
          "name": "_blacklist",
          "type": "address[]"
        },
        {
          "internalType": "uint256",
          "name": "_count",
          "type": "uint256"
        }
      ],
      "name": "setBatchMekakeyBlacklist",
      "outputs": [],
      "stateMutability": "nonpayable",
      "type": "function"
    },
    {
      "inputs": [
        {
          "internalType": "string",
          "name": "_baseURI",
          "type": "string"
        }
      ],
      "name": "setBaseURI",
      "outputs": [],
      "stateMutability": "nonpayable",
      "type": "function"
    },
    {
      "inputs": [
        {
          "internalType": "bool",
          "name": "_open",
          "type": "bool"
        }
      ],
      "name": "openPayment",
      "outputs": [],
      "stateMutability": "nonpayable",
      "type": "function"
    },
    {
      "inputs": [
        {
          "internalType": "address[]",
          "name": "_people",
          "type": "address[]"
        },
        {
          "internalType": "uint256[]",
          "name": "_amount",
          "type": "uint256[]"
        },
        {
          "internalType": "uint256",
          "name": "_count",
          "type": "uint256"
        }
      ],
      "name": "setBatchRoyalty",
      "outputs": [],
      "stateMutability": "nonpayable",
      "type": "function"
    },
    {
      "inputs": [
        {
          "internalType": "address",
          "name": "_person",
          "type": "address"
        },
        {
          "internalType": "uint256",
          "name": "_amount",
          "type": "uint256"
        }
      ],
      "name": "setRoyalty",
      "outputs": [],
      "stateMutability": "nonpayable",
      "type": "function"
    },
    {
      "inputs": [
        {
          "internalType": "address",
          "name": "_person",
          "type": "address"
        }
      ],
      "name": "royaltyOf",
      "outputs": [
        {
          "internalType": "uint256",
          "name": "",
          "type": "uint256"
        }
      ],
      "stateMutability": "view",
      "type": "function",
      "constant": true
    },
    {
      "inputs": [],
      "name": "withdraw",
      "outputs": [],
      "stateMutability": "nonpayable",
      "type": "function"
    },
    {
      "inputs": [],
      "name": "withdrawRoyalty",
      "outputs": [],
      "stateMutability": "nonpayable",
      "type": "function"
    },
    {
      "inputs": [
        {
          "internalType": "address",
          "name": "newOwner",
          "type": "address"
        }
      ],
      "name": "transferOwnership",
      "outputs": [],
      "stateMutability": "nonpayable",
      "type": "function"
    },
    {
      "inputs": [
        {
          "internalType": "bool",
          "name": "_pauseClaimingLand",
          "type": "bool"
        }
      ],
      "name": "setPauseClaimingLand",
      "outputs": [],
      "stateMutability": "nonpayable",
      "type": "function"
    },
    {
      "inputs": [
        {
          "internalType": "bool",
          "name": "_isPausedClaimingRoyal",
          "type": "bool"
        }
      ],
      "name": "setPauseClaimingRoyal",
      "outputs": [],
      "stateMutability": "nonpayable",
      "type": "function"
    },
    {
      "inputs": [
        {
          "internalType": "bool",
          "name": "_isPausedClaimingDerivative",
          "type": "bool"
        }
      ],
      "name": "setPauseClaimingDerivative",
      "outputs": [],
      "stateMutability": "nonpayable",
      "type": "function"
    },
    {
      "inputs": [
        {
          "internalType": "uint256",
          "name": "x",
          "type": "uint256"
        },
        {
          "internalType": "uint256",
          "name": "y",
          "type": "uint256"
        },
        {
          "internalType": "uint256",
          "name": "collectionID",
          "type": "uint256"
        }
      ],
      "name": "claimLand",
      "outputs": [],
      "stateMutability": "payable",
      "type": "function",
      "payable": true
    },
    {
      "inputs": [
        {
          "internalType": "uint256",
          "name": "tokenId",
          "type": "uint256"
        }
      ],
      "name": "landOwnerOf",
      "outputs": [
        {
          "internalType": "address",
          "name": "",
          "type": "address"
        }
      ],
      "stateMutability": "view",
      "type": "function",
      "constant": true
    },
    {
      "inputs": [
        {
          "internalType": "uint256",
          "name": "x",
          "type": "uint256"
        },
        {
          "internalType": "uint256",
          "name": "y",
          "type": "uint256"
        },
        {
          "internalType": "uint256",
          "name": "collectionIDOfRoyalMetadata",
          "type": "uint256"
        },
        {
          "internalType": "uint256",
          "name": "tokenID",
          "type": "uint256"
        }
      ],
      "name": "updateLandRoyalMetaData",
      "outputs": [],
      "stateMutability": "nonpayable",
      "type": "function"
    },
    {
      "inputs": [
        {
          "internalType": "uint256",
          "name": "x",
          "type": "uint256"
        },
        {
          "internalType": "uint256",
          "name": "y",
          "type": "uint256"
        },
        {
          "internalType": "address",
          "name": "collectionAddrsOfDerMetadata",
          "type": "address"
        },
        {
          "internalType": "uint256",
          "name": "tokenID",
          "type": "uint256"
        }
      ],
      "name": "updateLandDerivativeMetaData",
      "outputs": [],
      "stateMutability": "nonpayable",
      "type": "function"
    },
    {
      "inputs": [
        {
          "internalType": "bool",
          "name": "_allowMetadataForAllReserved",
          "type": "bool"
        }
      ],
      "name": "setAllowMetadataForAllReserved",
      "outputs": [],
      "stateMutability": "nonpayable",
      "type": "function"
    },
    {
      "inputs": [
        {
          "internalType": "uint256",
          "name": "collectionID",
          "type": "uint256"
        },
        {
          "internalType": "uint256",
          "name": "tokenID",
          "type": "uint256"
        }
      ],
      "name": "getLandMetaData",
      "outputs": [
        {
          "internalType": "string",
          "name": "",
          "type": "string"
        }
      ],
      "stateMutability": "view",
      "type": "function",
      "constant": true
    },
    {
      "inputs": [
        {
          "internalType": "uint256",
          "name": "x",
          "type": "uint256"
        },
        {
          "internalType": "uint256",
          "name": "y",
          "type": "uint256"
        }
      ],
      "name": "collectionIDAt",
      "outputs": [
        {
          "internalType": "uint256",
          "name": "",
          "type": "uint256"
        }
      ],
      "stateMutability": "view",
      "type": "function",
      "constant": true
    },
    {
      "inputs": [
        {
          "internalType": "address",
          "name": "owner",
          "type": "address"
        },
        {
          "internalType": "uint256",
          "name": "collectionID",
          "type": "uint256"
        }
      ],
      "name": "totalRoyalBalanceOf",
      "outputs": [
        {
          "internalType": "uint256",
          "name": "",
          "type": "uint256"
        }
      ],
      "stateMutability": "view",
      "type": "function",
      "constant": true
    },
    {
      "inputs": [
        {
          "internalType": "address",
          "name": "owner",
          "type": "address"
        },
        {
          "internalType": "uint256",
          "name": "index",
          "type": "uint256"
        },
        {
          "internalType": "uint256",
          "name": "collectionID",
          "type": "uint256"
        }
      ],
      "name": "royalTokenOfOwnerByIndex",
      "outputs": [
        {
          "internalType": "uint256",
          "name": "",
          "type": "uint256"
        },
        {
          "internalType": "uint256",
          "name": "",
          "type": "uint256"
        }
      ],
      "stateMutability": "view",
      "type": "function",
      "constant": true
    },
    {
      "inputs": [
        {
          "components": [
            {
              "internalType": "uint256",
              "name": "x",
              "type": "uint256"
            },
            {
              "internalType": "uint256",
              "name": "y",
              "type": "uint256"
            }
          ],
          "internalType": "struct MyPFPlandv2.Point",
          "name": "point",
          "type": "tuple"
        },
        {
          "components": [
            {
              "components": [
                {
                  "internalType": "uint256",
                  "name": "x",
                  "type": "uint256"
                },
                {
                  "internalType": "uint256",
                  "name": "y",
                  "type": "uint256"
                }
              ],
              "internalType": "struct MyPFPlandv2.Point",
              "name": "leftBottom",
              "type": "tuple"
            },
            {
              "components": [
                {
                  "internalType": "uint256",
                  "name": "x",
                  "type": "uint256"
                },
                {
                  "internalType": "uint256",
                  "name": "y",
                  "type": "uint256"
                }
              ],
              "internalType": "struct MyPFPlandv2.Point",
              "name": "rightTop",
              "type": "tuple"
            }
          ],
          "internalType": "struct MyPFPlandv2.Rectangle",
          "name": "area",
          "type": "tuple"
        }
      ],
      "name": "isInsideCollectionRect",
      "outputs": [
        {
          "internalType": "bool",
          "name": "",
          "type": "bool"
        }
      ],
      "stateMutability": "pure",
      "type": "function",
      "constant": true
    },
    {
      "inputs": [
        {
          "internalType": "uint256[]",
          "name": "leftBottomX",
          "type": "uint256[]"
        },
        {
          "internalType": "uint256[]",
          "name": "leftBottomY",
          "type": "uint256[]"
        },
        {
          "internalType": "uint256[]",
          "name": "rightTopX",
          "type": "uint256[]"
        },
        {
          "internalType": "uint256[]",
          "name": "rightTopY",
          "type": "uint256[]"
        },
        {
          "internalType": "address[]",
          "name": "collectionAddress",
          "type": "address[]"
        },
        {
          "internalType": "uint256",
          "name": "count",
          "type": "uint256"
        }
      ],
      "name": "setBatchCollectionRect",
      "outputs": [],
      "stateMutability": "nonpayable",
      "type": "function"
    },
    {
      "inputs": [
        {
          "internalType": "uint256[]",
          "name": "indices",
          "type": "uint256[]"
        },
        {
          "internalType": "address[]",
          "name": "collectionAddress",
          "type": "address[]"
        },
        {
          "internalType": "uint256",
          "name": "count",
          "type": "uint256"
        }
      ],
      "name": "resetBatchCollectionRect",
      "outputs": [],
      "stateMutability": "nonpayable",
      "type": "function"
    },
    {
      "inputs": [
        {
          "internalType": "uint256",
          "name": "x",
          "type": "uint256"
        },
        {
          "internalType": "uint256",
          "name": "y",
          "type": "uint256"
        }
      ],
      "name": "_encodeTokenId",
      "outputs": [
        {
          "internalType": "uint256",
          "name": "",
          "type": "uint256"
        }
      ],
      "stateMutability": "pure",
      "type": "function",
      "constant": true
    },
    {
      "inputs": [
        {
          "internalType": "uint256",
          "name": "value",
          "type": "uint256"
        }
      ],
      "name": "_decodeTokenId",
      "outputs": [
        {
          "internalType": "uint256",
          "name": "x",
          "type": "uint256"
        },
        {
          "internalType": "uint256",
          "name": "y",
          "type": "uint256"
        }
      ],
      "stateMutability": "pure",
      "type": "function",
      "constant": true
    },
    {
      "inputs": [
        {
          "internalType": "string",
          "name": "_contractURI_",
          "type": "string"
        }
      ],
      "name": "setContractURI",
      "outputs": [],
      "stateMutability": "nonpayable",
      "type": "function"
    },
    {
      "inputs": [],
      "name": "contractURI",
      "outputs": [
        {
          "internalType": "string",
          "name": "",
          "type": "string"
        }
      ],
      "stateMutability": "view",
      "type": "function",
      "constant": true
    }
  ],
  "bytecode": "0x608060405234801561001057600080fd5b50615ee680620000216000396000f3fe6080604052600436106103b65760003560e01c80638129fc1c116101f9578063c177273d1161011e578063d678a41f116100b6578063e985e9c51161007a578063e985e9c514610bcf578063eacc74b814610bef578063edd57e3214610c0f578063f1147bae14610c2f578063f2fde38b14610c44576103b6565b8063d678a41f14610b50578063d6e7d67b14610b70578063e6031d1b14610b85578063e7ce6c1814610b9a578063e8a3d48514610bba576103b6565b8063c177273d14610a2f578063c31dbf9614610a4f578063c349026314610a6f578063c616fd4c14610a82578063c87b56dd14610aa2578063c8d6ab5614610ac2578063caa6626014610ae2578063cbc67d3a14610b02578063d15a271b14610b30576103b6565b8063a22cb46511610191578063a22cb46514610930578063ab531efd14610950578063b12df58e14610970578063b2bdfa7b14610990578063b607a0aa146109a5578063b88d4fde146109ba578063b9bc6ead146109da578063bb30d4ce146109fa578063c0e7274014610a1a576103b6565b80638129fc1c1461083157806381c770731461084657806388f62c12146108665780638a3ac44d1461088657806391ead8731461089b578063938e3d7b146108bb57806395d89b41146108db5780639de4ff15146108f0578063a05672f114610910576103b6565b80632f745c59116102df578063572c61c311610277578063572c61c3146107325780635bf0234d1461075257806360a6fb8f146107675780636352211e146107875780636c0360eb146107a757806370a08231146107bc57806374a9a21b146107dc5780637e749897146107fc5780637efa391a14610811576103b6565b80632f745c59146106355780633ccfd60b1461065557806342842e0e1461066a5780634587b3ee1461068a578063487434001461069f5780634d8980f1146106bf5780634f6ccce7146106df57806355f804b3146106ff5780635669057d1461071f576103b6565b80631b1c9c23116103525780631b1c9c23146105125780631c5822fe146105325780631f3221b41461054757806320940d7a1461056757806322751f8714610587578063237abb89146105b557806323b872dd146105d557806328331595146105f55780632cd1826b14610615576103b6565b806301ffc9a7146103bb57806306fdde03146103f157806307f0db2514610413578063081812fc14610435578063095ea7b3146104625780630b3948381461048257806310fd332b146104af57806314d44ea0146104cf57806318160ddd146104fd575b600080fd5b3480156103c757600080fd5b506103db6103d6366004614f4d565b610c64565b6040516103e891906152c0565b60405180910390f35b3480156103fd57600080fd5b50610406610c87565b6040516103e891906152cb565b34801561041f57600080fd5b5061043361042e366004614d9d565b610d1e565b005b34801561044157600080fd5b506104556104503660046150ca565b610db1565b6040516103e8919061523a565b34801561046e57600080fd5b5061043361047d366004614cce565b610df4565b34801561048e57600080fd5b506104a261049d3660046150ca565b610e8c565b6040516103e89190615d9e565b3480156104bb57600080fd5b506104336104ca366004614cce565b610e9e565b3480156104db57600080fd5b506104ef6104ea3660046150fa565b610ee4565b6040516103e89291906152a7565b34801561050957600080fd5b506104a2610f27565b34801561051e57600080fd5b5061043361052d366004614d9d565b610f38565b34801561053e57600080fd5b506103db610fb6565b34801561055357600080fd5b50610433610562366004614f2d565b610fc6565b34801561057357600080fd5b50610433610582366004614d9d565b61100e565b34801561059357600080fd5b506105a76105a23660046150ca565b61108c565b6040516103e8929190615da7565b3480156105c157600080fd5b506103db6105d03660046150ca565b6110a5565b3480156105e157600080fd5b506104336105f0366004614bb3565b6110ba565b34801561060157600080fd5b50610433610610366004614d9d565b6110f2565b34801561062157600080fd5b50610433610630366004614f2d565b611176565b34801561064157600080fd5b506104a2610650366004614cce565b6111be565b34801561066157600080fd5b506104336111ef565b34801561067657600080fd5b50610433610685366004614bb3565b61129d565b34801561069657600080fd5b506103db6112b8565b3480156106ab57600080fd5b506104556106ba3660046150ca565b6112c8565b3480156106cb57600080fd5b506104336106da366004614f2d565b611418565b3480156106eb57600080fd5b506104a26106fa3660046150ca565b611460565b34801561070b57600080fd5b5061043361071a366004614f85565b61147c565b61043361072d366004615159565b6114e9565b34801561073e57600080fd5b5061043361074d366004614d2d565b61196c565b34801561075e57600080fd5b506103db6119fb565b34801561077357600080fd5b50610433610782366004614f2d565b611a0b565b34801561079357600080fd5b506104556107a23660046150ca565b611a48565b3480156107b357600080fd5b50610406611a76565b3480156107c857600080fd5b506104a26107d7366004614b43565b611ad7565b3480156107e857600080fd5b506104556107f73660046150ca565b611b20565b34801561080857600080fd5b506103db611b3b565b34801561081d57600080fd5b5061043361082c366004614de6565b611b4b565b34801561083d57600080fd5b50610433611cb7565b34801561085257600080fd5b506104a2610861366004614cce565b611dca565b34801561087257600080fd5b50610433610881366004614e37565b611f47565b34801561089257600080fd5b506103db6120fa565b3480156108a757600080fd5b506104336108b6366004614d9d565b612103565b3480156108c757600080fd5b506104336108d6366004614f85565b612181565b3480156108e757600080fd5b506104066121b7565b3480156108fc57600080fd5b5061043361090b366004614f2d565b612218565b34801561091c57600080fd5b506103db61092b366004615063565b612260565b34801561093c57600080fd5b5061043361094b366004614c9d565b6122bf565b34801561095c57600080fd5b506104a261096b3660046150fa565b61238d565b34801561097c57600080fd5b5061040661098b3660046150fa565b61239d565b34801561099c57600080fd5b50610455612512565b3480156109b157600080fd5b506103db612521565b3480156109c657600080fd5b506104336109d5366004614bf3565b612531565b3480156109e657600080fd5b506104336109f5366004614f2d565b61256a565b348015610a0657600080fd5b506104a2610a15366004614b43565b6125b2565b348015610a2657600080fd5b506104066125cd565b348015610a3b57600080fd5b506104a2610a4a366004614cce565b61265b565b348015610a5b57600080fd5b50610433610a6a366004614d9d565b612689565b610433610a7d3660046150fa565b61270d565b348015610a8e57600080fd5b506105a7610a9d366004614cf9565b612b0a565b348015610aae57600080fd5b50610406610abd3660046150ca565b612db9565b348015610ace57600080fd5b506104a2610add366004614cce565b612eff565b348015610aee57600080fd5b50610433610afd366004614f2d565b612fb0565b348015610b0e57600080fd5b50610b22610b1d3660046150ca565b612ff8565b6040516103e8929190615d83565b348015610b3c57600080fd5b50610433610b4b366004615184565b61303e565b348015610b5c57600080fd5b50610433610b6b366004614f2d565b61332a565b348015610b7c57600080fd5b506103db613372565b348015610b9157600080fd5b506103db613382565b348015610ba657600080fd5b506104a2610bb53660046150fa565b613392565b348015610bc657600080fd5b5061040661345d565b348015610bdb57600080fd5b506103db610bea366004614b7b565b6134be565b348015610bfb57600080fd5b50610433610c0a36600461511b565b6134ec565b348015610c1b57600080fd5b506105a7610c2a3660046150ca565b6136fd565b348015610c3b57600080fd5b5061043361372f565b348015610c5057600080fd5b50610433610c5f366004614b43565b61386a565b6001600160e01b0319811660009081526033602052604090205460ff165b919050565b606a8054604080516020601f6002600019610100600188161502019095169490940493840181900481028201810190925282815260609390929091830182828015610d135780601f10610ce857610100808354040283529160200191610d13565b820191906000526020600020905b815481529060010190602001808311610cf657829003601f168201915b505050505090505b90565b609d546001600160a01b03163314610d515760405162461bcd60e51b8152600401610d4890615a4a565b60405180910390fd5b60005b81811015610dab57600160b16000868685818110610d6e57fe5b9050602002016020810190610d839190614b43565b6001600160a01b03168152602081019190915260400160002080549091019055600101610d54565b50505050565b6000610dbc826138dc565b610dd85760405162461bcd60e51b8152600401610d48906159b2565b506000908152606860205260409020546001600160a01b031690565b6000610dff82611a48565b9050806001600160a01b0316836001600160a01b03161415610e335760405162461bcd60e51b8152600401610d4890615b5c565b806001600160a01b0316610e456138ef565b6001600160a01b03161480610e615750610e6181610bea6138ef565b610e7d5760405162461bcd60e51b8152600401610d4890615775565b610e8783836138f3565b505050565b60ad6020526000908152604090205481565b609d546001600160a01b03163314610ec85760405162461bcd60e51b8152600401610d4890615a4a565b6001600160a01b03909116600090815260a46020526040902055565b60ac6020528160005260406000208181548110610efd57fe5b6000918252602090912060029091020180546001909101546001600160a01b039091169250905082565b6000610f336066613961565b905090565b609d546001600160a01b03163314610f625760405162461bcd60e51b8152600401610d4890615a4a565b60005b81811015610dab57600060b16000868685818110610f7f57fe5b9050602002016020810190610f949190614b43565b6001600160a01b03168152602081019190915260400160002055600101610f65565b609d54600160a81b900460ff1681565b609d546001600160a01b03163314610ff05760405162461bcd60e51b8152600401610d4890615a4a565b609d8054911515600160b81b0260ff60b81b19909216919091179055565b609d546001600160a01b031633146110385760405162461bcd60e51b8152600401610d4890615a4a565b60005b81811015610dab57600060a3600086868581811061105557fe5b905060200201602081019061106a9190614b43565b6001600160a01b0316815260208101919091526040016000205560010161103b565b60ab602052600090815260409020805460019091015482565b60a16020526000908152604090205460ff1681565b6110cb6110c56138ef565b8261396c565b6110e75760405162461bcd60e51b8152600401610d4890615c07565b610e878383836139f1565b609d546001600160a01b0316331461111c5760405162461bcd60e51b8152600401610d4890615a4a565b60005b81811015610dab57600160a2600086868581811061113957fe5b905060200201602081019061114e9190614b43565b6001600160a01b0316815260208101919091526040016000208054909101905560010161111f565b609d546001600160a01b031633146111a05760405162461bcd60e51b8152600401610d4890615a4a565b609d8054911515600160a01b0260ff60a01b19909216919091179055565b6001600160a01b03821660009081526065602052604081206111e6908363ffffffff613b1116565b90505b92915050565b609d546001600160a01b031633146112195760405162461bcd60e51b8152600401610d4890615a4a565b609d546040516000916001600160a01b031690479061123790610d1b565b60006040518083038185875af1925050503d8060008114611274576040519150601f19603f3d011682016040523d82523d6000602084013e611279565b606091505b505090508061129a5760405162461bcd60e51b8152600401610d4890615cbf565b50565b610e8783838360405180602001604052806000815250612531565b609d54600160b81b900460ff1681565b6040516331a9108f60e11b815260009030908190636352211e906112f0908690600401615d9e565b60206040518083038186803b15801561130857600080fd5b505afa925050508015611338575060408051601f3d908101601f1916820190925261133591810190614b5f565b60015b61140f576040516000815260443d1015611354575060006113ef565b60046000803e60005160e01c6308c379a081146113755760009150506113ef565b60043d036004833e81513d60248201116001600160401b03821117156113a0576000925050506113ef565b80830180516001600160401b038111156113c15760009450505050506113ef565b8060208301013d86018111156113df576000955050505050506113ef565b601f01601f191660405250925050505b806113fa5750611405565b600092505050610c82565b3d6000803e3d6000fd5b9150610c829050565b609d546001600160a01b031633146114425760405162461bcd60e51b8152600401610d4890615a4a565b609d8054911515600160a81b0260ff60a81b19909216919091179055565b60008061147460668463ffffffff613b1d16565b509392505050565b609d546001600160a01b031633146114a65760405162461bcd60e51b8152600401610d4890615a4a565b6114e582828080601f016020809104026020016040519081016040528093929190818152602001838380828437600092019190915250613b3b92505050565b5050565b606483111580156114fb575060648211155b6115175760405162461bcd60e51b8152600401610d48906156a2565b60a554600160a01b900460ff16156115415760405162461bcd60e51b8152600401610d4890615ce7565b600081815260b060205260409020548311801561156e5750600081815260b0602052604090206001015482115b801561158b5750600081815260b060205260409020600201548311155b80156115a85750600081815260b060205260409020600301548211155b6115c45760405162461bcd60e51b8152600401610d4890615d5c565b600081815260ae60205260408120546001600160a01b0316907310daa9f4c0f985430fde4959adb2c791ef2ccf8382141561160f575033600090815260b160205260409020546117b3565b6001600160a01b0382167372541ad75e05bc77c7a92304225937a8f6653372141561170b578215806116415750826001145b8061164c5750826002145b806116575750826003145b15611672575033600090815260a36020526040902054611706565b6040516370a0823160e01b815282906001600160a01b038216906370a08231906116a090339060040161523a565b60206040518083038186803b1580156116b857600080fd5b505afa1580156116cc573d6000803e3d6000fd5b505050506040513d601f19601f820116820180604052508101906116f091906150e2565b33600090815260a3602052604090205490039150505b6117b3565b34666a94d74f430000146117315760405162461bcd60e51b8152600401610d4890615603565b6040516370a0823160e01b815282906001600160a01b038216906370a082319061175f90339060040161523a565b60206040518083038186803b15801561177757600080fd5b505afa15801561178b573d6000803e3d6000fd5b505050506040513d601f19601f820116820180604052508101906117af91906150e2565b9150505b600081116117d35760405162461bcd60e51b8152600401610d4890615357565b33600090815260a960209081526040808320868452909152902054811161180c5760405162461bcd60e51b8152600401610d4890615bd4565b6000611818868661238d565b9050611828338261271001613b4e565b61183e612710820161183981613b68565b613c3f565b83158061184b5750836001145b806118565750836002145b806118615750836003145b156118a25760005b600481101561189c5733600090815260a96020908152604080832084845290915290208054600190810190915501611869565b50611964565b6001600160a01b038316600090815260af602090815260409182902080548351818402810184019094528084526060939283018282801561190257602002820191906000526020600020905b8154815260200190600101908083116118ee575b50939450600093505050505b81518110156119615733600090815260a960205260408120835190919084908490811061193757fe5b6020908102919091018101518252810191909152604001600020805460019081019091550161190e565b50505b505050505050565b609d546001600160a01b031633146119965760405162461bcd60e51b8152600401610d4890615a4a565b60005b81811015611964578383828181106119ad57fe5b9050602002013560a460008888858181106119c457fe5b90506020020160208101906119d99190614b43565b6001600160a01b03168152602081019190915260400160002055600101611999565b609d54600160b01b900460ff1681565b609d546001600160a01b03163314611a355760405162461bcd60e51b8152600401610d4890615a4a565b60a7805460ff1916911515919091179055565b60006111e982604051806060016040528060298152602001615e88602991396066919063ffffffff613c8316565b606d8054604080516020601f6002600019610100600188161502019095169490940493840181900481028201810190925282815260609390929091830182828015610d135780601f10610ce857610100808354040283529160200191610d13565b60006001600160a01b038216611aff5760405162461bcd60e51b8152600401610d48906157f8565b6001600160a01b03821660009081526065602052604090206111e990613961565b60ae602052600090815260409020546001600160a01b031681565b60a554600160b01b900460ff1681565b609d546001600160a01b03163314611b755760405162461bcd60e51b8152600401610d4890615a4a565b60005b818110156119645760af600060ae6000898986818110611b9457fe5b602090810292909201358352508181019290925260409081016000908120546001600160a01b031684529183019390935291018120611bd29161490b565b838382818110611bde57fe5b9050602002016020810190611bf39190614b43565b60ae6000888885818110611c0357fe5b90506020020135815260200190815260200160002060006101000a8154816001600160a01b0302191690836001600160a01b0316021790555060af6000858584818110611c4c57fe5b9050602002016020810190611c619190614b43565b6001600160a01b03166001600160a01b03168152602001908152602001600020868683818110611c8d57fe5b83546001808201865560009586526020958690209290950293909301359201919091555001611b78565b600054610100900460ff1680611cd05750611cd0613c9a565b80611cde575060005460ff16155b611cfa5760405162461bcd60e51b8152600401610d4890615842565b600054610100900460ff16158015611d25576000805460ff1961ff0019909116610100171660011790555b611d7160405180604001604052806009815260200168135e5411941b185b9960ba1b81525060405180604001604052806009815260200168135e5411941b185b9960ba1b815250613cab565b609d80546001600160a01b031990811633179091556000609a5561012c609b55610190609c5560a580549091167372541ad75e05bc77c7a92304225937a8f6653372179055801561129a576000805461ff001916905550565b60a75460009060ff16611e7157600082815260ae6020526040908190205490516370a0823160e01b81526001600160a01b0390911690819081906370a0823190611e1890889060040161523a565b60206040518083038186803b158015611e3057600080fd5b505afa158015611e44573d6000803e3d6000fd5b505050506040513d601f19601f82011682018060405250810190611e6891906150e2565b925050506111e9565b600080805b60a854811015611f3c57600081815260ae60205260409020546001600160a01b03908116908316811415611eaa5750611f34565b6040516370a0823160e01b8152909250829081906001600160a01b038216906370a0823190611edd908b9060040161523a565b60206040518083038186803b158015611ef557600080fd5b505afa158015611f09573d6000803e3d6000fd5b505050506040513d601f19601f82011682018060405250810190611f2d91906150e2565b8501945050505b600101611e76565b5081925050506111e9565b609d546001600160a01b03163314611f715760405162461bcd60e51b8152600401610d4890615a4a565b611f79614929565b60005b828110156120eb578c8c82818110611f9057fe5b845160209091029290920135909152508a8a82818110611fac57fe5b9050602002013582600001516020018181525050888882818110611fcc57fe5b6020858101519102929092013590915250868682818110611fe957fe5b6020858101805192820294909401359181019190915260a854600090815260b0825260409020855180518255820151600182015592518051600285015501516003909201919091555084848281811061203e57fe5b90506020020160208101906120539190614b43565b60a854600090815260ae6020526040812080546001600160a01b0319166001600160a01b03939093169290921790915560af9086868481811061209257fe5b90506020020160208101906120a79190614b43565b6001600160a01b03168152602080820192909252604001600090812060a8805482546001818101855593855294909320909301919091558154810190915501611f7c565b50505050505050505050505050565b60a75460ff1681565b609d546001600160a01b0316331461212d5760405162461bcd60e51b8152600401610d4890615a4a565b60005b81811015610dab57600060a2600086868581811061214a57fe5b905060200201602081019061215f9190614b43565b6001600160a01b03168152602081019190915260400160002055600101612130565b609d546001600160a01b031633146121ab5760405162461bcd60e51b8152600401610d4890615a4a565b610e8760a6838361494e565b606b8054604080516020601f6002600019610100600188161502019095169490940493840181900481028201810190925282815260609390929091830182828015610d135780601f10610ce857610100808354040283529160200191610d13565b609d546001600160a01b031633146122425760405162461bcd60e51b8152600401610d4890615a4a565b609d8054911515600160b01b0260ff60b01b19909216919091179055565b805151825160009110801561228057508160000151602001518360200151115b80156122925750602082015151835111155b80156122aa5750816020015160200151836020015111155b156122b7575060016111e9565b5060006111e9565b6122c76138ef565b6001600160a01b0316826001600160a01b031614156122f85760405162461bcd60e51b8152600401610d489061566f565b80606960006123056138ef565b6001600160a01b03908116825260208083019390935260409182016000908120918716808252919093529120805460ff1916921515929092179091556123496138ef565b6001600160a01b03167f17307eab39ab6107e8899845ad3d59bd9653f200f220920489ca2b5937696c318360405161238191906152c0565b60405180910390a35050565b6000198201606402810192915050565b600082815260ae60205260409081902054905163c87b56dd60e01b81526060916001600160a01b0316908190819063c87b56dd906123df908790600401615d9e565b60006040518083038186803b1580156123f757600080fd5b505afa92505050801561242c57506040513d6000823e601f3d908101601f191682016040526124299190810190614fee565b60015b612508576040516000815260443d1015612448575060006124e3565b60046000803e60005160e01c6308c379a081146124695760009150506124e3565b60043d036004833e81513d60248201116001600160401b0382111715612494576000925050506124e3565b80830180516001600160401b038111156124b55760009450505050506124e3565b8060208301013d86018111156124d3576000955050505050506124e3565b601f01601f191660405250925050505b806124ee5750611405565b6040518060200160405280600081525093505050506111e9565b92506111e9915050565b609d546001600160a01b031681565b60a554600160a81b900460ff1681565b61254261253c6138ef565b8361396c565b61255e5760405162461bcd60e51b8152600401610d4890615c07565b610dab84848484613d49565b609d546001600160a01b031633146125945760405162461bcd60e51b8152600401610d4890615a4a565b60a58054911515600160a81b0260ff60a81b19909216919091179055565b6001600160a01b0316600090815260a4602052604090205490565b60a6805460408051602060026001851615610100026000190190941693909304601f810184900484028201840190925281815292918301828280156126535780601f1061262857610100808354040283529160200191612653565b820191906000526020600020905b81548152906001019060200180831161263657829003601f168201915b505050505081565b60af602052816000526040600020818154811061267457fe5b90600052602060002001600091509150505481565b609d546001600160a01b031633146126b35760405162461bcd60e51b8152600401610d4890615a4a565b60005b81811015610dab57600160a360008686858181106126d057fe5b90506020020160208101906126e59190614b43565b6001600160a01b031681526020810191909152604001600020805490910190556001016126b6565b600182101561272e5760405162461bcd60e51b8152600401610d48906156cc565b600382111561274f5760405162461bcd60e51b8152600401610d48906156cc565b816001141561278257609d54600160a81b900460ff16156127825760405162461bcd60e51b8152600401610d4890615c8f565b81600214156127b557609d54600160b01b900460ff16156127b55760405162461bcd60e51b8152600401610d489061597b565b81600314156127e857609d54600160b81b900460ff16156127e85760405162461bcd60e51b8152600401610d489061539b565b60006127f43384613d7c565b905082600114156128155733600090815260a2602052604090205401612830565b82600214156128305733600090815260a36020526040902054015b6000600184141561287157336000908152609e6020526040902054830182101561286c5760405162461bcd60e51b8152600401610d4890615890565b6128d4565b83600214156128ab57336000908152609f6020526040902054830182101561286c5760405162461bcd60e51b8152600401610d4890615320565b83600314156128d457828210156128d45760405162461bcd60e51b8152600401610d489061559a565b60005b838160ff16101561296d57846001141561290a576128f56097613fb9565b609a546129026097613fc2565b01915061294e565b846002141561292a5761291d6098613fb9565b609b546129026098613fc2565b846003141561294e5761293d6099613fb9565b609c5461294a6099613fc2565b0191505b6129583383613b4e565b6129658261183984613b68565b6001016128d7565b50836001141561299157336000908152609e602052604090208054840190556129b0565b83600214156129b057336000908152609f602052604090208054840190555b6000821180156129c05750836003145b15610dab5760005b60a5546040516370a0823160e01b81526001600160a01b03909116906370a08231906129f890339060040161523a565b60206040518083038186803b158015612a1057600080fd5b505afa158015612a24573d6000803e3d6000fd5b505050506040513d601f19601f82011682018060405250810190612a4891906150e2565b8160ff161015612b035760a554604051632f745c5960e01b81526000916001600160a01b031690632f745c5990612a85903390869060040161528b565b60206040518083038186803b158015612a9d57600080fd5b505afa158015612ab1573d6000803e3d6000fd5b505050506040513d601f19601f82011682018060405250810190612ad591906150e2565b90506105cc8111612afa57600081815260a160205260409020805460ff191660011790555b506001016129c8565b5050505050565b60a7546000908190819060ff16612bbc57600084815260ae602052604090819020549051632f745c5960e01b81526001600160a01b039091169081908190632f745c5990612b5e908b908b906004016152a7565b60206040518083038186803b158015612b7657600080fd5b505afa158015612b8a573d6000803e3d6000fd5b505050506040513d601f19601f82011682018060405250810190612bae91906150e2565b8695509350612db192505050565b600080805b60a854811015612dac57600081815260ae60205260409020546001600160a01b03908116908316811415612bf55750612da4565b6040516370a0823160e01b8152909250829081906001600160a01b038216906370a0823190612c28908e9060040161523a565b60206040518083038186803b158015612c4057600080fd5b505afa158015612c54573d6000803e3d6000fd5b505050506040513d601f19601f82011682018060405250810190612c7891906150e2565b8501945089600186031015612c8e575050612da4565b6040516370a0823160e01b81526000906001600160a01b038316906370a0823190612cbd908f9060040161523a565b60206040518083038186803b158015612cd557600080fd5b505afa158015612ce9573d6000803e3d6000fd5b505050506040513d601f19601f82011682018060405250810190612d0d91906150e2565b604051632f745c5960e01b81529087038c0391506001600160a01b03831690632f745c5990612d42908f9085906004016152a7565b60206040518083038186803b158015612d5a57600080fd5b505afa158015612d6e573d6000803e3d6000fd5b505050506040513d601f19601f82011682018060405250810190612d9291906150e2565b939850929650612db195505050505050565b600101612bc1565b505050505b935093915050565b6060612dc4826138dc565b612de05760405162461bcd60e51b8152600401610d4890615ac8565b6000828152606c602090815260409182902080548351601f6002600019610100600186161502019093169290920491820184900484028101840190945280845260609392830182828015612e755780601f10612e4a57610100808354040283529160200191612e75565b820191906000526020600020905b815481529060010190602001808311612e5857829003601f168201915b505050505090506060612e86611a76565b9050805160001415612e9a57509050610c82565b815115612ecc578082604051602001612eb492919061520c565b60405160208183030381529060405292505050610c82565b80612ed685613fc6565b604051602001612ee792919061520c565b60405160208183030381529060405292505050919050565b6000806001831080612f115750600383115b15612f1d5790506111e9565b6000612f298585613d7c565b90508360011415612f65576001600160a01b038516600090815260a26020908152604080832054609e9092529091205491019081039150611474565b8360021415612f9f576001600160a01b038516600090815260a36020908152604080832054609f9092529091205491019081039150611474565b836003141561147457949350505050565b609d546001600160a01b03163314612fda5760405162461bcd60e51b8152600401610d4890615a4a565b60a58054911515600160a01b0260ff60a01b19909216919091179055565b60b0602090815260009182526040918290208251808401845281548152600182015481840152835180850190945260028201548452600390910154918301919091529082565b60648411158015613050575060648311155b61306c5760405162461bcd60e51b8152600401610d48906156a2565b60a554600160a81b900460ff16156130965760405162461bcd60e51b8152600401610d48906155d1565b60006130a2858561238d565b9050336130b26127108301611a48565b6001600160a01b0316146130d85760405162461bcd60e51b8152600401610d48906158c2565b60a75460ff1661316557600083815260b060205260409020548511801561310f5750600083815260b0602052604090206001015484115b801561312c5750600083815260b060205260409020600201548511155b80156131495750600083815260b060205260409020600301548411155b6131655760405162461bcd60e51b8152600401610d4890615d5c565b600083815260ae6020526040908190205490516331a9108f60e11b81526001600160a01b0390911690819033908290636352211e906131a8908890600401615d9e565b60206040518083038186803b1580156131c057600080fd5b505afa1580156131d4573d6000803e3d6000fd5b505050506040513d601f19601f820116820180604052508101906131f89190614b5f565b6001600160a01b03161461321e5760405162461bcd60e51b8152600401610d4890615b17565b6001600160a01b038216600090815260aa6020908152604080832087845290915290205460ff16156132625760405162461bcd60e51b8152600401610d489061552c565b6127108301600090815260ab60209081526040808320805480855260ae8452828520546001600160a01b03908116865260aa80865284872060019485015488528652848720805460ff19908116909155918916875285528386208a875290945291909320805490921690921790556132d86149cc565b86815260208082018781526127108701600090815260ab8352604080822085518155925160019093019290925560ad835281812081905560ac909252812061331f916149e6565b505050505050505050565b609d546001600160a01b031633146133545760405162461bcd60e51b8152600401610d4890615a4a565b60a58054911515600160b01b0260ff60b01b19909216919091179055565b60a554600160a01b900460ff1681565b609d54600160a01b900460ff1681565b60008060648411806133a45750606483115b156133b557620186a09150506111e9565b6133bd614929565b6133c56149cc565b8581526020810185905260005b60a85481101561344e57600081815260b0602090815260409182902082516080810184528154818501908152600183015460608301528152835180850190945260028201548452600390910154838301529081019190915292506134368284612260565b156134465793506111e992505050565b6001016133d2565b50620186a09695505050505050565b60a68054604080516020601f6002600019610100600188161502019095169490940493840181900481028201810190925282815260609390929091830182828015610d135780601f10610ce857610100808354040283529160200191610d13565b6001600160a01b03918216600090815260696020908152604080832093909416825291909152205460ff1690565b606484111580156134fe575060648311155b61351a5760405162461bcd60e51b8152600401610d48906156a2565b60a554600160b01b900460ff16156135445760405162461bcd60e51b8152600401610d489061573e565b6000613550858561238d565b9050336135606127108301611a48565b6001600160a01b0316146135865760405162461bcd60e51b8152600401610d48906158c2565b6127108101600090815260ab60205260409020541515806135bc57506127108101600090815260ab602052604090206001015415155b6135d85760405162461bcd60e51b8152600401610d4890615563565b6040516331a9108f60e11b8152839033906001600160a01b03831690636352211e90613608908790600401615d9e565b60206040518083038186803b15801561362057600080fd5b505afa158015613634573d6000803e3d6000fd5b505050506040513d601f19601f820116820180604052508101906136589190614b5f565b6001600160a01b03161461367e5760405162461bcd60e51b8152600401610d4890615b17565b613686614a07565b6001600160a01b039485168152602080820194855261271093909301600081815260ac855260408082208054600180820183559184528784209551600290910290950180546001600160a01b03191695909916949094178855955196830196909655855260ad909252509120805490910190555050565b6000806064830460010191506064838161371357fe5b0661371f576001820391505b5091600019830160640290910390565b609d54600160a01b900460ff16151560011461375d5760405162461bcd60e51b8152600401610d48906157cd565b33600090815260a460205260409020546137895760405162461bcd60e51b8152600401610d4890615b9d565b33600090815260a460205260409020544710156137b85760405162461bcd60e51b8152600401610d4890615d18565b336137d55760405162461bcd60e51b8152600401610d4890615504565b33600081815260a460205260408082205490519192916137f490610d1b565b60006040518083038185875af1925050503d8060008114613831576040519150601f19603f3d011682016040523d82523d6000602084013e613836565b606091505b50509050806138575760405162461bcd60e51b8152600401610d48906154d8565b5033600090815260a46020526040812055565b609d546001600160a01b031633146138945760405162461bcd60e51b8152600401610d4890615a4a565b6001600160a01b0381166138ba5760405162461bcd60e51b8152600401610d4890615424565b609d80546001600160a01b0319166001600160a01b0392909216919091179055565b60006111e960668363ffffffff61409716565b3390565b600081815260686020526040902080546001600160a01b0319166001600160a01b038416908117909155819061392882611a48565b6001600160a01b03167f8c5be1e5ebec7d5bd14f71427d1e84f3dd0314c0f7b2291e5b200ac8c7c3b92560405160405180910390a45050565b60006111e982613fc2565b6000613977826138dc565b6139935760405162461bcd60e51b8152600401610d48906156f2565b600061399e83611a48565b9050806001600160a01b0316846001600160a01b031614806139d95750836001600160a01b03166139ce84610db1565b6001600160a01b0316145b806139e957506139e981856134be565b949350505050565b826001600160a01b0316613a0482611a48565b6001600160a01b031614613a2a5760405162461bcd60e51b8152600401610d4890615a7f565b6001600160a01b038216613a505760405162461bcd60e51b8152600401610d489061562b565b613a5b8383836140a3565b613a666000826138f3565b6001600160a01b0383166000908152606560205260409020613a8e908263ffffffff61414016565b506001600160a01b0382166000908152606560205260409020613ab7908263ffffffff61414c16565b50613aca6066828463ffffffff61415816565b5080826001600160a01b0316846001600160a01b03167fddf252ad1be2c89b69c2b068fc378daa952ba7f163c4a11628f55a4df523b3ef60405160405180910390a4505050565b60006111e6838361416e565b6000808080613b2c86866141b3565b909450925050505b9250929050565b80516114e590606d906020840190614a1e565b6114e582826040518060200160405280600081525061420f565b606081613b8d57506040805180820190915260018152600360fc1b6020820152610c82565b8160005b8115613ba557600101600a82049150613b91565b6060816001600160401b0381118015613bbd57600080fd5b506040519080825280601f01601f191660200182016040528015613be8576020820181803683370190505b50905060001982015b8515613c3657600a860660300160f81b82828060019003935081518110613c1457fe5b60200101906001600160f81b031916908160001a905350600a86049550613bf1565b50949350505050565b613c48826138dc565b613c645760405162461bcd60e51b8152600401610d48906159fe565b6000828152606c602090815260409091208251610e8792840190614a1e565b6000613c90848484614242565b90505b9392505050565b6000613ca5306142a1565b15905090565b600054610100900460ff1680613cc45750613cc4613c9a565b80613cd2575060005460ff16155b613cee5760405162461bcd60e51b8152600401610d4890615842565b600054610100900460ff16158015613d19576000805460ff1961ff0019909116610100171660011790555b613d216142a7565b613d29614329565b613d3383836143a7565b8015610e87576000805461ff0019169055505050565b613d548484846139f1565b613d608484848461446d565b610dab5760405162461bcd60e51b8152600401610d48906153d2565b60a5546040516370a0823160e01b815260009182916001600160a01b03909116906370a0823190613db190879060040161523a565b60206040518083038186803b158015613dc957600080fd5b505afa158015613ddd573d6000803e3d6000fd5b505050506040513d601f19601f82011682018060405250810190613e0191906150e2565b613e0c5790506111e9565b6000808460011415613e2657506112b69050611362613e4f565b8460021415613e3d57506113639050611388613e4f565b8460031415613e4f5750600190506105cc5b60005b60a5546040516370a0823160e01b81526001600160a01b03909116906370a0823190613e82908a9060040161523a565b60206040518083038186803b158015613e9a57600080fd5b505afa158015613eae573d6000803e3d6000fd5b505050506040513d601f19601f82011682018060405250810190613ed291906150e2565b811015613fae5760a554604051632f745c5960e01b81526000916001600160a01b031690632f745c5990613f0c908b9086906004016152a7565b60206040518083038186803b158015613f2457600080fd5b505afa158015613f38573d6000803e3d6000fd5b505050506040513d601f19601f82011682018060405250810190613f5c91906150e2565b9050838110158015613f6e5750828111155b15613fa5578660031415613f9e57600081815260a1602052604090205460ff16613f99576001909401935b613fa5565b6001909401935b50600101613e52565b509195945050505050565b80546001019055565b5490565b606081613feb57506040805180820190915260018152600360fc1b6020820152610c82565b8160005b811561400357600101600a82049150613fef565b6060816001600160401b038111801561401b57600080fd5b506040519080825280601f01601f191660200182016040528015614046576020820181803683370190505b50859350905060001982015b8315613c3657600a840660300160f81b8282806001900393508151811061407557fe5b60200101906001600160f81b031916908160001a905350600a84049350614052565b60006111e68383614552565b612710811115614135576140b56149cc565b6000808252602080830182815284835260ab8083526040808520805480875260ae8652828720546001600160a01b0316875260aa86528287206001830180548952908752838820805460ff191690558988529386528751909155925190915560ad835280842084905560ac909252908220909161413291906149e6565b50505b610e87838383610e87565b60006111e6838361456a565b60006111e68383614630565b6000613c9084846001600160a01b038516614672565b815460009082106141915760405162461bcd60e51b8152600401610d48906152de565b8260000182815481106141a057fe5b9060005260206000200154905092915050565b8154600090819083106141d85760405162461bcd60e51b8152600401610d4890615904565b60008460000184815481106141e957fe5b906000526020600020906002020190508060000154816001015492509250509250929050565b6142198383614709565b614226600084848461446d565b610e875760405162461bcd60e51b8152600401610d48906153d2565b600082815260018401602052604081205482816142725760405162461bcd60e51b8152600401610d4891906152cb565b5084600001600182038154811061428557fe5b9060005260206000209060020201600101549150509392505050565b3b151590565b600054610100900460ff16806142c057506142c0613c9a565b806142ce575060005460ff16155b6142ea5760405162461bcd60e51b8152600401610d4890615842565b600054610100900460ff16158015614315576000805460ff1961ff0019909116610100171660011790555b801561129a576000805461ff001916905550565b600054610100900460ff16806143425750614342613c9a565b80614350575060005460ff16155b61436c5760405162461bcd60e51b8152600401610d4890615842565b600054610100900460ff16158015614397576000805460ff1961ff0019909116610100171660011790555b6143156301ffc9a760e01b6147d9565b600054610100900460ff16806143c057506143c0613c9a565b806143ce575060005460ff16155b6143ea5760405162461bcd60e51b8152600401610d4890615842565b600054610100900460ff16158015614415576000805460ff1961ff0019909116610100171660011790555b825161442890606a906020860190614a1e565b50815161443c90606b906020850190614a1e565b5061444d6380ac58cd60e01b6147d9565b61445d635b5e139f60e01b6147d9565b613d3363780e9d6360e01b6147d9565b6000614481846001600160a01b03166142a1565b61448d575060016139e9565b606061451b630a85bd0160e11b6144a26138ef565b8887876040516024016144b8949392919061524e565b604051602081830303815290604052906001600160e01b0319166020820180516001600160e01b038381831617835250505050604051806060016040528060328152602001615e56603291396001600160a01b038816919063ffffffff61482816565b90506000818060200190518101906145339190614f69565b6001600160e01b031916630a85bd0160e11b1492505050949350505050565b60009081526001919091016020526040902054151590565b60008181526001830160205260408120548015614626578354600019808301919081019060009087908390811061459d57fe5b90600052602060002001549050808760000184815481106145ba57fe5b6000918252602080832090910192909255828152600189810190925260409020908401905586548790806145ea57fe5b600190038181906000526020600020016000905590558660010160008781526020019081526020016000206000905560019450505050506111e9565b60009150506111e9565b600061463c8383614552565b6122b7575081546001818101845560008481526020808220909301849055845484825282860190935260409020919091556111e9565b6000828152600184016020526040812054806146d7575050604080518082018252838152602080820184815286546001818101895560008981528481209551600290930290950191825591519082015586548684528188019092529290912055613c93565b828560000160018303815481106146ea57fe5b9060005260206000209060020201600101819055506000915050613c93565b6001600160a01b03821661472f5760405162461bcd60e51b8152600401610d4890615946565b614738816138dc565b156147555760405162461bcd60e51b8152600401610d48906154a1565b614761600083836140a3565b6001600160a01b0382166000908152606560205260409020614789908263ffffffff61414c16565b5061479c6066828463ffffffff61415816565b5060405181906001600160a01b038416906000907fddf252ad1be2c89b69c2b068fc378daa952ba7f163c4a11628f55a4df523b3ef908290a45050565b6001600160e01b031980821614156148035760405162461bcd60e51b8152600401610d489061546a565b6001600160e01b0319166000908152603360205260409020805460ff19166001179055565b6060613c9084846000858561483c856142a1565b6148585760405162461bcd60e51b8152600401610d4890615c58565b60006060866001600160a01b0316858760405161487591906151f0565b60006040518083038185875af1925050503d80600081146148b2576040519150601f19603f3d011682016040523d82523d6000602084013e6148b7565b606091505b50915091506148c78282866148d2565b979650505050505050565b606083156148e1575081613c93565b8251156148f15782518084602001fd5b8160405162461bcd60e51b8152600401610d4891906152cb565b508054600082559060005260206000209081019061129a9190614a8c565b604051806040016040528061493c6149cc565b81526020016149496149cc565b905290565b828054600181600116156101000203166002900490600052602060002090601f016020900481019282601f1061498f5782800160ff198235161785556149bc565b828001600101855582156149bc579182015b828111156149bc5782358255916020019190600101906149a1565b506149c8929150614a8c565b5090565b604051806040016040528060008152602001600081525090565b508054600082556002029060005260206000209081019061129a9190614aa6565b604080518082019091526000808252602082015290565b828054600181600116156101000203166002900490600052602060002090601f016020900481019282601f10614a5f57805160ff19168380011785556149bc565b828001600101855582156149bc579182015b828111156149bc578251825591602001919060010190614a71565b610d1b91905b808211156149c85760008155600101614a92565b610d1b91905b808211156149c85780546001600160a01b031916815560006001820155600201614aac565b60008083601f840112614ae2578182fd5b5081356001600160401b03811115614af8578182fd5b6020830191508360208083028501011115613b3457600080fd5b600060408284031215614b23578081fd5b614b2d6040615db5565b9050813581526020820135602082015292915050565b600060208284031215614b54578081fd5b8135613c9381615e2a565b600060208284031215614b70578081fd5b8151613c9381615e2a565b60008060408385031215614b8d578081fd5b8235614b9881615e2a565b91506020830135614ba881615e2a565b809150509250929050565b600080600060608486031215614bc7578081fd5b8335614bd281615e2a565b92506020840135614be281615e2a565b929592945050506040919091013590565b60008060008060808587031215614c08578081fd5b8435614c1381615e2a565b93506020850135614c2381615e2a565b92506040850135915060608501356001600160401b03811115614c44578182fd5b80860187601f820112614c55578283fd5b80359150614c6a614c6583615ddb565b615db5565b828152886020848401011115614c7e578384fd5b8260208301602083013791820160200192909252939692955090935050565b60008060408385031215614caf578182fd5b8235614cba81615e2a565b915060208301358015158114614ba8578182fd5b60008060408385031215614ce0578182fd5b8235614ceb81615e2a565b946020939093013593505050565b600080600060608486031215614d0d578283fd5b8335614d1881615e2a565b95602085013595506040909401359392505050565b600080600080600060608688031215614d44578081fd5b85356001600160401b0380821115614d5a578283fd5b614d6689838a01614ad1565b90975095506020880135915080821115614d7e578283fd5b50614d8b88828901614ad1565b96999598509660400135949350505050565b600080600060408486031215614db1578081fd5b83356001600160401b03811115614dc6578182fd5b614dd286828701614ad1565b909790965060209590950135949350505050565b600080600080600060608688031215614dfd578283fd5b85356001600160401b0380821115614e13578485fd5b614e1f89838a01614ad1565b90975095506020880135915080821115614d7e578485fd5b600080600080600080600080600080600060c08c8e031215614e57578889fd5b6001600160401b03808d351115614e6c57898afd5b614e798e8e358f01614ad1565b909c509a5060208d0135811015614e8e57898afd5b614e9e8e60208f01358f01614ad1565b909a50985060408d0135811015614eb3578687fd5b614ec38e60408f01358f01614ad1565b909850965060608d0135811015614ed8578586fd5b614ee88e60608f01358f01614ad1565b909650945060808d0135811015614efd578384fd5b50614f0e8d60808e01358e01614ad1565b819450809350505060a08c013590509295989b509295989b9093969950565b600060208284031215614f3e578081fd5b81358015158114613c93578182fd5b600060208284031215614f5e578081fd5b8135613c9381615e3f565b600060208284031215614f7a578081fd5b8151613c9381615e3f565b60008060208385031215614f97578182fd5b82356001600160401b0380821115614fad578384fd5b81850186601f820112614fbe578485fd5b8035925081831115614fce578485fd5b866020848301011115614fdf578485fd5b60200196919550909350505050565b600060208284031215614fff578081fd5b81516001600160401b03811115615014578182fd5b80830184601f820112615025578283fd5b80519150615035614c6583615ddb565b828152856020848401011115615049578384fd5b61505a836020830160208501615dfe565b95945050505050565b60008082840360c0811215615076578283fd5b6150808585614b12565b92506080603f1982011215615093578182fd5b5061509e6040615db5565b6150ab8560408601614b12565b81526150ba8560808601614b12565b6020820152809150509250929050565b6000602082840312156150db578081fd5b5035919050565b6000602082840312156150f3578081fd5b5051919050565b6000806040838503121561510c578182fd5b50508035926020909101359150565b60008060008060808587031215615130578182fd5b8435935060208501359250604085013561514981615e2a565b9396929550929360600135925050565b60008060006060848603121561516d578081fd5b505081359360208301359350604090920135919050565b60008060008060808587031215615199578182fd5b5050823594602084013594506040840135936060013592509050565b600081518084526151cd816020860160208601615dfe565b601f01601f19169290920160200192915050565b80518252602090810151910152565b60008251615202818460208701615dfe565b9190910192915050565b6000835161521e818460208801615dfe565b8351908301615231828260208801615dfe565b01949350505050565b6001600160a01b0391909116815260200190565b6001600160a01b0385811682528416602082015260408101839052608060608201819052600090615281908301846151b5565b9695505050505050565b6001600160a01b0392909216825260ff16602082015260400190565b6001600160a01b03929092168252602082015260400190565b901515815260200190565b6000602082526111e660208301846151b5565b60208082526022908201527f456e756d657261626c655365743a20696e646578206f7574206f6620626f756e604082015261647360f01b606082015260800190565b6020808252601d908201527f616c726561647920636c61696d656420616c6c207061696e74696e6773000000604082015260600190565b60208082526024908201527f446f6e2774206f776e20616e79204e465420696e207468697320636f6c6c65636040820152633a34b7b760e11b606082015260800190565b6020808252601c908201527f73746174746575746520636c61696d696e672069732070617573656400000000604082015260600190565b60208082526032908201527f4552433732313a207472616e7366657220746f206e6f6e20455243373231526560408201527131b2b4bb32b91034b6b83632b6b2b73a32b960711b606082015260800190565b60208082526026908201527f4f776e61626c653a206e6577206f776e657220697320746865207a65726f206160408201526564647265737360d01b606082015260800190565b6020808252601c908201527f4552433136353a20696e76616c696420696e7465726661636520696400000000604082015260600190565b6020808252601c908201527f4552433732313a20746f6b656e20616c7265616479206d696e74656400000000604082015260600190565b60208082526012908201527108cc2d2d8cac840e8de40e6cadcc840cae8d60731b604082015260600190565b6020808252600e908201526d34b73b30b634b21031b0b63632b960911b604082015260600190565b6020808252601e908201527f5468697320726f79616c204e465420697320616c726561647920757365640000604082015260600190565b6020808252601b908201527f4e65656420746f2073657420726f79616c204e46542066697273740000000000604082015260600190565b6020808252601e908201527f616c726561647920636c61696d656420616c6c20737461747465757465730000604082015260600190565b6020808252601890820152771c9bde585b0818db185a5b5a5b99c81a5cc81c185d5cd95960421b604082015260600190565b6020808252600e908201526d1a5b9d985b1a5908185b5bdd5b9d60921b604082015260600190565b60208082526024908201527f4552433732313a207472616e7366657220746f20746865207a65726f206164646040820152637265737360e01b606082015260800190565b60208082526019908201527822a9219b99189d1030b8383937bb32903a379031b0b63632b960391b604082015260600190565b60208082526010908201526f6578636565647320626f756e6461727960801b604082015260600190565b6020808252600c908201526b6f7574206f662072616e676560a01b604082015260600190565b6020808252602c908201527f4552433732313a206f70657261746f7220717565727920666f72206e6f6e657860408201526b34b9ba32b73a103a37b5b2b760a11b606082015260800190565b6020808252601d908201527f6465726976617469766520636c61696d696e6720697320706175736564000000604082015260600190565b60208082526038908201527f4552433732313a20617070726f76652063616c6c6572206973206e6f74206f776040820152771b995c881b9bdc88185c1c1c9bdd995908199bdc88185b1b60421b606082015260800190565b60208082526011908201527014185e5b595b9d081a5cc818db1bdcd959607a1b604082015260600190565b6020808252602a908201527f4552433732313a2062616c616e636520717565727920666f7220746865207a65604082015269726f206164647265737360b01b606082015260800190565b6020808252602e908201527f496e697469616c697a61626c653a20636f6e747261637420697320616c72656160408201526d191e481a5b9a5d1a585b1a5e995960921b606082015260800190565b602080825260189082015277616c726561647920636c61696d656420616c6c20746f797360401b604082015260600190565b60208082526022908201527f596f7520617265206e6f7420746865206f776e6572206f662074686973206c616040820152611b9960f21b606082015260800190565b60208082526022908201527f456e756d657261626c654d61703a20696e646578206f7574206f6620626f756e604082015261647360f01b606082015260800190565b6020808252818101527f4552433732313a206d696e7420746f20746865207a65726f2061646472657373604082015260600190565b6020808252601b908201527f7061696e74696e6720636c61696d696e67206973207061757365640000000000604082015260600190565b6020808252602c908201527f4552433732313a20617070726f76656420717565727920666f72206e6f6e657860408201526b34b9ba32b73a103a37b5b2b760a11b606082015260800190565b6020808252602c908201527f4552433732314d657461646174613a2055524920736574206f66206e6f6e657860408201526b34b9ba32b73a103a37b5b2b760a11b606082015260800190565b6020808252818101527f4f776e61626c653a2063616c6c6572206973206e6f7420746865206f776e6572604082015260600190565b60208082526029908201527f4552433732313a207472616e73666572206f6620746f6b656e2074686174206960408201526839903737ba1037bbb760b91b606082015260800190565b6020808252602f908201527f4552433732314d657461646174613a2055524920717565727920666f72206e6f60408201526e3732bc34b9ba32b73a103a37b5b2b760891b606082015260800190565b60208082526025908201527f596f7520617265206e6f7420746865206f776e6572206f66207468697320746f6040820152641ad95b925160da1b606082015260800190565b60208082526021908201527f4552433732313a20617070726f76616c20746f2063757272656e74206f776e656040820152603960f91b606082015260800190565b6020808252601c908201527f596f7520646f6e2774206861766520616e7920726f79616c7469657300000000604082015260600190565b602080825260199082015278416c726561647920636c61696d656420616c6c206c616e647360381b604082015260600190565b60208082526031908201527f4552433732313a207472616e736665722063616c6c6572206973206e6f74206f6040820152701ddb995c881b9bdc88185c1c1c9bdd9959607a1b606082015260800190565b6020808252601d908201527f416464726573733a2063616c6c20746f206e6f6e2d636f6e7472616374000000604082015260600190565b6020808252601690820152751d1bde4818db185a5b5a5b99c81a5cc81c185d5cd95960521b604082015260600190565b6020808252600e908201526d11985a5b1959081d1bc81cd95b9960921b604082015260600190565b6020808252601790820152761b185b990818db185a5b5a5b99c81a5cc81c185d5cd959604a1b604082015260600190565b60208082526024908201527f496e73756666696369656e742062616c616e636520696e2074686520636f6e746040820152631c9858dd60e21b606082015260800190565b6020808252600d908201526c1b9bdd0818dbdb9d185a5b9959609a1b604082015260600190565b60808101615d9182856151e1565b613c9360408301846151e1565b90815260200190565b918252602082015260400190565b6040518181016001600160401b0381118282101715615dd357600080fd5b604052919050565b60006001600160401b03821115615df0578081fd5b50601f01601f191660200190565b60005b83811015615e19578181015183820152602001615e01565b83811115610dab5750506000910152565b6001600160a01b038116811461129a57600080fd5b6001600160e01b03198116811461129a57600080fdfe4552433732313a207472616e7366657220746f206e6f6e20455243373231526563656976657220696d706c656d656e7465724552433732313a206f776e657220717565727920666f72206e6f6e6578697374656e7420746f6b656ea26469706673582212201f2467bfcedd14b9526b322613333b959ae6a080ba632e2cb71d75f31bacef4e64736f6c63430006050033",
  "immutableReferences": {},
  "source": "// SPDX-License-Identifier: MIT\npragma solidity ^0.6.5;\npragma experimental ABIEncoderV2;\n\nimport \"@openzeppelin/contracts-upgradeable/token/ERC721/ERC721Upgradeable.sol\";\nimport \"@openzeppelin/contracts-upgradeable/utils/CountersUpgradeable.sol\";\nimport \"@openzeppelin/contracts/token/ERC721/ERC721.sol\";\n\ncontract MyPFPlandv2 is ERC721Upgradeable {\n    using CountersUpgradeable for CountersUpgradeable.Counter;\n\n    CountersUpgradeable.Counter internal toyTokenIDs;\n    CountersUpgradeable.Counter internal paintingTokenIDs;\n    CountersUpgradeable.Counter internal statuetteTokenIDs;\n\n    uint256 internal toyTokenIDBase;\n    uint256 internal paintingTokenIDBase;\n    uint256 internal statuetteTokenIDBase;\n\n    address public _owner;\n    bool public isOpenPayment;\n\n    bool public isPausedClaimingToy;\n    bool public isPausedClaimingPainting;\n    bool public isPausedClaimingStatteute;\n\n    mapping(address => uint256) internal addressToClaimedToy;\n    mapping(address => uint256) internal addressToClaimedPainting;\n    mapping(address => uint256) internal addressToClaimedStateutte;\n\n    mapping(uint256 => bool) public oldTokenIDUsed;\n\n    mapping(address => uint256) internal addressToMigratedCameo;\n    mapping(address => uint256) internal addressToMigratedHonorary;\n    \n    mapping(address => uint256) internal addressToRoyalty;\n    ERC721 blootNFT;\n\n    struct Point {\n        uint256 x;\n        uint256 y;\n    }\n\n    struct Rectangle {\n        Point leftBottom;\n        Point rightTop;\n    }\n\n    struct LandMetadata {\n        uint256 collectionID;\n        uint256 tokenID;\n    }\n\n    struct LandDerivateMetadata {\n        address collectionAddress;\n        uint256 tokenID;\n    }\n\n    bool public isPausedClaimingLand;\n    bool public isPausedClaimingRoyal;\n    bool public isPausedClaimingDerivative;\n    string public _contractURI;\n    bool public allowMetadataForAllReserved;\n    uint256 constant landWidth = 100;\n    uint256 constant landHeight = 100;\n    uint256 totalCollection;\n    uint256 constant landTokenBase = 10000;\n    address constant blootAddress = 0x72541Ad75E05BC77C7A92304225937a8F6653372;\n    address constant metaKeyAddress = 0x10DaA9f4c0F985430fdE4959adB2c791ef2CCF83;\n    mapping(address => mapping(uint256 => uint256)) claimedLandOf;\n    mapping(address => mapping(uint256 => bool)) usedRoyalToken;\n    mapping(uint256 => LandMetadata) public landRoyalMetadataOf;\n    mapping(uint256 => LandDerivateMetadata[]) public landDerivativeMetadataOf;\n    mapping(uint256 => uint256) public landDerivativeBalance;\n    mapping(uint256 => address) public collectionAddressByIndex;\n    mapping(address => uint256[]) public collectionIndicesByAddress;\n    mapping(uint256 => Rectangle) public collectionRectByIndex;\n    \n    mapping(address => uint256) mekakeyWallets;\n\n    modifier onlyOwner() {\n        require(_owner == msg.sender, \"Ownable: caller is not the owner\" );\n        _;\n    }\n\n    function initialize() initializer external {\n        __ERC721_init(\"MyPFPland\", \"MyPFPland\");\n        _owner = msg.sender;\n\n        toyTokenIDBase = 0;\n        paintingTokenIDBase = 300;\n        statuetteTokenIDBase = 400;\n        blootNFT = ERC721(0x72541Ad75E05BC77C7A92304225937a8F6653372);\n    }\n\n    function claim(uint256 _category, uint256 _count) external payable {\n        require(_category >= 1, \"out of range\");\n        require(_category <= 3, \"out of range\");\n        if (_category == 1)\n            require(isPausedClaimingToy == false, \"toy claiming is paused\");\n        if (_category == 2)\n            require(isPausedClaimingPainting == false, \"painting claiming is paused\");\n        if (_category == 3)\n            require(isPausedClaimingStatteute == false, \"statteute claiming is paused\");\n        \n        uint256 totalDerivative = getTotalDerivative(msg.sender, _category);\n        if (_category == 1)\n            totalDerivative += addressToMigratedCameo[msg.sender];\n        else if (_category == 2)\n            totalDerivative += addressToMigratedHonorary[msg.sender];\n\n        uint256 tokenID = 0;\n        if (_category == 1)\n            require(totalDerivative >= addressToClaimedToy[msg.sender] + _count, \"already claimed all toys\");\n        else if (_category == 2)\n            require(totalDerivative >= addressToClaimedPainting[msg.sender] + _count, \"already claimed all paintings\");\n        else if (_category == 3)\n            require(totalDerivative >= _count, \"already claimed all statteutes\");\n    \n        for (uint8 i = 0; i < _count; i++) {\n            if (_category == 1) {\n                toyTokenIDs.increment();\n                tokenID = toyTokenIDs.current() + toyTokenIDBase;\n            } else if (_category == 2) {\n                paintingTokenIDs.increment();\n                tokenID = paintingTokenIDs.current() + paintingTokenIDBase;\n            } else if (_category == 3) {\n                statuetteTokenIDs.increment();\n                tokenID = statuetteTokenIDs.current() + statuetteTokenIDBase;\n            }\n            _safeMint(msg.sender, tokenID);\n            _setTokenURI(tokenID, uint2str(tokenID));\n        }\n\n        if (_category == 1)\n            addressToClaimedToy[msg.sender] += _count;\n        else if (_category == 2)\n            addressToClaimedPainting[msg.sender] += _count;\n\n        // set oldTokenIDUsed true for those IDs already used\n        if (totalDerivative > 0 && _category == 3) {\n            for (uint8 i = 0; i < blootNFT.balanceOf(msg.sender); i++) {\n                uint256 tokenId = blootNFT.tokenOfOwnerByIndex(msg.sender, i);\n                if (tokenId <= 1484) {\n                    oldTokenIDUsed[tokenId] = true;\n                }\n            }\n        }\n    }\n\n    function getDerivativesToClaim(address _claimer, uint256 _category) external view returns(uint256) {\n        uint256 remain = 0;\n        if (_category < 1 || _category > 3)\n            return remain;\n        \n        uint256 totalDerivative = getTotalDerivative(_claimer, _category);\n        if (_category == 1) {\n            totalDerivative += addressToMigratedCameo[_claimer];\n            remain = totalDerivative - addressToClaimedToy[_claimer];\n        }\n        else if (_category == 2) {\n            totalDerivative += addressToMigratedHonorary[_claimer];\n            remain = totalDerivative - addressToClaimedPainting[_claimer];\n        }\n        else if (_category == 3) {\n            remain = totalDerivative;\n        }\n\n        return remain;\n    }\n\n    function getTotalDerivative(address _claimer, uint256 _category) internal view returns(uint256) {\n        uint256 result = 0;\n        if (blootNFT.balanceOf(_claimer) == 0)\n            return result;\n        uint256 tokenIdMin;\n        uint256 tokenIdMax;\n        if (_category == 1) {\n            tokenIdMin = 4790;\n            tokenIdMax = 4962;\n        } else if (_category == 2) {\n            tokenIdMin = 4963;\n            tokenIdMax = 5000;\n        } else if (_category == 3) {\n            tokenIdMin = 1;\n            tokenIdMax = 1484;\n        }\n\n        for (uint256 i = 0; i < blootNFT.balanceOf(_claimer); i++) {\n            uint256 tokenId = blootNFT.tokenOfOwnerByIndex(_claimer, i);\n            if (tokenId >= tokenIdMin && tokenId <= tokenIdMax) {\n                if (_category == 3) {\n                    if (!oldTokenIDUsed[tokenId])\n                        result++;\n                }\n                else\n                    result++;\n            }\n        }\n\n        return result;\n    }\n\n    function setPauseClaimingToy(bool _pauseClaimingToy) external onlyOwner {\n        isPausedClaimingToy = _pauseClaimingToy;\n    }\n\n    function setPauseClaimingPainting(bool _pauseClaimingPainting) external onlyOwner {\n        isPausedClaimingPainting = _pauseClaimingPainting;\n    }\n\n    function setPauseClaimingStatteute(bool _pauseClaimingStatteute) external onlyOwner {\n        isPausedClaimingStatteute = _pauseClaimingStatteute;\n    }\n\n    function setBatchCameoWhitelist(address[] calldata _whitelist, uint256 _count) external onlyOwner {\n        for (uint256 i = 0; i < _count; i++) {\n            addressToMigratedCameo[_whitelist[i]] += 1;\n        }\n    }\n\n    function setBatchHonoraryWhitelist(address[] calldata _whitelist, uint256 _count) external onlyOwner {\n        for (uint256 i = 0; i < _count; i++) {\n            addressToMigratedHonorary[_whitelist[i]] += 1;\n        }\n    }\n\n    function setBatchCameoBlacklist(address[] calldata _blacklist, uint256 _count) external onlyOwner {\n        for (uint256 i = 0; i < _count; i++) {\n            addressToMigratedCameo[_blacklist[i]] = 0;\n        }\n    }\n\n    function setBatchHonoraryBlacklist(address[] calldata _blacklist, uint256 _count) external onlyOwner {\n        for (uint256 i = 0; i < _count; i++) {\n            addressToMigratedHonorary[_blacklist[i]] = 0;\n        }\n    }\n\n    function setBatchMekakeyWhitelist(address[] calldata _whitelist, uint256 _count) external onlyOwner {\n        for (uint256 i = 0; i < _count; i++) {\n            mekakeyWallets[_whitelist[i]] += 1;\n        }\n    }\n\n    function setBatchMekakeyBlacklist(address[] calldata _blacklist, uint256 _count) external onlyOwner {\n        for (uint256 i = 0; i < _count; i++) {\n            mekakeyWallets[_blacklist[i]] = 0;\n        }\n    }\n\n    function setBaseURI(string calldata _baseURI) external onlyOwner {\n        super._setBaseURI(_baseURI);\n    }\n\n    function openPayment(bool _open) external onlyOwner {\n        isOpenPayment = _open;\n    }\n\n    function setBatchRoyalty(address[] calldata _people, uint256[] calldata _amount, uint256 _count) external onlyOwner {\n        for (uint256 i = 0; i < _count; i++) {\n            addressToRoyalty[_people[i]] = _amount[i];\n        }\n    }\n\n    function setRoyalty(address _person, uint256 _amount) external onlyOwner {\n        addressToRoyalty[_person] = _amount;\n    }\n\n    function royaltyOf(address _person) external view returns(uint256) {\n        return addressToRoyalty[_person];\n    }\n\n    function withdraw() external onlyOwner {\n        (bool success, ) = _owner.call{value: address(this).balance}(\"\");\n        require(success, \"Failed to send\");\n    }\n\n    function withdrawRoyalty() external {\n        require(isOpenPayment == true, \"Payment is closed\");\n        require(addressToRoyalty[msg.sender] > 0, \"You don't have any royalties\");\n        require(address(this).balance >= addressToRoyalty[msg.sender], \"Insufficient balance in the contract\");\n        require(msg.sender != address(0x0), \"invalid caller\");\n\n        (bool success, ) = msg.sender.call{value: addressToRoyalty[msg.sender]}(\"\");\n        require(success, \"Failed to send eth\");\n        addressToRoyalty[msg.sender] = 0;\n    }\n\n    function transferOwnership(address newOwner) external onlyOwner {\n        require(newOwner != address(0), \"Ownable: new owner is the zero address\");\n        _owner = newOwner;\n    }\n\n    function setPauseClaimingLand(bool _pauseClaimingLand) external onlyOwner {\n        isPausedClaimingLand = _pauseClaimingLand;\n    }\n\n    function setPauseClaimingRoyal(bool _isPausedClaimingRoyal) external onlyOwner {\n        isPausedClaimingRoyal = _isPausedClaimingRoyal;\n    }\n\n    function setPauseClaimingDerivative(bool _isPausedClaimingDerivative) external onlyOwner {\n        isPausedClaimingDerivative = _isPausedClaimingDerivative;\n    }\n\n    function claimLand(uint256 x, uint256 y, uint256 collectionID) external payable {\n        require(x <= landWidth && y <= landHeight, \"exceeds boundary\");\n        require(isPausedClaimingLand == false, \"land claiming is paused\");\n        require(x > collectionRectByIndex[collectionID].leftBottom.x && y > collectionRectByIndex[collectionID].leftBottom.y && x <= collectionRectByIndex[collectionID].rightTop.x && y <= collectionRectByIndex[collectionID].rightTop.y, \"not contained\");\n\n        address collectionAddress = collectionAddressByIndex[collectionID];\n        uint256 claimable;\n        if (collectionAddress == metaKeyAddress) {\n            claimable = mekakeyWallets[msg.sender];\n        } else if (collectionAddress == blootAddress) {\n            if (collectionID == 0 || collectionID == 1 || collectionID == 2 || collectionID == 3) { // honorary collection ids\n                claimable = addressToMigratedHonorary[msg.sender];\n            } else {\n                ERC721 collection = ERC721(collectionAddress);\n                claimable = collection.balanceOf(msg.sender);\n                claimable -= addressToMigratedHonorary[msg.sender];\n            }\n        } else {\n            require(msg.value == 30000000000000000, \"invalid amount\"); //0.03 ETH\n            ERC721 collection = ERC721(collectionAddress);\n            claimable = collection.balanceOf(msg.sender);\n        }\n        \n        require(claimable > 0, \"Don't own any NFT in this collection\");\n        require(claimedLandOf[msg.sender][collectionID] < claimable, \"Already claimed all lands\");\n        uint256 assetID = _encodeTokenId(x, y);\n        _safeMint(msg.sender, landTokenBase + assetID);\n        _setTokenURI(landTokenBase + assetID, uint2str(landTokenBase + assetID));\n        if (collectionID == 0 || collectionID == 1 || collectionID == 2 || collectionID == 3) { // handle honorary exception\n            for (uint256 i = 0; i < 4; i++) {\n                claimedLandOf[msg.sender][i] ++;\n            }\n        } else {\n            uint256[] memory collectionIndices = collectionIndicesByAddress[collectionAddress];\n            for (uint256 i = 0; i < collectionIndices.length; i++) {\n                claimedLandOf[msg.sender][collectionIndices[i]] ++;\n            }\n        }\n    }\n\n    function landOwnerOf(uint256 tokenId) external view returns (address) {\n        ERC721 collection = ERC721(address(this));\n        try collection.ownerOf(tokenId) returns(address owner) {\n            return owner;\n        } catch Error(string memory /*reason*/) {\n            return address(0x0);\n        }\n    }\n\n    function _beforeTokenTransfer(address from, address to, uint256 tokenId) internal virtual override {\n        if (tokenId > landTokenBase) {\n            // remove its royal and derivative tokens\n            LandMetadata memory royalMetadata;\n            royalMetadata.collectionID = 0;\n            royalMetadata.tokenID = 0;\n            // free original usedRoyalToken\n            uint256 originalCollectionID = landRoyalMetadataOf[tokenId].collectionID;\n            usedRoyalToken[collectionAddressByIndex[originalCollectionID]][landRoyalMetadataOf[tokenId].tokenID] = false;\n            \n            // free royal token, derivative token\n            landRoyalMetadataOf[tokenId] = royalMetadata;\n            landDerivativeBalance[tokenId] = 0;\n            delete landDerivativeMetadataOf[tokenId];\n        }\n        super._beforeTokenTransfer(from, to, tokenId);\n    }\n\n    function updateLandRoyalMetaData(uint256 x, uint256 y, uint256 collectionIDOfRoyalMetadata, uint256 tokenID) external {\n        require(x <= landWidth && y <= landHeight, \"exceeds boundary\");\n        require(isPausedClaimingRoyal == false, \"royal claiming is paused\");\n        uint256 assetID = _encodeTokenId(x, y);\n        require(super.ownerOf(landTokenBase + assetID) == msg.sender, \"You are not the owner of this land\");\n        if (!allowMetadataForAllReserved) {\n            require(x > collectionRectByIndex[collectionIDOfRoyalMetadata].leftBottom.x && y > collectionRectByIndex[collectionIDOfRoyalMetadata].leftBottom.y && x <= collectionRectByIndex[collectionIDOfRoyalMetadata].rightTop.x && y <= collectionRectByIndex[collectionIDOfRoyalMetadata].rightTop.y, \"not contained\");\n        }\n        address collectionAddress = collectionAddressByIndex[collectionIDOfRoyalMetadata];\n        ERC721 collection = ERC721(collectionAddress);\n        require(collection.ownerOf(tokenID) == msg.sender, \"You are not the owner of this tokenID\");\n        require(usedRoyalToken[collectionAddress][tokenID] == false, \"This royal NFT is already used\");\n        // free original usedRoyalToken and set the new royalToken used as true\n        uint256 originalCollectionID = landRoyalMetadataOf[landTokenBase + assetID].collectionID;\n        usedRoyalToken[collectionAddressByIndex[originalCollectionID]][landRoyalMetadataOf[landTokenBase + assetID].tokenID] = false;\n        usedRoyalToken[collectionAddress][tokenID] = true;\n        //update royal metadata\n        LandMetadata memory royalMetadata;\n        royalMetadata.collectionID = collectionIDOfRoyalMetadata;\n        royalMetadata.tokenID = tokenID;\n        landRoyalMetadataOf[landTokenBase + assetID] = royalMetadata;\n        // free derivative token\n        landDerivativeBalance[landTokenBase + assetID] = 0;\n        delete landDerivativeMetadataOf[landTokenBase + assetID];\n    }\n\n    function updateLandDerivativeMetaData(uint256 x, uint256 y, address collectionAddrsOfDerMetadata, uint256 tokenID) external {\n        require(x <= landWidth && y <= landHeight, \"exceeds boundary\");\n        require(isPausedClaimingDerivative == false, \"derivative claiming is paused\");\n        uint256 assetID = _encodeTokenId(x, y);\n        require(super.ownerOf(landTokenBase + assetID) == msg.sender, \"You are not the owner of this land\");\n        require((landRoyalMetadataOf[landTokenBase + assetID].collectionID != 0 || landRoyalMetadataOf[landTokenBase + assetID].tokenID != 0), \"Need to set royal NFT first\");\n        ERC721 collection = ERC721(collectionAddrsOfDerMetadata);\n        require(collection.ownerOf(tokenID) == msg.sender, \"You are not the owner of this tokenID\");\n        LandDerivateMetadata memory derivativeMetadata;\n        derivativeMetadata.collectionAddress = collectionAddrsOfDerMetadata;\n        derivativeMetadata.tokenID = tokenID;\n        landDerivativeMetadataOf[landTokenBase + assetID].push(derivativeMetadata);\n        landDerivativeBalance[landTokenBase + assetID] ++;\n    }\n\n    function setAllowMetadataForAllReserved(bool _allowMetadataForAllReserved) external onlyOwner {\n        allowMetadataForAllReserved = _allowMetadataForAllReserved;\n    }\n\n    function getLandMetaData(uint256 collectionID, uint256 tokenID) external view returns(string memory) {\n        address collectionAddress = collectionAddressByIndex[collectionID];\n        ERC721 collection = ERC721(collectionAddress);\n        try collection.tokenURI(tokenID) returns(string memory tokenURI) {\n            return tokenURI;\n        } catch Error(string memory /*reason*/) {\n            return \"\";\n        }\n    }\n\n    function collectionIDAt(uint256 x, uint256 y) external view returns (uint256) {\n        uint256 collectionID;\n        if (x > landWidth || y > landHeight) {\n            return 100000;\n        }\n        Rectangle memory area;\n        Point memory pt;\n        pt.x = x;\n        pt.y = y;\n        for (uint256 i = 0; i < totalCollection; i++) {\n            area = collectionRectByIndex[i];\n            if (isInsideCollectionRect(pt, area)) {\n                collectionID = i;\n                return collectionID;\n            }\n        }\n        return 100000;\n    }\n\n    function totalRoyalBalanceOf(address owner, uint256 collectionID) external view returns (uint256) {\n        if (!allowMetadataForAllReserved) {\n            address collectionAddress = collectionAddressByIndex[collectionID];\n            ERC721 collection = ERC721(collectionAddress);\n            return collection.balanceOf(owner);\n        } else {\n            uint256 totalBalance = 0;\n            address lastAddress;\n            for (uint256 i = 0; i < totalCollection; i++) {\n                address collectionAddress = collectionAddressByIndex[i];\n                if (collectionAddress == lastAddress)\n                    continue;\n                lastAddress = collectionAddress;\n                ERC721 collection = ERC721(collectionAddress);\n                totalBalance += collection.balanceOf(owner);\n            }\n            return totalBalance;\n        }\n    }\n\n    function royalTokenOfOwnerByIndex(address owner, uint256 index, uint256 collectionID) external view returns (uint256, uint256) {\n        uint256 tokenID;\n        if (!allowMetadataForAllReserved) {\n            address collectionAddress = collectionAddressByIndex[collectionID];\n            ERC721 collection = ERC721(collectionAddress);\n            tokenID = collection.tokenOfOwnerByIndex(owner, index);\n            return (collectionID, tokenID);\n        } else {\n            uint256 totalBalance = 0;\n            address lastAddress;\n            for (uint256 i = 0; i < totalCollection; i++) {\n                address collectionAddress = collectionAddressByIndex[i];\n                if (collectionAddress == lastAddress)\n                    continue;\n                lastAddress = collectionAddress;\n                ERC721 collection = ERC721(collectionAddress);\n                totalBalance += collection.balanceOf(owner);\n                if (totalBalance - 1 < index)\n                    continue;\n                uint256 tokenIndex = index - (totalBalance - collection.balanceOf(owner));\n                tokenID = collection.tokenOfOwnerByIndex(owner, tokenIndex);\n                return (i, tokenID);\n            }\n        }\n    }\n\n    function isInsideCollectionRect(Point memory point, Rectangle memory area) public pure returns(bool) {\n        if (point.x > area.leftBottom.x && point.y > area.leftBottom.y && point.x <= area.rightTop.x && point.y <= area.rightTop.y)\n            return true;\n        else\n            return false;\n    }\n\n    function setBatchCollectionRect(uint256[] calldata leftBottomX, uint256[] calldata leftBottomY, uint256[] calldata rightTopX, uint256[] calldata rightTopY, address[] calldata collectionAddress, uint256 count) external onlyOwner {\n        Rectangle memory area;\n        for (uint256 i = 0; i < count; i++) {\n            area.leftBottom.x = leftBottomX[i];\n            area.leftBottom.y = leftBottomY[i];\n\n            area.rightTop.x = rightTopX[i];\n            area.rightTop.y = rightTopY[i];\n            collectionRectByIndex[totalCollection] = area;\n            collectionAddressByIndex[totalCollection] = collectionAddress[i];\n            collectionIndicesByAddress[collectionAddress[i]].push(totalCollection);\n            totalCollection ++;\n        }\n    }\n\n    function resetBatchCollectionRect(uint256[] calldata indices, address[] calldata collectionAddress, uint256 count) external onlyOwner {\n        for (uint256 i = 0; i < count; i++) {\n            delete collectionIndicesByAddress[collectionAddressByIndex[indices[i]]];\n            collectionAddressByIndex[indices[i]] = collectionAddress[i];\n            collectionIndicesByAddress[collectionAddress[i]].push(indices[i]);\n        }\n    }\n\n    function _encodeTokenId(uint256 x, uint256 y) public pure returns (uint256) {\n        return (x - 1) * landHeight + y;\n    }\n\n    function _decodeTokenId(uint256 value) external pure returns (uint256 x, uint256 y) {\n        x = value / landHeight + 1;\n        if (value % landHeight == 0)\n            x = x - 1;        \n        y = value - (x - 1) * landHeight;\n    }\n\n    // for opensea collection \n    function setContractURI(string calldata _contractURI_) external onlyOwner() {\n        _contractURI = _contractURI_;\n    }\n\n    // for opensea collection \n    function contractURI() external view returns (string memory) {\n        return _contractURI;\n    }\n\n    function uint2str(uint _i) internal pure returns (string memory _uintAsString) {\n        if (_i == 0) {\n            return \"0\";\n        }\n        uint j = _i;\n        uint len;\n        while (j != 0) {\n            len++;\n            j /= 10;\n        }\n        bytes memory bstr = new bytes(len);\n        uint k = len - 1;\n        while (_i != 0) {\n            bstr[k--] = byte(uint8(48 + _i % 10));\n            _i /= 10;\n        }\n        return string(bstr);\n    }\n}",
  "sourcePath": "/home/razor/Downloads/BlootDerivative/contracts/MyPFPlandv2.sol",
  "compiler": {
    "name": "solc",
    "version": "0.6.5+commit.f956cc89.Emscripten.clang"
  },
  "schemaVersion": "3.4.3",
  "updatedAt": "2021-11-28T13:49:51.028Z",
  "networkType": "ethereum",
  "devdoc": {
    "methods": {
      "approve(address,uint256)": {
        "details": "See {IERC721-approve}."
      },
      "balanceOf(address)": {
        "details": "See {IERC721-balanceOf}."
      },
      "baseURI()": {
        "details": "Returns the base URI set via {_setBaseURI}. This will be automatically added as a prefix in {tokenURI} to each token's URI, or to the token ID if no specific URI is set for that token ID."
      },
      "getApproved(uint256)": {
        "details": "See {IERC721-getApproved}."
      },
      "isApprovedForAll(address,address)": {
        "details": "See {IERC721-isApprovedForAll}."
      },
      "name()": {
        "details": "See {IERC721Metadata-name}."
      },
      "ownerOf(uint256)": {
        "details": "See {IERC721-ownerOf}."
      },
      "safeTransferFrom(address,address,uint256)": {
        "details": "See {IERC721-safeTransferFrom}."
      },
      "safeTransferFrom(address,address,uint256,bytes)": {
        "details": "See {IERC721-safeTransferFrom}."
      },
      "setApprovalForAll(address,bool)": {
        "details": "See {IERC721-setApprovalForAll}."
      },
      "supportsInterface(bytes4)": {
        "details": "See {IERC165-supportsInterface}.     * Time complexity O(1), guaranteed to always use less than 30 000 gas."
      },
      "symbol()": {
        "details": "See {IERC721Metadata-symbol}."
      },
      "tokenByIndex(uint256)": {
        "details": "See {IERC721Enumerable-tokenByIndex}."
      },
      "tokenOfOwnerByIndex(address,uint256)": {
        "details": "See {IERC721Enumerable-tokenOfOwnerByIndex}."
      },
      "tokenURI(uint256)": {
        "details": "See {IERC721Metadata-tokenURI}."
      },
      "totalSupply()": {
        "details": "See {IERC721Enumerable-totalSupply}."
      },
      "transferFrom(address,address,uint256)": {
        "details": "See {IERC721-transferFrom}."
      }
    }
  },
  "userdoc": {
    "methods": {}
  }
}