{
  "contractName": "MyPFPland",
  "abi": [
    {
      "anonymous": false,
      "inputs": [
        {
          "indexed": true,
          "internalType": "address",
          "name": "owner",
          "type": "address"
        },
        {
          "indexed": true,
          "internalType": "address",
          "name": "approved",
          "type": "address"
        },
        {
          "indexed": true,
          "internalType": "uint256",
          "name": "tokenId",
          "type": "uint256"
        }
      ],
      "name": "Approval",
      "type": "event"
    },
    {
      "anonymous": false,
      "inputs": [
        {
          "indexed": true,
          "internalType": "address",
          "name": "owner",
          "type": "address"
        },
        {
          "indexed": true,
          "internalType": "address",
          "name": "operator",
          "type": "address"
        },
        {
          "indexed": false,
          "internalType": "bool",
          "name": "approved",
          "type": "bool"
        }
      ],
      "name": "ApprovalForAll",
      "type": "event"
    },
    {
      "anonymous": false,
      "inputs": [
        {
          "indexed": true,
          "internalType": "address",
          "name": "from",
          "type": "address"
        },
        {
          "indexed": true,
          "internalType": "address",
          "name": "to",
          "type": "address"
        },
        {
          "indexed": true,
          "internalType": "uint256",
          "name": "tokenId",
          "type": "uint256"
        }
      ],
      "name": "Transfer",
      "type": "event"
    },
    {
      "inputs": [],
      "name": "_owner",
      "outputs": [
        {
          "internalType": "address",
          "name": "",
          "type": "address"
        }
      ],
      "stateMutability": "view",
      "type": "function",
      "constant": true
    },
    {
      "inputs": [
        {
          "internalType": "address",
          "name": "to",
          "type": "address"
        },
        {
          "internalType": "uint256",
          "name": "tokenId",
          "type": "uint256"
        }
      ],
      "name": "approve",
      "outputs": [],
      "stateMutability": "nonpayable",
      "type": "function"
    },
    {
      "inputs": [
        {
          "internalType": "address",
          "name": "owner",
          "type": "address"
        }
      ],
      "name": "balanceOf",
      "outputs": [
        {
          "internalType": "uint256",
          "name": "",
          "type": "uint256"
        }
      ],
      "stateMutability": "view",
      "type": "function",
      "constant": true
    },
    {
      "inputs": [],
      "name": "baseURI",
      "outputs": [
        {
          "internalType": "string",
          "name": "",
          "type": "string"
        }
      ],
      "stateMutability": "view",
      "type": "function",
      "constant": true
    },
    {
      "inputs": [
        {
          "internalType": "uint256",
          "name": "tokenId",
          "type": "uint256"
        }
      ],
      "name": "getApproved",
      "outputs": [
        {
          "internalType": "address",
          "name": "",
          "type": "address"
        }
      ],
      "stateMutability": "view",
      "type": "function",
      "constant": true
    },
    {
      "inputs": [
        {
          "internalType": "address",
          "name": "owner",
          "type": "address"
        },
        {
          "internalType": "address",
          "name": "operator",
          "type": "address"
        }
      ],
      "name": "isApprovedForAll",
      "outputs": [
        {
          "internalType": "bool",
          "name": "",
          "type": "bool"
        }
      ],
      "stateMutability": "view",
      "type": "function",
      "constant": true
    },
    {
      "inputs": [],
      "name": "isOpenPayment",
      "outputs": [
        {
          "internalType": "bool",
          "name": "",
          "type": "bool"
        }
      ],
      "stateMutability": "view",
      "type": "function",
      "constant": true
    },
    {
      "inputs": [],
      "name": "isPausedClaimingPainting",
      "outputs": [
        {
          "internalType": "bool",
          "name": "",
          "type": "bool"
        }
      ],
      "stateMutability": "view",
      "type": "function",
      "constant": true
    },
    {
      "inputs": [],
      "name": "isPausedClaimingStatteute",
      "outputs": [
        {
          "internalType": "bool",
          "name": "",
          "type": "bool"
        }
      ],
      "stateMutability": "view",
      "type": "function",
      "constant": true
    },
    {
      "inputs": [],
      "name": "isPausedClaimingToy",
      "outputs": [
        {
          "internalType": "bool",
          "name": "",
          "type": "bool"
        }
      ],
      "stateMutability": "view",
      "type": "function",
      "constant": true
    },
    {
      "inputs": [],
      "name": "name",
      "outputs": [
        {
          "internalType": "string",
          "name": "",
          "type": "string"
        }
      ],
      "stateMutability": "view",
      "type": "function",
      "constant": true
    },
    {
      "inputs": [
        {
          "internalType": "uint256",
          "name": "",
          "type": "uint256"
        }
      ],
      "name": "oldTokenIDUsed",
      "outputs": [
        {
          "internalType": "bool",
          "name": "",
          "type": "bool"
        }
      ],
      "stateMutability": "view",
      "type": "function",
      "constant": true
    },
    {
      "inputs": [
        {
          "internalType": "uint256",
          "name": "tokenId",
          "type": "uint256"
        }
      ],
      "name": "ownerOf",
      "outputs": [
        {
          "internalType": "address",
          "name": "",
          "type": "address"
        }
      ],
      "stateMutability": "view",
      "type": "function",
      "constant": true
    },
    {
      "inputs": [
        {
          "internalType": "address",
          "name": "from",
          "type": "address"
        },
        {
          "internalType": "address",
          "name": "to",
          "type": "address"
        },
        {
          "internalType": "uint256",
          "name": "tokenId",
          "type": "uint256"
        }
      ],
      "name": "safeTransferFrom",
      "outputs": [],
      "stateMutability": "nonpayable",
      "type": "function"
    },
    {
      "inputs": [
        {
          "internalType": "address",
          "name": "from",
          "type": "address"
        },
        {
          "internalType": "address",
          "name": "to",
          "type": "address"
        },
        {
          "internalType": "uint256",
          "name": "tokenId",
          "type": "uint256"
        },
        {
          "internalType": "bytes",
          "name": "_data",
          "type": "bytes"
        }
      ],
      "name": "safeTransferFrom",
      "outputs": [],
      "stateMutability": "nonpayable",
      "type": "function"
    },
    {
      "inputs": [
        {
          "internalType": "address",
          "name": "operator",
          "type": "address"
        },
        {
          "internalType": "bool",
          "name": "approved",
          "type": "bool"
        }
      ],
      "name": "setApprovalForAll",
      "outputs": [],
      "stateMutability": "nonpayable",
      "type": "function"
    },
    {
      "inputs": [
        {
          "internalType": "bytes4",
          "name": "interfaceId",
          "type": "bytes4"
        }
      ],
      "name": "supportsInterface",
      "outputs": [
        {
          "internalType": "bool",
          "name": "",
          "type": "bool"
        }
      ],
      "stateMutability": "view",
      "type": "function",
      "constant": true
    },
    {
      "inputs": [],
      "name": "symbol",
      "outputs": [
        {
          "internalType": "string",
          "name": "",
          "type": "string"
        }
      ],
      "stateMutability": "view",
      "type": "function",
      "constant": true
    },
    {
      "inputs": [
        {
          "internalType": "uint256",
          "name": "index",
          "type": "uint256"
        }
      ],
      "name": "tokenByIndex",
      "outputs": [
        {
          "internalType": "uint256",
          "name": "",
          "type": "uint256"
        }
      ],
      "stateMutability": "view",
      "type": "function",
      "constant": true
    },
    {
      "inputs": [
        {
          "internalType": "address",
          "name": "owner",
          "type": "address"
        },
        {
          "internalType": "uint256",
          "name": "index",
          "type": "uint256"
        }
      ],
      "name": "tokenOfOwnerByIndex",
      "outputs": [
        {
          "internalType": "uint256",
          "name": "",
          "type": "uint256"
        }
      ],
      "stateMutability": "view",
      "type": "function",
      "constant": true
    },
    {
      "inputs": [
        {
          "internalType": "uint256",
          "name": "tokenId",
          "type": "uint256"
        }
      ],
      "name": "tokenURI",
      "outputs": [
        {
          "internalType": "string",
          "name": "",
          "type": "string"
        }
      ],
      "stateMutability": "view",
      "type": "function",
      "constant": true
    },
    {
      "inputs": [],
      "name": "totalSupply",
      "outputs": [
        {
          "internalType": "uint256",
          "name": "",
          "type": "uint256"
        }
      ],
      "stateMutability": "view",
      "type": "function",
      "constant": true
    },
    {
      "inputs": [
        {
          "internalType": "address",
          "name": "from",
          "type": "address"
        },
        {
          "internalType": "address",
          "name": "to",
          "type": "address"
        },
        {
          "internalType": "uint256",
          "name": "tokenId",
          "type": "uint256"
        }
      ],
      "name": "transferFrom",
      "outputs": [],
      "stateMutability": "nonpayable",
      "type": "function"
    },
    {
      "inputs": [],
      "name": "initialize",
      "outputs": [],
      "stateMutability": "nonpayable",
      "type": "function"
    },
    {
      "inputs": [
        {
          "internalType": "uint256",
          "name": "_category",
          "type": "uint256"
        },
        {
          "internalType": "uint256",
          "name": "_count",
          "type": "uint256"
        }
      ],
      "name": "claim",
      "outputs": [],
      "stateMutability": "payable",
      "type": "function",
      "payable": true
    },
    {
      "inputs": [
        {
          "internalType": "address[]",
          "name": "_claimList",
          "type": "address[]"
        },
        {
          "internalType": "uint256[]",
          "name": "_tokenIDs",
          "type": "uint256[]"
        },
        {
          "internalType": "uint256",
          "name": "_count",
          "type": "uint256"
        }
      ],
      "name": "airdrop",
      "outputs": [],
      "stateMutability": "nonpayable",
      "type": "function"
    },
    {
      "inputs": [
        {
          "internalType": "address",
          "name": "_claimer",
          "type": "address"
        },
        {
          "internalType": "uint256",
          "name": "_category",
          "type": "uint256"
        }
      ],
      "name": "getDerivativesToClaim",
      "outputs": [
        {
          "internalType": "uint256",
          "name": "",
          "type": "uint256"
        }
      ],
      "stateMutability": "view",
      "type": "function",
      "constant": true
    },
    {
      "inputs": [
        {
          "internalType": "bool",
          "name": "_pauseClaimingToy",
          "type": "bool"
        }
      ],
      "name": "setPauseClaimingToy",
      "outputs": [],
      "stateMutability": "nonpayable",
      "type": "function"
    },
    {
      "inputs": [
        {
          "internalType": "bool",
          "name": "_pauseClaimingPainting",
          "type": "bool"
        }
      ],
      "name": "setPauseClaimingPainting",
      "outputs": [],
      "stateMutability": "nonpayable",
      "type": "function"
    },
    {
      "inputs": [
        {
          "internalType": "bool",
          "name": "_pauseClaimingStatteute",
          "type": "bool"
        }
      ],
      "name": "setPauseClaimingStatteute",
      "outputs": [],
      "stateMutability": "nonpayable",
      "type": "function"
    },
    {
      "inputs": [
        {
          "internalType": "address[]",
          "name": "_whitelist",
          "type": "address[]"
        },
        {
          "internalType": "uint256",
          "name": "_count",
          "type": "uint256"
        }
      ],
      "name": "setBatchCameoWhitelist",
      "outputs": [],
      "stateMutability": "nonpayable",
      "type": "function"
    },
    {
      "inputs": [
        {
          "internalType": "address[]",
          "name": "_whitelist",
          "type": "address[]"
        },
        {
          "internalType": "uint256",
          "name": "_count",
          "type": "uint256"
        }
      ],
      "name": "setBatchHonoraryWhitelist",
      "outputs": [],
      "stateMutability": "nonpayable",
      "type": "function"
    },
    {
      "inputs": [
        {
          "internalType": "string",
          "name": "_baseURI",
          "type": "string"
        }
      ],
      "name": "setBaseURI",
      "outputs": [],
      "stateMutability": "nonpayable",
      "type": "function"
    },
    {
      "inputs": [
        {
          "internalType": "uint256",
          "name": "_tokenID",
          "type": "uint256"
        },
        {
          "internalType": "uint256",
          "name": "_tokenURI",
          "type": "uint256"
        }
      ],
      "name": "setTokenURI",
      "outputs": [],
      "stateMutability": "nonpayable",
      "type": "function"
    },
    {
      "inputs": [
        {
          "internalType": "uint256[]",
          "name": "_tokenIDs",
          "type": "uint256[]"
        },
        {
          "internalType": "uint256[]",
          "name": "_tokenURIs",
          "type": "uint256[]"
        },
        {
          "internalType": "uint256",
          "name": "_count",
          "type": "uint256"
        }
      ],
      "name": "setTokenURIs",
      "outputs": [],
      "stateMutability": "nonpayable",
      "type": "function"
    },
    {
      "inputs": [
        {
          "internalType": "bool",
          "name": "_open",
          "type": "bool"
        }
      ],
      "name": "openPayment",
      "outputs": [],
      "stateMutability": "nonpayable",
      "type": "function"
    },
    {
      "inputs": [
        {
          "internalType": "address[]",
          "name": "_people",
          "type": "address[]"
        },
        {
          "internalType": "uint256[]",
          "name": "_amount",
          "type": "uint256[]"
        },
        {
          "internalType": "uint256",
          "name": "_count",
          "type": "uint256"
        }
      ],
      "name": "setBatchRoyalty",
      "outputs": [],
      "stateMutability": "nonpayable",
      "type": "function"
    },
    {
      "inputs": [
        {
          "internalType": "address",
          "name": "_person",
          "type": "address"
        },
        {
          "internalType": "uint256",
          "name": "_amount",
          "type": "uint256"
        }
      ],
      "name": "setRoyalty",
      "outputs": [],
      "stateMutability": "nonpayable",
      "type": "function"
    },
    {
      "inputs": [
        {
          "internalType": "address",
          "name": "_person",
          "type": "address"
        }
      ],
      "name": "royaltyOf",
      "outputs": [
        {
          "internalType": "uint256",
          "name": "",
          "type": "uint256"
        }
      ],
      "stateMutability": "view",
      "type": "function",
      "constant": true
    },
    {
      "inputs": [],
      "name": "withdraw",
      "outputs": [],
      "stateMutability": "nonpayable",
      "type": "function"
    },
    {
      "inputs": [],
      "name": "withdrawRoyalty",
      "outputs": [],
      "stateMutability": "nonpayable",
      "type": "function"
    },
    {
      "inputs": [
        {
          "internalType": "address",
          "name": "newOwner",
          "type": "address"
        }
      ],
      "name": "transferOwnership",
      "outputs": [],
      "stateMutability": "nonpayable",
      "type": "function"
    }
  ],
  "bytecode": "0x608060405234801561001057600080fd5b5061438d806100206000396000f3fe6080604052600436106102d15760003560e01c80635bf0234d11610179578063b88d4fde116100d6578063c8d6ab561161008a578063e985e9c511610064578063e985e9c514610d41578063f1147bae14610d7c578063f2fde38b14610d91576102d1565b8063c8d6ab5614610cc3578063d782336014610cfc578063e6031d1b14610d2c576102d1565b8063c31dbf96116100bb578063c31dbf9614610bf9578063c349026314610c76578063c87b56dd14610c99576102d1565b8063b88d4fde14610af3578063bb30d4ce14610bc6576102d1565b80638129fc1c1161012d5780639de4ff15116101125780639de4ff1514610a77578063a22cb46514610aa3578063b2bdfa7b14610ade576102d1565b80638129fc1c14610a4d57806395d89b4114610a62576102d1565b80636c0360eb1161015e5780636c0360eb1461093657806370a082311461094b578063731186eb1461097e576102d1565b80635bf0234d146108f75780636352211e1461090c576102d1565b806323b872dd1161023257806342842e0e116101e65780634f6ccce7116101c05780634f6ccce71461078157806355f804b3146107ab578063572c61c314610828576102d1565b806342842e0e146106fd5780634587b3ee146107405780634d8980f114610755576102d1565b80632cd1826b116102175780632cd1826b146106835780632f745c59146106af5780633ccfd60b146106e8576102d1565b806323b872dd146105c35780632833159514610606576102d1565b806318160ddd116102895780631c5822fe1161026e5780631c5822fe146105585780631f3221b41461056d578063237abb8914610599576102d1565b806318160ddd146104625780631b33bf5714610489576102d1565b8063081812fc116102ba578063081812fc146103a8578063095ea7b3146103ee57806310fd332b14610429576102d1565b806301ffc9a7146102d657806306fdde031461031e575b600080fd5b3480156102e257600080fd5b5061030a600480360360208110156102f957600080fd5b50356001600160e01b031916610dc4565b604080519115158252519081900360200190f35b34801561032a57600080fd5b50610333610de7565b6040805160208082528351818301528351919283929083019185019080838360005b8381101561036d578181015183820152602001610355565b50505050905090810190601f16801561039a5780820380516001836020036101000a031916815260200191505b509250505060405180910390f35b3480156103b457600080fd5b506103d2600480360360208110156103cb57600080fd5b5035610e7e565b604080516001600160a01b039092168252519081900360200190f35b3480156103fa57600080fd5b506104276004803603604081101561041157600080fd5b506001600160a01b038135169060200135610ee0565b005b34801561043557600080fd5b506104276004803603604081101561044c57600080fd5b506001600160a01b038135169060200135610fbb565b34801561046e57600080fd5b50610477611036565b60408051918252519081900360200190f35b34801561049557600080fd5b50610427600480360360608110156104ac57600080fd5b8101906020810181356401000000008111156104c757600080fd5b8201836020820111156104d957600080fd5b803590602001918460208302840111640100000000831117156104fb57600080fd5b91939092909160208101903564010000000081111561051957600080fd5b82018360208201111561052b57600080fd5b8035906020019184602083028401116401000000008311171561054d57600080fd5b919350915035611047565b34801561056457600080fd5b5061030a6110f7565b34801561057957600080fd5b506104276004803603602081101561059057600080fd5b50351515611107565b3480156105a557600080fd5b5061030a600480360360208110156105bc57600080fd5b503561119f565b3480156105cf57600080fd5b50610427600480360360608110156105e657600080fd5b506001600160a01b038135811691602081013590911690604001356111b4565b34801561061257600080fd5b506104276004803603604081101561062957600080fd5b81019060208101813564010000000081111561064457600080fd5b82018360208201111561065657600080fd5b8035906020019184602083028401116401000000008311171561067857600080fd5b91935091503561120b565b34801561068f57600080fd5b50610427600480360360208110156106a657600080fd5b503515156112bf565b3480156106bb57600080fd5b50610477600480360360408110156106d257600080fd5b506001600160a01b038135169060200135611357565b3480156106f457600080fd5b50610427611388565b34801561070957600080fd5b506104276004803603606081101561072057600080fd5b506001600160a01b03813581169160208101359091169060400135611492565b34801561074c57600080fd5b5061030a6114ad565b34801561076157600080fd5b506104276004803603602081101561077857600080fd5b503515156114bd565b34801561078d57600080fd5b50610477600480360360208110156107a457600080fd5b5035611555565b3480156107b757600080fd5b50610427600480360360208110156107ce57600080fd5b8101906020810181356401000000008111156107e957600080fd5b8201836020820111156107fb57600080fd5b8035906020019184600183028401116401000000008311171561081d57600080fd5b509092509050611571565b34801561083457600080fd5b506104276004803603606081101561084b57600080fd5b81019060208101813564010000000081111561086657600080fd5b82018360208201111561087857600080fd5b8035906020019184602083028401116401000000008311171561089a57600080fd5b9193909290916020810190356401000000008111156108b857600080fd5b8201836020820111156108ca57600080fd5b803590602001918460208302840111640100000000831117156108ec57600080fd5b919350915035611613565b34801561090357600080fd5b5061030a6116cb565b34801561091857600080fd5b506103d26004803603602081101561092f57600080fd5b50356116db565b34801561094257600080fd5b50610333611709565b34801561095757600080fd5b506104776004803603602081101561096e57600080fd5b50356001600160a01b031661176a565b34801561098a57600080fd5b50610427600480360360608110156109a157600080fd5b8101906020810181356401000000008111156109bc57600080fd5b8201836020820111156109ce57600080fd5b803590602001918460208302840111640100000000831117156109f057600080fd5b919390929091602081019035640100000000811115610a0e57600080fd5b820183602082011115610a2057600080fd5b80359060200191846020830284011164010000000083111715610a4257600080fd5b9193509150356117d2565b348015610a5957600080fd5b50610427611ade565b348015610a6e57600080fd5b50610333611c45565b348015610a8357600080fd5b5061042760048036036020811015610a9a57600080fd5b50351515611ca6565b348015610aaf57600080fd5b5061042760048036036040811015610ac657600080fd5b506001600160a01b0381351690602001351515611d3e565b348015610aea57600080fd5b506103d2611e43565b348015610aff57600080fd5b5061042760048036036080811015610b1657600080fd5b6001600160a01b03823581169260208101359091169160408201359190810190608081016060820135640100000000811115610b5157600080fd5b820183602082011115610b6357600080fd5b80359060200191846001830284011164010000000083111715610b8557600080fd5b91908080601f016020809104026020016040519081016040528093929190818152602001838380828437600092019190915250929550611e52945050505050565b348015610bd257600080fd5b5061047760048036036020811015610be957600080fd5b50356001600160a01b0316611eaa565b348015610c0557600080fd5b5061042760048036036040811015610c1c57600080fd5b810190602081018135640100000000811115610c3757600080fd5b820183602082011115610c4957600080fd5b80359060200191846020830284011164010000000083111715610c6b57600080fd5b919350915035611ec5565b61042760048036036040811015610c8c57600080fd5b5080359060200135611f73565b348015610ca557600080fd5b5061033360048036036020811015610cbc57600080fd5b503561250c565b348015610ccf57600080fd5b5061047760048036036040811015610ce657600080fd5b506001600160a01b03813516906020013561278f565b348015610d0857600080fd5b5061042760048036036040811015610d1f57600080fd5b5080359060200135612840565b348015610d3857600080fd5b5061030a6128ac565b348015610d4d57600080fd5b5061030a60048036036040811015610d6457600080fd5b506001600160a01b03813581169160200135166128bc565b348015610d8857600080fd5b506104276128ea565b348015610d9d57600080fd5b5061042760048036036020811015610db457600080fd5b50356001600160a01b0316612b0a565b6001600160e01b0319811660009081526033602052604090205460ff165b919050565b606a8054604080516020601f6002600019610100600188161502019095169490940493840181900481028201810190925282815260609390929091830182828015610e735780601f10610e4857610100808354040283529160200191610e73565b820191906000526020600020905b815481529060010190602001808311610e5657829003601f168201915b505050505090505b90565b6000610e8982612bdd565b610ec45760405162461bcd60e51b815260040180806020018281038252602c815260200180614232602c913960400191505060405180910390fd5b506000908152606860205260409020546001600160a01b031690565b6000610eeb826116db565b9050806001600160a01b0316836001600160a01b03161415610f3e5760405162461bcd60e51b81526004018080602001828103825260218152602001806142e26021913960400191505060405180910390fd5b806001600160a01b0316610f50612bf0565b6001600160a01b03161480610f715750610f7181610f6c612bf0565b6128bc565b610fac5760405162461bcd60e51b81526004018080602001828103825260388152602001806141576038913960400191505060405180910390fd5b610fb68383612bf4565b505050565b609d546001600160a01b0316331461101a576040805162461bcd60e51b815260206004820181905260248201527f4f776e61626c653a2063616c6c6572206973206e6f7420746865206f776e6572604482015290519081900360640190fd5b6001600160a01b03909116600090815260a46020526040902055565b60006110426066612c6f565b905090565b609d546001600160a01b031633146110a6576040805162461bcd60e51b815260206004820181905260248201527f4f776e61626c653a2063616c6c6572206973206e6f7420746865206f776e6572604482015290519081900360640190fd5b60005b818110156110ef576110e78686838181106110c057fe5b905060200201356110e28686858181106110d657fe5b90506020020135612c7a565b612d6a565b6001016110a9565b505050505050565b609d54600160a81b900460ff1681565b609d546001600160a01b03163314611166576040805162461bcd60e51b815260206004820181905260248201527f4f776e61626c653a2063616c6c6572206973206e6f7420746865206f776e6572604482015290519081900360640190fd5b609d8054911515600160b81b027fffffffffffffffff00ffffffffffffffffffffffffffffffffffffffffffffff909216919091179055565b60a16020526000908152604090205460ff1681565b6111c56111bf612bf0565b82612dcd565b6112005760405162461bcd60e51b81526004018080602001828103825260318152602001806143036031913960400191505060405180910390fd5b610fb6838383612e71565b609d546001600160a01b0316331461126a576040805162461bcd60e51b815260206004820181905260248201527f4f776e61626c653a2063616c6c6572206973206e6f7420746865206f776e6572604482015290519081900360640190fd5b60005b818110156112b957600160a2600086868581811061128757fe5b602090810292909201356001600160a01b0316835250810191909152604001600020805491909101905560010161126d565b50505050565b609d546001600160a01b0316331461131e576040805162461bcd60e51b815260206004820181905260248201527f4f776e61626c653a2063616c6c6572206973206e6f7420746865206f776e6572604482015290519081900360640190fd5b609d8054911515600160a01b027fffffffffffffffffffffff00ffffffffffffffffffffffffffffffffffffffff909216919091179055565b6001600160a01b038216600090815260656020526040812061137f908363ffffffff612fcf16565b90505b92915050565b609d546001600160a01b031633146113e7576040805162461bcd60e51b815260206004820181905260248201527f4f776e61626c653a2063616c6c6572206973206e6f7420746865206f776e6572604482015290519081900360640190fd5b609d546040516000916001600160a01b03169047908381818185875af1925050503d8060008114611434576040519150601f19603f3d011682016040523d82523d6000602084013e611439565b606091505b505090508061148f576040805162461bcd60e51b815260206004820152600e60248201527f4661696c656420746f2073656e64000000000000000000000000000000000000604482015290519081900360640190fd5b50565b610fb683838360405180602001604052806000815250611e52565b609d54600160b81b900460ff1681565b609d546001600160a01b0316331461151c576040805162461bcd60e51b815260206004820181905260248201527f4f776e61626c653a2063616c6c6572206973206e6f7420746865206f776e6572604482015290519081900360640190fd5b609d8054911515600160a81b027fffffffffffffffffffff00ffffffffffffffffffffffffffffffffffffffffff909216919091179055565b60008061156960668463ffffffff612fdb16565b509392505050565b609d546001600160a01b031633146115d0576040805162461bcd60e51b815260206004820181905260248201527f4f776e61626c653a2063616c6c6572206973206e6f7420746865206f776e6572604482015290519081900360640190fd5b61160f82828080601f016020809104026020016040519081016040528093929190818152602001838380828437600092019190915250612ff792505050565b5050565b609d546001600160a01b03163314611672576040805162461bcd60e51b815260206004820181905260248201527f4f776e61626c653a2063616c6c6572206973206e6f7420746865206f776e6572604482015290519081900360640190fd5b60005b818110156110ef5783838281811061168957fe5b9050602002013560a460008888858181106116a057fe5b602090810292909201356001600160a01b031683525081019190915260400160002055600101611675565b609d54600160b01b900460ff1681565b6000611382826040518060600160405280602981526020016141b9602991396066919063ffffffff61300a16565b606d8054604080516020601f6002600019610100600188161502019095169490940493840181900481028201810190925282815260609390929091830182828015610e735780601f10610e4857610100808354040283529160200191610e73565b60006001600160a01b0382166117b15760405162461bcd60e51b815260040180806020018281038252602a81526020018061418f602a913960400191505060405180910390fd5b6001600160a01b038216600090815260656020526040902061138290612c6f565b609d546001600160a01b03163314611831576040805162461bcd60e51b815260206004820181905260248201527f4f776e61626c653a2063616c6c6572206973206e6f7420746865206f776e6572604482015290519081900360640190fd5b60005b818110156110ef57600061012c85858481811061184d57fe5b90506020020135116118b4576118636097613021565b609a54611870609761302a565b0190506001609e600089898681811061188557fe5b602090810292909201356001600160a01b03168352508101919091526040016000208054919091019055611916565b6101908585848181106118c357fe5b90506020020135116118fb576118d96098613021565b609b546118e6609861302a565b0190506001609f600089898681811061188557fe5b6119056099613021565b609c54611912609961302a565b0190505b61193b87878481811061192557fe5b905060200201356001600160a01b03168261302e565b611948816110e283612c7a565b610190811115611ad55760005b60a5546001600160a01b03166370a0823189898681811061197257fe5b905060200201356001600160a01b03166040518263ffffffff1660e01b815260040180826001600160a01b03166001600160a01b0316815260200191505060206040518083038186803b1580156119c857600080fd5b505afa1580156119dc573d6000803e3d6000fd5b505050506040513d60208110156119f257600080fd5b5051811015611ad35760a5546000906001600160a01b0316632f745c598a8a87818110611a1b57fe5b905060200201356001600160a01b0316846040518363ffffffff1660e01b815260040180836001600160a01b03166001600160a01b031681526020018281526020019250505060206040518083038186803b158015611a7957600080fd5b505afa158015611a8d573d6000803e3d6000fd5b505050506040513d6020811015611aa357600080fd5b505190506105cc8111611aca57600081815260a160205260409020805460ff191660011790555b50600101611955565b505b50600101611834565b600054610100900460ff1680611af75750611af7613048565b80611b05575060005460ff16155b611b405760405162461bcd60e51b815260040180806020018281038252602e8152602001806141e2602e913960400191505060405180910390fd5b600054610100900460ff16158015611b6b576000805460ff1961ff0019909116610100171660011790555b611bdf6040518060400160405280600981526020017f4d795046506c616e6400000000000000000000000000000000000000000000008152506040518060400160405280600981526020017f4d795046506c616e640000000000000000000000000000000000000000000000815250613059565b609d805473ffffffffffffffffffffffffffffffffffffffff1990811633179091556000609a5561012c609b55610190609c5560a580549091167372541ad75e05bc77c7a92304225937a8f6653372179055801561148f576000805461ff001916905550565b606b8054604080516020601f6002600019610100600188161502019095169490940493840181900481028201810190925282815260609390929091830182828015610e735780601f10610e4857610100808354040283529160200191610e73565b609d546001600160a01b03163314611d05576040805162461bcd60e51b815260206004820181905260248201527f4f776e61626c653a2063616c6c6572206973206e6f7420746865206f776e6572604482015290519081900360640190fd5b609d8054911515600160b01b027fffffffffffffffffff00ffffffffffffffffffffffffffffffffffffffffffff909216919091179055565b611d46612bf0565b6001600160a01b0316826001600160a01b03161415611dac576040805162461bcd60e51b815260206004820152601960248201527f4552433732313a20617070726f766520746f2063616c6c657200000000000000604482015290519081900360640190fd5b8060696000611db9612bf0565b6001600160a01b03908116825260208083019390935260409182016000908120918716808252919093529120805460ff191692151592909217909155611dfd612bf0565b60408051841515815290516001600160a01b0392909216917f17307eab39ab6107e8899845ad3d59bd9653f200f220920489ca2b5937696c319181900360200190a35050565b609d546001600160a01b031681565b611e63611e5d612bf0565b83612dcd565b611e9e5760405162461bcd60e51b81526004018080602001828103825260318152602001806143036031913960400191505060405180910390fd5b6112b984848484613116565b6001600160a01b0316600090815260a4602052604090205490565b609d546001600160a01b03163314611f24576040805162461bcd60e51b815260206004820181905260248201527f4f776e61626c653a2063616c6c6572206973206e6f7420746865206f776e6572604482015290519081900360640190fd5b60005b818110156112b957600160a36000868685818110611f4157fe5b602090810292909201356001600160a01b03168352508101919091526040016000208054919091019055600101611f27565b6001821015611fc9576040805162461bcd60e51b815260206004820152600c60248201527f6f7574206f662072616e67650000000000000000000000000000000000000000604482015290519081900360640190fd5b600382111561201f576040805162461bcd60e51b815260206004820152600c60248201527f6f7574206f662072616e67650000000000000000000000000000000000000000604482015290519081900360640190fd5b816001141561208757609d54600160a81b900460ff1615612087576040805162461bcd60e51b815260206004820152601660248201527f746f7920636c61696d696e672069732070617573656400000000000000000000604482015290519081900360640190fd5b81600214156120ef57609d54600160b01b900460ff16156120ef576040805162461bcd60e51b815260206004820152601b60248201527f7061696e74696e6720636c61696d696e67206973207061757365640000000000604482015290519081900360640190fd5b816003141561215757609d54600160b81b900460ff1615612157576040805162461bcd60e51b815260206004820152601c60248201527f73746174746575746520636c61696d696e672069732070617573656400000000604482015290519081900360640190fd5b60006121633384613168565b905082600114156121845733600090815260a260205260409020540161219f565b826002141561219f5733600090815260a36020526040902054015b6000600184141561221557336000908152609e60205260409020548301821015612210576040805162461bcd60e51b815260206004820152601860248201527f616c726561647920636c61696d656420616c6c20746f79730000000000000000604482015290519081900360640190fd5b6122e2565b836002141561228457336000908152609f60205260409020548301821015612210576040805162461bcd60e51b815260206004820152601d60248201527f616c726561647920636c61696d656420616c6c207061696e74696e6773000000604482015290519081900360640190fd5b83600314156122e257828210156122e2576040805162461bcd60e51b815260206004820152601e60248201527f616c726561647920636c61696d656420616c6c20737461747465757465730000604482015290519081900360640190fd5b60005b838160ff16101561237b578460011415612318576123036097613021565b609a54612310609761302a565b01915061235c565b84600214156123385761232b6098613021565b609b54612310609861302a565b846003141561235c5761234b6099613021565b609c54612358609961302a565b0191505b612366338361302e565b612373826110e284612c7a565b6001016122e5565b50836001141561239f57336000908152609e602052604090208054840190556123be565b83600214156123be57336000908152609f602052604090208054840190555b6000821180156123ce5750836003145b156112b95760005b60a554604080516370a0823160e01b815233600482015290516001600160a01b03909216916370a0823191602480820192602092909190829003018186803b15801561242157600080fd5b505afa158015612435573d6000803e3d6000fd5b505050506040513d602081101561244b57600080fd5b505160ff821610156125055760a55460408051632f745c5960e01b815233600482015260ff8416602482015290516000926001600160a01b031691632f745c59916044808301926020929190829003018186803b1580156124ab57600080fd5b505afa1580156124bf573d6000803e3d6000fd5b505050506040513d60208110156124d557600080fd5b505190506105cc81116124fc57600081815260a160205260409020805460ff191660011790555b506001016123d6565b5050505050565b606061251782612bdd565b6125525760405162461bcd60e51b815260040180806020018281038252602f8152602001806142b3602f913960400191505060405180910390fd5b6000828152606c602090815260409182902080548351601f60026000196101006001861615020190931692909204918201849004840281018401909452808452606093928301828280156125e75780601f106125bc576101008083540402835291602001916125e7565b820191906000526020600020905b8154815290600101906020018083116125ca57829003601f168201915b5050505050905060606125f8611709565b905080516000141561260c57509050610de2565b8151156126cd5780826040516020018083805190602001908083835b602083106126475780518252601f199092019160209182019101612628565b51815160209384036101000a600019018019909216911617905285519190930192850191508083835b6020831061268f5780518252601f199092019160209182019101612670565b6001836020036101000a0380198251168184511680821785525050505050509050019250505060405160208183030381529060405292505050610de2565b806126d785613395565b6040516020018083805190602001908083835b602083106127095780518252601f1990920191602091820191016126ea565b51815160209384036101000a600019018019909216911617905285519190930192850191508083835b602083106127515780518252601f199092019160209182019101612732565b6001836020036101000a0380198251168184511680821785525050505050509050019250505060405160208183030381529060405292505050919050565b60008060018310806127a15750600383115b156127ad579050611382565b60006127b98585613168565b905083600114156127f5576001600160a01b038516600090815260a26020908152604080832054609e9092529091205491019081039150611569565b836002141561282f576001600160a01b038516600090815260a36020908152604080832054609f9092529091205491019081039150611569565b836003141561156957949350505050565b609d546001600160a01b0316331461289f576040805162461bcd60e51b815260206004820181905260248201527f4f776e61626c653a2063616c6c6572206973206e6f7420746865206f776e6572604482015290519081900360640190fd5b61160f826110e283612c7a565b609d54600160a01b900460ff1681565b6001600160a01b03918216600090815260696020908152604080832093909416825291909152205460ff1690565b609d54600160a01b900460ff16151560011461294d576040805162461bcd60e51b815260206004820152601160248201527f5061796d656e7420697320636c6f736564000000000000000000000000000000604482015290519081900360640190fd5b33600090815260a460205260409020546129ae576040805162461bcd60e51b815260206004820152601c60248201527f596f7520646f6e2774206861766520616e7920726f79616c7469657300000000604482015290519081900360640190fd5b33600090815260a460205260409020544710156129fc5760405162461bcd60e51b81526004018080602001828103825260248152602001806143346024913960400191505060405180910390fd5b33612a4e576040805162461bcd60e51b815260206004820152600e60248201527f696e76616c69642063616c6c6572000000000000000000000000000000000000604482015290519081900360640190fd5b33600081815260a460205260408082205490519192918381818185875af1925050503d8060008114612a9c576040519150601f19603f3d011682016040523d82523d6000602084013e612aa1565b606091505b5050905080612af7576040805162461bcd60e51b815260206004820152601260248201527f4661696c656420746f2073656e64206574680000000000000000000000000000604482015290519081900360640190fd5b5033600090815260a46020526040812055565b609d546001600160a01b03163314612b69576040805162461bcd60e51b815260206004820181905260248201527f4f776e61626c653a2063616c6c6572206973206e6f7420746865206f776e6572604482015290519081900360640190fd5b6001600160a01b038116612bae5760405162461bcd60e51b81526004018080602001828103825260268152602001806140e16026913960400191505060405180910390fd5b609d805473ffffffffffffffffffffffffffffffffffffffff19166001600160a01b0392909216919091179055565b600061138260668363ffffffff61347f16565b3390565b6000818152606860205260409020805473ffffffffffffffffffffffffffffffffffffffff19166001600160a01b0384169081179091558190612c36826116db565b6001600160a01b03167f8c5be1e5ebec7d5bd14f71427d1e84f3dd0314c0f7b2291e5b200ac8c7c3b92560405160405180910390a45050565b60006113828261302a565b606081612c9f57506040805180820190915260018152600360fc1b6020820152610de2565b8160005b8115612cb757600101600a82049150612ca3565b60608167ffffffffffffffff81118015612cd057600080fd5b506040519080825280601f01601f191660200182016040528015612cfb576020820181803683370190505b50905060001982015b8515612d6157600a860660300160f81b82828060019003935081518110612d2757fe5b60200101907effffffffffffffffffffffffffffffffffffffffffffffffffffffffffffff1916908160001a905350600a86049550612d04565b50949350505050565b612d7382612bdd565b612dae5760405162461bcd60e51b815260040180806020018281038252602c81526020018061425e602c913960400191505060405180910390fd5b6000828152606c602090815260409091208251610fb692840190613ff4565b6000612dd882612bdd565b612e135760405162461bcd60e51b815260040180806020018281038252602c81526020018061412b602c913960400191505060405180910390fd5b6000612e1e836116db565b9050806001600160a01b0316846001600160a01b03161480612e595750836001600160a01b0316612e4e84610e7e565b6001600160a01b0316145b80612e695750612e6981856128bc565b949350505050565b826001600160a01b0316612e84826116db565b6001600160a01b031614612ec95760405162461bcd60e51b815260040180806020018281038252602981526020018061428a6029913960400191505060405180910390fd5b6001600160a01b038216612f0e5760405162461bcd60e51b81526004018080602001828103825260248152602001806141076024913960400191505060405180910390fd5b612f19838383610fb6565b612f24600082612bf4565b6001600160a01b0383166000908152606560205260409020612f4c908263ffffffff61348b16565b506001600160a01b0382166000908152606560205260409020612f75908263ffffffff61349716565b50612f886066828463ffffffff6134a316565b5080826001600160a01b0316846001600160a01b03167fddf252ad1be2c89b69c2b068fc378daa952ba7f163c4a11628f55a4df523b3ef60405160405180910390a4505050565b600061137f83836134b9565b6000808080612fea868661351d565b9097909650945050505050565b805161160f90606d906020840190613ff4565b6000613017848484613598565b90505b9392505050565b80546001019055565b5490565b61160f828260405180602001604052806000815250613662565b6000613053306136b4565b15905090565b600054610100900460ff16806130725750613072613048565b80613080575060005460ff16155b6130bb5760405162461bcd60e51b815260040180806020018281038252602e8152602001806141e2602e913960400191505060405180910390fd5b600054610100900460ff161580156130e6576000805460ff1961ff0019909116610100171660011790555b6130ee6136ba565b6130f661375b565b6131008383613811565b8015610fb6576000805461ff0019169055505050565b613121848484612e71565b61312d84848484613941565b6112b95760405162461bcd60e51b81526004018080602001828103825260328152602001806140af6032913960400191505060405180910390fd5b60a554604080516370a0823160e01b81526001600160a01b0385811660048301529151600093849316916370a08231916024808301926020929190829003018186803b1580156131b757600080fd5b505afa1580156131cb573d6000803e3d6000fd5b505050506040513d60208110156131e157600080fd5b50516131ee579050611382565b600080846001141561320857506112b69050611362613231565b846002141561321f57506113639050611388613231565b84600314156132315750600190506105cc5b60005b60a554604080516370a0823160e01b81526001600160a01b038a81166004830152915191909216916370a08231916024808301926020929190829003018186803b15801561328157600080fd5b505afa158015613295573d6000803e3d6000fd5b505050506040513d60208110156132ab57600080fd5b505181101561338a5760a55460408051632f745c5960e01b81526001600160a01b038a811660048301526024820185905291516000939290921691632f745c5991604480820192602092909190829003018186803b15801561330c57600080fd5b505afa158015613320573d6000803e3d6000fd5b505050506040513d602081101561333657600080fd5b5051905083811080159061334a5750828111155b1561338157866003141561337a57600081815260a1602052604090205460ff16613375576001909401935b613381565b6001909401935b50600101613234565b509195945050505050565b6060816133ba57506040805180820190915260018152600360fc1b6020820152610de2565b8160005b81156133d257600101600a820491506133be565b60608167ffffffffffffffff811180156133eb57600080fd5b506040519080825280601f01601f191660200182016040528015613416576020820181803683370190505b50859350905060001982015b8315612d6157600a840660300160f81b8282806001900393508151811061344557fe5b60200101907effffffffffffffffffffffffffffffffffffffffffffffffffffffffffffff1916908160001a905350600a84049350613422565b600061137f8383613aeb565b600061137f8383613b03565b600061137f8383613bc9565b600061301784846001600160a01b038516613c13565b815460009082106134fb5760405162461bcd60e51b815260040180806020018281038252602281526020018061408d6022913960400191505060405180910390fd5b82600001828154811061350a57fe5b9060005260206000200154905092915050565b8154600090819083106135615760405162461bcd60e51b81526004018080602001828103825260228152602001806142106022913960400191505060405180910390fd5b600084600001848154811061357257fe5b906000526020600020906002020190508060000154816001015492509250509250929050565b600082815260018401602052604081205482816136335760405162461bcd60e51b81526004018080602001828103825283818151815260200191508051906020019080838360005b838110156135f85781810151838201526020016135e0565b50505050905090810190601f1680156136255780820380516001836020036101000a031916815260200191505b509250505060405180910390fd5b5084600001600182038154811061364657fe5b9060005260206000209060020201600101549150509392505050565b61366c8383613caa565b6136796000848484613941565b610fb65760405162461bcd60e51b81526004018080602001828103825260328152602001806140af6032913960400191505060405180910390fd5b3b151590565b600054610100900460ff16806136d357506136d3613048565b806136e1575060005460ff16155b61371c5760405162461bcd60e51b815260040180806020018281038252602e8152602001806141e2602e913960400191505060405180910390fd5b600054610100900460ff16158015613747576000805460ff1961ff0019909116610100171660011790555b801561148f576000805461ff001916905550565b600054610100900460ff16806137745750613774613048565b80613782575060005460ff16155b6137bd5760405162461bcd60e51b815260040180806020018281038252602e8152602001806141e2602e913960400191505060405180910390fd5b600054610100900460ff161580156137e8576000805460ff1961ff0019909116610100171660011790555b6137477f01ffc9a700000000000000000000000000000000000000000000000000000000613de4565b600054610100900460ff168061382a575061382a613048565b80613838575060005460ff16155b6138735760405162461bcd60e51b815260040180806020018281038252602e8152602001806141e2602e913960400191505060405180910390fd5b600054610100900460ff1615801561389e576000805460ff1961ff0019909116610100171660011790555b82516138b190606a906020860190613ff4565b5081516138c590606b906020850190613ff4565b506138ef7f80ac58cd00000000000000000000000000000000000000000000000000000000613de4565b6139187f5b5e139f00000000000000000000000000000000000000000000000000000000613de4565b6131007f780e9d6300000000000000000000000000000000000000000000000000000000613de4565b6000613955846001600160a01b03166136b4565b61396157506001612e69565b6060613ab1630a85bd0160e11b613976612bf0565b88878760405160240180856001600160a01b03166001600160a01b03168152602001846001600160a01b03166001600160a01b0316815260200183815260200180602001828103825283818151815260200191508051906020019080838360005b838110156139ef5781810151838201526020016139d7565b50505050905090810190601f168015613a1c5780820380516001836020036101000a031916815260200191505b5095505050505050604051602081830303815290604052907bffffffffffffffffffffffffffffffffffffffffffffffffffffffff19166020820180517bffffffffffffffffffffffffffffffffffffffffffffffffffffffff83818316178352505050506040518060600160405280603281526020016140af603291396001600160a01b038816919063ffffffff613e6816565b90506000818060200190516020811015613aca57600080fd5b50516001600160e01b031916630a85bd0160e11b1492505050949350505050565b60009081526001919091016020526040902054151590565b60008181526001830160205260408120548015613bbf5783546000198083019190810190600090879083908110613b3657fe5b9060005260206000200154905080876000018481548110613b5357fe5b600091825260208083209091019290925582815260018981019092526040902090840190558654879080613b8357fe5b60019003818190600052602060002001600090559055866001016000878152602001908152602001600020600090556001945050505050611382565b6000915050611382565b6000613bd58383613aeb565b613c0b57508154600181810184556000848152602080822090930184905584548482528286019093526040902091909155611382565b506000611382565b600082815260018401602052604081205480613c7857505060408051808201825283815260208082018481528654600181810189556000898152848120955160029093029095019182559151908201558654868452818801909252929091205561301a565b82856000016001830381548110613c8b57fe5b906000526020600020906002020160010181905550600091505061301a565b6001600160a01b038216613d05576040805162461bcd60e51b815260206004820181905260248201527f4552433732313a206d696e7420746f20746865207a65726f2061646472657373604482015290519081900360640190fd5b613d0e81612bdd565b15613d60576040805162461bcd60e51b815260206004820152601c60248201527f4552433732313a20746f6b656e20616c7265616479206d696e74656400000000604482015290519081900360640190fd5b613d6c60008383610fb6565b6001600160a01b0382166000908152606560205260409020613d94908263ffffffff61349716565b50613da76066828463ffffffff6134a316565b5060405181906001600160a01b038416906000907fddf252ad1be2c89b69c2b068fc378daa952ba7f163c4a11628f55a4df523b3ef908290a45050565b6001600160e01b03198082161415613e43576040805162461bcd60e51b815260206004820152601c60248201527f4552433136353a20696e76616c696420696e7465726661636520696400000000604482015290519081900360640190fd5b6001600160e01b0319166000908152603360205260409020805460ff19166001179055565b6060613017848460008585613e7c856136b4565b613ecd576040805162461bcd60e51b815260206004820152601d60248201527f416464726573733a2063616c6c20746f206e6f6e2d636f6e7472616374000000604482015290519081900360640190fd5b60006060866001600160a01b031685876040518082805190602001908083835b60208310613f0c5780518252601f199092019160209182019101613eed565b6001836020036101000a03801982511681845116808217855250505050505090500191505060006040518083038185875af1925050503d8060008114613f6e576040519150601f19603f3d011682016040523d82523d6000602084013e613f73565b606091505b5091509150613f83828286613f8e565b979650505050505050565b60608315613f9d57508161301a565b825115613fad5782518084602001fd5b60405162461bcd60e51b81526020600482018181528451602484015284518593919283926044019190850190808383600083156135f85781810151838201526020016135e0565b828054600181600116156101000203166002900490600052602060002090601f016020900481019282601f1061403557805160ff1916838001178555614062565b82800160010185558215614062579182015b82811115614062578251825591602001919060010190614047565b5061406e929150614072565b5090565b610e7b91905b8082111561406e576000815560010161407856fe456e756d657261626c655365743a20696e646578206f7574206f6620626f756e64734552433732313a207472616e7366657220746f206e6f6e20455243373231526563656976657220696d706c656d656e7465724f776e61626c653a206e6577206f776e657220697320746865207a65726f20616464726573734552433732313a207472616e7366657220746f20746865207a65726f20616464726573734552433732313a206f70657261746f7220717565727920666f72206e6f6e6578697374656e7420746f6b656e4552433732313a20617070726f76652063616c6c6572206973206e6f74206f776e6572206e6f7220617070726f76656420666f7220616c6c4552433732313a2062616c616e636520717565727920666f7220746865207a65726f20616464726573734552433732313a206f776e657220717565727920666f72206e6f6e6578697374656e7420746f6b656e496e697469616c697a61626c653a20636f6e747261637420697320616c726561647920696e697469616c697a6564456e756d657261626c654d61703a20696e646578206f7574206f6620626f756e64734552433732313a20617070726f76656420717565727920666f72206e6f6e6578697374656e7420746f6b656e4552433732314d657461646174613a2055524920736574206f66206e6f6e6578697374656e7420746f6b656e4552433732313a207472616e73666572206f6620746f6b656e2074686174206973206e6f74206f776e4552433732314d657461646174613a2055524920717565727920666f72206e6f6e6578697374656e7420746f6b656e4552433732313a20617070726f76616c20746f2063757272656e74206f776e65724552433732313a207472616e736665722063616c6c6572206973206e6f74206f776e6572206e6f7220617070726f766564496e73756666696369656e742062616c616e636520696e2074686520636f6e7472616374a2646970667358221220367e76e284efe2e74e99656c843a45f2883744a28d64a38d37f9b929dd581e7564736f6c63430006050033",
  "immutableReferences": {},
  "source": "// SPDX-License-Identifier: MIT\npragma solidity ^0.6.5;\n\nimport \"@openzeppelin/contracts-upgradeable/token/ERC721/ERC721Upgradeable.sol\";\nimport \"@openzeppelin/contracts-upgradeable/utils/CountersUpgradeable.sol\";\nimport \"@openzeppelin/contracts/token/ERC721/ERC721.sol\";\n\ncontract MyPFPland is ERC721Upgradeable {\n    using CountersUpgradeable for CountersUpgradeable.Counter;\n\n    CountersUpgradeable.Counter internal toyTokenIDs;\n    CountersUpgradeable.Counter internal paintingTokenIDs;\n    CountersUpgradeable.Counter internal statuetteTokenIDs;\n\n    uint256 internal toyTokenIDBase;\n    uint256 internal paintingTokenIDBase;\n    uint256 internal statuetteTokenIDBase;\n\n    address public _owner;\n    bool public isOpenPayment;\n\n    bool public isPausedClaimingToy;\n    bool public isPausedClaimingPainting;\n    bool public isPausedClaimingStatteute;\n\n    mapping(address => uint256) internal addressToClaimedToy;\n    mapping(address => uint256) internal addressToClaimedPainting;\n    mapping(address => uint256) internal addressToClaimedStateutte;\n\n    mapping(uint256 => bool) public oldTokenIDUsed;\n\n    mapping(address => uint256) internal addressToMigratedCameo;\n    mapping(address => uint256) internal addressToMigratedHonorary;\n    \n    mapping(address => uint256) internal addressToRoyalty;\n    ERC721 blootNFT;\n\n    modifier onlyOwner() {\n        require(_owner == msg.sender, \"Ownable: caller is not the owner\" );\n        _;\n    }\n\n    function initialize() initializer external {\n        __ERC721_init(\"MyPFPland\", \"MyPFPland\");\n        _owner = msg.sender;\n\n        toyTokenIDBase = 0;\n        paintingTokenIDBase = 300;\n        statuetteTokenIDBase = 400;\n        blootNFT = ERC721(0x72541Ad75E05BC77C7A92304225937a8F6653372);\n    }\n\n    function claim(uint256 _category, uint256 _count) external payable {\n        require(_category >= 1, \"out of range\");\n        require(_category <= 3, \"out of range\");\n        if (_category == 1)\n            require(isPausedClaimingToy == false, \"toy claiming is paused\");\n        if (_category == 2)\n            require(isPausedClaimingPainting == false, \"painting claiming is paused\");\n        if (_category == 3)\n            require(isPausedClaimingStatteute == false, \"statteute claiming is paused\");\n        \n        uint256 totalDerivative = getTotalDerivative(msg.sender, _category);\n        if (_category == 1)\n            totalDerivative += addressToMigratedCameo[msg.sender];\n        else if (_category == 2)\n            totalDerivative += addressToMigratedHonorary[msg.sender];\n\n        uint256 tokenID = 0;\n        if (_category == 1)\n            require(totalDerivative >= addressToClaimedToy[msg.sender] + _count, \"already claimed all toys\");\n        else if (_category == 2)\n            require(totalDerivative >= addressToClaimedPainting[msg.sender] + _count, \"already claimed all paintings\");\n        else if (_category == 3)\n            require(totalDerivative >= _count, \"already claimed all statteutes\");\n    \n        for (uint8 i = 0; i < _count; i++) {\n            if (_category == 1) {\n                toyTokenIDs.increment();\n                tokenID = toyTokenIDs.current() + toyTokenIDBase;\n            } else if (_category == 2) {\n                paintingTokenIDs.increment();\n                tokenID = paintingTokenIDs.current() + paintingTokenIDBase;\n            } else if (_category == 3) {\n                statuetteTokenIDs.increment();\n                tokenID = statuetteTokenIDs.current() + statuetteTokenIDBase;\n            }\n            _safeMint(msg.sender, tokenID);\n            _setTokenURI(tokenID, uint2str(tokenID));\n        }\n\n        if (_category == 1)\n            addressToClaimedToy[msg.sender] += _count;\n        else if (_category == 2)\n            addressToClaimedPainting[msg.sender] += _count;\n\n        // set oldTokenIDUsed true for those IDs already used\n        if (totalDerivative > 0 && _category == 3) {\n            for (uint8 i = 0; i < blootNFT.balanceOf(msg.sender); i++) {\n                uint256 tokenId = blootNFT.tokenOfOwnerByIndex(msg.sender, i);\n                if (tokenId <= 1484) {\n                    oldTokenIDUsed[tokenId] = true;\n                }\n            }\n        }\n    }\n\n    function airdrop(address[] calldata _claimList, uint256[] calldata _tokenIDs, uint256 _count) external onlyOwner {\n        for (uint256 i = 0; i < _count; i++) {\n            uint256 tokenID = 0;\n            if (_tokenIDs[i] <= 300) {\n                toyTokenIDs.increment();\n                tokenID = toyTokenIDs.current() + toyTokenIDBase;\n\n                addressToClaimedToy[_claimList[i]] += 1;\n            } else if (_tokenIDs[i] <= 400) {\n                paintingTokenIDs.increment();\n                tokenID = paintingTokenIDs.current() + paintingTokenIDBase;\n\n                addressToClaimedPainting[_claimList[i]] += 1;\n            } else {\n                statuetteTokenIDs.increment();\n                tokenID = statuetteTokenIDs.current() + statuetteTokenIDBase;\n            }\n            _safeMint(_claimList[i], tokenID);\n            _setTokenURI(tokenID, uint2str(tokenID));\n            if (tokenID > 400) {\n                for (uint256 j = 0; j < blootNFT.balanceOf(_claimList[i]); j++) {\n                    uint256 tokenId = blootNFT.tokenOfOwnerByIndex(_claimList[i], j);\n                    if (tokenId <= 1484)\n                        oldTokenIDUsed[tokenId] = true;\n                }\n            }\n        }\n    }\n\n    function getDerivativesToClaim(address _claimer, uint256 _category) external view returns(uint256) {\n        uint256 remain = 0;\n        if (_category < 1 || _category > 3)\n            return remain;\n        \n        uint256 totalDerivative = getTotalDerivative(_claimer, _category);\n        if (_category == 1) {\n            totalDerivative += addressToMigratedCameo[_claimer];\n            remain = totalDerivative - addressToClaimedToy[_claimer];\n        }\n        else if (_category == 2) {\n            totalDerivative += addressToMigratedHonorary[_claimer];\n            remain = totalDerivative - addressToClaimedPainting[_claimer];\n        }\n        else if (_category == 3) {\n            remain = totalDerivative;\n        }\n\n        return remain;\n    }\n\n    function getTotalDerivative(address _claimer, uint256 _category) internal view returns(uint256) {\n        uint256 result = 0;\n        if (blootNFT.balanceOf(_claimer) == 0)\n            return result;\n        uint256 tokenIdMin;\n        uint256 tokenIdMax;\n        if (_category == 1) {\n            tokenIdMin = 4790;\n            tokenIdMax = 4962;\n        } else if (_category == 2) {\n            tokenIdMin = 4963;\n            tokenIdMax = 5000;\n        } else if (_category == 3) {\n            tokenIdMin = 1;\n            tokenIdMax = 1484;\n        }\n\n        for (uint256 i = 0; i < blootNFT.balanceOf(_claimer); i++) {\n            uint256 tokenId = blootNFT.tokenOfOwnerByIndex(_claimer, i);\n            if (tokenId >= tokenIdMin && tokenId <= tokenIdMax) {\n                if (_category == 3) {\n                    if (!oldTokenIDUsed[tokenId])\n                        result++;\n                }\n                else\n                    result++;\n            }\n        }\n\n        return result;\n    }\n\n    function setPauseClaimingToy(bool _pauseClaimingToy) external onlyOwner {\n        isPausedClaimingToy = _pauseClaimingToy;\n    }\n\n    function setPauseClaimingPainting(bool _pauseClaimingPainting) external onlyOwner {\n        isPausedClaimingPainting = _pauseClaimingPainting;\n    }\n\n    function setPauseClaimingStatteute(bool _pauseClaimingStatteute) external onlyOwner {\n        isPausedClaimingStatteute = _pauseClaimingStatteute;\n    }\n\n    function setBatchCameoWhitelist(address[] calldata _whitelist, uint256 _count) external onlyOwner {\n        for (uint256 i = 0; i < _count; i++) {\n            addressToMigratedCameo[_whitelist[i]] += 1;\n        }\n    }\n\n    function setBatchHonoraryWhitelist(address[] calldata _whitelist, uint256 _count) external onlyOwner {\n        for (uint256 i = 0; i < _count; i++) {\n            addressToMigratedHonorary[_whitelist[i]] += 1;\n        }\n    }\n\n    function setBaseURI(string calldata _baseURI) external onlyOwner {\n        super._setBaseURI(_baseURI);\n    }\n\n    function setTokenURI(uint256 _tokenID, uint256 _tokenURI) external onlyOwner {\n        super._setTokenURI(_tokenID, uint2str(_tokenURI));\n    }\n\n    function setTokenURIs(uint256[] calldata _tokenIDs, uint256[] calldata _tokenURIs, uint256 _count) external onlyOwner {\n        for (uint256 i = 0; i < _count; i++) {\n            super._setTokenURI(_tokenIDs[i], uint2str(_tokenURIs[i]));\n        }\n    }\n\n    function openPayment(bool _open) external onlyOwner {\n        isOpenPayment = _open;\n    }\n\n    function setBatchRoyalty(address[] calldata _people, uint256[] calldata _amount, uint256 _count) external onlyOwner {\n        for (uint256 i = 0; i < _count; i++) {\n            addressToRoyalty[_people[i]] = _amount[i];\n        }\n    }\n\n    function setRoyalty(address _person, uint256 _amount) external onlyOwner {\n        addressToRoyalty[_person] = _amount;\n    }\n\n    function royaltyOf(address _person) external view returns(uint256) {\n        return addressToRoyalty[_person];\n    }\n\n    function withdraw() external onlyOwner {\n        (bool success, ) = _owner.call{value: address(this).balance}(\"\");\n        require(success, \"Failed to send\");\n    }\n\n    function withdrawRoyalty() external {\n        require(isOpenPayment == true, \"Payment is closed\");\n        require(addressToRoyalty[msg.sender] > 0, \"You don't have any royalties\");\n        require(address(this).balance >= addressToRoyalty[msg.sender], \"Insufficient balance in the contract\");\n        require(msg.sender != address(0x0), \"invalid caller\");\n\n        (bool success, ) = msg.sender.call{value: addressToRoyalty[msg.sender]}(\"\");\n        require(success, \"Failed to send eth\");\n        addressToRoyalty[msg.sender] = 0;\n    }\n\n    function transferOwnership(address newOwner) external onlyOwner {\n        require(newOwner != address(0), \"Ownable: new owner is the zero address\");\n        _owner = newOwner;\n    }\n\n    function uint2str(uint _i) internal pure returns (string memory _uintAsString) {\n        if (_i == 0) {\n            return \"0\";\n        }\n        uint j = _i;\n        uint len;\n        while (j != 0) {\n            len++;\n            j /= 10;\n        }\n        bytes memory bstr = new bytes(len);\n        uint k = len - 1;\n        while (_i != 0) {\n            bstr[k--] = byte(uint8(48 + _i % 10));\n            _i /= 10;\n        }\n        return string(bstr);\n    }\n}",
  "sourcePath": "/home/razor/Downloads/BlootDerivative/contracts/MyPFPland.sol",
  "compiler": {
    "name": "solc",
    "version": "0.6.5+commit.f956cc89.Emscripten.clang"
  },
  "schemaVersion": "3.4.3",
  "updatedAt": "2021-10-20T08:55:43.258Z",
  "networkType": "ethereum",
  "devdoc": {
    "methods": {
      "approve(address,uint256)": {
        "details": "See {IERC721-approve}."
      },
      "balanceOf(address)": {
        "details": "See {IERC721-balanceOf}."
      },
      "baseURI()": {
        "details": "Returns the base URI set via {_setBaseURI}. This will be automatically added as a prefix in {tokenURI} to each token's URI, or to the token ID if no specific URI is set for that token ID."
      },
      "getApproved(uint256)": {
        "details": "See {IERC721-getApproved}."
      },
      "isApprovedForAll(address,address)": {
        "details": "See {IERC721-isApprovedForAll}."
      },
      "name()": {
        "details": "See {IERC721Metadata-name}."
      },
      "ownerOf(uint256)": {
        "details": "See {IERC721-ownerOf}."
      },
      "safeTransferFrom(address,address,uint256)": {
        "details": "See {IERC721-safeTransferFrom}."
      },
      "safeTransferFrom(address,address,uint256,bytes)": {
        "details": "See {IERC721-safeTransferFrom}."
      },
      "setApprovalForAll(address,bool)": {
        "details": "See {IERC721-setApprovalForAll}."
      },
      "supportsInterface(bytes4)": {
        "details": "See {IERC165-supportsInterface}.     * Time complexity O(1), guaranteed to always use less than 30 000 gas."
      },
      "symbol()": {
        "details": "See {IERC721Metadata-symbol}."
      },
      "tokenByIndex(uint256)": {
        "details": "See {IERC721Enumerable-tokenByIndex}."
      },
      "tokenOfOwnerByIndex(address,uint256)": {
        "details": "See {IERC721Enumerable-tokenOfOwnerByIndex}."
      },
      "tokenURI(uint256)": {
        "details": "See {IERC721Metadata-tokenURI}."
      },
      "totalSupply()": {
        "details": "See {IERC721Enumerable-totalSupply}."
      },
      "transferFrom(address,address,uint256)": {
        "details": "See {IERC721-transferFrom}."
      }
    }
  },
  "userdoc": {
    "methods": {}
  }
}