{
  "contractName": "MyPFPlandv3",
  "abi": [
    {
      "anonymous": false,
      "inputs": [
        {
          "indexed": true,
          "internalType": "address",
          "name": "owner",
          "type": "address"
        },
        {
          "indexed": true,
          "internalType": "address",
          "name": "approved",
          "type": "address"
        },
        {
          "indexed": true,
          "internalType": "uint256",
          "name": "tokenId",
          "type": "uint256"
        }
      ],
      "name": "Approval",
      "type": "event"
    },
    {
      "anonymous": false,
      "inputs": [
        {
          "indexed": true,
          "internalType": "address",
          "name": "owner",
          "type": "address"
        },
        {
          "indexed": true,
          "internalType": "address",
          "name": "operator",
          "type": "address"
        },
        {
          "indexed": false,
          "internalType": "bool",
          "name": "approved",
          "type": "bool"
        }
      ],
      "name": "ApprovalForAll",
      "type": "event"
    },
    {
      "anonymous": false,
      "inputs": [
        {
          "indexed": true,
          "internalType": "address",
          "name": "from",
          "type": "address"
        },
        {
          "indexed": true,
          "internalType": "address",
          "name": "to",
          "type": "address"
        },
        {
          "indexed": true,
          "internalType": "uint256",
          "name": "tokenId",
          "type": "uint256"
        }
      ],
      "name": "Transfer",
      "type": "event"
    },
    {
      "inputs": [],
      "name": "_contractURI",
      "outputs": [
        {
          "internalType": "string",
          "name": "",
          "type": "string"
        }
      ],
      "stateMutability": "view",
      "type": "function",
      "constant": true
    },
    {
      "inputs": [],
      "name": "_owner",
      "outputs": [
        {
          "internalType": "address",
          "name": "",
          "type": "address"
        }
      ],
      "stateMutability": "view",
      "type": "function",
      "constant": true
    },
    {
      "inputs": [],
      "name": "allowMetadataForAllReserved",
      "outputs": [
        {
          "internalType": "bool",
          "name": "",
          "type": "bool"
        }
      ],
      "stateMutability": "view",
      "type": "function",
      "constant": true
    },
    {
      "inputs": [
        {
          "internalType": "address",
          "name": "to",
          "type": "address"
        },
        {
          "internalType": "uint256",
          "name": "tokenId",
          "type": "uint256"
        }
      ],
      "name": "approve",
      "outputs": [],
      "stateMutability": "nonpayable",
      "type": "function"
    },
    {
      "inputs": [
        {
          "internalType": "address",
          "name": "owner",
          "type": "address"
        }
      ],
      "name": "balanceOf",
      "outputs": [
        {
          "internalType": "uint256",
          "name": "",
          "type": "uint256"
        }
      ],
      "stateMutability": "view",
      "type": "function",
      "constant": true
    },
    {
      "inputs": [],
      "name": "baseURI",
      "outputs": [
        {
          "internalType": "string",
          "name": "",
          "type": "string"
        }
      ],
      "stateMutability": "view",
      "type": "function",
      "constant": true
    },
    {
      "inputs": [
        {
          "internalType": "uint256",
          "name": "",
          "type": "uint256"
        }
      ],
      "name": "collectionAddressByIndex",
      "outputs": [
        {
          "internalType": "address",
          "name": "",
          "type": "address"
        }
      ],
      "stateMutability": "view",
      "type": "function",
      "constant": true
    },
    {
      "inputs": [
        {
          "internalType": "address",
          "name": "",
          "type": "address"
        },
        {
          "internalType": "uint256",
          "name": "",
          "type": "uint256"
        }
      ],
      "name": "collectionIndicesByAddress",
      "outputs": [
        {
          "internalType": "uint256",
          "name": "",
          "type": "uint256"
        }
      ],
      "stateMutability": "view",
      "type": "function",
      "constant": true
    },
    {
      "inputs": [
        {
          "internalType": "uint256",
          "name": "",
          "type": "uint256"
        }
      ],
      "name": "collectionRectByIndex",
      "outputs": [
        {
          "components": [
            {
              "internalType": "uint256",
              "name": "x",
              "type": "uint256"
            },
            {
              "internalType": "uint256",
              "name": "y",
              "type": "uint256"
            }
          ],
          "internalType": "struct MyPFPlandv3.Point",
          "name": "leftBottom",
          "type": "tuple"
        },
        {
          "components": [
            {
              "internalType": "uint256",
              "name": "x",
              "type": "uint256"
            },
            {
              "internalType": "uint256",
              "name": "y",
              "type": "uint256"
            }
          ],
          "internalType": "struct MyPFPlandv3.Point",
          "name": "rightTop",
          "type": "tuple"
        }
      ],
      "stateMutability": "view",
      "type": "function",
      "constant": true
    },
    {
      "inputs": [
        {
          "internalType": "uint256",
          "name": "tokenId",
          "type": "uint256"
        }
      ],
      "name": "getApproved",
      "outputs": [
        {
          "internalType": "address",
          "name": "",
          "type": "address"
        }
      ],
      "stateMutability": "view",
      "type": "function",
      "constant": true
    },
    {
      "inputs": [
        {
          "internalType": "address",
          "name": "owner",
          "type": "address"
        },
        {
          "internalType": "address",
          "name": "operator",
          "type": "address"
        }
      ],
      "name": "isApprovedForAll",
      "outputs": [
        {
          "internalType": "bool",
          "name": "",
          "type": "bool"
        }
      ],
      "stateMutability": "view",
      "type": "function",
      "constant": true
    },
    {
      "inputs": [],
      "name": "isOpenPayment",
      "outputs": [
        {
          "internalType": "bool",
          "name": "",
          "type": "bool"
        }
      ],
      "stateMutability": "view",
      "type": "function",
      "constant": true
    },
    {
      "inputs": [],
      "name": "isPausedClaimingDerivative",
      "outputs": [
        {
          "internalType": "bool",
          "name": "",
          "type": "bool"
        }
      ],
      "stateMutability": "view",
      "type": "function",
      "constant": true
    },
    {
      "inputs": [],
      "name": "isPausedClaimingLand",
      "outputs": [
        {
          "internalType": "bool",
          "name": "",
          "type": "bool"
        }
      ],
      "stateMutability": "view",
      "type": "function",
      "constant": true
    },
    {
      "inputs": [],
      "name": "isPausedClaimingPainting",
      "outputs": [
        {
          "internalType": "bool",
          "name": "",
          "type": "bool"
        }
      ],
      "stateMutability": "view",
      "type": "function",
      "constant": true
    },
    {
      "inputs": [],
      "name": "isPausedClaimingRoyal",
      "outputs": [
        {
          "internalType": "bool",
          "name": "",
          "type": "bool"
        }
      ],
      "stateMutability": "view",
      "type": "function",
      "constant": true
    },
    {
      "inputs": [],
      "name": "isPausedClaimingStatteute",
      "outputs": [
        {
          "internalType": "bool",
          "name": "",
          "type": "bool"
        }
      ],
      "stateMutability": "view",
      "type": "function",
      "constant": true
    },
    {
      "inputs": [],
      "name": "isPausedClaimingToy",
      "outputs": [
        {
          "internalType": "bool",
          "name": "",
          "type": "bool"
        }
      ],
      "stateMutability": "view",
      "type": "function",
      "constant": true
    },
    {
      "inputs": [
        {
          "internalType": "uint256",
          "name": "",
          "type": "uint256"
        }
      ],
      "name": "landDerivativeBalance",
      "outputs": [
        {
          "internalType": "uint256",
          "name": "",
          "type": "uint256"
        }
      ],
      "stateMutability": "view",
      "type": "function",
      "constant": true
    },
    {
      "inputs": [
        {
          "internalType": "uint256",
          "name": "",
          "type": "uint256"
        },
        {
          "internalType": "uint256",
          "name": "",
          "type": "uint256"
        }
      ],
      "name": "landDerivativeMetadataOf",
      "outputs": [
        {
          "internalType": "address",
          "name": "collectionAddress",
          "type": "address"
        },
        {
          "internalType": "uint256",
          "name": "tokenID",
          "type": "uint256"
        }
      ],
      "stateMutability": "view",
      "type": "function",
      "constant": true
    },
    {
      "inputs": [
        {
          "internalType": "uint256",
          "name": "",
          "type": "uint256"
        }
      ],
      "name": "landRoyalMetadataOf",
      "outputs": [
        {
          "internalType": "uint256",
          "name": "collectionID",
          "type": "uint256"
        },
        {
          "internalType": "uint256",
          "name": "tokenID",
          "type": "uint256"
        }
      ],
      "stateMutability": "view",
      "type": "function",
      "constant": true
    },
    {
      "inputs": [],
      "name": "name",
      "outputs": [
        {
          "internalType": "string",
          "name": "",
          "type": "string"
        }
      ],
      "stateMutability": "view",
      "type": "function",
      "constant": true
    },
    {
      "inputs": [
        {
          "internalType": "uint256",
          "name": "",
          "type": "uint256"
        }
      ],
      "name": "oldTokenIDUsed",
      "outputs": [
        {
          "internalType": "bool",
          "name": "",
          "type": "bool"
        }
      ],
      "stateMutability": "view",
      "type": "function",
      "constant": true
    },
    {
      "inputs": [
        {
          "internalType": "uint256",
          "name": "tokenId",
          "type": "uint256"
        }
      ],
      "name": "ownerOf",
      "outputs": [
        {
          "internalType": "address",
          "name": "",
          "type": "address"
        }
      ],
      "stateMutability": "view",
      "type": "function",
      "constant": true
    },
    {
      "inputs": [
        {
          "internalType": "address",
          "name": "from",
          "type": "address"
        },
        {
          "internalType": "address",
          "name": "to",
          "type": "address"
        },
        {
          "internalType": "uint256",
          "name": "tokenId",
          "type": "uint256"
        }
      ],
      "name": "safeTransferFrom",
      "outputs": [],
      "stateMutability": "nonpayable",
      "type": "function"
    },
    {
      "inputs": [
        {
          "internalType": "address",
          "name": "from",
          "type": "address"
        },
        {
          "internalType": "address",
          "name": "to",
          "type": "address"
        },
        {
          "internalType": "uint256",
          "name": "tokenId",
          "type": "uint256"
        },
        {
          "internalType": "bytes",
          "name": "_data",
          "type": "bytes"
        }
      ],
      "name": "safeTransferFrom",
      "outputs": [],
      "stateMutability": "nonpayable",
      "type": "function"
    },
    {
      "inputs": [
        {
          "internalType": "address",
          "name": "operator",
          "type": "address"
        },
        {
          "internalType": "bool",
          "name": "approved",
          "type": "bool"
        }
      ],
      "name": "setApprovalForAll",
      "outputs": [],
      "stateMutability": "nonpayable",
      "type": "function"
    },
    {
      "inputs": [
        {
          "internalType": "bytes4",
          "name": "interfaceId",
          "type": "bytes4"
        }
      ],
      "name": "supportsInterface",
      "outputs": [
        {
          "internalType": "bool",
          "name": "",
          "type": "bool"
        }
      ],
      "stateMutability": "view",
      "type": "function",
      "constant": true
    },
    {
      "inputs": [],
      "name": "symbol",
      "outputs": [
        {
          "internalType": "string",
          "name": "",
          "type": "string"
        }
      ],
      "stateMutability": "view",
      "type": "function",
      "constant": true
    },
    {
      "inputs": [
        {
          "internalType": "uint256",
          "name": "index",
          "type": "uint256"
        }
      ],
      "name": "tokenByIndex",
      "outputs": [
        {
          "internalType": "uint256",
          "name": "",
          "type": "uint256"
        }
      ],
      "stateMutability": "view",
      "type": "function",
      "constant": true
    },
    {
      "inputs": [
        {
          "internalType": "address",
          "name": "owner",
          "type": "address"
        },
        {
          "internalType": "uint256",
          "name": "index",
          "type": "uint256"
        }
      ],
      "name": "tokenOfOwnerByIndex",
      "outputs": [
        {
          "internalType": "uint256",
          "name": "",
          "type": "uint256"
        }
      ],
      "stateMutability": "view",
      "type": "function",
      "constant": true
    },
    {
      "inputs": [
        {
          "internalType": "uint256",
          "name": "tokenId",
          "type": "uint256"
        }
      ],
      "name": "tokenURI",
      "outputs": [
        {
          "internalType": "string",
          "name": "",
          "type": "string"
        }
      ],
      "stateMutability": "view",
      "type": "function",
      "constant": true
    },
    {
      "inputs": [],
      "name": "totalSupply",
      "outputs": [
        {
          "internalType": "uint256",
          "name": "",
          "type": "uint256"
        }
      ],
      "stateMutability": "view",
      "type": "function",
      "constant": true
    },
    {
      "inputs": [
        {
          "internalType": "address",
          "name": "from",
          "type": "address"
        },
        {
          "internalType": "address",
          "name": "to",
          "type": "address"
        },
        {
          "internalType": "uint256",
          "name": "tokenId",
          "type": "uint256"
        }
      ],
      "name": "transferFrom",
      "outputs": [],
      "stateMutability": "nonpayable",
      "type": "function"
    },
    {
      "inputs": [],
      "name": "initialize",
      "outputs": [],
      "stateMutability": "nonpayable",
      "type": "function"
    },
    {
      "inputs": [
        {
          "internalType": "uint256",
          "name": "_category",
          "type": "uint256"
        },
        {
          "internalType": "uint256",
          "name": "_count",
          "type": "uint256"
        }
      ],
      "name": "claim",
      "outputs": [],
      "stateMutability": "payable",
      "type": "function",
      "payable": true
    },
    {
      "inputs": [
        {
          "internalType": "address",
          "name": "_claimer",
          "type": "address"
        },
        {
          "internalType": "uint256",
          "name": "_category",
          "type": "uint256"
        }
      ],
      "name": "getDerivativesToClaim",
      "outputs": [
        {
          "internalType": "uint256",
          "name": "",
          "type": "uint256"
        }
      ],
      "stateMutability": "view",
      "type": "function",
      "constant": true
    },
    {
      "inputs": [
        {
          "internalType": "bool",
          "name": "_pauseClaimingToy",
          "type": "bool"
        }
      ],
      "name": "setPauseClaimingToy",
      "outputs": [],
      "stateMutability": "nonpayable",
      "type": "function"
    },
    {
      "inputs": [
        {
          "internalType": "bool",
          "name": "_pauseClaimingPainting",
          "type": "bool"
        }
      ],
      "name": "setPauseClaimingPainting",
      "outputs": [],
      "stateMutability": "nonpayable",
      "type": "function"
    },
    {
      "inputs": [
        {
          "internalType": "bool",
          "name": "_pauseClaimingStatteute",
          "type": "bool"
        }
      ],
      "name": "setPauseClaimingStatteute",
      "outputs": [],
      "stateMutability": "nonpayable",
      "type": "function"
    },
    {
      "inputs": [
        {
          "internalType": "address[]",
          "name": "_whitelist",
          "type": "address[]"
        },
        {
          "internalType": "uint256",
          "name": "_count",
          "type": "uint256"
        }
      ],
      "name": "setBatchCameoWhitelist",
      "outputs": [],
      "stateMutability": "nonpayable",
      "type": "function"
    },
    {
      "inputs": [
        {
          "internalType": "address[]",
          "name": "_whitelist",
          "type": "address[]"
        },
        {
          "internalType": "uint256",
          "name": "_count",
          "type": "uint256"
        }
      ],
      "name": "setBatchHonoraryWhitelist",
      "outputs": [],
      "stateMutability": "nonpayable",
      "type": "function"
    },
    {
      "inputs": [
        {
          "internalType": "address[]",
          "name": "_blacklist",
          "type": "address[]"
        },
        {
          "internalType": "uint256",
          "name": "_count",
          "type": "uint256"
        }
      ],
      "name": "setBatchCameoBlacklist",
      "outputs": [],
      "stateMutability": "nonpayable",
      "type": "function"
    },
    {
      "inputs": [
        {
          "internalType": "address[]",
          "name": "_blacklist",
          "type": "address[]"
        },
        {
          "internalType": "uint256",
          "name": "_count",
          "type": "uint256"
        }
      ],
      "name": "setBatchHonoraryBlacklist",
      "outputs": [],
      "stateMutability": "nonpayable",
      "type": "function"
    },
    {
      "inputs": [
        {
          "internalType": "address[]",
          "name": "_whitelist",
          "type": "address[]"
        },
        {
          "internalType": "uint256",
          "name": "_count",
          "type": "uint256"
        }
      ],
      "name": "setBatchMekakeyWhitelist",
      "outputs": [],
      "stateMutability": "nonpayable",
      "type": "function"
    },
    {
      "inputs": [
        {
          "internalType": "address[]",
          "name": "_blacklist",
          "type": "address[]"
        },
        {
          "internalType": "uint256",
          "name": "_count",
          "type": "uint256"
        }
      ],
      "name": "setBatchMekakeyBlacklist",
      "outputs": [],
      "stateMutability": "nonpayable",
      "type": "function"
    },
    {
      "inputs": [
        {
          "internalType": "string",
          "name": "_baseURI",
          "type": "string"
        }
      ],
      "name": "setBaseURI",
      "outputs": [],
      "stateMutability": "nonpayable",
      "type": "function"
    },
    {
      "inputs": [],
      "name": "withdraw",
      "outputs": [],
      "stateMutability": "nonpayable",
      "type": "function"
    },
    {
      "inputs": [
        {
          "internalType": "address",
          "name": "newOwner",
          "type": "address"
        }
      ],
      "name": "transferOwnership",
      "outputs": [],
      "stateMutability": "nonpayable",
      "type": "function"
    },
    {
      "inputs": [
        {
          "internalType": "bool",
          "name": "_pauseClaimingLand",
          "type": "bool"
        }
      ],
      "name": "setPauseClaimingLand",
      "outputs": [],
      "stateMutability": "nonpayable",
      "type": "function"
    },
    {
      "inputs": [
        {
          "internalType": "bool",
          "name": "_isPausedClaimingRoyal",
          "type": "bool"
        }
      ],
      "name": "setPauseClaimingRoyal",
      "outputs": [],
      "stateMutability": "nonpayable",
      "type": "function"
    },
    {
      "inputs": [
        {
          "internalType": "bool",
          "name": "_isPausedClaimingDerivative",
          "type": "bool"
        }
      ],
      "name": "setPauseClaimingDerivative",
      "outputs": [],
      "stateMutability": "nonpayable",
      "type": "function"
    },
    {
      "inputs": [
        {
          "internalType": "uint256",
          "name": "x",
          "type": "uint256"
        },
        {
          "internalType": "uint256",
          "name": "y",
          "type": "uint256"
        },
        {
          "internalType": "uint256",
          "name": "collectionID",
          "type": "uint256"
        }
      ],
      "name": "claimLand",
      "outputs": [],
      "stateMutability": "payable",
      "type": "function",
      "payable": true
    },
    {
      "inputs": [
        {
          "internalType": "uint256",
          "name": "tokenId",
          "type": "uint256"
        }
      ],
      "name": "landOwnerOf",
      "outputs": [
        {
          "internalType": "address",
          "name": "",
          "type": "address"
        }
      ],
      "stateMutability": "view",
      "type": "function",
      "constant": true
    },
    {
      "inputs": [
        {
          "internalType": "uint256",
          "name": "x",
          "type": "uint256"
        },
        {
          "internalType": "uint256",
          "name": "y",
          "type": "uint256"
        },
        {
          "internalType": "uint256",
          "name": "collectionIDOfRoyalMetadata",
          "type": "uint256"
        },
        {
          "internalType": "uint256",
          "name": "tokenID",
          "type": "uint256"
        }
      ],
      "name": "updateLandRoyalMetaData",
      "outputs": [],
      "stateMutability": "nonpayable",
      "type": "function"
    },
    {
      "inputs": [
        {
          "internalType": "uint256",
          "name": "x",
          "type": "uint256"
        },
        {
          "internalType": "uint256",
          "name": "y",
          "type": "uint256"
        },
        {
          "internalType": "address",
          "name": "collectionAddrsOfDerMetadata",
          "type": "address"
        },
        {
          "internalType": "uint256",
          "name": "tokenID",
          "type": "uint256"
        }
      ],
      "name": "updateLandDerivativeMetaData",
      "outputs": [],
      "stateMutability": "nonpayable",
      "type": "function"
    },
    {
      "inputs": [
        {
          "internalType": "bool",
          "name": "_allowMetadataForAllReserved",
          "type": "bool"
        }
      ],
      "name": "setAllowMetadataForAllReserved",
      "outputs": [],
      "stateMutability": "nonpayable",
      "type": "function"
    },
    {
      "inputs": [
        {
          "internalType": "uint256",
          "name": "collectionID",
          "type": "uint256"
        },
        {
          "internalType": "uint256",
          "name": "tokenID",
          "type": "uint256"
        }
      ],
      "name": "getLandMetaData",
      "outputs": [
        {
          "internalType": "string",
          "name": "",
          "type": "string"
        }
      ],
      "stateMutability": "view",
      "type": "function",
      "constant": true
    },
    {
      "inputs": [
        {
          "internalType": "uint256",
          "name": "x",
          "type": "uint256"
        },
        {
          "internalType": "uint256",
          "name": "y",
          "type": "uint256"
        }
      ],
      "name": "collectionIDAt",
      "outputs": [
        {
          "internalType": "uint256",
          "name": "",
          "type": "uint256"
        }
      ],
      "stateMutability": "view",
      "type": "function",
      "constant": true
    },
    {
      "inputs": [
        {
          "internalType": "address",
          "name": "owner",
          "type": "address"
        },
        {
          "internalType": "uint256",
          "name": "collectionID",
          "type": "uint256"
        }
      ],
      "name": "totalRoyalBalanceOf",
      "outputs": [
        {
          "internalType": "uint256",
          "name": "",
          "type": "uint256"
        }
      ],
      "stateMutability": "view",
      "type": "function",
      "constant": true
    },
    {
      "inputs": [
        {
          "internalType": "address",
          "name": "owner",
          "type": "address"
        },
        {
          "internalType": "uint256",
          "name": "index",
          "type": "uint256"
        },
        {
          "internalType": "uint256",
          "name": "collectionID",
          "type": "uint256"
        }
      ],
      "name": "royalTokenOfOwnerByIndex",
      "outputs": [
        {
          "internalType": "uint256",
          "name": "",
          "type": "uint256"
        },
        {
          "internalType": "uint256",
          "name": "",
          "type": "uint256"
        }
      ],
      "stateMutability": "view",
      "type": "function",
      "constant": true
    },
    {
      "inputs": [
        {
          "components": [
            {
              "internalType": "uint256",
              "name": "x",
              "type": "uint256"
            },
            {
              "internalType": "uint256",
              "name": "y",
              "type": "uint256"
            }
          ],
          "internalType": "struct MyPFPlandv3.Point",
          "name": "point",
          "type": "tuple"
        },
        {
          "components": [
            {
              "components": [
                {
                  "internalType": "uint256",
                  "name": "x",
                  "type": "uint256"
                },
                {
                  "internalType": "uint256",
                  "name": "y",
                  "type": "uint256"
                }
              ],
              "internalType": "struct MyPFPlandv3.Point",
              "name": "leftBottom",
              "type": "tuple"
            },
            {
              "components": [
                {
                  "internalType": "uint256",
                  "name": "x",
                  "type": "uint256"
                },
                {
                  "internalType": "uint256",
                  "name": "y",
                  "type": "uint256"
                }
              ],
              "internalType": "struct MyPFPlandv3.Point",
              "name": "rightTop",
              "type": "tuple"
            }
          ],
          "internalType": "struct MyPFPlandv3.Rectangle",
          "name": "area",
          "type": "tuple"
        }
      ],
      "name": "isInsideCollectionRect",
      "outputs": [
        {
          "internalType": "bool",
          "name": "",
          "type": "bool"
        }
      ],
      "stateMutability": "pure",
      "type": "function",
      "constant": true
    },
    {
      "inputs": [
        {
          "internalType": "uint256[]",
          "name": "leftBottomX",
          "type": "uint256[]"
        },
        {
          "internalType": "uint256[]",
          "name": "leftBottomY",
          "type": "uint256[]"
        },
        {
          "internalType": "uint256[]",
          "name": "rightTopX",
          "type": "uint256[]"
        },
        {
          "internalType": "uint256[]",
          "name": "rightTopY",
          "type": "uint256[]"
        },
        {
          "internalType": "address[]",
          "name": "collectionAddress",
          "type": "address[]"
        },
        {
          "internalType": "uint256",
          "name": "count",
          "type": "uint256"
        }
      ],
      "name": "setBatchCollectionRect",
      "outputs": [],
      "stateMutability": "nonpayable",
      "type": "function"
    },
    {
      "inputs": [
        {
          "internalType": "uint256[]",
          "name": "indices",
          "type": "uint256[]"
        },
        {
          "internalType": "address[]",
          "name": "collectionAddress",
          "type": "address[]"
        },
        {
          "internalType": "uint256",
          "name": "count",
          "type": "uint256"
        }
      ],
      "name": "resetBatchCollectionRect",
      "outputs": [],
      "stateMutability": "nonpayable",
      "type": "function"
    },
    {
      "inputs": [
        {
          "internalType": "uint256",
          "name": "x",
          "type": "uint256"
        },
        {
          "internalType": "uint256",
          "name": "y",
          "type": "uint256"
        }
      ],
      "name": "_encodeTokenId",
      "outputs": [
        {
          "internalType": "uint256",
          "name": "",
          "type": "uint256"
        }
      ],
      "stateMutability": "pure",
      "type": "function",
      "constant": true
    },
    {
      "inputs": [
        {
          "internalType": "uint256",
          "name": "value",
          "type": "uint256"
        }
      ],
      "name": "_decodeTokenId",
      "outputs": [
        {
          "internalType": "uint256",
          "name": "x",
          "type": "uint256"
        },
        {
          "internalType": "uint256",
          "name": "y",
          "type": "uint256"
        }
      ],
      "stateMutability": "pure",
      "type": "function",
      "constant": true
    },
    {
      "inputs": [
        {
          "internalType": "string",
          "name": "_contractURI_",
          "type": "string"
        }
      ],
      "name": "setContractURI",
      "outputs": [],
      "stateMutability": "nonpayable",
      "type": "function"
    },
    {
      "inputs": [],
      "name": "contractURI",
      "outputs": [
        {
          "internalType": "string",
          "name": "",
          "type": "string"
        }
      ],
      "stateMutability": "view",
      "type": "function",
      "constant": true
    }
  ],
  "bytecode": "0x608060405234801561001057600080fd5b50615bad80620000216000396000f3fe6080604052600436106103ef5760003560e01c806381c7707311610208578063c31dbf9611610118578063d678a41f116100ab578063e8a3d4851161007a578063e8a3d48514610b73578063e985e9c514610b88578063eacc74b814610ba8578063edd57e3214610bc8578063f2fde38b14610be8576103ef565b8063d678a41f14610b09578063d6e7d67b14610b29578063e6031d1b14610b3e578063e7ce6c1814610b53576103ef565b8063c8d6ab56116100e7578063c8d6ab5614610a7b578063caa6626014610a9b578063cbc67d3a14610abb578063d15a271b14610ae9576103ef565b8063c31dbf9614610a08578063c349026314610a28578063c616fd4c14610a3b578063c87b56dd14610a5b576103ef565b8063a22cb4651161019b578063b607a0aa1161016a578063b607a0aa1461097e578063b88d4fde14610993578063b9bc6ead146109b3578063c0e72740146109d3578063c177273d146109e8576103ef565b8063a22cb46514610909578063ab531efd14610929578063b12df58e14610949578063b2bdfa7b14610969576103ef565b8063938e3d7b116101d7578063938e3d7b1461089457806395d89b41146108b45780639de4ff15146108c9578063a05672f1146108e9576103ef565b806381c770731461081f57806388f62c121461083f5780638a3ac44d1461085f57806391ead87314610874576103ef565b80633ccfd60b116103035780635bf0234d1161029657806370a082311161026557806370a082311461079557806374a9a21b146107b55780637e749897146107d55780637efa391a146107ea5780638129fc1c1461080a576103ef565b80635bf0234d1461072b57806360a6fb8f146107405780636352211e146107605780636c0360eb14610780576103ef565b80634d8980f1116102d25780634d8980f1146106b85780634f6ccce7146106d857806355f804b3146106f85780635669057d14610718576103ef565b80633ccfd60b1461064e57806342842e0e146106635780634587b3ee146106835780634874340014610698576103ef565b80631b1c9c231161038657806322751f871161035557806322751f87146105a0578063237abb89146105ce57806323b872dd146105ee578063283315951461060e5780632f745c591461062e576103ef565b80631b1c9c231461052b5780631c5822fe1461054b5780631f3221b41461056057806320940d7a14610580576103ef565b8063095ea7b3116103c2578063095ea7b31461049b5780630b394838146104bb57806314d44ea0146104e857806318160ddd14610516576103ef565b806301ffc9a7146103f457806306fdde031461042a57806307f0db251461044c578063081812fc1461046e575b600080fd5b34801561040057600080fd5b5061041461040f366004614cd1565b610c08565b6040516104219190615044565b60405180910390f35b34801561043657600080fd5b5061043f610c2b565b604051610421919061504f565b34801561045857600080fd5b5061046c610467366004614b02565b610cc2565b005b34801561047a57600080fd5b5061048e610489366004614e4e565b610d55565b6040516104219190614fbe565b3480156104a757600080fd5b5061046c6104b6366004614aa3565b610d98565b3480156104c757600080fd5b506104db6104d6366004614e4e565b610e30565b6040516104219190615a65565b3480156104f457600080fd5b50610508610503366004614e7e565b610e42565b60405161042192919061502b565b34801561052257600080fd5b506104db610e85565b34801561053757600080fd5b5061046c610546366004614b02565b610e96565b34801561055757600080fd5b50610414610f14565b34801561056c57600080fd5b5061046c61057b366004614cb1565b610f24565b34801561058c57600080fd5b5061046c61059b366004614b02565b610f6c565b3480156105ac57600080fd5b506105c06105bb366004614e4e565b610fea565b604051610421929190615a6e565b3480156105da57600080fd5b506104146105e9366004614e4e565b611003565b3480156105fa57600080fd5b5061046c610609366004614988565b611018565b34801561061a57600080fd5b5061046c610629366004614b02565b611050565b34801561063a57600080fd5b506104db610649366004614aa3565b6110d4565b34801561065a57600080fd5b5061046c611105565b34801561066f57600080fd5b5061046c61067e366004614988565b6111b3565b34801561068f57600080fd5b506104146111ce565b3480156106a457600080fd5b5061048e6106b3366004614e4e565b6111de565b3480156106c457600080fd5b5061046c6106d3366004614cb1565b61132e565b3480156106e457600080fd5b506104db6106f3366004614e4e565b611376565b34801561070457600080fd5b5061046c610713366004614d09565b611392565b61046c610726366004614edd565b6113ff565b34801561073757600080fd5b5061041461182f565b34801561074c57600080fd5b5061046c61075b366004614cb1565b61183f565b34801561076c57600080fd5b5061048e61077b366004614e4e565b61187c565b34801561078c57600080fd5b5061043f6118aa565b3480156107a157600080fd5b506104db6107b0366004614918565b61190b565b3480156107c157600080fd5b5061048e6107d0366004614e4e565b611954565b3480156107e157600080fd5b5061041461196f565b3480156107f657600080fd5b5061046c610805366004614b4b565b61197f565b34801561081657600080fd5b5061046c611aeb565b34801561082b57600080fd5b506104db61083a366004614aa3565b611bfe565b34801561084b57600080fd5b5061046c61085a366004614bbb565b611dd7565b34801561086b57600080fd5b50610414611fc0565b34801561088057600080fd5b5061046c61088f366004614b02565b611fc9565b3480156108a057600080fd5b5061046c6108af366004614d09565b612047565b3480156108c057600080fd5b5061043f61207d565b3480156108d557600080fd5b5061046c6108e4366004614cb1565b6120de565b3480156108f557600080fd5b50610414610904366004614de7565b612126565b34801561091557600080fd5b5061046c610924366004614a72565b612185565b34801561093557600080fd5b506104db610944366004614e7e565b612253565b34801561095557600080fd5b5061043f610964366004614e7e565b612263565b34801561097557600080fd5b5061048e6123fe565b34801561098a57600080fd5b5061041461240d565b34801561099f57600080fd5b5061046c6109ae3660046149c8565b61241d565b3480156109bf57600080fd5b5061046c6109ce366004614cb1565b612456565b3480156109df57600080fd5b5061043f61249e565b3480156109f457600080fd5b506104db610a03366004614aa3565b61252c565b348015610a1457600080fd5b5061046c610a23366004614b02565b61255a565b61046c610a36366004614e7e565b6125de565b348015610a4757600080fd5b506105c0610a56366004614ace565b6129db565b348015610a6757600080fd5b5061043f610a76366004614e4e565b612ceb565b348015610a8757600080fd5b506104db610a96366004614aa3565b612e31565b348015610aa757600080fd5b5061046c610ab6366004614cb1565b612ee2565b348015610ac757600080fd5b50610adb610ad6366004614e4e565b612f2a565b604051610421929190615a4a565b348015610af557600080fd5b5061046c610b04366004614f08565b612f70565b348015610b1557600080fd5b5061046c610b24366004614cb1565b613288565b348015610b3557600080fd5b506104146132d0565b348015610b4a57600080fd5b506104146132e0565b348015610b5f57600080fd5b506104db610b6e366004614e7e565b6132f0565b348015610b7f57600080fd5b5061043f61339b565b348015610b9457600080fd5b50610414610ba3366004614950565b6133fc565b348015610bb457600080fd5b5061046c610bc3366004614e9f565b61342a565b348015610bd457600080fd5b506105c0610be3366004614e4e565b61360d565b348015610bf457600080fd5b5061046c610c03366004614918565b61363f565b6001600160e01b0319811660009081526033602052604090205460ff165b919050565b606a8054604080516020601f6002600019610100600188161502019095169490940493840181900481028201810190925282815260609390929091830182828015610cb75780601f10610c8c57610100808354040283529160200191610cb7565b820191906000526020600020905b815481529060010190602001808311610c9a57829003601f168201915b505050505090505b90565b609d546001600160a01b03163314610cf55760405162461bcd60e51b8152600401610cec90615738565b60405180910390fd5b60005b81811015610d4f57600160b16000868685818110610d1257fe5b9050602002016020810190610d279190614918565b6001600160a01b03168152602081019190915260400160002080549091019055600101610cf8565b50505050565b6000610d60826136b1565b610d7c5760405162461bcd60e51b8152600401610cec906156a0565b506000908152606860205260409020546001600160a01b031690565b6000610da38261187c565b9050806001600160a01b0316836001600160a01b03161415610dd75760405162461bcd60e51b8152600401610cec90615894565b806001600160a01b0316610de96136c4565b6001600160a01b03161480610e055750610e0581610ba36136c4565b610e215760405162461bcd60e51b8152600401610cec90615484565b610e2b83836136c8565b505050565b60ad6020526000908152604090205481565b60ac6020528160005260406000208181548110610e5b57fe5b6000918252602090912060029091020180546001909101546001600160a01b039091169250905082565b6000610e916066613736565b905090565b609d546001600160a01b03163314610ec05760405162461bcd60e51b8152600401610cec90615738565b60005b81811015610d4f57600060b16000868685818110610edd57fe5b9050602002016020810190610ef29190614918565b6001600160a01b03168152602081019190915260400160002055600101610ec3565b609d54600160a81b900460ff1681565b609d546001600160a01b03163314610f4e5760405162461bcd60e51b8152600401610cec90615738565b609d8054911515600160b81b0260ff60b81b19909216919091179055565b609d546001600160a01b03163314610f965760405162461bcd60e51b8152600401610cec90615738565b60005b81811015610d4f57600060a36000868685818110610fb357fe5b9050602002016020810190610fc89190614918565b6001600160a01b03168152602081019190915260400160002055600101610f99565b60ab602052600090815260409020805460019091015482565b60a16020526000908152604090205460ff1681565b6110296110236136c4565b82613741565b6110455760405162461bcd60e51b8152600401610cec9061590c565b610e2b8383836137c6565b609d546001600160a01b0316331461107a5760405162461bcd60e51b8152600401610cec90615738565b60005b81811015610d4f57600160a2600086868581811061109757fe5b90506020020160208101906110ac9190614918565b6001600160a01b0316815260208101919091526040016000208054909101905560010161107d565b6001600160a01b03821660009081526065602052604081206110fc908363ffffffff6138e616565b90505b92915050565b609d546001600160a01b0316331461112f5760405162461bcd60e51b8152600401610cec90615738565b609d546040516000916001600160a01b031690479061114d90610cbf565b60006040518083038185875af1925050503d806000811461118a576040519150601f19603f3d011682016040523d82523d6000602084013e61118f565b606091505b50509050806111b05760405162461bcd60e51b8152600401610cec906159c4565b50565b610e2b8383836040518060200160405280600081525061241d565b609d54600160b81b900460ff1681565b6040516331a9108f60e11b815260009030908190636352211e90611206908690600401615a65565b60206040518083038186803b15801561121e57600080fd5b505afa92505050801561124e575060408051601f3d908101601f1916820190925261124b91810190614934565b60015b611325576040516000815260443d101561126a57506000611305565b60046000803e60005160e01c6308c379a0811461128b576000915050611305565b60043d036004833e81513d60248201116001600160401b03821117156112b657600092505050611305565b80830180516001600160401b038111156112d7576000945050505050611305565b8060208301013d86018111156112f557600095505050505050611305565b601f01601f191660405250925050505b80611310575061131b565b600092505050610c26565b3d6000803e3d6000fd5b9150610c269050565b609d546001600160a01b031633146113585760405162461bcd60e51b8152600401610cec90615738565b609d8054911515600160a81b0260ff60a81b19909216919091179055565b60008061138a60668463ffffffff6138f216565b509392505050565b609d546001600160a01b031633146113bc5760405162461bcd60e51b8152600401610cec90615738565b6113fb82828080601f01602080910402602001604051908101604052809392919081815260200183838082843760009201919091525061391092505050565b5050565b60a554600160a01b900460ff16156114295760405162461bcd60e51b8152600401610cec906159ec565b600081815260b06020526040902054831180156114565750600081815260b0602052604090206001015482115b80156114735750600081815260b060205260409020600201548311155b80156114905750600081815260b060205260409020600301548211155b6114ac5760405162461bcd60e51b8152600401610cec90615a23565b600081815260ae60205260408120546001600160a01b031690600483108015906114d7575060068311155b156114f2575033600090815260b16020526040902054611676565b6001600160a01b0382167372541ad75e05bc77c7a92304225937a8f665337214156115ce5760038311611535575033600090815260a360205260409020546115c9565b6040516370a0823160e01b815282906001600160a01b038216906370a0823190611563903390600401614fbe565b60206040518083038186803b15801561157b57600080fd5b505afa15801561158f573d6000803e3d6000fd5b505050506040513d601f19601f820116820180604052508101906115b39190614e66565b33600090815260a3602052604090205490039150505b611676565b34666a94d74f430000146115f45760405162461bcd60e51b8152600401610cec90615338565b6040516370a0823160e01b815282906001600160a01b038216906370a0823190611622903390600401614fbe565b60206040518083038186803b15801561163a57600080fd5b505afa15801561164e573d6000803e3d6000fd5b505050506040513d601f19601f820116820180604052508101906116729190614e66565b9150505b600081116116965760405162461bcd60e51b8152600401610cec906150db565b33600090815260a96020908152604080832086845290915290205481116116cf5760405162461bcd60e51b8152600401610cec906158d5565b60006116db8686612253565b90506116eb338261271001613923565b61170161271082016116fc8161393d565b613a14565b83158061170e5750836001145b806117195750836002145b806117245750836003145b156117655760005b600481101561175f5733600090815260a9602090815260408083208484529091529020805460019081019091550161172c565b50611827565b6001600160a01b038316600090815260af60209081526040918290208054835181840281018401909452808452606093928301828280156117c557602002820191906000526020600020905b8154815260200190600101908083116117b1575b50939450600093505050505b81518110156118245733600090815260a96020526040812083519091908490849081106117fa57fe5b602090810291909101810151825281019190915260400160002080546001908101909155016117d1565b50505b505050505050565b609d54600160b01b900460ff1681565b609d546001600160a01b031633146118695760405162461bcd60e51b8152600401610cec90615738565b60a7805460ff1916911515919091179055565b60006110ff82604051806060016040528060298152602001615b4f602991396066919063ffffffff613a5816565b606d8054604080516020601f6002600019610100600188161502019095169490940493840181900481028201810190925282815260609390929091830182828015610cb75780601f10610c8c57610100808354040283529160200191610cb7565b60006001600160a01b0382166119335760405162461bcd60e51b8152600401610cec906154e1565b6001600160a01b03821660009081526065602052604090206110ff90613736565b60ae602052600090815260409020546001600160a01b031681565b60a554600160b01b900460ff1681565b609d546001600160a01b031633146119a95760405162461bcd60e51b8152600401610cec90615738565b60005b818110156118275760af600060ae60008989868181106119c857fe5b602090810292909201358352508181019290925260409081016000908120546001600160a01b031684529183019390935291018120611a06916146e0565b838382818110611a1257fe5b9050602002016020810190611a279190614918565b60ae6000888885818110611a3757fe5b90506020020135815260200190815260200160002060006101000a8154816001600160a01b0302191690836001600160a01b0316021790555060af6000858584818110611a8057fe5b9050602002016020810190611a959190614918565b6001600160a01b03166001600160a01b03168152602001908152602001600020868683818110611ac157fe5b835460018082018655600095865260209586902092909502939093013592019190915550016119ac565b600054610100900460ff1680611b045750611b04613a6f565b80611b12575060005460ff16155b611b2e5760405162461bcd60e51b8152600401610cec9061552b565b600054610100900460ff16158015611b59576000805460ff1961ff0019909116610100171660011790555b611ba560405180604001604052806009815260200168135e5411941b185b9960ba1b81525060405180604001604052806009815260200168135e5411941b185b9960ba1b815250613a80565b609d80546001600160a01b031990811633179091556000609a5561012c609b55610190609c5560a580549091167372541ad75e05bc77c7a92304225937a8f665337217905580156111b0576000805461ff001916905550565b60a75460009060ff1680611c555750600782108015611c5557506001600160a01b038316600090815260a36020526040902054151580611c5557506001600160a01b038316600090815260b1602052604090205415155b15611d3d57600080805b60a854811015611d3257600081815260ae60205260409020546001600160a01b03908116908316811415611c935750611d2a565b8092506007821015611ca55750611d2a565b6040516370a0823160e01b815281906001600160a01b038216906370a0823190611cd3908b90600401614fbe565b60206040518083038186803b158015611ceb57600080fd5b505afa158015611cff573d6000803e3d6000fd5b505050506040513d601f19601f82011682018060405250810190611d239190614e66565b8501945050505b600101611c5f565b5081925050506110ff565b600082815260ae6020526040908190205490516370a0823160e01b81526001600160a01b0390911690819081906370a0823190611d7e908890600401614fbe565b60206040518083038186803b158015611d9657600080fd5b505afa158015611daa573d6000803e3d6000fd5b505050506040513d601f19601f82011682018060405250810190611dce9190614e66565b925050506110ff565b609d546001600160a01b03163314611e015760405162461bcd60e51b8152600401610cec90615738565b611e096146fe565b60005b82811015611fb1578c8c82818110611e2057fe5b845160209091029290920135909152508a8a82818110611e3c57fe5b9050602002013582600001516020018181525050888882818110611e5c57fe5b6020858101519102929092013590915250868682818110611e7957fe5b6020858101805192820294909401359181019190915260a854600090815260b08252604090208551805182558201516001820155925180516002850155015160039092019190915550848482818110611ece57fe5b9050602002016020810190611ee39190614918565b60a88054600090815260ae6020526040902080546001600160a01b0319166001600160a01b0393909316929092179091555415801590611f26575060a854600114155b8015611f35575060a854600214155b8015611f44575060a854600314155b15611f9f5760af6000868684818110611f5957fe5b9050602002016020810190611f6e9190614918565b6001600160a01b03168152602080820192909252604001600090812060a85481546001810183559183529290912001555b60a88054600190810190915501611e0c565b50505050505050505050505050565b60a75460ff1681565b609d546001600160a01b03163314611ff35760405162461bcd60e51b8152600401610cec90615738565b60005b81811015610d4f57600060a2600086868581811061201057fe5b90506020020160208101906120259190614918565b6001600160a01b03168152602081019190915260400160002055600101611ff6565b609d546001600160a01b031633146120715760405162461bcd60e51b8152600401610cec90615738565b610e2b60a68383614723565b606b8054604080516020601f6002600019610100600188161502019095169490940493840181900481028201810190925282815260609390929091830182828015610cb75780601f10610c8c57610100808354040283529160200191610cb7565b609d546001600160a01b031633146121085760405162461bcd60e51b8152600401610cec90615738565b609d8054911515600160b01b0260ff60b01b19909216919091179055565b805151825160009110801561214657508160000151602001518360200151115b80156121585750602082015151835111155b80156121705750816020015160200151836020015111155b1561217d575060016110ff565b5060006110ff565b61218d6136c4565b6001600160a01b0316826001600160a01b031614156121be5760405162461bcd60e51b8152600401610cec906153a4565b80606960006121cb6136c4565b6001600160a01b03908116825260208083019390935260409182016000908120918716808252919093529120805460ff19169215159290921790915561220f6136c4565b6001600160a01b03167f17307eab39ab6107e8899845ad3d59bd9653f200f220920489ca2b5937696c31836040516122479190615044565b60405180910390a35050565b6000198201606402810192915050565b600082815260ae60205260409020546060906001600160a01b0316600784101561229d5750506040805160208101909152600081526110ff565b60405163c87b56dd60e01b815281906001600160a01b0382169063c87b56dd906122cb908790600401615a65565b60006040518083038186803b1580156122e357600080fd5b505afa92505050801561231857506040513d6000823e601f3d908101601f191682016040526123159190810190614d72565b60015b6123f4576040516000815260443d1015612334575060006123cf565b60046000803e60005160e01c6308c379a081146123555760009150506123cf565b60043d036004833e81513d60248201116001600160401b0382111715612380576000925050506123cf565b80830180516001600160401b038111156123a15760009450505050506123cf565b8060208301013d86018111156123bf576000955050505050506123cf565b601f01601f191660405250925050505b806123da575061131b565b6040518060200160405280600081525093505050506110ff565b92506110ff915050565b609d546001600160a01b031681565b60a554600160a81b900460ff1681565b61242e6124286136c4565b83613741565b61244a5760405162461bcd60e51b8152600401610cec9061590c565b610d4f84848484613b1e565b609d546001600160a01b031633146124805760405162461bcd60e51b8152600401610cec90615738565b60a58054911515600160a81b0260ff60a81b19909216919091179055565b60a6805460408051602060026001851615610100026000190190941693909304601f810184900484028201840190925281815292918301828280156125245780601f106124f957610100808354040283529160200191612524565b820191906000526020600020905b81548152906001019060200180831161250757829003601f168201915b505050505081565b60af602052816000526040600020818154811061254557fe5b90600052602060002001600091509150505481565b609d546001600160a01b031633146125845760405162461bcd60e51b8152600401610cec90615738565b60005b81811015610d4f57600160a360008686858181106125a157fe5b90506020020160208101906125b69190614918565b6001600160a01b03168152602081019190915260400160002080549091019055600101612587565b60018210156125ff5760405162461bcd60e51b8152600401610cec906153db565b60038211156126205760405162461bcd60e51b8152600401610cec906153db565b816001141561265357609d54600160a81b900460ff16156126535760405162461bcd60e51b8152600401610cec90615994565b816002141561268657609d54600160b01b900460ff16156126865760405162461bcd60e51b8152600401610cec90615669565b81600314156126b957609d54600160b81b900460ff16156126b95760405162461bcd60e51b8152600401610cec9061511f565b60006126c53384613b51565b905082600114156126e65733600090815260a2602052604090205401612701565b82600214156127015733600090815260a36020526040902054015b6000600184141561274257336000908152609e6020526040902054830182101561273d5760405162461bcd60e51b8152600401610cec90615579565b6127a5565b836002141561277c57336000908152609f6020526040902054830182101561273d5760405162461bcd60e51b8152600401610cec906150a4565b83600314156127a557828210156127a55760405162461bcd60e51b8152600401610cec906152ca565b60005b838160ff16101561283e5784600114156127db576127c66097613d8e565b609a546127d36097613d97565b01915061281f565b84600214156127fb576127ee6098613d8e565b609b546127d36098613d97565b846003141561281f5761280e6099613d8e565b609c5461281b6099613d97565b0191505b6128293383613923565b612836826116fc8461393d565b6001016127a8565b50836001141561286257336000908152609e60205260409020805484019055612881565b836002141561288157336000908152609f602052604090208054840190555b6000821180156128915750836003145b15610d4f5760005b60a5546040516370a0823160e01b81526001600160a01b03909116906370a08231906128c9903390600401614fbe565b60206040518083038186803b1580156128e157600080fd5b505afa1580156128f5573d6000803e3d6000fd5b505050506040513d601f19601f820116820180604052508101906129199190614e66565b8160ff1610156129d45760a554604051632f745c5960e01b81526000916001600160a01b031690632f745c5990612956903390869060040161500f565b60206040518083038186803b15801561296e57600080fd5b505afa158015612982573d6000803e3d6000fd5b505050506040513d601f19601f820116820180604052508101906129a69190614e66565b90506105cc81116129cb57600081815260a160205260409020805460ff191660011790555b50600101612899565b5050505050565b60a7546000908190819060ff1680612a365750600784108015612a3657506001600160a01b038616600090815260a36020526040902054151580612a3657506001600160a01b038616600090815260b1602052604090205415155b15612c4057600080805b60a854811015612c3857600081815260ae60205260409020546001600160a01b03908116908316811415612a745750612c30565b8092506007821015612a865750612c30565b6040516370a0823160e01b815281906001600160a01b038216906370a0823190612ab4908e90600401614fbe565b60206040518083038186803b158015612acc57600080fd5b505afa158015612ae0573d6000803e3d6000fd5b505050506040513d601f19601f82011682018060405250810190612b049190614e66565b8501945089600186031015612b1a575050612c30565b6040516370a0823160e01b81526000906001600160a01b038316906370a0823190612b49908f90600401614fbe565b60206040518083038186803b158015612b6157600080fd5b505afa158015612b75573d6000803e3d6000fd5b505050506040513d601f19601f82011682018060405250810190612b999190614e66565b604051632f745c5960e01b81529087038c0391506001600160a01b03831690632f745c5990612bce908f90859060040161502b565b60206040518083038186803b158015612be657600080fd5b505afa158015612bfa573d6000803e3d6000fd5b505050506040513d601f19601f82011682018060405250810190612c1e9190614e66565b939850929650612ce395505050505050565b600101612a40565b505050612ce1565b600084815260ae602052604090819020549051632f745c5960e01b81526001600160a01b039091169081908190632f745c5990612c83908b908b9060040161502b565b60206040518083038186803b158015612c9b57600080fd5b505afa158015612caf573d6000803e3d6000fd5b505050506040513d601f19601f82011682018060405250810190612cd39190614e66565b8695509350612ce392505050565b505b935093915050565b6060612cf6826136b1565b612d125760405162461bcd60e51b8152600401610cec906157b6565b6000828152606c602090815260409182902080548351601f6002600019610100600186161502019093169290920491820184900484028101840190945280845260609392830182828015612da75780601f10612d7c57610100808354040283529160200191612da7565b820191906000526020600020905b815481529060010190602001808311612d8a57829003601f168201915b505050505090506060612db86118aa565b9050805160001415612dcc57509050610c26565b815115612dfe578082604051602001612de6929190614f90565b60405160208183030381529060405292505050610c26565b80612e0885613d9b565b604051602001612e19929190614f90565b60405160208183030381529060405292505050919050565b6000806001831080612e435750600383115b15612e4f5790506110ff565b6000612e5b8585613b51565b90508360011415612e97576001600160a01b038516600090815260a26020908152604080832054609e909252909120549101908103915061138a565b8360021415612ed1576001600160a01b038516600090815260a36020908152604080832054609f909252909120549101908103915061138a565b836003141561138a57949350505050565b609d546001600160a01b03163314612f0c5760405162461bcd60e51b8152600401610cec90615738565b60a58054911515600160a01b0260ff60a01b19909216919091179055565b60b0602090815260009182526040918290208251808401845281548152600182015481840152835180850190945260028201548452600390910154918301919091529082565b60a554600160a81b900460ff1615612f9a5760405162461bcd60e51b8152600401610cec90615301565b6000612fa68585612253565b905033612fb6612710830161187c565b6001600160a01b031614612fdc5760405162461bcd60e51b8152600401610cec906155b0565b60a75460ff16158015612ffc575033600090815260a36020526040902054155b8015613015575033600090815260b16020526040902054155b1561309d57600083815260b06020526040902054851180156130475750600083815260b0602052604090206001015484115b80156130645750600083815260b060205260409020600201548511155b80156130815750600083815260b060205260409020600301548411155b61309d5760405162461bcd60e51b8152600401610cec90615a23565b600083815260ae60205260409020546001600160a01b031660078410156130d65760405162461bcd60e51b8152600401610cec9061584a565b6040516331a9108f60e11b8152819033906001600160a01b03831690636352211e90613106908890600401615a65565b60206040518083038186803b15801561311e57600080fd5b505afa158015613132573d6000803e3d6000fd5b505050506040513d601f19601f820116820180604052508101906131569190614934565b6001600160a01b03161461317c5760405162461bcd60e51b8152600401610cec90615805565b6001600160a01b038216600090815260aa6020908152604080832087845290915290205460ff16156131c05760405162461bcd60e51b8152600401610cec9061525c565b6127108301600090815260ab60209081526040808320805480855260ae8452828520546001600160a01b03908116865260aa80865284872060019485015488528652848720805460ff19908116909155918916875285528386208a875290945291909320805490921690921790556132366147a1565b86815260208082018781526127108701600090815260ab8352604080822085518155925160019093019290925560ad835281812081905560ac909252812061327d916147bb565b505050505050505050565b609d546001600160a01b031633146132b25760405162461bcd60e51b8152600401610cec90615738565b60a58054911515600160b01b0260ff60b01b19909216919091179055565b60a554600160a01b900460ff1681565b609d54600160a01b900460ff1681565b6000806132fb6146fe565b6133036147a1565b8581526020810185905260005b60a85481101561338c57600081815260b0602090815260409182902082516080810184528154818501908152600183015460608301528152835180850190945260028201548452600390910154838301529081019190915292506133748284612126565b156133845793506110ff92505050565b600101613310565b50620186a09695505050505050565b60a68054604080516020601f6002600019610100600188161502019095169490940493840181900481028201810190925282815260609390929091830182828015610cb75780601f10610c8c57610100808354040283529160200191610cb7565b6001600160a01b03918216600090815260696020908152604080832093909416825291909152205460ff1690565b60a554600160b01b900460ff16156134545760405162461bcd60e51b8152600401610cec9061544d565b60006134608585612253565b905033613470612710830161187c565b6001600160a01b0316146134965760405162461bcd60e51b8152600401610cec906155b0565b6127108101600090815260ab60205260409020541515806134cc57506127108101600090815260ab602052604090206001015415155b6134e85760405162461bcd60e51b8152600401610cec90615293565b6040516331a9108f60e11b8152839033906001600160a01b03831690636352211e90613518908790600401615a65565b60206040518083038186803b15801561353057600080fd5b505afa158015613544573d6000803e3d6000fd5b505050506040513d601f19601f820116820180604052508101906135689190614934565b6001600160a01b03161461358e5760405162461bcd60e51b8152600401610cec90615805565b6135966147dc565b6001600160a01b039485168152602080820194855261271093909301600081815260ac855260408082208054600180820183559184528784209551600290910290950180546001600160a01b03191695909916949094178855955196830196909655855260ad909252509120805490910190555050565b6000806064830460010191506064838161362357fe5b0661362f576001820391505b5091600019830160640290910390565b609d546001600160a01b031633146136695760405162461bcd60e51b8152600401610cec90615738565b6001600160a01b03811661368f5760405162461bcd60e51b8152600401610cec906151a8565b609d80546001600160a01b0319166001600160a01b0392909216919091179055565b60006110ff60668363ffffffff613e6c16565b3390565b600081815260686020526040902080546001600160a01b0319166001600160a01b03841690811790915581906136fd8261187c565b6001600160a01b03167f8c5be1e5ebec7d5bd14f71427d1e84f3dd0314c0f7b2291e5b200ac8c7c3b92560405160405180910390a45050565b60006110ff82613d97565b600061374c826136b1565b6137685760405162461bcd60e51b8152600401610cec90615401565b60006137738361187c565b9050806001600160a01b0316846001600160a01b031614806137ae5750836001600160a01b03166137a384610d55565b6001600160a01b0316145b806137be57506137be81856133fc565b949350505050565b826001600160a01b03166137d98261187c565b6001600160a01b0316146137ff5760405162461bcd60e51b8152600401610cec9061576d565b6001600160a01b0382166138255760405162461bcd60e51b8152600401610cec90615360565b613830838383613e78565b61383b6000826136c8565b6001600160a01b0383166000908152606560205260409020613863908263ffffffff613f1516565b506001600160a01b038216600090815260656020526040902061388c908263ffffffff613f2116565b5061389f6066828463ffffffff613f2d16565b5080826001600160a01b0316846001600160a01b03167fddf252ad1be2c89b69c2b068fc378daa952ba7f163c4a11628f55a4df523b3ef60405160405180910390a4505050565b60006110fc8383613f43565b60008080806139018686613f88565b909450925050505b9250929050565b80516113fb90606d9060208401906147f3565b6113fb828260405180602001604052806000815250613fe4565b60608161396257506040805180820190915260018152600360fc1b6020820152610c26565b8160005b811561397a57600101600a82049150613966565b6060816001600160401b038111801561399257600080fd5b506040519080825280601f01601f1916602001820160405280156139bd576020820181803683370190505b50905060001982015b8515613a0b57600a860660300160f81b828280600190039350815181106139e957fe5b60200101906001600160f81b031916908160001a905350600a860495506139c6565b50949350505050565b613a1d826136b1565b613a395760405162461bcd60e51b8152600401610cec906156ec565b6000828152606c602090815260409091208251610e2b928401906147f3565b6000613a65848484614017565b90505b9392505050565b6000613a7a30614076565b15905090565b600054610100900460ff1680613a995750613a99613a6f565b80613aa7575060005460ff16155b613ac35760405162461bcd60e51b8152600401610cec9061552b565b600054610100900460ff16158015613aee576000805460ff1961ff0019909116610100171660011790555b613af661407c565b613afe6140fe565b613b08838361417c565b8015610e2b576000805461ff0019169055505050565b613b298484846137c6565b613b3584848484614242565b610d4f5760405162461bcd60e51b8152600401610cec90615156565b60a5546040516370a0823160e01b815260009182916001600160a01b03909116906370a0823190613b86908790600401614fbe565b60206040518083038186803b158015613b9e57600080fd5b505afa158015613bb2573d6000803e3d6000fd5b505050506040513d601f19601f82011682018060405250810190613bd69190614e66565b613be15790506110ff565b6000808460011415613bfb57506112b69050611362613c24565b8460021415613c1257506113639050611388613c24565b8460031415613c245750600190506105cc5b60005b60a5546040516370a0823160e01b81526001600160a01b03909116906370a0823190613c57908a90600401614fbe565b60206040518083038186803b158015613c6f57600080fd5b505afa158015613c83573d6000803e3d6000fd5b505050506040513d601f19601f82011682018060405250810190613ca79190614e66565b811015613d835760a554604051632f745c5960e01b81526000916001600160a01b031690632f745c5990613ce1908b90869060040161502b565b60206040518083038186803b158015613cf957600080fd5b505afa158015613d0d573d6000803e3d6000fd5b505050506040513d601f19601f82011682018060405250810190613d319190614e66565b9050838110158015613d435750828111155b15613d7a578660031415613d7357600081815260a1602052604090205460ff16613d6e576001909401935b613d7a565b6001909401935b50600101613c27565b509195945050505050565b80546001019055565b5490565b606081613dc057506040805180820190915260018152600360fc1b6020820152610c26565b8160005b8115613dd857600101600a82049150613dc4565b6060816001600160401b0381118015613df057600080fd5b506040519080825280601f01601f191660200182016040528015613e1b576020820181803683370190505b50859350905060001982015b8315613a0b57600a840660300160f81b82828060019003935081518110613e4a57fe5b60200101906001600160f81b031916908160001a905350600a84049350613e27565b60006110fc8383614327565b612710811115613f0a57613e8a6147a1565b6000808252602080830182815284835260ab8083526040808520805480875260ae8652828720546001600160a01b0316875260aa86528287206001830180548952908752838820805460ff191690558988529386528751909155925190915560ad835280842084905560ac9092529082209091613f0791906147bb565b50505b610e2b838383610e2b565b60006110fc838361433f565b60006110fc8383614405565b6000613a6584846001600160a01b038516614447565b81546000908210613f665760405162461bcd60e51b8152600401610cec90615062565b826000018281548110613f7557fe5b9060005260206000200154905092915050565b815460009081908310613fad5760405162461bcd60e51b8152600401610cec906155f2565b6000846000018481548110613fbe57fe5b906000526020600020906002020190508060000154816001015492509250509250929050565b613fee83836144de565b613ffb6000848484614242565b610e2b5760405162461bcd60e51b8152600401610cec90615156565b600082815260018401602052604081205482816140475760405162461bcd60e51b8152600401610cec919061504f565b5084600001600182038154811061405a57fe5b9060005260206000209060020201600101549150509392505050565b3b151590565b600054610100900460ff16806140955750614095613a6f565b806140a3575060005460ff16155b6140bf5760405162461bcd60e51b8152600401610cec9061552b565b600054610100900460ff161580156140ea576000805460ff1961ff0019909116610100171660011790555b80156111b0576000805461ff001916905550565b600054610100900460ff16806141175750614117613a6f565b80614125575060005460ff16155b6141415760405162461bcd60e51b8152600401610cec9061552b565b600054610100900460ff1615801561416c576000805460ff1961ff0019909116610100171660011790555b6140ea6301ffc9a760e01b6145ae565b600054610100900460ff16806141955750614195613a6f565b806141a3575060005460ff16155b6141bf5760405162461bcd60e51b8152600401610cec9061552b565b600054610100900460ff161580156141ea576000805460ff1961ff0019909116610100171660011790555b82516141fd90606a9060208601906147f3565b50815161421190606b9060208501906147f3565b506142226380ac58cd60e01b6145ae565b614232635b5e139f60e01b6145ae565b613b0863780e9d6360e01b6145ae565b6000614256846001600160a01b0316614076565b614262575060016137be565b60606142f0630a85bd0160e11b6142776136c4565b88878760405160240161428d9493929190614fd2565b604051602081830303815290604052906001600160e01b0319166020820180516001600160e01b038381831617835250505050604051806060016040528060328152602001615b1d603291396001600160a01b038816919063ffffffff6145fd16565b90506000818060200190518101906143089190614ced565b6001600160e01b031916630a85bd0160e11b1492505050949350505050565b60009081526001919091016020526040902054151590565b600081815260018301602052604081205480156143fb578354600019808301919081019060009087908390811061437257fe5b906000526020600020015490508087600001848154811061438f57fe5b6000918252602080832090910192909255828152600189810190925260409020908401905586548790806143bf57fe5b600190038181906000526020600020016000905590558660010160008781526020019081526020016000206000905560019450505050506110ff565b60009150506110ff565b60006144118383614327565b61217d575081546001818101845560008481526020808220909301849055845484825282860190935260409020919091556110ff565b6000828152600184016020526040812054806144ac575050604080518082018252838152602080820184815286546001818101895560008981528481209551600290930290950191825591519082015586548684528188019092529290912055613a68565b828560000160018303815481106144bf57fe5b9060005260206000209060020201600101819055506000915050613a68565b6001600160a01b0382166145045760405162461bcd60e51b8152600401610cec90615634565b61450d816136b1565b1561452a5760405162461bcd60e51b8152600401610cec90615225565b61453660008383613e78565b6001600160a01b038216600090815260656020526040902061455e908263ffffffff613f2116565b506145716066828463ffffffff613f2d16565b5060405181906001600160a01b038416906000907fddf252ad1be2c89b69c2b068fc378daa952ba7f163c4a11628f55a4df523b3ef908290a45050565b6001600160e01b031980821614156145d85760405162461bcd60e51b8152600401610cec906151ee565b6001600160e01b0319166000908152603360205260409020805460ff19166001179055565b6060613a6584846000858561461185614076565b61462d5760405162461bcd60e51b8152600401610cec9061595d565b60006060866001600160a01b0316858760405161464a9190614f74565b60006040518083038185875af1925050503d8060008114614687576040519150601f19603f3d011682016040523d82523d6000602084013e61468c565b606091505b509150915061469c8282866146a7565b979650505050505050565b606083156146b6575081613a68565b8251156146c65782518084602001fd5b8160405162461bcd60e51b8152600401610cec919061504f565b50805460008255906000526020600020908101906111b09190614861565b60405180604001604052806147116147a1565b815260200161471e6147a1565b905290565b828054600181600116156101000203166002900490600052602060002090601f016020900481019282601f106147645782800160ff19823516178555614791565b82800160010185558215614791579182015b82811115614791578235825591602001919060010190614776565b5061479d929150614861565b5090565b604051806040016040528060008152602001600081525090565b50805460008255600202906000526020600020908101906111b0919061487b565b604080518082019091526000808252602082015290565b828054600181600116156101000203166002900490600052602060002090601f016020900481019282601f1061483457805160ff1916838001178555614791565b82800160010185558215614791579182015b82811115614791578251825591602001919060010190614846565b610cbf91905b8082111561479d5760008155600101614867565b610cbf91905b8082111561479d5780546001600160a01b031916815560006001820155600201614881565b60008083601f8401126148b7578182fd5b5081356001600160401b038111156148cd578182fd5b602083019150836020808302850101111561390957600080fd5b6000604082840312156148f8578081fd5b6149026040615a7c565b9050813581526020820135602082015292915050565b600060208284031215614929578081fd5b8135613a6881615af1565b600060208284031215614945578081fd5b8151613a6881615af1565b60008060408385031215614962578081fd5b823561496d81615af1565b9150602083013561497d81615af1565b809150509250929050565b60008060006060848603121561499c578081fd5b83356149a781615af1565b925060208401356149b781615af1565b929592945050506040919091013590565b600080600080608085870312156149dd578081fd5b84356149e881615af1565b935060208501356149f881615af1565b92506040850135915060608501356001600160401b03811115614a19578182fd5b80860187601f820112614a2a578283fd5b80359150614a3f614a3a83615aa2565b615a7c565b828152886020848401011115614a53578384fd5b8260208301602083013791820160200192909252939692955090935050565b60008060408385031215614a84578182fd5b8235614a8f81615af1565b91506020830135801515811461497d578182fd5b60008060408385031215614ab5578182fd5b8235614ac081615af1565b946020939093013593505050565b600080600060608486031215614ae2578283fd5b8335614aed81615af1565b95602085013595506040909401359392505050565b600080600060408486031215614b16578283fd5b83356001600160401b03811115614b2b578384fd5b614b37868287016148a6565b909790965060209590950135949350505050565b600080600080600060608688031215614b62578283fd5b85356001600160401b0380821115614b78578485fd5b614b8489838a016148a6565b90975095506020880135915080821115614b9c578485fd5b50614ba9888289016148a6565b96999598509660400135949350505050565b600080600080600080600080600080600060c08c8e031215614bdb578889fd5b6001600160401b03808d351115614bf057898afd5b614bfd8e8e358f016148a6565b909c509a5060208d0135811015614c1257898afd5b614c228e60208f01358f016148a6565b909a50985060408d0135811015614c37578687fd5b614c478e60408f01358f016148a6565b909850965060608d0135811015614c5c578586fd5b614c6c8e60608f01358f016148a6565b909650945060808d0135811015614c81578384fd5b50614c928d60808e01358e016148a6565b819450809350505060a08c013590509295989b509295989b9093969950565b600060208284031215614cc2578081fd5b81358015158114613a68578182fd5b600060208284031215614ce2578081fd5b8135613a6881615b06565b600060208284031215614cfe578081fd5b8151613a6881615b06565b60008060208385031215614d1b578182fd5b82356001600160401b0380821115614d31578384fd5b81850186601f820112614d42578485fd5b8035925081831115614d52578485fd5b866020848301011115614d63578485fd5b60200196919550909350505050565b600060208284031215614d83578081fd5b81516001600160401b03811115614d98578182fd5b80830184601f820112614da9578283fd5b80519150614db9614a3a83615aa2565b828152856020848401011115614dcd578384fd5b614dde836020830160208501615ac5565b95945050505050565b60008082840360c0811215614dfa578283fd5b614e0485856148e7565b92506080603f1982011215614e17578182fd5b50614e226040615a7c565b614e2f85604086016148e7565b8152614e3e85608086016148e7565b6020820152809150509250929050565b600060208284031215614e5f578081fd5b5035919050565b600060208284031215614e77578081fd5b5051919050565b60008060408385031215614e90578182fd5b50508035926020909101359150565b60008060008060808587031215614eb4578182fd5b84359350602085013592506040850135614ecd81615af1565b9396929550929360600135925050565b600080600060608486031215614ef1578081fd5b505081359360208301359350604090920135919050565b60008060008060808587031215614f1d578182fd5b5050823594602084013594506040840135936060013592509050565b60008151808452614f51816020860160208601615ac5565b601f01601f19169290920160200192915050565b80518252602090810151910152565b60008251614f86818460208701615ac5565b9190910192915050565b60008351614fa2818460208801615ac5565b8351908301614fb5828260208801615ac5565b01949350505050565b6001600160a01b0391909116815260200190565b6001600160a01b038581168252841660208201526040810183905260806060820181905260009061500590830184614f39565b9695505050505050565b6001600160a01b0392909216825260ff16602082015260400190565b6001600160a01b03929092168252602082015260400190565b901515815260200190565b6000602082526110fc6020830184614f39565b60208082526022908201527f456e756d657261626c655365743a20696e646578206f7574206f6620626f756e604082015261647360f01b606082015260800190565b6020808252601d908201527f616c726561647920636c61696d656420616c6c207061696e74696e6773000000604082015260600190565b60208082526024908201527f446f6e2774206f776e20616e79204e465420696e207468697320636f6c6c65636040820152633a34b7b760e11b606082015260800190565b6020808252601c908201527f73746174746575746520636c61696d696e672069732070617573656400000000604082015260600190565b60208082526032908201527f4552433732313a207472616e7366657220746f206e6f6e20455243373231526560408201527131b2b4bb32b91034b6b83632b6b2b73a32b960711b606082015260800190565b60208082526026908201527f4f776e61626c653a206e6577206f776e657220697320746865207a65726f206160408201526564647265737360d01b606082015260800190565b6020808252601c908201527f4552433136353a20696e76616c696420696e7465726661636520696400000000604082015260600190565b6020808252601c908201527f4552433732313a20746f6b656e20616c7265616479206d696e74656400000000604082015260600190565b6020808252601e908201527f5468697320726f79616c204e465420697320616c726561647920757365640000604082015260600190565b6020808252601b908201527f4e65656420746f2073657420726f79616c204e46542066697273740000000000604082015260600190565b6020808252601e908201527f616c726561647920636c61696d656420616c6c20737461747465757465730000604082015260600190565b60208082526018908201527f726f79616c20636c61696d696e67206973207061757365640000000000000000604082015260600190565b6020808252600e908201526d1a5b9d985b1a5908185b5bdd5b9d60921b604082015260600190565b60208082526024908201527f4552433732313a207472616e7366657220746f20746865207a65726f206164646040820152637265737360e01b606082015260800190565b60208082526019908201527f4552433732313a20617070726f766520746f2063616c6c657200000000000000604082015260600190565b6020808252600c908201526b6f7574206f662072616e676560a01b604082015260600190565b6020808252602c908201527f4552433732313a206f70657261746f7220717565727920666f72206e6f6e657860408201526b34b9ba32b73a103a37b5b2b760a11b606082015260800190565b6020808252601d908201527f6465726976617469766520636c61696d696e6720697320706175736564000000604082015260600190565b60208082526038908201527f4552433732313a20617070726f76652063616c6c6572206973206e6f74206f7760408201527f6e6572206e6f7220617070726f76656420666f7220616c6c0000000000000000606082015260800190565b6020808252602a908201527f4552433732313a2062616c616e636520717565727920666f7220746865207a65604082015269726f206164647265737360b01b606082015260800190565b6020808252602e908201527f496e697469616c697a61626c653a20636f6e747261637420697320616c72656160408201526d191e481a5b9a5d1a585b1a5e995960921b606082015260800190565b60208082526018908201527f616c726561647920636c61696d656420616c6c20746f79730000000000000000604082015260600190565b60208082526022908201527f596f7520617265206e6f7420746865206f776e6572206f662074686973206c616040820152611b9960f21b606082015260800190565b60208082526022908201527f456e756d657261626c654d61703a20696e646578206f7574206f6620626f756e604082015261647360f01b606082015260800190565b6020808252818101527f4552433732313a206d696e7420746f20746865207a65726f2061646472657373604082015260600190565b6020808252601b908201527f7061696e74696e6720636c61696d696e67206973207061757365640000000000604082015260600190565b6020808252602c908201527f4552433732313a20617070726f76656420717565727920666f72206e6f6e657860408201526b34b9ba32b73a103a37b5b2b760a11b606082015260800190565b6020808252602c908201527f4552433732314d657461646174613a2055524920736574206f66206e6f6e657860408201526b34b9ba32b73a103a37b5b2b760a11b606082015260800190565b6020808252818101527f4f776e61626c653a2063616c6c6572206973206e6f7420746865206f776e6572604082015260600190565b60208082526029908201527f4552433732313a207472616e73666572206f6620746f6b656e2074686174206960408201526839903737ba1037bbb760b91b606082015260800190565b6020808252602f908201527f4552433732314d657461646174613a2055524920717565727920666f72206e6f60408201526e3732bc34b9ba32b73a103a37b5b2b760891b606082015260800190565b60208082526025908201527f596f7520617265206e6f7420746865206f776e6572206f66207468697320746f6040820152641ad95b925160da1b606082015260800190565b6020808252602a908201527f496e76616c696420636f6c6c656374696f6e2069642c20686f6e6f72617279206040820152696f72206d6574616b657960b01b606082015260800190565b60208082526021908201527f4552433732313a20617070726f76616c20746f2063757272656e74206f776e656040820152603960f91b606082015260800190565b60208082526019908201527f416c726561647920636c61696d656420616c6c206c616e647300000000000000604082015260600190565b60208082526031908201527f4552433732313a207472616e736665722063616c6c6572206973206e6f74206f6040820152701ddb995c881b9bdc88185c1c1c9bdd9959607a1b606082015260800190565b6020808252601d908201527f416464726573733a2063616c6c20746f206e6f6e2d636f6e7472616374000000604082015260600190565b6020808252601690820152751d1bde4818db185a5b5a5b99c81a5cc81c185d5cd95960521b604082015260600190565b6020808252600e908201526d11985a5b1959081d1bc81cd95b9960921b604082015260600190565b60208082526017908201527f6c616e6420636c61696d696e6720697320706175736564000000000000000000604082015260600190565b6020808252600d908201526c1b9bdd0818dbdb9d185a5b9959609a1b604082015260600190565b60808101615a588285614f65565b613a686040830184614f65565b90815260200190565b918252602082015260400190565b6040518181016001600160401b0381118282101715615a9a57600080fd5b604052919050565b60006001600160401b03821115615ab7578081fd5b50601f01601f191660200190565b60005b83811015615ae0578181015183820152602001615ac8565b83811115610d4f5750506000910152565b6001600160a01b03811681146111b057600080fd5b6001600160e01b0319811681146111b057600080fdfe4552433732313a207472616e7366657220746f206e6f6e20455243373231526563656976657220696d706c656d656e7465724552433732313a206f776e657220717565727920666f72206e6f6e6578697374656e7420746f6b656ea26469706673582212202852ce51a7adde673029dbb4ff51b7054313944c7b178e7ab19bc8e440f0b07164736f6c63430006050033",
  "immutableReferences": {},
  "source": "// SPDX-License-Identifier: MIT\npragma solidity ^0.6.5;\npragma experimental ABIEncoderV2;\n\nimport \"@openzeppelin/contracts-upgradeable/token/ERC721/ERC721Upgradeable.sol\";\nimport \"@openzeppelin/contracts-upgradeable/utils/CountersUpgradeable.sol\";\nimport \"@openzeppelin/contracts/token/ERC721/ERC721.sol\";\n\ncontract MyPFPlandv3 is ERC721Upgradeable {\n    using CountersUpgradeable for CountersUpgradeable.Counter;\n\n    CountersUpgradeable.Counter internal toyTokenIDs;\n    CountersUpgradeable.Counter internal paintingTokenIDs;\n    CountersUpgradeable.Counter internal statuetteTokenIDs;\n\n    uint256 internal toyTokenIDBase;\n    uint256 internal paintingTokenIDBase;\n    uint256 internal statuetteTokenIDBase;\n\n    address public _owner;\n    bool public isOpenPayment;\n\n    bool public isPausedClaimingToy;\n    bool public isPausedClaimingPainting;\n    bool public isPausedClaimingStatteute;\n\n    mapping(address => uint256) internal addressToClaimedToy;\n    mapping(address => uint256) internal addressToClaimedPainting;\n    mapping(address => uint256) internal addressToClaimedStateutte;\n\n    mapping(uint256 => bool) public oldTokenIDUsed;\n\n    mapping(address => uint256) internal addressToMigratedCameo;\n    mapping(address => uint256) internal addressToMigratedHonorary;\n    \n    mapping(address => uint256) internal addressToRoyalty;\n    ERC721 blootNFT;\n\n    struct Point {\n        uint256 x;\n        uint256 y;\n    }\n\n    struct Rectangle {\n        Point leftBottom;\n        Point rightTop;\n    }\n\n    struct LandMetadata {\n        uint256 collectionID;\n        uint256 tokenID;\n    }\n\n    struct LandDerivateMetadata {\n        address collectionAddress;\n        uint256 tokenID;\n    }\n\n    bool public isPausedClaimingLand;\n    bool public isPausedClaimingRoyal;\n    bool public isPausedClaimingDerivative;\n    string public _contractURI;\n    bool public allowMetadataForAllReserved;\n    uint256 constant landWidth = 100;\n    uint256 constant landHeight = 100;\n    uint256 totalCollection;\n    uint256 constant landTokenBase = 10000;\n    address constant blootAddress = 0x72541Ad75E05BC77C7A92304225937a8F6653372;\n    address constant metaKeyAddress = 0x10DaA9f4c0F985430fdE4959adB2c791ef2CCF83;\n    mapping(address => mapping(uint256 => uint256)) claimedLandOf;\n    mapping(address => mapping(uint256 => bool)) usedRoyalToken;\n    mapping(uint256 => LandMetadata) public landRoyalMetadataOf;\n    mapping(uint256 => LandDerivateMetadata[]) public landDerivativeMetadataOf;\n    mapping(uint256 => uint256) public landDerivativeBalance;\n    mapping(uint256 => address) public collectionAddressByIndex;\n    mapping(address => uint256[]) public collectionIndicesByAddress;\n    mapping(uint256 => Rectangle) public collectionRectByIndex;\n    \n    mapping(address => uint256) mekakeyWallets;\n\n    modifier onlyOwner() {\n        require(_owner == msg.sender, \"Ownable: caller is not the owner\" );\n        _;\n    }\n\n    function initialize() initializer external {\n        __ERC721_init(\"MyPFPland\", \"MyPFPland\");\n        _owner = msg.sender;\n\n        toyTokenIDBase = 0;\n        paintingTokenIDBase = 300;\n        statuetteTokenIDBase = 400;\n        blootNFT = ERC721(0x72541Ad75E05BC77C7A92304225937a8F6653372);\n    }\n\n    function claim(uint256 _category, uint256 _count) external payable {\n        require(_category >= 1, \"out of range\");\n        require(_category <= 3, \"out of range\");\n        if (_category == 1)\n            require(isPausedClaimingToy == false, \"toy claiming is paused\");\n        if (_category == 2)\n            require(isPausedClaimingPainting == false, \"painting claiming is paused\");\n        if (_category == 3)\n            require(isPausedClaimingStatteute == false, \"statteute claiming is paused\");\n        \n        uint256 totalDerivative = getTotalDerivative(msg.sender, _category);\n        if (_category == 1)\n            totalDerivative += addressToMigratedCameo[msg.sender];\n        else if (_category == 2)\n            totalDerivative += addressToMigratedHonorary[msg.sender];\n\n        uint256 tokenID = 0;\n        if (_category == 1)\n            require(totalDerivative >= addressToClaimedToy[msg.sender] + _count, \"already claimed all toys\");\n        else if (_category == 2)\n            require(totalDerivative >= addressToClaimedPainting[msg.sender] + _count, \"already claimed all paintings\");\n        else if (_category == 3)\n            require(totalDerivative >= _count, \"already claimed all statteutes\");\n    \n        for (uint8 i = 0; i < _count; i++) {\n            if (_category == 1) {\n                toyTokenIDs.increment();\n                tokenID = toyTokenIDs.current() + toyTokenIDBase;\n            } else if (_category == 2) {\n                paintingTokenIDs.increment();\n                tokenID = paintingTokenIDs.current() + paintingTokenIDBase;\n            } else if (_category == 3) {\n                statuetteTokenIDs.increment();\n                tokenID = statuetteTokenIDs.current() + statuetteTokenIDBase;\n            }\n            _safeMint(msg.sender, tokenID);\n            _setTokenURI(tokenID, uint2str(tokenID));\n        }\n\n        if (_category == 1)\n            addressToClaimedToy[msg.sender] += _count;\n        else if (_category == 2)\n            addressToClaimedPainting[msg.sender] += _count;\n\n        // set oldTokenIDUsed true for those IDs already used\n        if (totalDerivative > 0 && _category == 3) {\n            for (uint8 i = 0; i < blootNFT.balanceOf(msg.sender); i++) {\n                uint256 tokenId = blootNFT.tokenOfOwnerByIndex(msg.sender, i);\n                if (tokenId <= 1484) {\n                    oldTokenIDUsed[tokenId] = true;\n                }\n            }\n        }\n    }\n\n    function getDerivativesToClaim(address _claimer, uint256 _category) external view returns(uint256) {\n        uint256 remain = 0;\n        if (_category < 1 || _category > 3)\n            return remain;\n        \n        uint256 totalDerivative = getTotalDerivative(_claimer, _category);\n        if (_category == 1) {\n            totalDerivative += addressToMigratedCameo[_claimer];\n            remain = totalDerivative - addressToClaimedToy[_claimer];\n        }\n        else if (_category == 2) {\n            totalDerivative += addressToMigratedHonorary[_claimer];\n            remain = totalDerivative - addressToClaimedPainting[_claimer];\n        }\n        else if (_category == 3) {\n            remain = totalDerivative;\n        }\n\n        return remain;\n    }\n\n    function getTotalDerivative(address _claimer, uint256 _category) internal view returns(uint256) {\n        uint256 result = 0;\n        if (blootNFT.balanceOf(_claimer) == 0)\n            return result;\n        uint256 tokenIdMin;\n        uint256 tokenIdMax;\n        if (_category == 1) {\n            tokenIdMin = 4790;\n            tokenIdMax = 4962;\n        } else if (_category == 2) {\n            tokenIdMin = 4963;\n            tokenIdMax = 5000;\n        } else if (_category == 3) {\n            tokenIdMin = 1;\n            tokenIdMax = 1484;\n        }\n\n        for (uint256 i = 0; i < blootNFT.balanceOf(_claimer); i++) {\n            uint256 tokenId = blootNFT.tokenOfOwnerByIndex(_claimer, i);\n            if (tokenId >= tokenIdMin && tokenId <= tokenIdMax) {\n                if (_category == 3) {\n                    if (!oldTokenIDUsed[tokenId])\n                        result++;\n                }\n                else\n                    result++;\n            }\n        }\n\n        return result;\n    }\n\n    function setPauseClaimingToy(bool _pauseClaimingToy) external onlyOwner {\n        isPausedClaimingToy = _pauseClaimingToy;\n    }\n\n    function setPauseClaimingPainting(bool _pauseClaimingPainting) external onlyOwner {\n        isPausedClaimingPainting = _pauseClaimingPainting;\n    }\n\n    function setPauseClaimingStatteute(bool _pauseClaimingStatteute) external onlyOwner {\n        isPausedClaimingStatteute = _pauseClaimingStatteute;\n    }\n\n    function setBatchCameoWhitelist(address[] calldata _whitelist, uint256 _count) external onlyOwner {\n        for (uint256 i = 0; i < _count; i++) {\n            addressToMigratedCameo[_whitelist[i]] += 1;\n        }\n    }\n\n    function setBatchHonoraryWhitelist(address[] calldata _whitelist, uint256 _count) external onlyOwner {\n        for (uint256 i = 0; i < _count; i++) {\n            addressToMigratedHonorary[_whitelist[i]] += 1;\n        }\n    }\n\n    function setBatchCameoBlacklist(address[] calldata _blacklist, uint256 _count) external onlyOwner {\n        for (uint256 i = 0; i < _count; i++) {\n            addressToMigratedCameo[_blacklist[i]] = 0;\n        }\n    }\n\n    function setBatchHonoraryBlacklist(address[] calldata _blacklist, uint256 _count) external onlyOwner {\n        for (uint256 i = 0; i < _count; i++) {\n            addressToMigratedHonorary[_blacklist[i]] = 0;\n        }\n    }\n\n    function setBatchMekakeyWhitelist(address[] calldata _whitelist, uint256 _count) external onlyOwner {\n        for (uint256 i = 0; i < _count; i++) {\n            mekakeyWallets[_whitelist[i]] += 1;\n        }\n    }\n\n    function setBatchMekakeyBlacklist(address[] calldata _blacklist, uint256 _count) external onlyOwner {\n        for (uint256 i = 0; i < _count; i++) {\n            mekakeyWallets[_blacklist[i]] = 0;\n        }\n    }\n\n    function setBaseURI(string calldata _baseURI) external onlyOwner {\n        super._setBaseURI(_baseURI);\n    }\n\n    function withdraw() external onlyOwner {\n        (bool success, ) = _owner.call{value: address(this).balance}(\"\");\n        require(success, \"Failed to send\");\n    }\n\n    function transferOwnership(address newOwner) external onlyOwner {\n        require(newOwner != address(0), \"Ownable: new owner is the zero address\");\n        _owner = newOwner;\n    }\n\n    function setPauseClaimingLand(bool _pauseClaimingLand) external onlyOwner {\n        isPausedClaimingLand = _pauseClaimingLand;\n    }\n\n    function setPauseClaimingRoyal(bool _isPausedClaimingRoyal) external onlyOwner {\n        isPausedClaimingRoyal = _isPausedClaimingRoyal;\n    }\n\n    function setPauseClaimingDerivative(bool _isPausedClaimingDerivative) external onlyOwner {\n        isPausedClaimingDerivative = _isPausedClaimingDerivative;\n    }\n\n    function claimLand(uint256 x, uint256 y, uint256 collectionID) external payable {\n        require(isPausedClaimingLand == false, \"land claiming is paused\");\n        require(x > collectionRectByIndex[collectionID].leftBottom.x && y > collectionRectByIndex[collectionID].leftBottom.y && x <= collectionRectByIndex[collectionID].rightTop.x && y <= collectionRectByIndex[collectionID].rightTop.y, \"not contained\");\n\n        address collectionAddress = collectionAddressByIndex[collectionID];\n        uint256 claimable;\n        if (collectionID >= 4 && collectionID <= 6) {\n            claimable = mekakeyWallets[msg.sender];\n        } else if (collectionAddress == blootAddress) {\n            if (collectionID >= 0 && collectionID <= 3) { // honorary collection ids\n                claimable = addressToMigratedHonorary[msg.sender];\n            } else {\n                ERC721 collection = ERC721(collectionAddress);\n                claimable = collection.balanceOf(msg.sender);\n                claimable -= addressToMigratedHonorary[msg.sender];\n            }\n        } else {\n            require(msg.value == 30000000000000000, \"invalid amount\"); //0.03 ETH\n            ERC721 collection = ERC721(collectionAddress);\n            claimable = collection.balanceOf(msg.sender);\n        }\n        \n        require(claimable > 0, \"Don't own any NFT in this collection\");\n        require(claimedLandOf[msg.sender][collectionID] < claimable, \"Already claimed all lands\");\n        uint256 assetID = _encodeTokenId(x, y);\n        _safeMint(msg.sender, landTokenBase + assetID);\n        _setTokenURI(landTokenBase + assetID, uint2str(landTokenBase + assetID));\n        if (collectionID == 0 || collectionID == 1 || collectionID == 2 || collectionID == 3) { // handle honorary exception\n            for (uint256 i = 0; i < 4; i++) {\n                claimedLandOf[msg.sender][i] ++;\n            }\n        } else {\n            uint256[] memory collectionIndices = collectionIndicesByAddress[collectionAddress];\n            for (uint256 i = 0; i < collectionIndices.length; i++) {\n                claimedLandOf[msg.sender][collectionIndices[i]] ++;\n            }\n        }\n    }\n\n    function landOwnerOf(uint256 tokenId) external view returns (address) {\n        ERC721 collection = ERC721(address(this));\n        try collection.ownerOf(tokenId) returns(address owner) {\n            return owner;\n        } catch Error(string memory /*reason*/) {\n            return address(0x0);\n        }\n    }\n\n    function _beforeTokenTransfer(address from, address to, uint256 tokenId) internal virtual override {\n        if (tokenId > landTokenBase) {\n            // remove its royal and derivative tokens\n            LandMetadata memory royalMetadata;\n            royalMetadata.collectionID = 0;\n            royalMetadata.tokenID = 0;\n            // free original usedRoyalToken\n            uint256 originalCollectionID = landRoyalMetadataOf[tokenId].collectionID;\n            usedRoyalToken[collectionAddressByIndex[originalCollectionID]][landRoyalMetadataOf[tokenId].tokenID] = false;\n            \n            // free royal token, derivative token\n            landRoyalMetadataOf[tokenId] = royalMetadata;\n            landDerivativeBalance[tokenId] = 0;\n            delete landDerivativeMetadataOf[tokenId];\n        }\n        super._beforeTokenTransfer(from, to, tokenId);\n    }\n\n    function updateLandRoyalMetaData(uint256 x, uint256 y, uint256 collectionIDOfRoyalMetadata, uint256 tokenID) external {\n        require(isPausedClaimingRoyal == false, \"royal claiming is paused\");\n        uint256 assetID = _encodeTokenId(x, y);\n        require(super.ownerOf(landTokenBase + assetID) == msg.sender, \"You are not the owner of this land\");\n        if (!allowMetadataForAllReserved && addressToMigratedHonorary[msg.sender] == 0 && mekakeyWallets[msg.sender] == 0) {\n            require(x > collectionRectByIndex[collectionIDOfRoyalMetadata].leftBottom.x && y > collectionRectByIndex[collectionIDOfRoyalMetadata].leftBottom.y && x <= collectionRectByIndex[collectionIDOfRoyalMetadata].rightTop.x && y <= collectionRectByIndex[collectionIDOfRoyalMetadata].rightTop.y, \"not contained\");\n        }\n        address collectionAddress = collectionAddressByIndex[collectionIDOfRoyalMetadata];\n        require(collectionIDOfRoyalMetadata >= 7, \"Invalid collection id, honorary or metakey\");\n        ERC721 collection = ERC721(collectionAddress);\n        require(collection.ownerOf(tokenID) == msg.sender, \"You are not the owner of this tokenID\");\n        require(usedRoyalToken[collectionAddress][tokenID] == false, \"This royal NFT is already used\");\n        // free original usedRoyalToken and set the new royalToken used as true\n        uint256 originalCollectionID = landRoyalMetadataOf[landTokenBase + assetID].collectionID;\n        usedRoyalToken[collectionAddressByIndex[originalCollectionID]][landRoyalMetadataOf[landTokenBase + assetID].tokenID] = false;\n        usedRoyalToken[collectionAddress][tokenID] = true;\n        //update royal metadata\n        LandMetadata memory royalMetadata;\n        royalMetadata.collectionID = collectionIDOfRoyalMetadata;\n        royalMetadata.tokenID = tokenID;\n        landRoyalMetadataOf[landTokenBase + assetID] = royalMetadata;\n        // free derivative token\n        landDerivativeBalance[landTokenBase + assetID] = 0;\n        delete landDerivativeMetadataOf[landTokenBase + assetID];\n    }\n\n    function updateLandDerivativeMetaData(uint256 x, uint256 y, address collectionAddrsOfDerMetadata, uint256 tokenID) external {\n        require(isPausedClaimingDerivative == false, \"derivative claiming is paused\");\n        uint256 assetID = _encodeTokenId(x, y);\n        require(super.ownerOf(landTokenBase + assetID) == msg.sender, \"You are not the owner of this land\");\n        require((landRoyalMetadataOf[landTokenBase + assetID].collectionID != 0 || landRoyalMetadataOf[landTokenBase + assetID].tokenID != 0), \"Need to set royal NFT first\");\n        ERC721 collection = ERC721(collectionAddrsOfDerMetadata);\n        require(collection.ownerOf(tokenID) == msg.sender, \"You are not the owner of this tokenID\");\n        LandDerivateMetadata memory derivativeMetadata;\n        derivativeMetadata.collectionAddress = collectionAddrsOfDerMetadata;\n        derivativeMetadata.tokenID = tokenID;\n        landDerivativeMetadataOf[landTokenBase + assetID].push(derivativeMetadata);\n        landDerivativeBalance[landTokenBase + assetID] ++;\n    }\n\n    function setAllowMetadataForAllReserved(bool _allowMetadataForAllReserved) external onlyOwner {\n        allowMetadataForAllReserved = _allowMetadataForAllReserved;\n    }\n\n    function getLandMetaData(uint256 collectionID, uint256 tokenID) external view returns(string memory) {\n        address collectionAddress = collectionAddressByIndex[collectionID];\n        if (collectionID < 7)\n            return \"\";\n        ERC721 collection = ERC721(collectionAddress);\n        try collection.tokenURI(tokenID) returns(string memory tokenURI) {\n            return tokenURI;\n        } catch Error(string memory /*reason*/) {\n            return \"\";\n        }\n    }\n\n    function collectionIDAt(uint256 x, uint256 y) external view returns (uint256) {\n        uint256 collectionID;\n        Rectangle memory area;\n        Point memory pt;\n        pt.x = x;\n        pt.y = y;\n        for (uint256 i = 0; i < totalCollection; i++) {\n            area = collectionRectByIndex[i];\n            if (isInsideCollectionRect(pt, area)) {\n                collectionID = i;\n                return collectionID;\n            }\n        }\n        return 100000;\n    }\n\n    function totalRoyalBalanceOf(address owner, uint256 collectionID) external view returns (uint256) {\n        if (allowMetadataForAllReserved || (collectionID < 7 && (addressToMigratedHonorary[owner] > 0 || mekakeyWallets[owner] > 0))) {\n            uint256 totalBalance = 0;\n            address lastAddress;\n            for (uint256 i = 0; i < totalCollection; i++) {\n                address collectionAddress = collectionAddressByIndex[i];\n                if (collectionAddress == lastAddress)\n                    continue;\n                lastAddress = collectionAddress;\n                if (i < 7) // honorary and metakey\n                    continue;\n                ERC721 collection = ERC721(collectionAddress);\n                totalBalance += collection.balanceOf(owner);\n            }\n            return totalBalance;\n        } else {\n            address collectionAddress = collectionAddressByIndex[collectionID];\n            ERC721 collection = ERC721(collectionAddress);\n            return collection.balanceOf(owner);\n        }\n    }\n\n    function royalTokenOfOwnerByIndex(address owner, uint256 index, uint256 collectionID) external view returns (uint256, uint256) {\n        uint256 tokenID;\n        if (allowMetadataForAllReserved || (collectionID < 7 && (addressToMigratedHonorary[owner] > 0 || mekakeyWallets[owner] > 0))) {\n            uint256 totalBalance = 0;\n            address lastAddress;\n            for (uint256 i = 0; i < totalCollection; i++) {\n                address collectionAddress = collectionAddressByIndex[i];\n                if (collectionAddress == lastAddress)\n                    continue;\n                lastAddress = collectionAddress;\n                if (i < 7)\n                    continue;\n                ERC721 collection = ERC721(collectionAddress);\n                totalBalance += collection.balanceOf(owner);\n                if (totalBalance - 1 < index)\n                    continue;\n                uint256 tokenIndex = index - (totalBalance - collection.balanceOf(owner));\n                tokenID = collection.tokenOfOwnerByIndex(owner, tokenIndex);\n                return (i, tokenID);\n            }\n        } else {\n            address collectionAddress = collectionAddressByIndex[collectionID];\n            ERC721 collection = ERC721(collectionAddress);\n            tokenID = collection.tokenOfOwnerByIndex(owner, index);\n            return (collectionID, tokenID);\n        }\n    }\n\n    function isInsideCollectionRect(Point memory point, Rectangle memory area) public pure returns(bool) {\n        if (point.x > area.leftBottom.x && point.y > area.leftBottom.y && point.x <= area.rightTop.x && point.y <= area.rightTop.y)\n            return true;\n        else\n            return false;\n    }\n\n    function setBatchCollectionRect(uint256[] calldata leftBottomX, uint256[] calldata leftBottomY, uint256[] calldata rightTopX, uint256[] calldata rightTopY, address[] calldata collectionAddress, uint256 count) external onlyOwner {\n        Rectangle memory area;\n        for (uint256 i = 0; i < count; i++) {\n            area.leftBottom.x = leftBottomX[i];\n            area.leftBottom.y = leftBottomY[i];\n\n            area.rightTop.x = rightTopX[i];\n            area.rightTop.y = rightTopY[i];\n            collectionRectByIndex[totalCollection] = area;\n            collectionAddressByIndex[totalCollection] = collectionAddress[i];\n            if (totalCollection != 0 && totalCollection != 1 && totalCollection != 2 && totalCollection != 3)\n                collectionIndicesByAddress[collectionAddress[i]].push(totalCollection);\n            totalCollection ++;\n        }\n    }\n\n    function resetBatchCollectionRect(uint256[] calldata indices, address[] calldata collectionAddress, uint256 count) external onlyOwner {\n        for (uint256 i = 0; i < count; i++) {\n            delete collectionIndicesByAddress[collectionAddressByIndex[indices[i]]];\n            collectionAddressByIndex[indices[i]] = collectionAddress[i];\n            collectionIndicesByAddress[collectionAddress[i]].push(indices[i]);\n        }\n    }\n\n    function _encodeTokenId(uint256 x, uint256 y) public pure returns (uint256) {\n        return (x - 1) * landHeight + y;\n    }\n\n    function _decodeTokenId(uint256 value) external pure returns (uint256 x, uint256 y) {\n        x = value / landHeight + 1;\n        if (value % landHeight == 0)\n            x = x - 1;        \n        y = value - (x - 1) * landHeight;\n    }\n\n    // for opensea collection \n    function setContractURI(string calldata _contractURI_) external onlyOwner() {\n        _contractURI = _contractURI_;\n    }\n\n    // for opensea collection \n    function contractURI() external view returns (string memory) {\n        return _contractURI;\n    }\n\n    function uint2str(uint _i) internal pure returns (string memory _uintAsString) {\n        if (_i == 0) {\n            return \"0\";\n        }\n        uint j = _i;\n        uint len;\n        while (j != 0) {\n            len++;\n            j /= 10;\n        }\n        bytes memory bstr = new bytes(len);\n        uint k = len - 1;\n        while (_i != 0) {\n            bstr[k--] = byte(uint8(48 + _i % 10));\n            _i /= 10;\n        }\n        return string(bstr);\n    }\n}",
  "sourcePath": "/home/razor/Downloads/BlootDerivative/contracts/MyPFPlandv3.sol",
  "compiler": {
    "name": "solc",
    "version": "0.6.5+commit.f956cc89.Emscripten.clang"
  },
  "schemaVersion": "3.4.3",
  "updatedAt": "2021-12-05T11:44:56.674Z",
  "networkType": "ethereum",
  "devdoc": {
    "methods": {
      "approve(address,uint256)": {
        "details": "See {IERC721-approve}."
      },
      "balanceOf(address)": {
        "details": "See {IERC721-balanceOf}."
      },
      "baseURI()": {
        "details": "Returns the base URI set via {_setBaseURI}. This will be automatically added as a prefix in {tokenURI} to each token's URI, or to the token ID if no specific URI is set for that token ID."
      },
      "getApproved(uint256)": {
        "details": "See {IERC721-getApproved}."
      },
      "isApprovedForAll(address,address)": {
        "details": "See {IERC721-isApprovedForAll}."
      },
      "name()": {
        "details": "See {IERC721Metadata-name}."
      },
      "ownerOf(uint256)": {
        "details": "See {IERC721-ownerOf}."
      },
      "safeTransferFrom(address,address,uint256)": {
        "details": "See {IERC721-safeTransferFrom}."
      },
      "safeTransferFrom(address,address,uint256,bytes)": {
        "details": "See {IERC721-safeTransferFrom}."
      },
      "setApprovalForAll(address,bool)": {
        "details": "See {IERC721-setApprovalForAll}."
      },
      "supportsInterface(bytes4)": {
        "details": "See {IERC165-supportsInterface}.     * Time complexity O(1), guaranteed to always use less than 30 000 gas."
      },
      "symbol()": {
        "details": "See {IERC721Metadata-symbol}."
      },
      "tokenByIndex(uint256)": {
        "details": "See {IERC721Enumerable-tokenByIndex}."
      },
      "tokenOfOwnerByIndex(address,uint256)": {
        "details": "See {IERC721Enumerable-tokenOfOwnerByIndex}."
      },
      "tokenURI(uint256)": {
        "details": "See {IERC721Metadata-tokenURI}."
      },
      "totalSupply()": {
        "details": "See {IERC721Enumerable-totalSupply}."
      },
      "transferFrom(address,address,uint256)": {
        "details": "See {IERC721-transferFrom}."
      }
    }
  },
  "userdoc": {
    "methods": {}
  }
}